{
    "_format": "hh-sol-artifact-1",
    "contractName": "DB",
    "sourceName": "contracts/nft_contract_infected.sol",
    "abi": [
        {
            "inputs": [
                {
                    "internalType": "string",
                    "name": "_tokenName",
                    "type": "string"
                },
                {
                    "internalType": "string",
                    "name": "_tokenSymbol",
                    "type": "string"
                },
                {
                    "internalType": "uint256",
                    "name": "_cost",
                    "type": "uint256"
                },
                {
                    "internalType": "uint256",
                    "name": "_maxSupply",
                    "type": "uint256"
                },
                {
                    "internalType": "uint256",
                    "name": "_whitelistSupply",
                    "type": "uint256"
                },
                {
                    "internalType": "uint256",
                    "name": "_maxMintAmountPerTx",
                    "type": "uint256"
                },
                {
                    "internalType": "string",
                    "name": "_hiddenMetadataUri",
                    "type": "string"
                },
                {
                    "internalType": "address",
                    "name": "_royaltyReceiver",
                    "type": "address"
                },
                {
                    "internalType": "uint96",
                    "name": "_royaltyNumerator",
                    "type": "uint96"
                },
                {
                    "internalType": "address",
                    "name": "_treasury",
                    "type": "address"
                },
                {
                    "internalType": "contract RaffleLaunchpad",
                    "name": "_raffleContract",
                    "type": "address"
                }
            ],
            "stateMutability": "nonpayable",
            "type": "constructor"
        },
        {
            "inputs": [],
            "name": "ApprovalCallerNotOwnerNorApproved",
            "type": "error"
        },
        {
            "inputs": [],
            "name": "ApprovalQueryForNonexistentToken",
            "type": "error"
        },
        {
            "inputs": [],
            "name": "BalanceQueryForZeroAddress",
            "type": "error"
        },
        {
            "inputs": [],
            "name": "InvalidQueryRange",
            "type": "error"
        },
        {
            "inputs": [],
            "name": "MintERC2309QuantityExceedsLimit",
            "type": "error"
        },
        {
            "inputs": [],
            "name": "MintToZeroAddress",
            "type": "error"
        },
        {
            "inputs": [],
            "name": "MintZeroQuantity",
            "type": "error"
        },
        {
            "inputs": [
                {
                    "internalType": "address",
                    "name": "operator",
                    "type": "address"
                }
            ],
            "name": "OperatorNotAllowed",
            "type": "error"
        },
        {
            "inputs": [],
            "name": "OwnerQueryForNonexistentToken",
            "type": "error"
        },
        {
            "inputs": [],
            "name": "OwnershipNotInitializedForExtraData",
            "type": "error"
        },
        {
            "inputs": [],
            "name": "TransferCallerNotOwnerNorApproved",
            "type": "error"
        },
        {
            "inputs": [],
            "name": "TransferFromIncorrectOwner",
            "type": "error"
        },
        {
            "inputs": [],
            "name": "TransferToNonERC721ReceiverImplementer",
            "type": "error"
        },
        {
            "inputs": [],
            "name": "TransferToZeroAddress",
            "type": "error"
        },
        {
            "inputs": [],
            "name": "URIQueryForNonexistentToken",
            "type": "error"
        },
        {
            "anonymous": false,
            "inputs": [
                {
                    "indexed": true,
                    "internalType": "address",
                    "name": "owner",
                    "type": "address"
                },
                {
                    "indexed": true,
                    "internalType": "address",
                    "name": "approved",
                    "type": "address"
                },
                {
                    "indexed": true,
                    "internalType": "uint256",
                    "name": "tokenId",
                    "type": "uint256"
                }
            ],
            "name": "Approval",
            "type": "event"
        },
        {
            "anonymous": false,
            "inputs": [
                {
                    "indexed": true,
                    "internalType": "address",
                    "name": "owner",
                    "type": "address"
                },
                {
                    "indexed": true,
                    "internalType": "address",
                    "name": "operator",
                    "type": "address"
                },
                {
                    "indexed": false,
                    "internalType": "bool",
                    "name": "approved",
                    "type": "bool"
                }
            ],
            "name": "ApprovalForAll",
            "type": "event"
        },
        {
            "anonymous": false,
            "inputs": [
                {
                    "indexed": true,
                    "internalType": "uint256",
                    "name": "fromTokenId",
                    "type": "uint256"
                },
                {
                    "indexed": false,
                    "internalType": "uint256",
                    "name": "toTokenId",
                    "type": "uint256"
                },
                {
                    "indexed": true,
                    "internalType": "address",
                    "name": "from",
                    "type": "address"
                },
                {
                    "indexed": true,
                    "internalType": "address",
                    "name": "to",
                    "type": "address"
                }
            ],
            "name": "ConsecutiveTransfer",
            "type": "event"
        },
        {
            "anonymous": false,
            "inputs": [
                {
                    "indexed": true,
                    "internalType": "address",
                    "name": "previousOwner",
                    "type": "address"
                },
                {
                    "indexed": true,
                    "internalType": "address",
                    "name": "newOwner",
                    "type": "address"
                }
            ],
            "name": "OwnershipTransferred",
            "type": "event"
        },
        {
            "anonymous": false,
            "inputs": [
                {
                    "indexed": true,
                    "internalType": "address",
                    "name": "from",
                    "type": "address"
                },
                {
                    "indexed": true,
                    "internalType": "address",
                    "name": "to",
                    "type": "address"
                },
                {
                    "indexed": true,
                    "internalType": "uint256",
                    "name": "tokenId",
                    "type": "uint256"
                }
            ],
            "name": "Transfer",
            "type": "event"
        },
        {
            "inputs": [],
            "name": "OG_START_TIMESTAMP",
            "outputs": [
                {
                    "internalType": "uint256",
                    "name": "",
                    "type": "uint256"
                }
            ],
            "stateMutability": "view",
            "type": "function"
        },
        {
            "inputs": [],
            "name": "OPERATOR_FILTER_REGISTRY",
            "outputs": [
                {
                    "internalType": "contract IOperatorFilterRegistry",
                    "name": "",
                    "type": "address"
                }
            ],
            "stateMutability": "view",
            "type": "function"
        },
        {
            "inputs": [],
            "name": "START_TIMESTAMP",
            "outputs": [
                {
                    "internalType": "uint256",
                    "name": "",
                    "type": "uint256"
                }
            ],
            "stateMutability": "view",
            "type": "function"
        },
        {
            "inputs": [],
            "name": "WL_END_TIMESTAMP",
            "outputs": [
                {
                    "internalType": "uint256",
                    "name": "",
                    "type": "uint256"
                }
            ],
            "stateMutability": "view",
            "type": "function"
        },
        {
            "inputs": [],
            "name": "WL_START_TIMESTAMP",
            "outputs": [
                {
                    "internalType": "uint256",
                    "name": "",
                    "type": "uint256"
                }
            ],
            "stateMutability": "view",
            "type": "function"
        },
        {
            "inputs": [
                {
                    "internalType": "address",
                    "name": "",
                    "type": "address"
                }
            ],
            "name": "alreadyMintedHolders",
            "outputs": [
                {
                    "internalType": "uint256",
                    "name": "",
                    "type": "uint256"
                }
            ],
            "stateMutability": "view",
            "type": "function"
        },
        {
            "inputs": [
                {
                    "internalType": "address",
                    "name": "",
                    "type": "address"
                }
            ],
            "name": "alreadyMintedOG",
            "outputs": [
                {
                    "internalType": "uint256",
                    "name": "",
                    "type": "uint256"
                }
            ],
            "stateMutability": "view",
            "type": "function"
        },
        {
            "inputs": [
                {
                    "internalType": "address",
                    "name": "",
                    "type": "address"
                }
            ],
            "name": "alreadyMintedWhitelist",
            "outputs": [
                {
                    "internalType": "uint256",
                    "name": "",
                    "type": "uint256"
                }
            ],
            "stateMutability": "view",
            "type": "function"
        },
        {
            "inputs": [
                {
                    "internalType": "address",
                    "name": "operator",
                    "type": "address"
                },
                {
                    "internalType": "uint256",
                    "name": "tokenId",
                    "type": "uint256"
                }
            ],
            "name": "approve",
            "outputs": [],
            "stateMutability": "payable",
            "type": "function"
        },
        {
            "inputs": [
                {
                    "internalType": "address",
                    "name": "owner",
                    "type": "address"
                }
            ],
            "name": "balanceOf",
            "outputs": [
                {
                    "internalType": "uint256",
                    "name": "",
                    "type": "uint256"
                }
            ],
            "stateMutability": "view",
            "type": "function"
        },
        {
            "inputs": [],
            "name": "cost",
            "outputs": [
                {
                    "internalType": "uint256",
                    "name": "",
                    "type": "uint256"
                }
            ],
            "stateMutability": "view",
            "type": "function"
        },
        {
            "inputs": [],
            "name": "endTimeWinnerMint",
            "outputs": [
                {
                    "internalType": "uint256",
                    "name": "",
                    "type": "uint256"
                }
            ],
            "stateMutability": "view",
            "type": "function"
        },
        {
            "inputs": [
                {
                    "internalType": "uint256",
                    "name": "tokenId",
                    "type": "uint256"
                }
            ],
            "name": "explicitOwnershipOf",
            "outputs": [
                {
                    "components": [
                        {
                            "internalType": "address",
                            "name": "addr",
                            "type": "address"
                        },
                        {
                            "internalType": "uint64",
                            "name": "startTimestamp",
                            "type": "uint64"
                        },
                        {
                            "internalType": "bool",
                            "name": "burned",
                            "type": "bool"
                        },
                        {
                            "internalType": "uint24",
                            "name": "extraData",
                            "type": "uint24"
                        }
                    ],
                    "internalType": "struct IERC721A.TokenOwnership",
                    "name": "",
                    "type": "tuple"
                }
            ],
            "stateMutability": "view",
            "type": "function"
        },
        {
            "inputs": [
                {
                    "internalType": "uint256[]",
                    "name": "tokenIds",
                    "type": "uint256[]"
                }
            ],
            "name": "explicitOwnershipsOf",
            "outputs": [
                {
                    "components": [
                        {
                            "internalType": "address",
                            "name": "addr",
                            "type": "address"
                        },
                        {
                            "internalType": "uint64",
                            "name": "startTimestamp",
                            "type": "uint64"
                        },
                        {
                            "internalType": "bool",
                            "name": "burned",
                            "type": "bool"
                        },
                        {
                            "internalType": "uint24",
                            "name": "extraData",
                            "type": "uint24"
                        }
                    ],
                    "internalType": "struct IERC721A.TokenOwnership[]",
                    "name": "",
                    "type": "tuple[]"
                }
            ],
            "stateMutability": "view",
            "type": "function"
        },
        {
            "inputs": [
                {
                    "internalType": "uint256",
                    "name": "tokenId",
                    "type": "uint256"
                }
            ],
            "name": "getApproved",
            "outputs": [
                {
                    "internalType": "address",
                    "name": "",
                    "type": "address"
                }
            ],
            "stateMutability": "view",
            "type": "function"
        },
        {
            "inputs": [],
            "name": "hiddenMetadataUri",
            "outputs": [
                {
                    "internalType": "string",
                    "name": "",
                    "type": "string"
                }
            ],
            "stateMutability": "view",
            "type": "function"
        },
        {
            "inputs": [
                {
                    "internalType": "address",
                    "name": "owner",
                    "type": "address"
                },
                {
                    "internalType": "address",
                    "name": "operator",
                    "type": "address"
                }
            ],
            "name": "isApprovedForAll",
            "outputs": [
                {
                    "internalType": "bool",
                    "name": "",
                    "type": "bool"
                }
            ],
            "stateMutability": "view",
            "type": "function"
        },
        {
            "inputs": [],
            "name": "isRaffleOver",
            "outputs": [
                {
                    "internalType": "bool",
                    "name": "",
                    "type": "bool"
                }
            ],
            "stateMutability": "view",
            "type": "function"
        },
        {
            "inputs": [],
            "name": "maxMintAmountPerTx",
            "outputs": [
                {
                    "internalType": "uint256",
                    "name": "",
                    "type": "uint256"
                }
            ],
            "stateMutability": "view",
            "type": "function"
        },
        {
            "inputs": [],
            "name": "maxSupply",
            "outputs": [
                {
                    "internalType": "uint256",
                    "name": "",
                    "type": "uint256"
                }
            ],
            "stateMutability": "view",
            "type": "function"
        },
        {
            "inputs": [],
            "name": "merkleRootHolders",
            "outputs": [
                {
                    "internalType": "bytes32",
                    "name": "",
                    "type": "bytes32"
                }
            ],
            "stateMutability": "view",
            "type": "function"
        },
        {
            "inputs": [],
            "name": "merkleRootOG",
            "outputs": [
                {
                    "internalType": "bytes32",
                    "name": "",
                    "type": "bytes32"
                }
            ],
            "stateMutability": "view",
            "type": "function"
        },
        {
            "inputs": [],
            "name": "merkleRootWhitelist",
            "outputs": [
                {
                    "internalType": "bytes32",
                    "name": "",
                    "type": "bytes32"
                }
            ],
            "stateMutability": "view",
            "type": "function"
        },
        {
            "inputs": [
                {
                    "internalType": "uint256",
                    "name": "_mintAmount",
                    "type": "uint256"
                }
            ],
            "name": "mint",
            "outputs": [],
            "stateMutability": "payable",
            "type": "function"
        },
        {
            "inputs": [
                {
                    "internalType": "uint256",
                    "name": "_mintAmount",
                    "type": "uint256"
                },
                {
                    "internalType": "address",
                    "name": "_receiver",
                    "type": "address"
                }
            ],
            "name": "mintForAddress",
            "outputs": [],
            "stateMutability": "nonpayable",
            "type": "function"
        },
        {
            "inputs": [
                {
                    "internalType": "uint256[]",
                    "name": "_mintAmount",
                    "type": "uint256[]"
                },
                {
                    "internalType": "address[]",
                    "name": "_receiver",
                    "type": "address[]"
                },
                {
                    "internalType": "uint256",
                    "name": "_totalAmount",
                    "type": "uint256"
                }
            ],
            "name": "mintForAddresses",
            "outputs": [],
            "stateMutability": "nonpayable",
            "type": "function"
        },
        {
            "inputs": [],
            "name": "name",
            "outputs": [
                {
                    "internalType": "string",
                    "name": "",
                    "type": "string"
                }
            ],
            "stateMutability": "view",
            "type": "function"
        },
        {
            "inputs": [],
            "name": "owner",
            "outputs": [
                {
                    "internalType": "address",
                    "name": "",
                    "type": "address"
                }
            ],
            "stateMutability": "view",
            "type": "function"
        },
        {
            "inputs": [
                {
                    "internalType": "uint256",
                    "name": "tokenId",
                    "type": "uint256"
                }
            ],
            "name": "ownerOf",
            "outputs": [
                {
                    "internalType": "address",
                    "name": "",
                    "type": "address"
                }
            ],
            "stateMutability": "view",
            "type": "function"
        },
        {
            "inputs": [],
            "name": "paused",
            "outputs": [
                {
                    "internalType": "bool",
                    "name": "",
                    "type": "bool"
                }
            ],
            "stateMutability": "view",
            "type": "function"
        },
        {
            "inputs": [],
            "name": "raffleContract",
            "outputs": [
                {
                    "internalType": "contract RaffleLaunchpad",
                    "name": "",
                    "type": "address"
                }
            ],
            "stateMutability": "view",
            "type": "function"
        },
        {
            "inputs": [],
            "name": "renounceOwnership",
            "outputs": [],
            "stateMutability": "nonpayable",
            "type": "function"
        },
        {
            "inputs": [],
            "name": "revealed",
            "outputs": [
                {
                    "internalType": "bool",
                    "name": "",
                    "type": "bool"
                }
            ],
            "stateMutability": "view",
            "type": "function"
        },
        {
            "inputs": [
                {
                    "internalType": "uint256",
                    "name": "tokenId",
                    "type": "uint256"
                },
                {
                    "internalType": "uint256",
                    "name": "salePrice",
                    "type": "uint256"
                }
            ],
            "name": "royaltyInfo",
            "outputs": [
                {
                    "internalType": "address",
                    "name": "",
                    "type": "address"
                },
                {
                    "internalType": "uint256",
                    "name": "",
                    "type": "uint256"
                }
            ],
            "stateMutability": "view",
            "type": "function"
        },
        {
            "inputs": [
                {
                    "internalType": "address",
                    "name": "from",
                    "type": "address"
                },
                {
                    "internalType": "address",
                    "name": "to",
                    "type": "address"
                },
                {
                    "internalType": "uint256",
                    "name": "tokenId",
                    "type": "uint256"
                }
            ],
            "name": "safeTransferFrom",
            "outputs": [],
            "stateMutability": "payable",
            "type": "function"
        },
        {
            "inputs": [
                {
                    "internalType": "address",
                    "name": "from",
                    "type": "address"
                },
                {
                    "internalType": "address",
                    "name": "to",
                    "type": "address"
                },
                {
                    "internalType": "uint256",
                    "name": "tokenId",
                    "type": "uint256"
                },
                {
                    "internalType": "bytes",
                    "name": "data",
                    "type": "bytes"
                }
            ],
            "name": "safeTransferFrom",
            "outputs": [],
            "stateMutability": "payable",
            "type": "function"
        },
        {
            "inputs": [
                {
                    "internalType": "address",
                    "name": "operator",
                    "type": "address"
                },
                {
                    "internalType": "bool",
                    "name": "approved",
                    "type": "bool"
                }
            ],
            "name": "setApprovalForAll",
            "outputs": [],
            "stateMutability": "nonpayable",
            "type": "function"
        },
        {
            "inputs": [
                {
                    "internalType": "uint256",
                    "name": "_cost",
                    "type": "uint256"
                }
            ],
            "name": "setCost",
            "outputs": [],
            "stateMutability": "nonpayable",
            "type": "function"
        },
        {
            "inputs": [
                {
                    "internalType": "address",
                    "name": "receiver",
                    "type": "address"
                },
                {
                    "internalType": "uint96",
                    "name": "feeNumerator",
                    "type": "uint96"
                }
            ],
            "name": "setDefaultRoyalty",
            "outputs": [],
            "stateMutability": "nonpayable",
            "type": "function"
        },
        {
            "inputs": [
                {
                    "internalType": "uint256",
                    "name": "_endTimeWinnerMint",
                    "type": "uint256"
                }
            ],
            "name": "setEndTimeWinnerMint",
            "outputs": [],
            "stateMutability": "nonpayable",
            "type": "function"
        },
        {
            "inputs": [
                {
                    "internalType": "string",
                    "name": "_hiddenMetadataUri",
                    "type": "string"
                }
            ],
            "name": "setHiddenMetadataUri",
            "outputs": [],
            "stateMutability": "nonpayable",
            "type": "function"
        },
        {
            "inputs": [
                {
                    "internalType": "uint256",
                    "name": "_maxMintAmountPerTx",
                    "type": "uint256"
                }
            ],
            "name": "setMaxMintAmountPerTx",
            "outputs": [],
            "stateMutability": "nonpayable",
            "type": "function"
        },
        {
            "inputs": [
                {
                    "internalType": "bytes32",
                    "name": "_merkleRootHolders",
                    "type": "bytes32"
                },
                {
                    "internalType": "bytes32",
                    "name": "_merkleRootWhitelist",
                    "type": "bytes32"
                }
            ],
            "name": "setMerkleRoot",
            "outputs": [],
            "stateMutability": "nonpayable",
            "type": "function"
        },
        {
            "inputs": [
                {
                    "internalType": "bool",
                    "name": "_state",
                    "type": "bool"
                }
            ],
            "name": "setPaused",
            "outputs": [],
            "stateMutability": "nonpayable",
            "type": "function"
        },
        {
            "inputs": [
                {
                    "internalType": "contract RaffleLaunchpad",
                    "name": "_raffleContract",
                    "type": "address"
                }
            ],
            "name": "setRaffleContract",
            "outputs": [],
            "stateMutability": "nonpayable",
            "type": "function"
        },
        {
            "inputs": [
                {
                    "internalType": "bool",
                    "name": "_state",
                    "type": "bool"
                }
            ],
            "name": "setRevealed",
            "outputs": [],
            "stateMutability": "nonpayable",
            "type": "function"
        },
        {
            "inputs": [
                {
                    "internalType": "address",
                    "name": "_wallet",
                    "type": "address"
                }
            ],
            "name": "setTreasuryWallet",
            "outputs": [],
            "stateMutability": "nonpayable",
            "type": "function"
        },
        {
            "inputs": [
                {
                    "internalType": "string",
                    "name": "_uriPrefix",
                    "type": "string"
                }
            ],
            "name": "setUriPrefix",
            "outputs": [],
            "stateMutability": "nonpayable",
            "type": "function"
        },
        {
            "inputs": [
                {
                    "internalType": "string",
                    "name": "_uriSuffix",
                    "type": "string"
                }
            ],
            "name": "setUriSuffix",
            "outputs": [],
            "stateMutability": "nonpayable",
            "type": "function"
        },
        {
            "inputs": [
                {
                    "internalType": "uint256",
                    "name": "_endTimeWinnerMint",
                    "type": "uint256"
                }
            ],
            "name": "setWinnerStructViaRaffle",
            "outputs": [],
            "stateMutability": "nonpayable",
            "type": "function"
        },
        {
            "inputs": [
                {
                    "internalType": "uint256",
                    "name": "_whitelistSupply",
                    "type": "uint256"
                }
            ],
            "name": "setwhitelistSupply",
            "outputs": [],
            "stateMutability": "nonpayable",
            "type": "function"
        },
        {
            "inputs": [
                {
                    "internalType": "bytes4",
                    "name": "interfaceId",
                    "type": "bytes4"
                }
            ],
            "name": "supportsInterface",
            "outputs": [
                {
                    "internalType": "bool",
                    "name": "",
                    "type": "bool"
                }
            ],
            "stateMutability": "view",
            "type": "function"
        },
        {
            "inputs": [],
            "name": "symbol",
            "outputs": [
                {
                    "internalType": "string",
                    "name": "",
                    "type": "string"
                }
            ],
            "stateMutability": "view",
            "type": "function"
        },
        {
            "inputs": [
                {
                    "internalType": "uint256",
                    "name": "_tokenId",
                    "type": "uint256"
                }
            ],
            "name": "tokenURI",
            "outputs": [
                {
                    "internalType": "string",
                    "name": "",
                    "type": "string"
                }
            ],
            "stateMutability": "view",
            "type": "function"
        },
        {
            "inputs": [
                {
                    "internalType": "address",
                    "name": "owner",
                    "type": "address"
                }
            ],
            "name": "tokensOfOwner",
            "outputs": [
                {
                    "internalType": "uint256[]",
                    "name": "",
                    "type": "uint256[]"
                }
            ],
            "stateMutability": "view",
            "type": "function"
        },
        {
            "inputs": [
                {
                    "internalType": "address",
                    "name": "owner",
                    "type": "address"
                },
                {
                    "internalType": "uint256",
                    "name": "start",
                    "type": "uint256"
                },
                {
                    "internalType": "uint256",
                    "name": "stop",
                    "type": "uint256"
                }
            ],
            "name": "tokensOfOwnerIn",
            "outputs": [
                {
                    "internalType": "uint256[]",
                    "name": "",
                    "type": "uint256[]"
                }
            ],
            "stateMutability": "view",
            "type": "function"
        },
        {
            "inputs": [],
            "name": "totalSupply",
            "outputs": [
                {
                    "internalType": "uint256",
                    "name": "",
                    "type": "uint256"
                }
            ],
            "stateMutability": "view",
            "type": "function"
        },
        {
            "inputs": [
                {
                    "internalType": "address",
                    "name": "from",
                    "type": "address"
                },
                {
                    "internalType": "address",
                    "name": "to",
                    "type": "address"
                },
                {
                    "internalType": "uint256",
                    "name": "tokenId",
                    "type": "uint256"
                }
            ],
            "name": "transferFrom",
            "outputs": [],
            "stateMutability": "payable",
            "type": "function"
        },
        {
            "inputs": [
                {
                    "internalType": "address",
                    "name": "newOwner",
                    "type": "address"
                }
            ],
            "name": "transferOwnership",
            "outputs": [],
            "stateMutability": "nonpayable",
            "type": "function"
        },
        {
            "inputs": [],
            "name": "uriPrefix",
            "outputs": [
                {
                    "internalType": "string",
                    "name": "",
                    "type": "string"
                }
            ],
            "stateMutability": "view",
            "type": "function"
        },
        {
            "inputs": [],
            "name": "uriSuffix",
            "outputs": [
                {
                    "internalType": "string",
                    "name": "",
                    "type": "string"
                }
            ],
            "stateMutability": "view",
            "type": "function"
        },
        {
            "inputs": [
                {
                    "internalType": "uint256",
                    "name": "_availableToMint",
                    "type": "uint256"
                },
                {
                    "internalType": "bytes32[]",
                    "name": "_merkleProof",
                    "type": "bytes32[]"
                },
                {
                    "internalType": "uint256",
                    "name": "_mintAmount",
                    "type": "uint256"
                }
            ],
            "name": "whitelistMint",
            "outputs": [],
            "stateMutability": "payable",
            "type": "function"
        },
        {
            "inputs": [],
            "name": "whitelistMinted",
            "outputs": [
                {
                    "internalType": "uint256",
                    "name": "",
                    "type": "uint256"
                }
            ],
            "stateMutability": "view",
            "type": "function"
        },
        {
            "inputs": [],
            "name": "whitelistSupply",
            "outputs": [
                {
                    "internalType": "uint256",
                    "name": "",
                    "type": "uint256"
                }
            ],
            "stateMutability": "view",
            "type": "function"
        },
        {
            "inputs": [
                {
                    "internalType": "address",
                    "name": "",
                    "type": "address"
                }
            ],
            "name": "winnerByAddress",
            "outputs": [
                {
                    "internalType": "address",
                    "name": "addressWinner",
                    "type": "address"
                },
                {
                    "internalType": "uint256",
                    "name": "numberOfWin",
                    "type": "uint256"
                },
                {
                    "internalType": "bool",
                    "name": "notMinted",
                    "type": "bool"
                }
            ],
            "stateMutability": "view",
            "type": "function"
        },
        {
            "inputs": [],
            "name": "winnerRaffleSaleMint",
            "outputs": [],
            "stateMutability": "nonpayable",
            "type": "function"
        },
        {
            "inputs": [],
            "name": "withdraw",
            "outputs": [],
            "stateMutability": "nonpayable",
            "type": "function"
        }
    ],
    "bytecode": "0x6080604052604051806020016040528060008152506012908162000024919062000a5c565b506040518060400160405280600581526020017f2e6a736f6e000000000000000000000000000000000000000000000000000000815250601390816200006b919062000a5c565b506001601a60006101000a81548160ff0219169083151502179055506000601a60016101000a81548160ff021916908315150217905550348015620000af57600080fd5b506040516200821e3803806200821e8339818101604052810190620000d5919062000dcb565b733cc6cdda760b79bafa08df41ecfa224f810dceb660018c8c8160029081620000ff919062000a5c565b50806003908162000111919062000a5c565b50620001226200044a60201b60201c565b60008190555050506200014a6200013e6200045360201b60201c565b6200045b60201b60201c565b600160098190555060006daaeb6d7670e522a718067333cd4e73ffffffffffffffffffffffffffffffffffffffff163b1115620003475780156200020d576daaeb6d7670e522a718067333cd4e73ffffffffffffffffffffffffffffffffffffffff16637d3e3dbe30846040518363ffffffff1660e01b8152600401620001d392919062000f46565b600060405180830381600087803b158015620001ee57600080fd5b505af115801562000203573d6000803e3d6000fd5b5050505062000346565b600073ffffffffffffffffffffffffffffffffffffffff168273ffffffffffffffffffffffffffffffffffffffff1614620002c7576daaeb6d7670e522a718067333cd4e73ffffffffffffffffffffffffffffffffffffffff1663a0af290330846040518363ffffffff1660e01b81526004016200028d92919062000f46565b600060405180830381600087803b158015620002a857600080fd5b505af1158015620002bd573d6000803e3d6000fd5b5050505062000345565b6daaeb6d7670e522a718067333cd4e73ffffffffffffffffffffffffffffffffffffffff16634420e486306040518263ffffffff1660e01b815260040162000310919062000f73565b600060405180830381600087803b1580156200032b57600080fd5b505af115801562000340573d6000803e3d6000fd5b505050505b5b5b50506200035a896200052160201b60201c565b876016819055508660198190555081601a60026101000a81548173ffffffffffffffffffffffffffffffffffffffff021916908373ffffffffffffffffffffffffffffffffffffffff160217905550620003ba866200053b60201b60201c565b620003cb856200055560201b60201c565b620003dd84846200057a60201b60201c565b80601c60006101000a81548173ffffffffffffffffffffffffffffffffffffffff021916908373ffffffffffffffffffffffffffffffffffffffff1602179055506000601c60146101000a81548160ff02191690831515021790555050505050505050505050506200111d565b60006001905090565b600033905090565b6000600860009054906101000a900473ffffffffffffffffffffffffffffffffffffffff16905081600860006101000a81548173ffffffffffffffffffffffffffffffffffffffff021916908373ffffffffffffffffffffffffffffffffffffffff1602179055508173ffffffffffffffffffffffffffffffffffffffff168173ffffffffffffffffffffffffffffffffffffffff167f8be0079c531659141344cd1fd0a4f28419497f9722a3daafe3b4186f6b6457e060405160405180910390a35050565b620005316200071d60201b60201c565b8060158190555050565b6200054b6200071d60201b60201c565b8060178190555050565b620005656200071d60201b60201c565b806014908162000576919062000a5c565b5050565b6200058a620007ae60201b60201c565b6bffffffffffffffffffffffff16816bffffffffffffffffffffffff161115620005eb576040517f08c379a0000000000000000000000000000000000000000000000000000000008152600401620005e29062001017565b60405180910390fd5b600073ffffffffffffffffffffffffffffffffffffffff168273ffffffffffffffffffffffffffffffffffffffff16036200065d576040517f08c379a0000000000000000000000000000000000000000000000000000000008152600401620006549062001089565b60405180910390fd5b60405180604001604052808373ffffffffffffffffffffffffffffffffffffffff168152602001826bffffffffffffffffffffffff16815250600a60008201518160000160006101000a81548173ffffffffffffffffffffffffffffffffffffffff021916908373ffffffffffffffffffffffffffffffffffffffff16021790555060208201518160000160146101000a8154816bffffffffffffffffffffffff02191690836bffffffffffffffffffffffff1602179055509050505050565b6200072d6200045360201b60201c565b73ffffffffffffffffffffffffffffffffffffffff1662000753620007b860201b60201c565b73ffffffffffffffffffffffffffffffffffffffff1614620007ac576040517f08c379a0000000000000000000000000000000000000000000000000000000008152600401620007a390620010fb565b60405180910390fd5b565b6000612710905090565b6000600860009054906101000a900473ffffffffffffffffffffffffffffffffffffffff16905090565b600081519050919050565b7f4e487b7100000000000000000000000000000000000000000000000000000000600052604160045260246000fd5b7f4e487b7100000000000000000000000000000000000000000000000000000000600052602260045260246000fd5b600060028204905060018216806200086457607f821691505b6020821081036200087a57620008796200081c565b5b50919050565b60008190508160005260206000209050919050565b60006020601f8301049050919050565b600082821b905092915050565b600060088302620008e47fffffffffffffffffffffffffffffffffffffffffffffffffffffffffffffffff82620008a5565b620008f08683620008a5565b95508019841693508086168417925050509392505050565b6000819050919050565b6000819050919050565b60006200093d62000937620009318462000908565b62000912565b62000908565b9050919050565b6000819050919050565b62000959836200091c565b62000971620009688262000944565b848454620008b2565b825550505050565b600090565b6200098862000979565b620009958184846200094e565b505050565b5b81811015620009bd57620009b16000826200097e565b6001810190506200099b565b5050565b601f82111562000a0c57620009d68162000880565b620009e18462000895565b81016020851015620009f1578190505b62000a0962000a008562000895565b8301826200099a565b50505b505050565b600082821c905092915050565b600062000a316000198460080262000a11565b1980831691505092915050565b600062000a4c838362000a1e565b9150826002028217905092915050565b62000a6782620007e2565b67ffffffffffffffff81111562000a835762000a82620007ed565b5b62000a8f82546200084b565b62000a9c828285620009c1565b600060209050601f83116001811462000ad4576000841562000abf578287015190505b62000acb858262000a3e565b86555062000b3b565b601f19841662000ae48662000880565b60005b8281101562000b0e5784890151825560018201915060208501945060208101905062000ae7565b8683101562000b2e578489015162000b2a601f89168262000a1e565b8355505b6001600288020188555050505b505050505050565b6000604051905090565b600080fd5b600080fd5b600080fd5b600080fd5b6000601f19601f8301169050919050565b62000b7d8262000b61565b810181811067ffffffffffffffff8211171562000b9f5762000b9e620007ed565b5b80604052505050565b600062000bb462000b43565b905062000bc2828262000b72565b919050565b600067ffffffffffffffff82111562000be55762000be4620007ed565b5b62000bf08262000b61565b9050602081019050919050565b60005b8381101562000c1d57808201518184015260208101905062000c00565b60008484015250505050565b600062000c4062000c3a8462000bc7565b62000ba8565b90508281526020810184848401111562000c5f5762000c5e62000b5c565b5b62000c6c84828562000bfd565b509392505050565b600082601f83011262000c8c5762000c8b62000b57565b5b815162000c9e84826020860162000c29565b91505092915050565b62000cb28162000908565b811462000cbe57600080fd5b50565b60008151905062000cd28162000ca7565b92915050565b600073ffffffffffffffffffffffffffffffffffffffff82169050919050565b600062000d058262000cd8565b9050919050565b62000d178162000cf8565b811462000d2357600080fd5b50565b60008151905062000d378162000d0c565b92915050565b60006bffffffffffffffffffffffff82169050919050565b62000d608162000d3d565b811462000d6c57600080fd5b50565b60008151905062000d808162000d55565b92915050565b600062000d938262000cf8565b9050919050565b62000da58162000d86565b811462000db157600080fd5b50565b60008151905062000dc58162000d9a565b92915050565b60008060008060008060008060008060006101608c8e03121562000df45762000df362000b4d565b5b60008c015167ffffffffffffffff81111562000e155762000e1462000b52565b5b62000e238e828f0162000c74565b9b505060208c015167ffffffffffffffff81111562000e475762000e4662000b52565b5b62000e558e828f0162000c74565b9a5050604062000e688e828f0162000cc1565b995050606062000e7b8e828f0162000cc1565b985050608062000e8e8e828f0162000cc1565b97505060a062000ea18e828f0162000cc1565b96505060c08c015167ffffffffffffffff81111562000ec55762000ec462000b52565b5b62000ed38e828f0162000c74565b95505060e062000ee68e828f0162000d26565b94505061010062000efa8e828f0162000d6f565b93505061012062000f0e8e828f0162000d26565b92505061014062000f228e828f0162000db4565b9150509295989b509295989b9093969950565b62000f408162000cf8565b82525050565b600060408201905062000f5d600083018562000f35565b62000f6c602083018462000f35565b9392505050565b600060208201905062000f8a600083018462000f35565b92915050565b600082825260208201905092915050565b7f455243323938313a20726f79616c7479206665652077696c6c2065786365656460008201527f2073616c65507269636500000000000000000000000000000000000000000000602082015250565b600062000fff602a8362000f90565b91506200100c8262000fa1565b604082019050919050565b60006020820190508181036000830152620010328162000ff0565b9050919050565b7f455243323938313a20696e76616c696420726563656976657200000000000000600082015250565b60006200107160198362000f90565b91506200107e8262001039565b602082019050919050565b60006020820190508181036000830152620010a48162001062565b9050919050565b7f4f776e61626c653a2063616c6c6572206973206e6f7420746865206f776e6572600082015250565b6000620010e360208362000f90565b9150620010f082620010ab565b602082019050919050565b600060208201905081810360008301526200111681620010d4565b9050919050565b6170f1806200112d6000396000f3fe6080604052600436106103e35760003560e01c80636714ba3911610208578063a45ba8e711610118578063cbe45f6c116100ab578063dcfd39c51161007a578063dcfd39c514610e8b578063e0a8085314610ec8578063e985e9c514610ef1578063efbd73f414610f2e578063f2fde38b14610f57576103e3565b8063cbe45f6c14610de1578063ccb98d6f14610e0c578063ceca88cb14610e35578063d5abeb0114610e60576103e3565b8063b4d97201116100e7578063b4d9720114610d20578063b88d4fde14610d4b578063c23dc68f14610d67578063c87b56dd14610da4576103e3565b8063a45ba8e714610c78578063a8602fea14610ca3578063ad6cb31914610ccc578063b071401b14610cf7576103e3565b80638990694f1161019b57806394354fd01161016a57806394354fd014610ba057806395d89b4114610bcb57806399a2557a14610bf6578063a0712d6814610c33578063a22cb46514610c4f576103e3565b80638990694f14610ae05780638da5cb5b14610b0b5780638e1f9cfe14610b3657806393034fb214610b61576103e3565b8063781cd99d116101d7578063781cd99d14610a265780637ec4a65914610a5157806382025ece14610a7a5780638462151c14610aa3576103e3565b80636714ba391461098057806370a08231146109a9578063715018a6146109e657806375edcbe0146109fd576103e3565b806333e61413116103035780634fdd43cb116102965780635c975abb116102655780635c975abb146108a65780635d5c0709146108d15780635d7916ed146108ed57806362b99ad4146109185780636352211e14610943576103e3565b80634fdd43cb146107ea57806351830227146108135780635503a0e81461083e5780635bbb217714610869576103e3565b806342842e0e116102d257806342842e0e1461073d57806344a0d68a14610759578063477a30491461078257806349418c62146107ad576103e3565b806333e61413146106a55780633cb963c7146106d05780633ccfd60b146106fb57806341f4343414610712576103e3565b806316c38b3c1161037b57806323b872dd1161034a57806323b872dd146105f75780632a55205a1461061357806332a278b91461065157806333cc9b781461067c576103e3565b806316c38b3c1461054f57806316f5bb241461057857806318160ddd1461058f57806320b6a5a8146105ba576103e3565b8063081812fc116103b7578063081812fc146104a2578063095ea7b3146104df57806313faede6146104fb57806316ba10e014610526576103e3565b806256c084146103e857806301ffc9a71461041157806304634d8d1461044e57806306fdde0314610477575b600080fd5b3480156103f457600080fd5b5061040f600480360381019061040a9190614bde565b610f80565b005b34801561041d57600080fd5b5061043860048036038101906104339190614c63565b610fcc565b6040516104459190614cab565b60405180910390f35b34801561045a57600080fd5b5061047560048036038101906104709190614d36565b610fee565b005b34801561048357600080fd5b5061048c611004565b6040516104999190614e06565b60405180910390f35b3480156104ae57600080fd5b506104c960048036038101906104c49190614e5e565b611096565b6040516104d69190614e9a565b60405180910390f35b6104f960048036038101906104f49190614eb5565b611115565b005b34801561050757600080fd5b5061051061112e565b60405161051d9190614f04565b60405180910390f35b34801561053257600080fd5b5061054d60048036038101906105489190615054565b611134565b005b34801561055b57600080fd5b50610576600480360381019061057191906150c9565b61114f565b005b34801561058457600080fd5b5061058d611174565b005b34801561059b57600080fd5b506105a46115e1565b6040516105b19190614f04565b60405180910390f35b3480156105c657600080fd5b506105e160048036038101906105dc91906150f6565b6115f8565b6040516105ee9190614f04565b60405180910390f35b610611600480360381019061060c9190615123565b611610565b005b34801561061f57600080fd5b5061063a60048036038101906106359190615176565b61165f565b6040516106489291906151b6565b60405180910390f35b34801561065d57600080fd5b50610666611849565b6040516106739190614f04565b60405180910390f35b34801561068857600080fd5b506106a3600480360381019061069e9190614e5e565b61184f565b005b3480156106b157600080fd5b506106ba611861565b6040516106c79190614f04565b60405180910390f35b3480156106dc57600080fd5b506106e5611867565b6040516106f291906151f8565b60405180910390f35b34801561070757600080fd5b5061071061186d565b005b34801561071e57600080fd5b50610727611920565b6040516107349190615272565b60405180910390f35b61075760048036038101906107529190615123565b611932565b005b34801561076557600080fd5b50610780600480360381019061077b9190614e5e565b611981565b005b34801561078e57600080fd5b50610797611993565b6040516107a49190614f04565b60405180910390f35b3480156107b957600080fd5b506107d460048036038101906107cf91906150f6565b61199b565b6040516107e19190614f04565b60405180910390f35b3480156107f657600080fd5b50610811600480360381019061080c9190615054565b6119b3565b005b34801561081f57600080fd5b506108286119ce565b6040516108359190614cab565b60405180910390f35b34801561084a57600080fd5b506108536119e1565b6040516108609190614e06565b60405180910390f35b34801561087557600080fd5b50610890600480360381019061088b91906152ed565b611a6f565b60405161089d919061549d565b60405180910390f35b3480156108b257600080fd5b506108bb611b32565b6040516108c89190614cab565b60405180910390f35b6108eb60048036038101906108e69190615515565b611b45565b005b3480156108f957600080fd5b50610902612219565b60405161090f91906155aa565b60405180910390f35b34801561092457600080fd5b5061092d61223f565b60405161093a9190614e06565b60405180910390f35b34801561094f57600080fd5b5061096a60048036038101906109659190614e5e565b6122cd565b6040516109779190614e9a565b60405180910390f35b34801561098c57600080fd5b506109a760048036038101906109a29190614e5e565b6122df565b005b3480156109b557600080fd5b506109d060048036038101906109cb91906150f6565b612748565b6040516109dd9190614f04565b60405180910390f35b3480156109f257600080fd5b506109fb612800565b005b348015610a0957600080fd5b50610a246004803603810190610a1f91906155f1565b612814565b005b348015610a3257600080fd5b50610a3b61282e565b604051610a489190614f04565b60405180910390f35b348015610a5d57600080fd5b50610a786004803603810190610a739190615054565b612836565b005b348015610a8657600080fd5b50610aa16004803603810190610a9c9190615687565b612851565b005b348015610aaf57600080fd5b50610aca6004803603810190610ac591906150f6565b6129be565b604051610ad791906157da565b60405180910390f35b348015610aec57600080fd5b50610af5612b01565b604051610b029190614f04565b60405180910390f35b348015610b1757600080fd5b50610b20612b07565b604051610b2d9190614e9a565b60405180910390f35b348015610b4257600080fd5b50610b4b612b31565b604051610b5891906151f8565b60405180910390f35b348015610b6d57600080fd5b50610b886004803603810190610b8391906150f6565b612b37565b604051610b97939291906157fc565b60405180910390f35b348015610bac57600080fd5b50610bb5612b8e565b604051610bc29190614f04565b60405180910390f35b348015610bd757600080fd5b50610be0612b94565b604051610bed9190614e06565b60405180910390f35b348015610c0257600080fd5b50610c1d6004803603810190610c189190615833565b612c26565b604051610c2a91906157da565b60405180910390f35b610c4d6004803603810190610c489190614e5e565b612e32565b005b348015610c5b57600080fd5b50610c766004803603810190610c719190615886565b612f92565b005b348015610c8457600080fd5b50610c8d612fab565b604051610c9a9190614e06565b60405180910390f35b348015610caf57600080fd5b50610cca6004803603810190610cc591906150f6565b613039565b005b348015610cd857600080fd5b50610ce1613085565b604051610cee91906151f8565b60405180910390f35b348015610d0357600080fd5b50610d1e6004803603810190610d199190614e5e565b61308b565b005b348015610d2c57600080fd5b50610d3561309d565b604051610d429190614f04565b60405180910390f35b610d656004803603810190610d609190615967565b6130a5565b005b348015610d7357600080fd5b50610d8e6004803603810190610d899190614e5e565b6130f6565b604051610d9b9190615a3f565b60405180910390f35b348015610db057600080fd5b50610dcb6004803603810190610dc69190614e5e565b613160565b604051610dd89190614e06565b60405180910390f35b348015610ded57600080fd5b50610df66132b8565b604051610e039190614f04565b60405180910390f35b348015610e1857600080fd5b50610e336004803603810190610e2e9190614e5e565b6132c0565b005b348015610e4157600080fd5b50610e4a6132d2565b604051610e579190614cab565b60405180910390f35b348015610e6c57600080fd5b50610e756132e5565b604051610e829190614f04565b60405180910390f35b348015610e9757600080fd5b50610eb26004803603810190610ead91906150f6565b6132eb565b604051610ebf9190614f04565b60405180910390f35b348015610ed457600080fd5b50610eef6004803603810190610eea91906150c9565b613303565b005b348015610efd57600080fd5b50610f186004803603810190610f139190615a5a565b613328565b604051610f259190614cab565b60405180910390f35b348015610f3a57600080fd5b50610f556004803603810190610f509190615a9a565b6133bc565b005b348015610f6357600080fd5b50610f7e6004803603810190610f7991906150f6565b61347c565b005b610f886134ff565b80601c60006101000a81548173ffffffffffffffffffffffffffffffffffffffff021916908373ffffffffffffffffffffffffffffffffffffffff16021790555050565b6000610fd78261357d565b80610fe75750610fe68261360f565b5b9050919050565b610ff66134ff565b6110008282613689565b5050565b60606002805461101390615b09565b80601f016020809104026020016040519081016040528092919081815260200182805461103f90615b09565b801561108c5780601f106110615761010080835404028352916020019161108c565b820191906000526020600020905b81548152906001019060200180831161106f57829003601f168201915b5050505050905090565b60006110a18261381e565b6110d7576040517fcf4700e400000000000000000000000000000000000000000000000000000000815260040160405180910390fd5b6006600083815260200190815260200160002060000160009054906101000a900473ffffffffffffffffffffffffffffffffffffffff169050919050565b8161111f8161387d565b611129838361397a565b505050565b60155481565b61113c6134ff565b806013908161114b9190615cdc565b5050565b6111576134ff565b80601a60006101000a81548160ff02191690831515021790555050565b3373ffffffffffffffffffffffffffffffffffffffff163273ffffffffffffffffffffffffffffffffffffffff16146111e2576040517f08c379a00000000000000000000000000000000000000000000000000000000081526004016111d990615dfa565b60405180910390fd5b6364cbcf004211611228576040517f08c379a000000000000000000000000000000000000000000000000000000000815260040161121f90615e66565b60405180910390fd5b601c60149054906101000a900460ff16611277576040517f08c379a000000000000000000000000000000000000000000000000000000000815260040161126e90615ed2565b60405180910390fd5b601d5442106112bb576040517f08c379a00000000000000000000000000000000000000000000000000000000081526004016112b290615f3e565b60405180910390fd5b3373ffffffffffffffffffffffffffffffffffffffff16601b60003373ffffffffffffffffffffffffffffffffffffffff1673ffffffffffffffffffffffffffffffffffffffff16815260200190815260200160002060000160009054906101000a900473ffffffffffffffffffffffffffffffffffffffff1673ffffffffffffffffffffffffffffffffffffffff161461138b576040517f08c379a000000000000000000000000000000000000000000000000000000000815260040161138290615faa565b60405180910390fd5b601b60003373ffffffffffffffffffffffffffffffffffffffff1673ffffffffffffffffffffffffffffffffffffffff16815260200190815260200160002060020160009054906101000a900460ff1661141a576040517f08c379a000000000000000000000000000000000000000000000000000000000815260040161141190616016565b60405180910390fd5b6000601b60003373ffffffffffffffffffffffffffffffffffffffff1673ffffffffffffffffffffffffffffffffffffffff168152602001908152602001600020600101541161149f576040517f08c379a000000000000000000000000000000000000000000000000000000000815260040161149690616082565b60405180910390fd5b601654601b60003373ffffffffffffffffffffffffffffffffffffffff1673ffffffffffffffffffffffffffffffffffffffff168152602001908152602001600020600101546114ed6115e1565b6114f791906160d1565b1115611538576040517f08c379a000000000000000000000000000000000000000000000000000000000815260040161152f90616151565b60405180910390fd5b6000601b60003373ffffffffffffffffffffffffffffffffffffffff1673ffffffffffffffffffffffffffffffffffffffff16815260200190815260200160002060020160006101000a81548160ff0219169083151502179055506115df33601b60003373ffffffffffffffffffffffffffffffffffffffff1673ffffffffffffffffffffffffffffffffffffffff16815260200190815260200160002060010154613abe565b565b60006115eb613adc565b6001546000540303905090565b60106020528060005260406000206000915090505481565b823373ffffffffffffffffffffffffffffffffffffffff168173ffffffffffffffffffffffffffffffffffffffff161461164e5761164d3361387d565b5b611659848484613ae5565b50505050565b6000806000600b60008681526020019081526020016000206040518060400160405290816000820160009054906101000a900473ffffffffffffffffffffffffffffffffffffffff1673ffffffffffffffffffffffffffffffffffffffff1673ffffffffffffffffffffffffffffffffffffffff1681526020016000820160149054906101000a90046bffffffffffffffffffffffff166bffffffffffffffffffffffff166bffffffffffffffffffffffff16815250509050600073ffffffffffffffffffffffffffffffffffffffff16816000015173ffffffffffffffffffffffffffffffffffffffff16036117f457600a6040518060400160405290816000820160009054906101000a900473ffffffffffffffffffffffffffffffffffffffff1673ffffffffffffffffffffffffffffffffffffffff1673ffffffffffffffffffffffffffffffffffffffff1681526020016000820160149054906101000a90046bffffffffffffffffffffffff166bffffffffffffffffffffffff166bffffffffffffffffffffffff168152505090505b60006117fe613e07565b6bffffffffffffffffffffffff1682602001516bffffffffffffffffffffffff168661182a9190616171565b61183491906161e2565b90508160000151819350935050509250929050565b601d5481565b6118576134ff565b80601d8190555050565b60195481565b600c5481565b6118756134ff565b61187d613e11565b6000601a60029054906101000a900473ffffffffffffffffffffffffffffffffffffffff1673ffffffffffffffffffffffffffffffffffffffff16476040516118c590616244565b60006040518083038185875af1925050503d8060008114611902576040519150601f19603f3d011682016040523d82523d6000602084013e611907565b606091505b505090508061191557600080fd5b5061191e613e60565b565b6daaeb6d7670e522a718067333cd4e81565b823373ffffffffffffffffffffffffffffffffffffffff168173ffffffffffffffffffffffffffffffffffffffff16146119705761196f3361387d565b5b61197b848484613e6a565b50505050565b6119896134ff565b8060158190555050565b6364cbb2e081565b60116020528060005260406000206000915090505481565b6119bb6134ff565b80601490816119ca9190615cdc565b5050565b601a60019054906101000a900460ff1681565b601380546119ee90615b09565b80601f0160208091040260200160405190810160405280929190818152602001828054611a1a90615b09565b8015611a675780601f10611a3c57610100808354040283529160200191611a67565b820191906000526020600020905b815481529060010190602001808311611a4a57829003601f168201915b505050505081565b6060600083839050905060008167ffffffffffffffff811115611a9557611a94614f29565b5b604051908082528060200260200182016040528015611ace57816020015b611abb614b0b565b815260200190600190039081611ab35790505b50905060005b828114611b2657611afd868683818110611af157611af0616259565b5b905060200201356130f6565b828281518110611b1057611b0f616259565b5b6020026020010181905250806001019050611ad4565b50809250505092915050565b601a60009054906101000a900460ff1681565b80600081118015611b5857506017548111155b611b97576040517f08c379a0000000000000000000000000000000000000000000000000000000008152600401611b8e906162d4565b60405180910390fd5b60165481611ba36115e1565b611bad91906160d1565b1115611bee576040517f08c379a0000000000000000000000000000000000000000000000000000000008152600401611be590616340565b60405180910390fd5b8180601554611bfd9190616171565b341015611c3f576040517f08c379a0000000000000000000000000000000000000000000000000000000008152600401611c36906163ac565b60405180910390fd5b426364ca616011158015611c5757506364cbcf004211155b611c96576040517f08c379a0000000000000000000000000000000000000000000000000000000008152600401611c8d9061643e565b60405180910390fd5b60195483601854611ca791906160d1565b1115611ce8576040517f08c379a0000000000000000000000000000000000000000000000000000000008152600401611cdf906164aa565b60405180910390fd5b60003387604051602001611cfd9291906151b6565b60405160208183030381529060405280519060200120604051602001611d2391906164eb565b6040516020818303038152906040528051906020012090506364cbb2e0421015611eca57611d95868680806020026020016040519081016040528093929190818152602001838360200280828437600081840152601f19601f82011690508083019250505050505050600c5483613e8a565b611dd4576040517f08c379a0000000000000000000000000000000000000000000000000000000008152600401611dcb90616552565b60405180910390fd5b60116000611de0613ea1565b73ffffffffffffffffffffffffffffffffffffffff1673ffffffffffffffffffffffffffffffffffffffff1681526020019081526020016000205487611e269190616572565b841115611e68576040517f08c379a0000000000000000000000000000000000000000000000000000000008152600401611e5f906165f2565b60405180910390fd5b8360116000611e75613ea1565b73ffffffffffffffffffffffffffffffffffffffff1673ffffffffffffffffffffffffffffffffffffffff1681526020019081526020016000206000828254611ebe91906160d1565b925050819055506121e6565b6364cbc0f042101561205957611f24868680806020026020016040519081016040528093929190818152602001838360200280828437600081840152601f19601f82011690508083019250505050505050600d5483613e8a565b611f63576040517f08c379a0000000000000000000000000000000000000000000000000000000008152600401611f5a90616552565b60405180910390fd5b60106000611f6f613ea1565b73ffffffffffffffffffffffffffffffffffffffff1673ffffffffffffffffffffffffffffffffffffffff1681526020019081526020016000205487611fb59190616572565b841115611ff7576040517f08c379a0000000000000000000000000000000000000000000000000000000008152600401611fee906165f2565b60405180910390fd5b8360106000612004613ea1565b73ffffffffffffffffffffffffffffffffffffffff1673ffffffffffffffffffffffffffffffffffffffff168152602001908152602001600020600082825461204d91906160d1565b925050819055506121e5565b6364cbcf004210156121e4576120b3868680806020026020016040519081016040528093929190818152602001838360200280828437600081840152601f19601f82011690508083019250505050505050600e5483613e8a565b6120f2576040517f08c379a00000000000000000000000000000000000000000000000000000000081526004016120e990616552565b60405180910390fd5b600f60006120fe613ea1565b73ffffffffffffffffffffffffffffffffffffffff1673ffffffffffffffffffffffffffffffffffffffff16815260200190815260200160002054876121449190616572565b841115612186576040517f08c379a000000000000000000000000000000000000000000000000000000000815260040161217d906165f2565b60405180910390fd5b83600f6000612193613ea1565b73ffffffffffffffffffffffffffffffffffffffff1673ffffffffffffffffffffffffffffffffffffffff16815260200190815260200160002060008282546121dc91906160d1565b925050819055505b5b5b83601860008282546121f891906160d1565b9250508190555061221061220a613ea1565b85613abe565b50505050505050565b601c60009054906101000a900473ffffffffffffffffffffffffffffffffffffffff1681565b6012805461224c90615b09565b80601f016020809104026020016040519081016040528092919081815260200182805461227890615b09565b80156122c55780601f1061229a576101008083540402835291602001916122c5565b820191906000526020600020905b8154815290600101906020018083116122a857829003601f168201915b505050505081565b60006122d882613ea9565b9050919050565b6122e76134ff565b804210612329576040517f08c379a00000000000000000000000000000000000000000000000000000000081526004016123209061665e565b60405180910390fd5b601c60009054906101000a900473ffffffffffffffffffffffffffffffffffffffff1673ffffffffffffffffffffffffffffffffffffffff1663e433a5846040518163ffffffff1660e01b8152600401602060405180830381865afa158015612396573d6000803e3d6000fd5b505050506040513d601f19601f820116820180604052508101906123ba9190616693565b6123f9576040517f08c379a00000000000000000000000000000000000000000000000000000000081526004016123f09061670c565b60405180910390fd5b6000601c60009054906101000a900473ffffffffffffffffffffffffffffffffffffffff1673ffffffffffffffffffffffffffffffffffffffff1663df15c37e6040518163ffffffff1660e01b8152600401600060405180830381865afa158015612468573d6000803e3d6000fd5b505050506040513d6000823e3d601f19601f820116820180604052508101906124919190616804565b51116124d2576040517f08c379a00000000000000000000000000000000000000000000000000000000081526004016124c9906168bf565b60405180910390fd5b80601d819055506001601c60146101000a81548160ff0219169083151502179055506000601c60009054906101000a900473ffffffffffffffffffffffffffffffffffffffff1673ffffffffffffffffffffffffffffffffffffffff166329c983ec6040518163ffffffff1660e01b8152600401600060405180830381865afa158015612563573d6000803e3d6000fd5b505050506040513d6000823e3d601f19601f8201168201806040525081019061258c9190616a5c565b905060005b8151811015612743578181815181106125ad576125ac616259565b5b60200260200101516080015180156125e3575060008282815181106125d5576125d4616259565b5b602002602001015160600151115b15612730576000604051806060016040528084848151811061260857612607616259565b5b60200260200101516020015173ffffffffffffffffffffffffffffffffffffffff16815260200184848151811061264257612641616259565b5b602002602001015160600151815260200160011515815250905080601b600085858151811061267457612673616259565b5b60200260200101516020015173ffffffffffffffffffffffffffffffffffffffff1673ffffffffffffffffffffffffffffffffffffffff16815260200190815260200160002060008201518160000160006101000a81548173ffffffffffffffffffffffffffffffffffffffff021916908373ffffffffffffffffffffffffffffffffffffffff1602179055506020820151816001015560408201518160020160006101000a81548160ff021916908315150217905550905050505b808061273b90616aa5565b915050612591565b505050565b60008073ffffffffffffffffffffffffffffffffffffffff168273ffffffffffffffffffffffffffffffffffffffff16036127af576040517f8f4eb60400000000000000000000000000000000000000000000000000000000815260040160405180910390fd5b67ffffffffffffffff600560008473ffffffffffffffffffffffffffffffffffffffff1673ffffffffffffffffffffffffffffffffffffffff16815260200190815260200160002054169050919050565b6128086134ff565b6128126000613f75565b565b61281c6134ff565b81600c8190555080600e819055505050565b6364ca616081565b61283e6134ff565b806012908161284d9190615cdc565b5050565b8060008111801561286457506017548111155b6128a3576040517f08c379a000000000000000000000000000000000000000000000000000000000815260040161289a906162d4565b60405180910390fd5b601654816128af6115e1565b6128b991906160d1565b11156128fa576040517f08c379a00000000000000000000000000000000000000000000000000000000081526004016128f190616340565b60405180910390fd5b6129026134ff565b83839050868690501461294a576040517f08c379a000000000000000000000000000000000000000000000000000000000815260040161294190616b39565b60405180910390fd5b60005b868690508110156129b5576129a285858381811061296e5761296d616259565b5b905060200201602081019061298391906150f6565b88888481811061299657612995616259565b5b90506020020135613abe565b80806129ad90616aa5565b91505061294d565b50505050505050565b606060008060006129ce85612748565b905060008167ffffffffffffffff8111156129ec576129eb614f29565b5b604051908082528060200260200182016040528015612a1a5781602001602082028036833780820191505090505b509050612a25614b0b565b6000612a2f613adc565b90505b838614612af357612a428161403b565b91508160400151612ae857600073ffffffffffffffffffffffffffffffffffffffff16826000015173ffffffffffffffffffffffffffffffffffffffff1614612a8d57816000015194505b8773ffffffffffffffffffffffffffffffffffffffff168573ffffffffffffffffffffffffffffffffffffffff1603612ae75780838780600101985081518110612ada57612ad9616259565b5b6020026020010181815250505b5b806001019050612a32565b508195505050505050919050565b60185481565b6000600860009054906101000a900473ffffffffffffffffffffffffffffffffffffffff16905090565b600e5481565b601b6020528060005260406000206000915090508060000160009054906101000a900473ffffffffffffffffffffffffffffffffffffffff16908060010154908060020160009054906101000a900460ff16905083565b60175481565b606060038054612ba390615b09565b80601f0160208091040260200160405190810160405280929190818152602001828054612bcf90615b09565b8015612c1c5780601f10612bf157610100808354040283529160200191612c1c565b820191906000526020600020905b815481529060010190602001808311612bff57829003601f168201915b5050505050905090565b6060818310612c61576040517f32c1995a00000000000000000000000000000000000000000000000000000000815260040160405180910390fd5b600080612c6c614066565b9050612c76613adc565b851015612c8857612c85613adc565b94505b80841115612c94578093505b6000612c9f87612748565b905084861015612cc2576000868603905081811015612cbc578091505b50612cc7565b600090505b60008167ffffffffffffffff811115612ce357612ce2614f29565b5b604051908082528060200260200182016040528015612d115781602001602082028036833780820191505090505b50905060008203612d285780945050505050612e2b565b6000612d33886130f6565b905060008160400151612d4857816000015190505b60008990505b888114158015612d5e5750848714155b15612e1d57612d6c8161403b565b92508260400151612e1257600073ffffffffffffffffffffffffffffffffffffffff16836000015173ffffffffffffffffffffffffffffffffffffffff1614612db757826000015191505b8a73ffffffffffffffffffffffffffffffffffffffff168273ffffffffffffffffffffffffffffffffffffffff1603612e115780848880600101995081518110612e0457612e03616259565b5b6020026020010181815250505b5b806001019050612d4e565b508583528296505050505050505b9392505050565b80600081118015612e4557506017548111155b612e84576040517f08c379a0000000000000000000000000000000000000000000000000000000008152600401612e7b906162d4565b60405180910390fd5b60165481612e906115e1565b612e9a91906160d1565b1115612edb576040517f08c379a0000000000000000000000000000000000000000000000000000000008152600401612ed290616340565b60405180910390fd5b8180601554612eea9190616171565b341015612f2c576040517f08c379a0000000000000000000000000000000000000000000000000000000008152600401612f23906163ac565b60405180910390fd5b601a60009054906101000a900460ff1615612f7c576040517f08c379a0000000000000000000000000000000000000000000000000000000008152600401612f7390616ba5565b60405180910390fd5b612f8d612f87613ea1565b84613abe565b505050565b81612f9c8161387d565b612fa6838361406f565b505050565b60148054612fb890615b09565b80601f0160208091040260200160405190810160405280929190818152602001828054612fe490615b09565b80156130315780601f1061300657610100808354040283529160200191613031565b820191906000526020600020905b81548152906001019060200180831161301457829003601f168201915b505050505081565b6130416134ff565b80601a60026101000a81548173ffffffffffffffffffffffffffffffffffffffff021916908373ffffffffffffffffffffffffffffffffffffffff16021790555050565b600d5481565b6130936134ff565b8060178190555050565b6364cbcf0081565b833373ffffffffffffffffffffffffffffffffffffffff168173ffffffffffffffffffffffffffffffffffffffff16146130e3576130e23361387d565b5b6130ef8585858561417a565b5050505050565b6130fe614b0b565b613106614b0b565b61310e613adc565b831080613122575061311e614066565b8310155b15613130578091505061315b565b6131398361403b565b905080604001511561314e578091505061315b565b613157836141ed565b9150505b919050565b606061316b8261381e565b6131aa576040517f08c379a00000000000000000000000000000000000000000000000000000000081526004016131a190616c37565b60405180910390fd5b60001515601a60019054906101000a900460ff1615150361325757601480546131d290615b09565b80601f01602080910402602001604051908101604052809291908181526020018280546131fe90615b09565b801561324b5780601f106132205761010080835404028352916020019161324b565b820191906000526020600020905b81548152906001019060200180831161322e57829003601f168201915b505050505090506132b3565b600061326161420d565b9050600081511161328157604051806020016040528060008152506132af565b8061328b8461429f565b601360405160200161329f93929190616d16565b6040516020818303038152906040525b9150505b919050565b6364cbc0f081565b6132c86134ff565b8060198190555050565b601c60149054906101000a900460ff1681565b60165481565b600f6020528060005260406000206000915090505481565b61330b6134ff565b80601a60016101000a81548160ff02191690831515021790555050565b6000600760008473ffffffffffffffffffffffffffffffffffffffff1673ffffffffffffffffffffffffffffffffffffffff16815260200190815260200160002060008373ffffffffffffffffffffffffffffffffffffffff1673ffffffffffffffffffffffffffffffffffffffff16815260200190815260200160002060009054906101000a900460ff16905092915050565b816000811180156133cf57506017548111155b61340e576040517f08c379a0000000000000000000000000000000000000000000000000000000008152600401613405906162d4565b60405180910390fd5b6016548161341a6115e1565b61342491906160d1565b1115613465576040517f08c379a000000000000000000000000000000000000000000000000000000000815260040161345c90616340565b60405180910390fd5b61346d6134ff565b6134778284613abe565b505050565b6134846134ff565b600073ffffffffffffffffffffffffffffffffffffffff168173ffffffffffffffffffffffffffffffffffffffff16036134f3576040517f08c379a00000000000000000000000000000000000000000000000000000000081526004016134ea90616db9565b60405180910390fd5b6134fc81613f75565b50565b613507613ea1565b73ffffffffffffffffffffffffffffffffffffffff16613525612b07565b73ffffffffffffffffffffffffffffffffffffffff161461357b576040517f08c379a000000000000000000000000000000000000000000000000000000000815260040161357290616e25565b60405180910390fd5b565b60006301ffc9a760e01b827bffffffffffffffffffffffffffffffffffffffffffffffffffffffff191614806135d857506380ac58cd60e01b827bffffffffffffffffffffffffffffffffffffffffffffffffffffffff1916145b806136085750635b5e139f60e01b827bffffffffffffffffffffffffffffffffffffffffffffffffffffffff1916145b9050919050565b60007f2a55205a000000000000000000000000000000000000000000000000000000007bffffffffffffffffffffffffffffffffffffffffffffffffffffffff1916827bffffffffffffffffffffffffffffffffffffffffffffffffffffffff1916148061368257506136818261436d565b5b9050919050565b613691613e07565b6bffffffffffffffffffffffff16816bffffffffffffffffffffffff1611156136ef576040517f08c379a00000000000000000000000000000000000000000000000000000000081526004016136e690616eb7565b60405180910390fd5b600073ffffffffffffffffffffffffffffffffffffffff168273ffffffffffffffffffffffffffffffffffffffff160361375e576040517f08c379a000000000000000000000000000000000000000000000000000000000815260040161375590616f23565b60405180910390fd5b60405180604001604052808373ffffffffffffffffffffffffffffffffffffffff168152602001826bffffffffffffffffffffffff16815250600a60008201518160000160006101000a81548173ffffffffffffffffffffffffffffffffffffffff021916908373ffffffffffffffffffffffffffffffffffffffff16021790555060208201518160000160146101000a8154816bffffffffffffffffffffffff02191690836bffffffffffffffffffffffff1602179055509050505050565b600081613829613adc565b11158015613838575060005482105b8015613876575060007c0100000000000000000000000000000000000000000000000000000000600460008581526020019081526020016000205416145b9050919050565b60006daaeb6d7670e522a718067333cd4e73ffffffffffffffffffffffffffffffffffffffff163b1115613977576daaeb6d7670e522a718067333cd4e73ffffffffffffffffffffffffffffffffffffffff1663c617113430836040518363ffffffff1660e01b81526004016138f4929190616f43565b602060405180830381865afa158015613911573d6000803e3d6000fd5b505050506040513d601f19601f820116820180604052508101906139359190616693565b61397657806040517fede71dcc00000000000000000000000000000000000000000000000000000000815260040161396d9190614e9a565b60405180910390fd5b5b50565b6000613985826122cd565b90508073ffffffffffffffffffffffffffffffffffffffff166139a66143d7565b73ffffffffffffffffffffffffffffffffffffffff1614613a09576139d2816139cd6143d7565b613328565b613a08576040517fcfb3b94200000000000000000000000000000000000000000000000000000000815260040160405180910390fd5b5b826006600084815260200190815260200160002060000160006101000a81548173ffffffffffffffffffffffffffffffffffffffff021916908373ffffffffffffffffffffffffffffffffffffffff160217905550818373ffffffffffffffffffffffffffffffffffffffff168273ffffffffffffffffffffffffffffffffffffffff167f8c5be1e5ebec7d5bd14f71427d1e84f3dd0314c0f7b2291e5b200ac8c7c3b92560405160405180910390a4505050565b613ad88282604051806020016040528060008152506143df565b5050565b60006001905090565b6000613af082613ea9565b90508373ffffffffffffffffffffffffffffffffffffffff168173ffffffffffffffffffffffffffffffffffffffff1614613b57576040517fa114810000000000000000000000000000000000000000000000000000000000815260040160405180910390fd5b600080613b638461447c565b91509150613b798187613b746143d7565b6144a3565b613bc557613b8e86613b896143d7565b613328565b613bc4576040517f59c896be00000000000000000000000000000000000000000000000000000000815260040160405180910390fd5b5b600073ffffffffffffffffffffffffffffffffffffffff168573ffffffffffffffffffffffffffffffffffffffff1603613c2b576040517fea553b3400000000000000000000000000000000000000000000000000000000815260040160405180910390fd5b613c3886868660016144e7565b8015613c4357600082555b600560008773ffffffffffffffffffffffffffffffffffffffff1673ffffffffffffffffffffffffffffffffffffffff168152602001908152602001600020600081546001900391905081905550600560008673ffffffffffffffffffffffffffffffffffffffff1673ffffffffffffffffffffffffffffffffffffffff1681526020019081526020016000206000815460010191905081905550613d1185613ced8888876144ed565b7c020000000000000000000000000000000000000000000000000000000017614515565b600460008681526020019081526020016000208190555060007c0200000000000000000000000000000000000000000000000000000000841603613d975760006001850190506000600460008381526020019081526020016000205403613d95576000548114613d94578360046000838152602001908152602001600020819055505b5b505b838573ffffffffffffffffffffffffffffffffffffffff168773ffffffffffffffffffffffffffffffffffffffff167fddf252ad1be2c89b69c2b068fc378daa952ba7f163c4a11628f55a4df523b3ef60405160405180910390a4613dff8686866001614540565b505050505050565b6000612710905090565b600260095403613e56576040517f08c379a0000000000000000000000000000000000000000000000000000000008152600401613e4d90616fb8565b60405180910390fd5b6002600981905550565b6001600981905550565b613e85838383604051806020016040528060008152506130a5565b505050565b600082613e978584614546565b1490509392505050565b600033905090565b60008082905080613eb8613adc565b11613f3e57600054811015613f3d5760006004600083815260200190815260200160002054905060007c0100000000000000000000000000000000000000000000000000000000821603613f3b575b60008103613f31576004600083600190039350838152602001908152602001600020549050613f07565b8092505050613f70565b505b5b6040517fdf2d9b4200000000000000000000000000000000000000000000000000000000815260040160405180910390fd5b919050565b6000600860009054906101000a900473ffffffffffffffffffffffffffffffffffffffff16905081600860006101000a81548173ffffffffffffffffffffffffffffffffffffffff021916908373ffffffffffffffffffffffffffffffffffffffff1602179055508173ffffffffffffffffffffffffffffffffffffffff168173ffffffffffffffffffffffffffffffffffffffff167f8be0079c531659141344cd1fd0a4f28419497f9722a3daafe3b4186f6b6457e060405160405180910390a35050565b614043614b0b565b61405f600460008481526020019081526020016000205461459c565b9050919050565b60008054905090565b806007600061407c6143d7565b73ffffffffffffffffffffffffffffffffffffffff1673ffffffffffffffffffffffffffffffffffffffff16815260200190815260200160002060008473ffffffffffffffffffffffffffffffffffffffff1673ffffffffffffffffffffffffffffffffffffffff16815260200190815260200160002060006101000a81548160ff0219169083151502179055508173ffffffffffffffffffffffffffffffffffffffff166141296143d7565b73ffffffffffffffffffffffffffffffffffffffff167f17307eab39ab6107e8899845ad3d59bd9653f200f220920489ca2b5937696c318360405161416e9190614cab565b60405180910390a35050565b614185848484611610565b60008373ffffffffffffffffffffffffffffffffffffffff163b146141e7576141b084848484614652565b6141e6576040517fd1a57ed600000000000000000000000000000000000000000000000000000000815260040160405180910390fd5b5b50505050565b6141f5614b0b565b61420661420183613ea9565b61459c565b9050919050565b60606012805461421c90615b09565b80601f016020809104026020016040519081016040528092919081815260200182805461424890615b09565b80156142955780601f1061426a57610100808354040283529160200191614295565b820191906000526020600020905b81548152906001019060200180831161427857829003601f168201915b5050505050905090565b6060600060016142ae846147a2565b01905060008167ffffffffffffffff8111156142cd576142cc614f29565b5b6040519080825280601f01601f1916602001820160405280156142ff5781602001600182028036833780820191505090505b509050600082602001820190505b600115614362578080600190039150507f3031323334353637383961626364656600000000000000000000000000000000600a86061a8153600a8581614356576143556161b3565b5b0494506000850361430d575b819350505050919050565b60007f01ffc9a7000000000000000000000000000000000000000000000000000000007bffffffffffffffffffffffffffffffffffffffffffffffffffffffff1916827bffffffffffffffffffffffffffffffffffffffffffffffffffffffff1916149050919050565b600033905090565b6143e983836148f5565b60008373ffffffffffffffffffffffffffffffffffffffff163b1461447757600080549050600083820390505b6144296000868380600101945086614652565b61445f576040517fd1a57ed600000000000000000000000000000000000000000000000000000000815260040160405180910390fd5b81811061441657816000541461447457600080fd5b50505b505050565b60008060006006600085815260200190815260200160002090508092508254915050915091565b600073ffffffffffffffffffffffffffffffffffffffff8316925073ffffffffffffffffffffffffffffffffffffffff821691508382148383141790509392505050565b50505050565b60008060e883901c905060e8614504868684614ab0565b62ffffff16901b9150509392505050565b600073ffffffffffffffffffffffffffffffffffffffff83169250814260a01b178317905092915050565b50505050565b60008082905060005b84518110156145915761457c8286838151811061456f5761456e616259565b5b6020026020010151614ab9565b9150808061458990616aa5565b91505061454f565b508091505092915050565b6145a4614b0b565b81816000019073ffffffffffffffffffffffffffffffffffffffff16908173ffffffffffffffffffffffffffffffffffffffff168152505060a082901c816020019067ffffffffffffffff16908167ffffffffffffffff168152505060007c01000000000000000000000000000000000000000000000000000000008316141581604001901515908115158152505060e882901c816060019062ffffff16908162ffffff1681525050919050565b60008373ffffffffffffffffffffffffffffffffffffffff1663150b7a026146786143d7565b8786866040518563ffffffff1660e01b815260040161469a949392919061702d565b6020604051808303816000875af19250505080156146d657506040513d601f19601f820116820180604052508101906146d3919061708e565b60015b61474f573d8060008114614706576040519150601f19603f3d011682016040523d82523d6000602084013e61470b565b606091505b506000815103614747576040517fd1a57ed600000000000000000000000000000000000000000000000000000000815260040160405180910390fd5b805181602001fd5b63150b7a0260e01b7bffffffffffffffffffffffffffffffffffffffffffffffffffffffff1916817bffffffffffffffffffffffffffffffffffffffffffffffffffffffff191614915050949350505050565b600080600090507a184f03e93ff9f4daa797ed6e38ed64bf6a1f0100000000000000008310614800577a184f03e93ff9f4daa797ed6e38ed64bf6a1f01000000000000000083816147f6576147f56161b3565b5b0492506040810190505b6d04ee2d6d415b85acef8100000000831061483d576d04ee2d6d415b85acef81000000008381614833576148326161b3565b5b0492506020810190505b662386f26fc10000831061486c57662386f26fc100008381614862576148616161b3565b5b0492506010810190505b6305f5e1008310614895576305f5e100838161488b5761488a6161b3565b5b0492506008810190505b61271083106148ba5761271083816148b0576148af6161b3565b5b0492506004810190505b606483106148dd57606483816148d3576148d26161b3565b5b0492506002810190505b600a83106148ec576001810190505b80915050919050565b60008054905060008203614935576040517fb562e8dd00000000000000000000000000000000000000000000000000000000815260040160405180910390fd5b61494260008483856144e7565b600160406001901b178202600560008573ffffffffffffffffffffffffffffffffffffffff1673ffffffffffffffffffffffffffffffffffffffff168152602001908152602001600020600082825401925050819055506149b9836149aa60008660006144ed565b6149b385614ae4565b17614515565b6004600083815260200190815260200160002081905550600080838301905073ffffffffffffffffffffffffffffffffffffffff85169150828260007fddf252ad1be2c89b69c2b068fc378daa952ba7f163c4a11628f55a4df523b3ef600080a4600183015b818114614a5a57808360007fddf252ad1be2c89b69c2b068fc378daa952ba7f163c4a11628f55a4df523b3ef600080a4600181019050614a1f565b5060008203614a95576040517f2e07630000000000000000000000000000000000000000000000000000000000815260040160405180910390fd5b806000819055505050614aab6000848385614540565b505050565b60009392505050565b6000818310614ad157614acc8284614af4565b614adc565b614adb8383614af4565b5b905092915050565b60006001821460e11b9050919050565b600082600052816020526040600020905092915050565b6040518060800160405280600073ffffffffffffffffffffffffffffffffffffffff168152602001600067ffffffffffffffff168152602001600015158152602001600062ffffff1681525090565b6000604051905090565b600080fd5b600080fd5b600073ffffffffffffffffffffffffffffffffffffffff82169050919050565b6000614b9982614b6e565b9050919050565b6000614bab82614b8e565b9050919050565b614bbb81614ba0565b8114614bc657600080fd5b50565b600081359050614bd881614bb2565b92915050565b600060208284031215614bf457614bf3614b64565b5b6000614c0284828501614bc9565b91505092915050565b60007fffffffff0000000000000000000000000000000000000000000000000000000082169050919050565b614c4081614c0b565b8114614c4b57600080fd5b50565b600081359050614c5d81614c37565b92915050565b600060208284031215614c7957614c78614b64565b5b6000614c8784828501614c4e565b91505092915050565b60008115159050919050565b614ca581614c90565b82525050565b6000602082019050614cc06000830184614c9c565b92915050565b614ccf81614b8e565b8114614cda57600080fd5b50565b600081359050614cec81614cc6565b92915050565b60006bffffffffffffffffffffffff82169050919050565b614d1381614cf2565b8114614d1e57600080fd5b50565b600081359050614d3081614d0a565b92915050565b60008060408385031215614d4d57614d4c614b64565b5b6000614d5b85828601614cdd565b9250506020614d6c85828601614d21565b9150509250929050565b600081519050919050565b600082825260208201905092915050565b60005b83811015614db0578082015181840152602081019050614d95565b60008484015250505050565b6000601f19601f8301169050919050565b6000614dd882614d76565b614de28185614d81565b9350614df2818560208601614d92565b614dfb81614dbc565b840191505092915050565b60006020820190508181036000830152614e208184614dcd565b905092915050565b6000819050919050565b614e3b81614e28565b8114614e4657600080fd5b50565b600081359050614e5881614e32565b92915050565b600060208284031215614e7457614e73614b64565b5b6000614e8284828501614e49565b91505092915050565b614e9481614b8e565b82525050565b6000602082019050614eaf6000830184614e8b565b92915050565b60008060408385031215614ecc57614ecb614b64565b5b6000614eda85828601614cdd565b9250506020614eeb85828601614e49565b9150509250929050565b614efe81614e28565b82525050565b6000602082019050614f196000830184614ef5565b92915050565b600080fd5b600080fd5b7f4e487b7100000000000000000000000000000000000000000000000000000000600052604160045260246000fd5b614f6182614dbc565b810181811067ffffffffffffffff82111715614f8057614f7f614f29565b5b80604052505050565b6000614f93614b5a565b9050614f9f8282614f58565b919050565b600067ffffffffffffffff821115614fbf57614fbe614f29565b5b614fc882614dbc565b9050602081019050919050565b82818337600083830152505050565b6000614ff7614ff284614fa4565b614f89565b90508281526020810184848401111561501357615012614f24565b5b61501e848285614fd5565b509392505050565b600082601f83011261503b5761503a614f1f565b5b813561504b848260208601614fe4565b91505092915050565b60006020828403121561506a57615069614b64565b5b600082013567ffffffffffffffff81111561508857615087614b69565b5b61509484828501615026565b91505092915050565b6150a681614c90565b81146150b157600080fd5b50565b6000813590506150c38161509d565b92915050565b6000602082840312156150df576150de614b64565b5b60006150ed848285016150b4565b91505092915050565b60006020828403121561510c5761510b614b64565b5b600061511a84828501614cdd565b91505092915050565b60008060006060848603121561513c5761513b614b64565b5b600061514a86828701614cdd565b935050602061515b86828701614cdd565b925050604061516c86828701614e49565b9150509250925092565b6000806040838503121561518d5761518c614b64565b5b600061519b85828601614e49565b92505060206151ac85828601614e49565b9150509250929050565b60006040820190506151cb6000830185614e8b565b6151d86020830184614ef5565b9392505050565b6000819050919050565b6151f2816151df565b82525050565b600060208201905061520d60008301846151e9565b92915050565b6000819050919050565b600061523861523361522e84614b6e565b615213565b614b6e565b9050919050565b600061524a8261521d565b9050919050565b600061525c8261523f565b9050919050565b61526c81615251565b82525050565b60006020820190506152876000830184615263565b92915050565b600080fd5b600080fd5b60008083601f8401126152ad576152ac614f1f565b5b8235905067ffffffffffffffff8111156152ca576152c961528d565b5b6020830191508360208202830111156152e6576152e5615292565b5b9250929050565b6000806020838503121561530457615303614b64565b5b600083013567ffffffffffffffff81111561532257615321614b69565b5b61532e85828601615297565b92509250509250929050565b600081519050919050565b600082825260208201905092915050565b6000819050602082019050919050565b61536f81614b8e565b82525050565b600067ffffffffffffffff82169050919050565b61539281615375565b82525050565b6153a181614c90565b82525050565b600062ffffff82169050919050565b6153bf816153a7565b82525050565b6080820160008201516153db6000850182615366565b5060208201516153ee6020850182615389565b5060408201516154016040850182615398565b50606082015161541460608501826153b6565b50505050565b600061542683836153c5565b60808301905092915050565b6000602082019050919050565b600061544a8261533a565b6154548185615345565b935061545f83615356565b8060005b83811015615490578151615477888261541a565b975061548283615432565b925050600181019050615463565b5085935050505092915050565b600060208201905081810360008301526154b7818461543f565b905092915050565b60008083601f8401126154d5576154d4614f1f565b5b8235905067ffffffffffffffff8111156154f2576154f161528d565b5b60208301915083602082028301111561550e5761550d615292565b5b9250929050565b6000806000806060858703121561552f5761552e614b64565b5b600061553d87828801614e49565b945050602085013567ffffffffffffffff81111561555e5761555d614b69565b5b61556a878288016154bf565b9350935050604061557d87828801614e49565b91505092959194509250565b60006155948261523f565b9050919050565b6155a481615589565b82525050565b60006020820190506155bf600083018461559b565b92915050565b6155ce816151df565b81146155d957600080fd5b50565b6000813590506155eb816155c5565b92915050565b6000806040838503121561560857615607614b64565b5b6000615616858286016155dc565b9250506020615627858286016155dc565b9150509250929050565b60008083601f84011261564757615646614f1f565b5b8235905067ffffffffffffffff8111156156645761566361528d565b5b6020830191508360208202830111156156805761567f615292565b5b9250929050565b6000806000806000606086880312156156a3576156a2614b64565b5b600086013567ffffffffffffffff8111156156c1576156c0614b69565b5b6156cd88828901615297565b9550955050602086013567ffffffffffffffff8111156156f0576156ef614b69565b5b6156fc88828901615631565b9350935050604061570f88828901614e49565b9150509295509295909350565b600081519050919050565b600082825260208201905092915050565b6000819050602082019050919050565b61575181614e28565b82525050565b60006157638383615748565b60208301905092915050565b6000602082019050919050565b60006157878261571c565b6157918185615727565b935061579c83615738565b8060005b838110156157cd5781516157b48882615757565b97506157bf8361576f565b9250506001810190506157a0565b5085935050505092915050565b600060208201905081810360008301526157f4818461577c565b905092915050565b60006060820190506158116000830186614e8b565b61581e6020830185614ef5565b61582b6040830184614c9c565b949350505050565b60008060006060848603121561584c5761584b614b64565b5b600061585a86828701614cdd565b935050602061586b86828701614e49565b925050604061587c86828701614e49565b9150509250925092565b6000806040838503121561589d5761589c614b64565b5b60006158ab85828601614cdd565b92505060206158bc858286016150b4565b9150509250929050565b600067ffffffffffffffff8211156158e1576158e0614f29565b5b6158ea82614dbc565b9050602081019050919050565b600061590a615905846158c6565b614f89565b90508281526020810184848401111561592657615925614f24565b5b615931848285614fd5565b509392505050565b600082601f83011261594e5761594d614f1f565b5b813561595e8482602086016158f7565b91505092915050565b6000806000806080858703121561598157615980614b64565b5b600061598f87828801614cdd565b94505060206159a087828801614cdd565b93505060406159b187828801614e49565b925050606085013567ffffffffffffffff8111156159d2576159d1614b69565b5b6159de87828801615939565b91505092959194509250565b608082016000820151615a006000850182615366565b506020820151615a136020850182615389565b506040820151615a266040850182615398565b506060820151615a3960608501826153b6565b50505050565b6000608082019050615a5460008301846159ea565b92915050565b60008060408385031215615a7157615a70614b64565b5b6000615a7f85828601614cdd565b9250506020615a9085828601614cdd565b9150509250929050565b60008060408385031215615ab157615ab0614b64565b5b6000615abf85828601614e49565b9250506020615ad085828601614cdd565b9150509250929050565b7f4e487b7100000000000000000000000000000000000000000000000000000000600052602260045260246000fd5b60006002820490506001821680615b2157607f821691505b602082108103615b3457615b33615ada565b5b50919050565b60008190508160005260206000209050919050565b60006020601f8301049050919050565b600082821b905092915050565b600060088302615b9c7fffffffffffffffffffffffffffffffffffffffffffffffffffffffffffffffff82615b5f565b615ba68683615b5f565b95508019841693508086168417925050509392505050565b6000615bd9615bd4615bcf84614e28565b615213565b614e28565b9050919050565b6000819050919050565b615bf383615bbe565b615c07615bff82615be0565b848454615b6c565b825550505050565b600090565b615c1c615c0f565b615c27818484615bea565b505050565b5b81811015615c4b57615c40600082615c14565b600181019050615c2d565b5050565b601f821115615c9057615c6181615b3a565b615c6a84615b4f565b81016020851015615c79578190505b615c8d615c8585615b4f565b830182615c2c565b50505b505050565b600082821c905092915050565b6000615cb360001984600802615c95565b1980831691505092915050565b6000615ccc8383615ca2565b9150826002028217905092915050565b615ce582614d76565b67ffffffffffffffff811115615cfe57615cfd614f29565b5b615d088254615b09565b615d13828285615c4f565b600060209050601f831160018114615d465760008415615d34578287015190505b615d3e8582615cc0565b865550615da6565b601f198416615d5486615b3a565b60005b82811015615d7c57848901518255600182019150602085019450602081019050615d57565b86831015615d995784890151615d95601f891682615ca2565b8355505b6001600288020188555050505b505050505050565b7f5468652063616c6c657220697320616e6f7468657220636f6e74726163740000600082015250565b6000615de4601e83614d81565b9150615def82615dae565b602082019050919050565b60006020820190508181036000830152615e1381615dd7565b9050919050565b7f5468652077696e6e65722073616c65206973206e6f7420656e61626c65642100600082015250565b6000615e50601f83614d81565b9150615e5b82615e1a565b602082019050919050565b60006020820190508181036000830152615e7f81615e43565b9050919050565b7f526166666c65206973206e6f74204f7665722100000000000000000000000000600082015250565b6000615ebc601383614d81565b9150615ec782615e86565b602082019050919050565b60006020820190508181036000830152615eeb81615eaf565b9050919050565b7f57696e6e6572204d696e742069732066696e6973680000000000000000000000600082015250565b6000615f28601583614d81565b9150615f3382615ef2565b602082019050919050565b60006020820190508181036000830152615f5781615f1b565b9050919050565b7f77696e6e6572206e6f7420657869737400000000000000000000000000000000600082015250565b6000615f94601083614d81565b9150615f9f82615f5e565b602082019050919050565b60006020820190508181036000830152615fc381615f87565b9050919050565b7f416c7265616479206d696e740000000000000000000000000000000000000000600082015250565b6000616000600c83614d81565b915061600b82615fca565b602082019050919050565b6000602082019050818103600083015261602f81615ff3565b9050919050565b7f4e6f7468696e6720746f206d696e740000000000000000000000000000000000600082015250565b600061606c600f83614d81565b915061607782616036565b602082019050919050565b6000602082019050818103600083015261609b8161605f565b9050919050565b7f4e487b7100000000000000000000000000000000000000000000000000000000600052601160045260246000fd5b60006160dc82614e28565b91506160e783614e28565b92508282019050808211156160ff576160fe6160a2565b5b92915050565b7f4d617820737570706c7920657863656564656400000000000000000000000000600082015250565b600061613b601383614d81565b915061614682616105565b602082019050919050565b6000602082019050818103600083015261616a8161612e565b9050919050565b600061617c82614e28565b915061618783614e28565b925082820261619581614e28565b915082820484148315176161ac576161ab6160a2565b5b5092915050565b7f4e487b7100000000000000000000000000000000000000000000000000000000600052601260045260246000fd5b60006161ed82614e28565b91506161f883614e28565b925082616208576162076161b3565b5b828204905092915050565b600081905092915050565b50565b600061622e600083616213565b91506162398261621e565b600082019050919050565b600061624f82616221565b9150819050919050565b7f4e487b7100000000000000000000000000000000000000000000000000000000600052603260045260246000fd5b7f496e76616c6964206d696e7420616d6f756e7421000000000000000000000000600082015250565b60006162be601483614d81565b91506162c982616288565b602082019050919050565b600060208201905081810360008301526162ed816162b1565b9050919050565b7f4d617820737570706c7920657863656564656421000000000000000000000000600082015250565b600061632a601483614d81565b9150616335826162f4565b602082019050919050565b600060208201905081810360008301526163598161631d565b9050919050565b7f496e73756666696369656e742066756e64732100000000000000000000000000600082015250565b6000616396601383614d81565b91506163a182616360565b602082019050919050565b600060208201905081810360008301526163c581616389565b9050919050565b7f5468652077686974656c6973742073616c65206973206e6f7420656e61626c6560008201527f6421000000000000000000000000000000000000000000000000000000000000602082015250565b6000616428602283614d81565b9150616433826163cc565b604082019050919050565b600060208201905081810360008301526164578161641b565b9050919050565b7f4d696e74696e6720506861736520537570706c79207265616368656421000000600082015250565b6000616494601d83614d81565b915061649f8261645e565b602082019050919050565b600060208201905081810360008301526164c381616487565b9050919050565b6000819050919050565b6164e56164e0826151df565b6164ca565b82525050565b60006164f782846164d4565b60208201915081905092915050565b7f496e76616c69642070726f6f6621000000000000000000000000000000000000600082015250565b600061653c600e83614d81565b915061654782616506565b602082019050919050565b6000602082019050818103600083015261656b8161652f565b9050919050565b600061657d82614e28565b915061658883614e28565b92508282039050818111156165a05761659f6160a2565b5b92915050565b7f4d696e7420416d6f756e74206c696d69742065786365656465642e0000000000600082015250565b60006165dc601b83614d81565b91506165e7826165a6565b602082019050919050565b6000602082019050818103600083015261660b816165cf565b9050919050565b7f696e76616c696420656e6454696d6557696e6e65724d696e7400000000000000600082015250565b6000616648601983614d81565b915061665382616612565b602082019050919050565b600060208201905081810360008301526166778161663b565b9050919050565b60008151905061668d8161509d565b92915050565b6000602082840312156166a9576166a8614b64565b5b60006166b78482850161667e565b91505092915050565b7f526166666c6520616c7265616479206f70656e00000000000000000000000000600082015250565b60006166f6601383614d81565b9150616701826166c0565b602082019050919050565b60006020820190508181036000830152616725816166e9565b9050919050565b600067ffffffffffffffff82111561674757616746614f29565b5b602082029050602081019050919050565b60008151905061676781614cc6565b92915050565b600061678061677b8461672c565b614f89565b905080838252602082019050602084028301858111156167a3576167a2615292565b5b835b818110156167cc57806167b88882616758565b8452602084019350506020810190506167a5565b5050509392505050565b600082601f8301126167eb576167ea614f1f565b5b81516167fb84826020860161676d565b91505092915050565b60006020828403121561681a57616819614b64565b5b600082015167ffffffffffffffff81111561683857616837614b69565b5b616844848285016167d6565b91505092915050565b7f57696e6e657273206e6f742073657420696e20726166666c6520636f6e74726160008201527f6374000000000000000000000000000000000000000000000000000000000000602082015250565b60006168a9602283614d81565b91506168b48261684d565b604082019050919050565b600060208201905081810360008301526168d88161689c565b9050919050565b600067ffffffffffffffff8211156168fa576168f9614f29565b5b602082029050602081019050919050565b600080fd5b60008151905061691f81614e32565b92915050565b600060c0828403121561693b5761693a61690b565b5b61694560c0614f89565b9050600061695584828501616910565b600083015250602061696984828501616758565b602083015250604061697d84828501616910565b604083015250606061699184828501616910565b60608301525060806169a58482850161667e565b60808301525060a06169b98482850161667e565b60a08301525092915050565b60006169d86169d3846168df565b614f89565b90508083825260208201905060c084028301858111156169fb576169fa615292565b5b835b81811015616a245780616a108882616925565b84526020840193505060c0810190506169fd565b5050509392505050565b600082601f830112616a4357616a42614f1f565b5b8151616a538482602086016169c5565b91505092915050565b600060208284031215616a7257616a71614b64565b5b600082015167ffffffffffffffff811115616a9057616a8f614b69565b5b616a9c84828501616a2e565b91505092915050565b6000616ab082614e28565b91507fffffffffffffffffffffffffffffffffffffffffffffffffffffffffffffffff8203616ae257616ae16160a2565b5b600182019050919050565b7f446966666572656e742073697a65206172726179732e00000000000000000000600082015250565b6000616b23601683614d81565b9150616b2e82616aed565b602082019050919050565b60006020820190508181036000830152616b5281616b16565b9050919050565b7f54686520636f6e74726163742069732070617573656421000000000000000000600082015250565b6000616b8f601783614d81565b9150616b9a82616b59565b602082019050919050565b60006020820190508181036000830152616bbe81616b82565b9050919050565b7f4552433732314d657461646174613a2055524920717565727920666f72206e6f60008201527f6e6578697374656e7420746f6b656e0000000000000000000000000000000000602082015250565b6000616c21602f83614d81565b9150616c2c82616bc5565b604082019050919050565b60006020820190508181036000830152616c5081616c14565b9050919050565b600081905092915050565b6000616c6d82614d76565b616c778185616c57565b9350616c87818560208601614d92565b80840191505092915050565b60008154616ca081615b09565b616caa8186616c57565b94506001821660008114616cc55760018114616cda57616d0d565b60ff1983168652811515820286019350616d0d565b616ce385615b3a565b60005b83811015616d0557815481890152600182019150602081019050616ce6565b838801955050505b50505092915050565b6000616d228286616c62565b9150616d2e8285616c62565b9150616d3a8284616c93565b9150819050949350505050565b7f4f776e61626c653a206e6577206f776e657220697320746865207a65726f206160008201527f6464726573730000000000000000000000000000000000000000000000000000602082015250565b6000616da3602683614d81565b9150616dae82616d47565b604082019050919050565b60006020820190508181036000830152616dd281616d96565b9050919050565b7f4f776e61626c653a2063616c6c6572206973206e6f7420746865206f776e6572600082015250565b6000616e0f602083614d81565b9150616e1a82616dd9565b602082019050919050565b60006020820190508181036000830152616e3e81616e02565b9050919050565b7f455243323938313a20726f79616c7479206665652077696c6c2065786365656460008201527f2073616c65507269636500000000000000000000000000000000000000000000602082015250565b6000616ea1602a83614d81565b9150616eac82616e45565b604082019050919050565b60006020820190508181036000830152616ed081616e94565b9050919050565b7f455243323938313a20696e76616c696420726563656976657200000000000000600082015250565b6000616f0d601983614d81565b9150616f1882616ed7565b602082019050919050565b60006020820190508181036000830152616f3c81616f00565b9050919050565b6000604082019050616f586000830185614e8b565b616f656020830184614e8b565b9392505050565b7f5265656e7472616e637947756172643a207265656e7472616e742063616c6c00600082015250565b6000616fa2601f83614d81565b9150616fad82616f6c565b602082019050919050565b60006020820190508181036000830152616fd181616f95565b9050919050565b600081519050919050565b600082825260208201905092915050565b6000616fff82616fd8565b6170098185616fe3565b9350617019818560208601614d92565b61702281614dbc565b840191505092915050565b60006080820190506170426000830187614e8b565b61704f6020830186614e8b565b61705c6040830185614ef5565b818103606083015261706e8184616ff4565b905095945050505050565b60008151905061708881614c37565b92915050565b6000602082840312156170a4576170a3614b64565b5b60006170b284828501617079565b9150509291505056fea2646970667358221220844b8983a8d2a081d4ad960c95cbed575466e231dd90e3d88ad9d4f8afbc322764736f6c63430008120033",
    "linkReferences": {},
    "deployedLinkReferences": {}
}