{
    "_format": "hh-sol-artifact-1",
    "contractName": "RaffleLaunchpad",
    "sourceName": "contracts/raffleLaunchpad.sol",
    "abi": [
        {
            "inputs": [
                {
                    "internalType": "uint256",
                    "name": "_startDate",
                    "type": "uint256"
                },
                {
                    "internalType": "uint256",
                    "name": "_durationInMinutes",
                    "type": "uint256"
                },
                {
                    "internalType": "uint256",
                    "name": "_ticketPrice",
                    "type": "uint256"
                },
                {
                    "internalType": "uint64",
                    "name": "subscriptionId",
                    "type": "uint64"
                }
            ],
            "stateMutability": "nonpayable",
            "type": "constructor"
        },
        {
            "inputs": [
                {
                    "internalType": "address",
                    "name": "have",
                    "type": "address"
                },
                {
                    "internalType": "address",
                    "name": "want",
                    "type": "address"
                }
            ],
            "name": "OnlyCoordinatorCanFulfill",
            "type": "error"
        },
        {
            "anonymous": false,
            "inputs": [
                {
                    "indexed": true,
                    "internalType": "address",
                    "name": "from",
                    "type": "address"
                },
                {
                    "indexed": true,
                    "internalType": "address",
                    "name": "to",
                    "type": "address"
                }
            ],
            "name": "OwnershipTransferRequested",
            "type": "event"
        },
        {
            "anonymous": false,
            "inputs": [
                {
                    "indexed": true,
                    "internalType": "address",
                    "name": "from",
                    "type": "address"
                },
                {
                    "indexed": true,
                    "internalType": "address",
                    "name": "to",
                    "type": "address"
                }
            ],
            "name": "OwnershipTransferred",
            "type": "event"
        },
        {
            "anonymous": false,
            "inputs": [
                {
                    "indexed": false,
                    "internalType": "uint256",
                    "name": "requestId",
                    "type": "uint256"
                },
                {
                    "indexed": false,
                    "internalType": "uint256[]",
                    "name": "randomWords",
                    "type": "uint256[]"
                }
            ],
            "name": "RequestFulfilled",
            "type": "event"
        },
        {
            "anonymous": false,
            "inputs": [
                {
                    "indexed": false,
                    "internalType": "uint256",
                    "name": "requestId",
                    "type": "uint256"
                },
                {
                    "indexed": false,
                    "internalType": "uint32",
                    "name": "numWords",
                    "type": "uint32"
                }
            ],
            "name": "RequestSent",
            "type": "event"
        },
        {
            "anonymous": false,
            "inputs": [
                {
                    "indexed": false,
                    "internalType": "address",
                    "name": "addressPlayer",
                    "type": "address"
                },
                {
                    "indexed": false,
                    "internalType": "uint256",
                    "name": "nbTicket",
                    "type": "uint256"
                }
            ],
            "name": "TicketsPurchased",
            "type": "event"
        },
        {
            "inputs": [],
            "name": "acceptOwnership",
            "outputs": [],
            "stateMutability": "nonpayable",
            "type": "function"
        },
        {
            "inputs": [
                {
                    "internalType": "uint256",
                    "name": "",
                    "type": "uint256"
                }
            ],
            "name": "addressPlayers",
            "outputs": [
                {
                    "internalType": "address",
                    "name": "",
                    "type": "address"
                }
            ],
            "stateMutability": "view",
            "type": "function"
        },
        {
            "inputs": [
                {
                    "internalType": "uint256",
                    "name": "_nbTickets",
                    "type": "uint256"
                }
            ],
            "name": "buyTicket",
            "outputs": [],
            "stateMutability": "payable",
            "type": "function"
        },
        {
            "inputs": [],
            "name": "closeLottery",
            "outputs": [
                {
                    "internalType": "uint256",
                    "name": "",
                    "type": "uint256"
                }
            ],
            "stateMutability": "nonpayable",
            "type": "function"
        },
        {
            "inputs": [],
            "name": "deadline",
            "outputs": [
                {
                    "internalType": "uint256",
                    "name": "",
                    "type": "uint256"
                }
            ],
            "stateMutability": "view",
            "type": "function"
        },
        {
            "inputs": [],
            "name": "getPlayers",
            "outputs": [
                {
                    "internalType": "address[]",
                    "name": "",
                    "type": "address[]"
                }
            ],
            "stateMutability": "view",
            "type": "function"
        },
        {
            "inputs": [],
            "name": "getPlayersList",
            "outputs": [
                {
                    "components": [
                        {
                            "internalType": "uint256",
                            "name": "idPlayer",
                            "type": "uint256"
                        },
                        {
                            "internalType": "address",
                            "name": "addressPlayer",
                            "type": "address"
                        },
                        {
                            "internalType": "uint256",
                            "name": "ticketsBought",
                            "type": "uint256"
                        },
                        {
                            "internalType": "uint256",
                            "name": "nbOfWin",
                            "type": "uint256"
                        },
                        {
                            "internalType": "bool",
                            "name": "isWinner",
                            "type": "bool"
                        },
                        {
                            "internalType": "bool",
                            "name": "playerExist",
                            "type": "bool"
                        }
                    ],
                    "internalType": "struct RaffleLaunchpad.Player[]",
                    "name": "",
                    "type": "tuple[]"
                }
            ],
            "stateMutability": "view",
            "type": "function"
        },
        {
            "inputs": [
                {
                    "internalType": "uint256",
                    "name": "_requestId",
                    "type": "uint256"
                }
            ],
            "name": "getRequestStatus",
            "outputs": [
                {
                    "internalType": "bool",
                    "name": "fulfilled",
                    "type": "bool"
                },
                {
                    "internalType": "uint256[]",
                    "name": "randomWords",
                    "type": "uint256[]"
                }
            ],
            "stateMutability": "view",
            "type": "function"
        },
        {
            "inputs": [],
            "name": "getWinners",
            "outputs": [
                {
                    "internalType": "address[]",
                    "name": "",
                    "type": "address[]"
                }
            ],
            "stateMutability": "view",
            "type": "function"
        },
        {
            "inputs": [
                {
                    "internalType": "address",
                    "name": "",
                    "type": "address"
                }
            ],
            "name": "idByAddress",
            "outputs": [
                {
                    "internalType": "uint256",
                    "name": "",
                    "type": "uint256"
                }
            ],
            "stateMutability": "view",
            "type": "function"
        },
        {
            "inputs": [],
            "name": "idCounter",
            "outputs": [
                {
                    "internalType": "uint256",
                    "name": "_value",
                    "type": "uint256"
                }
            ],
            "stateMutability": "view",
            "type": "function"
        },
        {
            "inputs": [],
            "name": "lastRequestId",
            "outputs": [
                {
                    "internalType": "uint256",
                    "name": "",
                    "type": "uint256"
                }
            ],
            "stateMutability": "view",
            "type": "function"
        },
        {
            "inputs": [],
            "name": "lotteryClosed",
            "outputs": [
                {
                    "internalType": "bool",
                    "name": "",
                    "type": "bool"
                }
            ],
            "stateMutability": "view",
            "type": "function"
        },
        {
            "inputs": [],
            "name": "nbTicketSell",
            "outputs": [
                {
                    "internalType": "uint256",
                    "name": "",
                    "type": "uint256"
                }
            ],
            "stateMutability": "view",
            "type": "function"
        },
        {
            "inputs": [],
            "name": "numWinners",
            "outputs": [
                {
                    "internalType": "uint256",
                    "name": "",
                    "type": "uint256"
                }
            ],
            "stateMutability": "view",
            "type": "function"
        },
        {
            "inputs": [],
            "name": "owner",
            "outputs": [
                {
                    "internalType": "address",
                    "name": "",
                    "type": "address"
                }
            ],
            "stateMutability": "view",
            "type": "function"
        },
        {
            "inputs": [
                {
                    "internalType": "uint256",
                    "name": "",
                    "type": "uint256"
                }
            ],
            "name": "playersList",
            "outputs": [
                {
                    "internalType": "uint256",
                    "name": "idPlayer",
                    "type": "uint256"
                },
                {
                    "internalType": "address",
                    "name": "addressPlayer",
                    "type": "address"
                },
                {
                    "internalType": "uint256",
                    "name": "ticketsBought",
                    "type": "uint256"
                },
                {
                    "internalType": "uint256",
                    "name": "nbOfWin",
                    "type": "uint256"
                },
                {
                    "internalType": "bool",
                    "name": "isWinner",
                    "type": "bool"
                },
                {
                    "internalType": "bool",
                    "name": "playerExist",
                    "type": "bool"
                }
            ],
            "stateMutability": "view",
            "type": "function"
        },
        {
            "inputs": [
                {
                    "internalType": "uint256",
                    "name": "requestId",
                    "type": "uint256"
                },
                {
                    "internalType": "uint256[]",
                    "name": "randomWords",
                    "type": "uint256[]"
                }
            ],
            "name": "rawFulfillRandomWords",
            "outputs": [],
            "stateMutability": "nonpayable",
            "type": "function"
        },
        {
            "inputs": [
                {
                    "internalType": "uint256",
                    "name": "",
                    "type": "uint256"
                }
            ],
            "name": "requestIds",
            "outputs": [
                {
                    "internalType": "uint256",
                    "name": "",
                    "type": "uint256"
                }
            ],
            "stateMutability": "view",
            "type": "function"
        },
        {
            "inputs": [
                {
                    "internalType": "uint256",
                    "name": "",
                    "type": "uint256"
                }
            ],
            "name": "s_requests",
            "outputs": [
                {
                    "internalType": "bool",
                    "name": "fulfilled",
                    "type": "bool"
                },
                {
                    "internalType": "bool",
                    "name": "exists",
                    "type": "bool"
                }
            ],
            "stateMutability": "view",
            "type": "function"
        },
        {
            "inputs": [
                {
                    "internalType": "uint256",
                    "name": "_startDate",
                    "type": "uint256"
                },
                {
                    "internalType": "uint256",
                    "name": "_durationInMinutes",
                    "type": "uint256"
                }
            ],
            "name": "setStartDate",
            "outputs": [],
            "stateMutability": "nonpayable",
            "type": "function"
        },
        {
            "inputs": [
                {
                    "internalType": "uint256",
                    "name": "_numberOfWinners",
                    "type": "uint256"
                }
            ],
            "name": "setWinners",
            "outputs": [],
            "stateMutability": "nonpayable",
            "type": "function"
        },
        {
            "inputs": [],
            "name": "startDate",
            "outputs": [
                {
                    "internalType": "uint256",
                    "name": "",
                    "type": "uint256"
                }
            ],
            "stateMutability": "view",
            "type": "function"
        },
        {
            "inputs": [],
            "name": "ticketPrice",
            "outputs": [
                {
                    "internalType": "uint256",
                    "name": "",
                    "type": "uint256"
                }
            ],
            "stateMutability": "view",
            "type": "function"
        },
        {
            "inputs": [
                {
                    "internalType": "address",
                    "name": "to",
                    "type": "address"
                }
            ],
            "name": "transferOwnership",
            "outputs": [],
            "stateMutability": "nonpayable",
            "type": "function"
        },
        {
            "inputs": [
                {
                    "internalType": "uint256",
                    "name": "",
                    "type": "uint256"
                }
            ],
            "name": "winners",
            "outputs": [
                {
                    "internalType": "address",
                    "name": "",
                    "type": "address"
                }
            ],
            "stateMutability": "view",
            "type": "function"
        },
        {
            "inputs": [
                {
                    "internalType": "address",
                    "name": "_spliter",
                    "type": "address"
                }
            ],
            "name": "withdrawFunds",
            "outputs": [],
            "stateMutability": "nonpayable",
            "type": "function"
        }
    ],
    "bytecode": "0x60a06040527fcc294a196eeeb44da2888d17c0625cc88d70d9760a69d58d853ba6581a9ab0cd60001b600f55620186a0601060006101000a81548163ffffffff021916908363ffffffff1602179055506003601060046101000a81548161ffff021916908361ffff1602179055506001601060066101000a81548163ffffffff021916908363ffffffff1602179055503480156200009c57600080fd5b5060405162003eed38038062003eed8339818101604052810190620000c2919062000587565b3380600073ae975071be8f8ee67addbc1a82488f1c2485806760016000819055508073ffffffffffffffffffffffffffffffffffffffff1660808173ffffffffffffffffffffffffffffffffffffffff168152505050600073ffffffffffffffffffffffffffffffffffffffff168273ffffffffffffffffffffffffffffffffffffffff16036200018a576040517f08c379a000000000000000000000000000000000000000000000000000000000815260040162000181906200065a565b60405180910390fd5b81600160006101000a81548173ffffffffffffffffffffffffffffffffffffffff021916908373ffffffffffffffffffffffffffffffffffffffff160217905550600073ffffffffffffffffffffffffffffffffffffffff168173ffffffffffffffffffffffffffffffffffffffff161462000212576200021181620003d160201b60201c565b5b5050504284116200025a576040517f08c379a00000000000000000000000000000000000000000000000000000000081526004016200025190620006cc565b60405180910390fd5b60008311620002a0576040517f08c379a000000000000000000000000000000000000000000000000000000000815260040162000297906200073e565b60405180910390fd5b60008211620002e6576040517f08c379a0000000000000000000000000000000000000000000000000000000008152600401620002dd90620007b0565b60405180910390fd5b73ae975071be8f8ee67addbc1a82488f1c24858067600c60006101000a81548173ffffffffffffffffffffffffffffffffffffffff021916908373ffffffffffffffffffffffffffffffffffffffff16021790555080600c60146101000a81548167ffffffffffffffff021916908367ffffffffffffffff16021790555083600881905550603c836200037a919062000801565b6008546200038991906200084c565b6007819055506000600960006101000a81548160ff021916908315150217905550600182620003b9919062000801565b600a81905550600060118190555050505050620008f9565b3373ffffffffffffffffffffffffffffffffffffffff168173ffffffffffffffffffffffffffffffffffffffff160362000442576040517f08c379a00000000000000000000000000000000000000000000000000000000081526004016200043990620008d7565b60405180910390fd5b80600260006101000a81548173ffffffffffffffffffffffffffffffffffffffff021916908373ffffffffffffffffffffffffffffffffffffffff1602179055508073ffffffffffffffffffffffffffffffffffffffff16600160009054906101000a900473ffffffffffffffffffffffffffffffffffffffff1673ffffffffffffffffffffffffffffffffffffffff167fed8889f560326eb138920d842192f0eb3dd22b4f139c87a2c57538e05bae127860405160405180910390a350565b600080fd5b6000819050919050565b6200051c8162000507565b81146200052857600080fd5b50565b6000815190506200053c8162000511565b92915050565b600067ffffffffffffffff82169050919050565b620005618162000542565b81146200056d57600080fd5b50565b600081519050620005818162000556565b92915050565b60008060008060808587031215620005a457620005a362000502565b5b6000620005b4878288016200052b565b9450506020620005c7878288016200052b565b9350506040620005da878288016200052b565b9250506060620005ed8782880162000570565b91505092959194509250565b600082825260208201905092915050565b7f43616e6e6f7420736574206f776e657220746f207a65726f0000000000000000600082015250565b600062000642601883620005f9565b91506200064f826200060a565b602082019050919050565b60006020820190508181036000830152620006758162000633565b9050919050565b7f496e76616c6964652076616c7565206f66207374617274446174650000000000600082015250565b6000620006b4601b83620005f9565b9150620006c1826200067c565b602082019050919050565b60006020820190508181036000830152620006e781620006a5565b9050919050565b7f496e76616c6964652076616c7565206f66206475726174696f6e000000000000600082015250565b600062000726601a83620005f9565b91506200073382620006ee565b602082019050919050565b60006020820190508181036000830152620007598162000717565b9050919050565b7f496e76616c6964652076616c7565206f66207469636b65742070726963650000600082015250565b600062000798601e83620005f9565b9150620007a58262000760565b602082019050919050565b60006020820190508181036000830152620007cb8162000789565b9050919050565b7f4e487b7100000000000000000000000000000000000000000000000000000000600052601160045260246000fd5b60006200080e8262000507565b91506200081b8362000507565b92508282026200082b8162000507565b91508282048414831517620008455762000844620007d2565b5b5092915050565b6000620008598262000507565b9150620008668362000507565b9250828201905080821115620008815762000880620007d2565b5b92915050565b7f43616e6e6f74207472616e7366657220746f2073656c66000000000000000000600082015250565b6000620008bf601783620005f9565b9150620008cc8262000887565b602082019050919050565b60006020820190508181036000830152620008f281620008b0565b9050919050565b6080516135d16200091c6000396000818161069001526106e401526135d16000f3fe60806040526004361061019c5760003560e01c80638796ba8c116100ec578063d8a4676f1161008a578063e433a58411610064578063e433a584146105d8578063eb08ab2814610603578063f2fde38b1461062e578063fc2a88c3146106575761019c565b8063d8a4676f14610546578063dab4e1c914610584578063df15c37e146105ad5761019c565b80638da5cb5b116100c65780638da5cb5b14610463578063a168fa891461048e578063a2fb1175146104cc578063a725dace146105095761019c565b80638796ba8c146103d05780638b5b9ccc1461040d5780638b7bcc86146104385761019c565b80633c4e25901161015957806368742da61161013357806368742da6146103235780636fd098161461034c5780637319b43e1461037757806379ba5097146103b95761019c565b80633c4e2590146102a157806354f9abfa146102ca57806367dd74ca146103075761019c565b80630b97bc86146101a15780631209b1f6146101cc5780631fe543e3146101f75780632668fd151461022057806329c983ec1461024b57806329dcb0cf14610276575b600080fd5b3480156101ad57600080fd5b506101b6610682565b6040516101c3919061217c565b60405180910390f35b3480156101d857600080fd5b506101e1610688565b6040516101ee919061217c565b60405180910390f35b34801561020357600080fd5b5061021e60048036038101906102199190612330565b61068e565b005b34801561022c57600080fd5b5061023561074e565b604051610242919061217c565b60405180910390f35b34801561025757600080fd5b50610260610754565b60405161026d9190612521565b60405180910390f35b34801561028257600080fd5b5061028b61085d565b604051610298919061217c565b60405180910390f35b3480156102ad57600080fd5b506102c860048036038101906102c39190612543565b610863565b005b3480156102d657600080fd5b506102f160048036038101906102ec919061259c565b6109fe565b6040516102fe919061217c565b60405180910390f35b610321600480360381019061031c9190612543565b610a16565b005b34801561032f57600080fd5b5061034a6004803603810190610345919061259c565b610f45565b005b34801561035857600080fd5b5061036161117f565b60405161036e919061217c565b60405180910390f35b34801561038357600080fd5b5061039e60048036038101906103999190612543565b6111b7565b6040516103b0969594939291906125e7565b60405180910390f35b3480156103c557600080fd5b506103ce61123d565b005b3480156103dc57600080fd5b506103f760048036038101906103f29190612543565b6113d4565b604051610404919061217c565b60405180910390f35b34801561041957600080fd5b506104226113f8565b60405161042f91906126f7565b60405180910390f35b34801561044457600080fd5b5061044d611486565b60405161045a919061217c565b60405180910390f35b34801561046f57600080fd5b5061047861148c565b6040516104859190612719565b60405180910390f35b34801561049a57600080fd5b506104b560048036038101906104b09190612543565b6114b6565b6040516104c3929190612734565b60405180910390f35b3480156104d857600080fd5b506104f360048036038101906104ee9190612543565b6114f4565b6040516105009190612719565b60405180910390f35b34801561051557600080fd5b50610530600480360381019061052b9190612543565b611533565b60405161053d9190612719565b60405180910390f35b34801561055257600080fd5b5061056d60048036038101906105689190612543565b611572565b60405161057b92919061280c565b60405180910390f35b34801561059057600080fd5b506105ab60048036038101906105a6919061283c565b61169d565b005b3480156105b957600080fd5b506105c2611754565b6040516105cf91906126f7565b60405180910390f35b3480156105e457600080fd5b506105ed6117e2565b6040516105fa919061287c565b60405180910390f35b34801561060f57600080fd5b506106186117f5565b604051610625919061217c565b60405180910390f35b34801561063a57600080fd5b506106556004803603810190610650919061259c565b611801565b005b34801561066357600080fd5b5061066c611815565b604051610679919061217c565b60405180910390f35b60085481565b600a5481565b7f000000000000000000000000000000000000000000000000000000000000000073ffffffffffffffffffffffffffffffffffffffff163373ffffffffffffffffffffffffffffffffffffffff161461074057337f00000000000000000000000000000000000000000000000000000000000000006040517f1cf993f4000000000000000000000000000000000000000000000000000000008152600401610737929190612897565b60405180910390fd5b61074a828261181b565b5050565b60115481565b60606013805480602002602001604051908101604052809291908181526020016000905b8282101561085457838290600052602060002090600502016040518060c0016040529081600082015481526020016001820160009054906101000a900473ffffffffffffffffffffffffffffffffffffffff1673ffffffffffffffffffffffffffffffffffffffff1673ffffffffffffffffffffffffffffffffffffffff16815260200160028201548152602001600382015481526020016004820160009054906101000a900460ff161515151581526020016004820160019054906101000a900460ff16151515158152505081526020019060010190610778565b50505050905090565b60075481565b61086b611915565b600960009054906101000a900460ff166108ba576040517f08c379a00000000000000000000000000000000000000000000000000000000081526004016108b19061291d565b60405180910390fd5b600081116108fd576040517f08c379a00000000000000000000000000000000000000000000000000000000081526004016108f4906129af565b60405180910390fd5b600060058054905014610945576040517f08c379a000000000000000000000000000000000000000000000000000000000815260040161093c90612a1b565b60405180910390fd5b60048054905081111561098d576040517f08c379a000000000000000000000000000000000000000000000000000000000815260040161098490612aad565b60405180910390fd5b600b6000600e54815260200190815260200160002060000160009054906101000a900460ff166109f2576040517f08c379a00000000000000000000000000000000000000000000000000000000081526004016109e990612b19565b60405180910390fd5b6109fb816119a7565b50565b60126020528060005260406000206000915090505481565b610a1e611cbf565b600960009054906101000a900460ff1615610a6e576040517f08c379a0000000000000000000000000000000000000000000000000000000008152600401610a6590612b85565b60405180910390fd5b60008111610ab1576040517f08c379a0000000000000000000000000000000000000000000000000000000008152600401610aa890612bf1565b60405180910390fd5b600854421015610af6576040517f08c379a0000000000000000000000000000000000000000000000000000000008152600401610aed90612c5d565b60405180910390fd5b600a5481610b049190612cac565b341015610b46576040517f08c379a0000000000000000000000000000000000000000000000000000000008152600401610b3d90612d3a565b60405180910390fd5b600754421115610b8b576040517f08c379a0000000000000000000000000000000000000000000000000000000008152600401610b8290612da6565b60405180910390fd5b60008080600090505b610b9e6003611d0e565b811015610c99573373ffffffffffffffffffffffffffffffffffffffff1660138281548110610bd057610bcf612dc6565b5b906000526020600020906005020160010160009054906101000a900473ffffffffffffffffffffffffffffffffffffffff1673ffffffffffffffffffffffffffffffffffffffff16148015610c54575060138181548110610c3457610c33612dc6565b5b906000526020600020906005020160040160019054906101000a900460ff165b15610c86576001925060138181548110610c7157610c70612dc6565b5b90600052602060002090600502016000015491505b8080610c9190612df5565b915050610b94565b508115610ce1578260138281548110610cb557610cb4612dc6565b5b90600052602060002090600502016002016000828254610cd59190612e3d565b92505081905550610e64565b60006040518060c00160405280610cf86003611d0e565b81526020013373ffffffffffffffffffffffffffffffffffffffff16815260200185815260200160008152602001600015158152602001600115158152509050610d426003611d0e565b601260003373ffffffffffffffffffffffffffffffffffffffff1673ffffffffffffffffffffffffffffffffffffffff16815260200190815260200160002081905550610d8f6003611d1c565b60138190806001815401808255809150506001900390600052602060002090600502016000909190919091506000820151816000015560208201518160010160006101000a81548173ffffffffffffffffffffffffffffffffffffffff021916908373ffffffffffffffffffffffffffffffffffffffff160217905550604082015181600201556060820151816003015560808201518160040160006101000a81548160ff02191690831515021790555060a08201518160040160016101000a81548160ff0219169083151502179055505050505b8260116000828254610e769190612e3d565b9250508190555060005b83811015610efe576004339080600181540180825580915050600190039060005260206000200160009091909190916101000a81548173ffffffffffffffffffffffffffffffffffffffff021916908373ffffffffffffffffffffffffffffffffffffffff1602179055508080610ef690612df5565b915050610e80565b507fe11731cb4f1eb3ec3dd09bdc96809bb07365f4c881cda3192b397a4bc0b6da403384604051610f30929190612e71565b60405180910390a15050610f42611d32565b50565b610f4d611915565b3373ffffffffffffffffffffffffffffffffffffffff168173ffffffffffffffffffffffffffffffffffffffff1603610fbb576040517f08c379a0000000000000000000000000000000000000000000000000000000008152600401610fb290612f0c565b60405180910390fd5b600960009054906101000a900460ff1661100a576040517f08c379a00000000000000000000000000000000000000000000000000000000081526004016110019061291d565b60405180910390fd5b6000479050600060028261101e9190612f5b565b905060008373ffffffffffffffffffffffffffffffffffffffff168260405161104690612fbd565b60006040518083038185875af1925050503d8060008114611083576040519150601f19603f3d011682016040523d82523d6000602084013e611088565b606091505b50509050806110cc576040517f08c379a00000000000000000000000000000000000000000000000000000000081526004016110c39061301e565b60405180910390fd5b60003373ffffffffffffffffffffffffffffffffffffffff16836040516110f290612fbd565b60006040518083038185875af1925050503d806000811461112f576040519150601f19603f3d011682016040523d82523d6000602084013e611134565b606091505b5050905080611178576040517f08c379a000000000000000000000000000000000000000000000000000000000815260040161116f9061301e565b60405180910390fd5b5050505050565b6000611189611915565b6001600960006101000a81548160ff02191690831515021790555060006111ae611d3c565b90508091505090565b601381815481106111c757600080fd5b90600052602060002090600502016000915090508060000154908060010160009054906101000a900473ffffffffffffffffffffffffffffffffffffffff16908060020154908060030154908060040160009054906101000a900460ff16908060040160019054906101000a900460ff16905086565b600260009054906101000a900473ffffffffffffffffffffffffffffffffffffffff1673ffffffffffffffffffffffffffffffffffffffff163373ffffffffffffffffffffffffffffffffffffffff16146112cd576040517f08c379a00000000000000000000000000000000000000000000000000000000081526004016112c49061308a565b60405180910390fd5b6000600160009054906101000a900473ffffffffffffffffffffffffffffffffffffffff16905033600160006101000a81548173ffffffffffffffffffffffffffffffffffffffff021916908373ffffffffffffffffffffffffffffffffffffffff1602179055506000600260006101000a81548173ffffffffffffffffffffffffffffffffffffffff021916908373ffffffffffffffffffffffffffffffffffffffff1602179055503373ffffffffffffffffffffffffffffffffffffffff168173ffffffffffffffffffffffffffffffffffffffff167f8be0079c531659141344cd1fd0a4f28419497f9722a3daafe3b4186f6b6457e060405160405180910390a350565b600d81815481106113e457600080fd5b906000526020600020016000915090505481565b6060600480548060200260200160405190810160405280929190818152602001828054801561147c57602002820191906000526020600020905b8160009054906101000a900473ffffffffffffffffffffffffffffffffffffffff1673ffffffffffffffffffffffffffffffffffffffff1681526020019060010190808311611432575b5050505050905090565b60065481565b6000600160009054906101000a900473ffffffffffffffffffffffffffffffffffffffff16905090565b600b6020528060005260406000206000915090508060000160009054906101000a900460ff16908060000160019054906101000a900460ff16905082565b6005818154811061150457600080fd5b906000526020600020016000915054906101000a900473ffffffffffffffffffffffffffffffffffffffff1681565b6004818154811061154357600080fd5b906000526020600020016000915054906101000a900473ffffffffffffffffffffffffffffffffffffffff1681565b60006060600b600084815260200190815260200160002060000160019054906101000a900460ff166115d9576040517f08c379a00000000000000000000000000000000000000000000000000000000081526004016115d0906130f6565b60405180910390fd5b6000600b60008581526020019081526020016000206040518060600160405290816000820160009054906101000a900460ff161515151581526020016000820160019054906101000a900460ff161515151581526020016001820180548060200260200160405190810160405280929190818152602001828054801561167e57602002820191906000526020600020905b81548152602001906001019080831161166a575b5050505050815250509050806000015181604001519250925050915091565b6116a5611915565b600081116116e8576040517f08c379a00000000000000000000000000000000000000000000000000000000081526004016116df90613162565b60405180910390fd5b6000821161172b576040517f08c379a0000000000000000000000000000000000000000000000000000000008152600401611722906131ce565b60405180910390fd5b603c816117389190612cac565b826117439190612e3d565b600781905550816008819055505050565b606060058054806020026020016040519081016040528092919081815260200182805480156117d857602002820191906000526020600020905b8160009054906101000a900473ffffffffffffffffffffffffffffffffffffffff1673ffffffffffffffffffffffffffffffffffffffff168152602001906001019080831161178e575b5050505050905090565b600960009054906101000a900460ff1681565b60038060000154905081565b611809611915565b61181281611f8d565b50565b600e5481565b600b600083815260200190815260200160002060000160019054906101000a900460ff1661187e576040517f08c379a0000000000000000000000000000000000000000000000000000000008152600401611875906130f6565b60405180910390fd5b6001600b600084815260200190815260200160002060000160006101000a81548160ff02191690831515021790555080600b600084815260200190815260200160002060010190805190602001906118d79291906120f9565b507ffe2e2d779dba245964d4e3ef9b994be63856fd568bf7d3ca9e224755cb1bd54d82826040516119099291906131ee565b60405180910390a15050565b600160009054906101000a900473ffffffffffffffffffffffffffffffffffffffff1673ffffffffffffffffffffffffffffffffffffffff163373ffffffffffffffffffffffffffffffffffffffff16146119a5576040517f08c379a000000000000000000000000000000000000000000000000000000000815260040161199c9061326a565b60405180910390fd5b565b6000600b6000600e5481526020019081526020016000206001016000815481106119d4576119d3612dc6565b5b9060005260206000200154905060005b82811015611cb35760006004805490506119fd846120bb565b611a07919061328a565b9050600560048281548110611a1f57611a1e612dc6565b5b9060005260206000200160009054906101000a900473ffffffffffffffffffffffffffffffffffffffff169080600181540180825580915050600190039060005260206000200160009091909190916101000a81548173ffffffffffffffffffffffffffffffffffffffff021916908373ffffffffffffffffffffffffffffffffffffffff160217905550600060048281548110611ac057611abf612dc6565b5b9060005260206000200160009054906101000a900473ffffffffffffffffffffffffffffffffffffffff16905060046001600480549050611b0191906132bb565b81548110611b1257611b11612dc6565b5b9060005260206000200160009054906101000a900473ffffffffffffffffffffffffffffffffffffffff1660048381548110611b5157611b50612dc6565b5b9060005260206000200160006101000a81548173ffffffffffffffffffffffffffffffffffffffff021916908373ffffffffffffffffffffffffffffffffffffffff1602179055506004805480611bab57611baa6132ef565b5b6001900381819060005260206000200160006101000a81549073ffffffffffffffffffffffffffffffffffffffff021916905590556000601260008373ffffffffffffffffffffffffffffffffffffffff1673ffffffffffffffffffffffffffffffffffffffff168152602001908152602001600020549050600160138281548110611c3a57611c39612dc6565b5b906000526020600020906005020160040160006101000a81548160ff02191690831515021790555060138181548110611c7657611c75612dc6565b5b90600052602060002090600502016003016000815480929190611c9890612df5565b91905055505050508080611cab90612df5565b9150506119e4565b50816006819055505050565b600260005403611d04576040517f08c379a0000000000000000000000000000000000000000000000000000000008152600401611cfb9061336a565b60405180910390fd5b6002600081905550565b600081600001549050919050565b6001816000016000828254019250508190555050565b6001600081905550565b6000600c60009054906101000a900473ffffffffffffffffffffffffffffffffffffffff1673ffffffffffffffffffffffffffffffffffffffff16635d3b1d30600f54600c60149054906101000a900467ffffffffffffffff16601060049054906101000a900461ffff16601060009054906101000a900463ffffffff16601060069054906101000a900463ffffffff166040518663ffffffff1660e01b8152600401611ded959493929190613402565b6020604051808303816000875af1158015611e0c573d6000803e3d6000fd5b505050506040513d601f19601f82011682018060405250810190611e30919061346a565b90506040518060600160405280600015158152602001600115158152602001600067ffffffffffffffff811115611e6a57611e696121ed565b5b604051908082528060200260200182016040528015611e985781602001602082028036833780820191505090505b50815250600b600083815260200190815260200160002060008201518160000160006101000a81548160ff02191690831515021790555060208201518160000160016101000a81548160ff0219169083151502179055506040820151816001019080519060200190611f0b9291906120f9565b50905050600d81908060018154018082558091505060019003906000526020600020016000909190919091505580600e819055507fcc58b13ad3eab50626c6a6300b1d139cd6ebb1688a7cced9461c2f7e762665ee81601060069054906101000a900463ffffffff16604051611f82929190613497565b60405180910390a190565b3373ffffffffffffffffffffffffffffffffffffffff168173ffffffffffffffffffffffffffffffffffffffff1603611ffb576040517f08c379a0000000000000000000000000000000000000000000000000000000008152600401611ff29061350c565b60405180910390fd5b80600260006101000a81548173ffffffffffffffffffffffffffffffffffffffff021916908373ffffffffffffffffffffffffffffffffffffffff1602179055508073ffffffffffffffffffffffffffffffffffffffff16600160009054906101000a900473ffffffffffffffffffffffffffffffffffffffff1673ffffffffffffffffffffffffffffffffffffffff167fed8889f560326eb138920d842192f0eb3dd22b4f139c87a2c57538e05bae127860405160405180910390a350565b60004442600480549050846040516020016120d9949392919061354d565b6040516020818303038152906040528051906020012060001c9050919050565b828054828255906000526020600020908101928215612135579160200282015b82811115612134578251825591602001919060010190612119565b5b5090506121429190612146565b5090565b5b8082111561215f576000816000905550600101612147565b5090565b6000819050919050565b61217681612163565b82525050565b6000602082019050612191600083018461216d565b92915050565b6000604051905090565b600080fd5b600080fd5b6121b481612163565b81146121bf57600080fd5b50565b6000813590506121d1816121ab565b92915050565b600080fd5b6000601f19601f8301169050919050565b7f4e487b7100000000000000000000000000000000000000000000000000000000600052604160045260246000fd5b612225826121dc565b810181811067ffffffffffffffff82111715612244576122436121ed565b5b80604052505050565b6000612257612197565b9050612263828261221c565b919050565b600067ffffffffffffffff821115612283576122826121ed565b5b602082029050602081019050919050565b600080fd5b60006122ac6122a784612268565b61224d565b905080838252602082019050602084028301858111156122cf576122ce612294565b5b835b818110156122f857806122e488826121c2565b8452602084019350506020810190506122d1565b5050509392505050565b600082601f830112612317576123166121d7565b5b8135612327848260208601612299565b91505092915050565b60008060408385031215612347576123466121a1565b5b6000612355858286016121c2565b925050602083013567ffffffffffffffff811115612376576123756121a6565b5b61238285828601612302565b9150509250929050565b600081519050919050565b600082825260208201905092915050565b6000819050602082019050919050565b6123c181612163565b82525050565b600073ffffffffffffffffffffffffffffffffffffffff82169050919050565b60006123f2826123c7565b9050919050565b612402816123e7565b82525050565b60008115159050919050565b61241d81612408565b82525050565b60c08201600082015161243960008501826123b8565b50602082015161244c60208501826123f9565b50604082015161245f60408501826123b8565b50606082015161247260608501826123b8565b5060808201516124856080850182612414565b5060a082015161249860a0850182612414565b50505050565b60006124aa8383612423565b60c08301905092915050565b6000602082019050919050565b60006124ce8261238c565b6124d88185612397565b93506124e3836123a8565b8060005b838110156125145781516124fb888261249e565b9750612506836124b6565b9250506001810190506124e7565b5085935050505092915050565b6000602082019050818103600083015261253b81846124c3565b905092915050565b600060208284031215612559576125586121a1565b5b6000612567848285016121c2565b91505092915050565b612579816123e7565b811461258457600080fd5b50565b60008135905061259681612570565b92915050565b6000602082840312156125b2576125b16121a1565b5b60006125c084828501612587565b91505092915050565b6125d2816123e7565b82525050565b6125e181612408565b82525050565b600060c0820190506125fc600083018961216d565b61260960208301886125c9565b612616604083018761216d565b612623606083018661216d565b61263060808301856125d8565b61263d60a08301846125d8565b979650505050505050565b600081519050919050565b600082825260208201905092915050565b6000819050602082019050919050565b600061268083836123f9565b60208301905092915050565b6000602082019050919050565b60006126a482612648565b6126ae8185612653565b93506126b983612664565b8060005b838110156126ea5781516126d18882612674565b97506126dc8361268c565b9250506001810190506126bd565b5085935050505092915050565b600060208201905081810360008301526127118184612699565b905092915050565b600060208201905061272e60008301846125c9565b92915050565b600060408201905061274960008301856125d8565b61275660208301846125d8565b9392505050565b600081519050919050565b600082825260208201905092915050565b6000819050602082019050919050565b600061279583836123b8565b60208301905092915050565b6000602082019050919050565b60006127b98261275d565b6127c38185612768565b93506127ce83612779565b8060005b838110156127ff5781516127e68882612789565b97506127f1836127a1565b9250506001810190506127d2565b5085935050505092915050565b600060408201905061282160008301856125d8565b818103602083015261283381846127ae565b90509392505050565b60008060408385031215612853576128526121a1565b5b6000612861858286016121c2565b9250506020612872858286016121c2565b9150509250929050565b600060208201905061289160008301846125d8565b92915050565b60006040820190506128ac60008301856125c9565b6128b960208301846125c9565b9392505050565b600082825260208201905092915050565b7f4c6f7474657279206973207374696c6c206f70656e0000000000000000000000600082015250565b60006129076015836128c0565b9150612912826128d1565b602082019050919050565b60006020820190508181036000830152612936816128fa565b9050919050565b7f496e76616c69642076616c7565206f66206e756d626572206f662077696e6e6560008201527f7273000000000000000000000000000000000000000000000000000000000000602082015250565b60006129996022836128c0565b91506129a48261293d565b604082019050919050565b600060208201905081810360008301526129c88161298c565b9050919050565b7f416c7265616479207365742057696e6e65720000000000000000000000000000600082015250565b6000612a056012836128c0565b9150612a10826129cf565b602082019050919050565b60006020820190508181036000830152612a34816129f8565b9050919050565b7f4e756d626572206f662077696e6e657273206578636565647320746f74616c2060008201527f706c617965727300000000000000000000000000000000000000000000000000602082015250565b6000612a976027836128c0565b9150612aa282612a3b565b604082019050919050565b60006020820190508181036000830152612ac681612a8a565b9050919050565b7f4572726f72207769746820636861696e6c696e6b207265717565737400000000600082015250565b6000612b03601c836128c0565b9150612b0e82612acd565b602082019050919050565b60006020820190508181036000830152612b3281612af6565b9050919050565b7f4c6f747465727920697320636c6f736564000000000000000000000000000000600082015250565b6000612b6f6011836128c0565b9150612b7a82612b39565b602082019050919050565b60006020820190508181036000830152612b9e81612b62565b9050919050565b7f496e76616c6964652076616c7565206f66206e62207469636b65747300000000600082015250565b6000612bdb601c836128c0565b9150612be682612ba5565b602082019050919050565b60006020820190508181036000830152612c0a81612bce565b9050919050565b7f4c6f7474657279206861736e2774207374617274656400000000000000000000600082015250565b6000612c476016836128c0565b9150612c5282612c11565b602082019050919050565b60006020820190508181036000830152612c7681612c3a565b9050919050565b7f4e487b7100000000000000000000000000000000000000000000000000000000600052601160045260246000fd5b6000612cb782612163565b9150612cc283612163565b9250828202612cd081612163565b91508282048414831517612ce757612ce6612c7d565b5b5092915050565b7f4d696e696d756d207469636b6574207072696365206973206e6f74206d657400600082015250565b6000612d24601f836128c0565b9150612d2f82612cee565b602082019050919050565b60006020820190508181036000830152612d5381612d17565b9050919050565b7f4c6f747465727920646561646c696e6520686173207061737365640000000000600082015250565b6000612d90601b836128c0565b9150612d9b82612d5a565b602082019050919050565b60006020820190508181036000830152612dbf81612d83565b9050919050565b7f4e487b7100000000000000000000000000000000000000000000000000000000600052603260045260246000fd5b6000612e0082612163565b91507fffffffffffffffffffffffffffffffffffffffffffffffffffffffffffffffff8203612e3257612e31612c7d565b5b600182019050919050565b6000612e4882612163565b9150612e5383612163565b9250828201905080821115612e6b57612e6a612c7d565b5b92915050565b6000604082019050612e8660008301856125c9565b612e93602083018461216d565b9392505050565b7f73706c697465722063616e7420626520746865206f776e6572206f662072616660008201527f666c6520636f6e74726163740000000000000000000000000000000000000000602082015250565b6000612ef6602c836128c0565b9150612f0182612e9a565b604082019050919050565b60006020820190508181036000830152612f2581612ee9565b9050919050565b7f4e487b7100000000000000000000000000000000000000000000000000000000600052601260045260246000fd5b6000612f6682612163565b9150612f7183612163565b925082612f8157612f80612f2c565b5b828204905092915050565b600081905092915050565b50565b6000612fa7600083612f8c565b9150612fb282612f97565b600082019050919050565b6000612fc882612f9a565b9150819050919050565b7f5769746864726177206661696c00000000000000000000000000000000000000600082015250565b6000613008600d836128c0565b915061301382612fd2565b602082019050919050565b6000602082019050818103600083015261303781612ffb565b9050919050565b7f4d7573742062652070726f706f736564206f776e657200000000000000000000600082015250565b60006130746016836128c0565b915061307f8261303e565b602082019050919050565b600060208201905081810360008301526130a381613067565b9050919050565b7f72657175657374206e6f7420666f756e64000000000000000000000000000000600082015250565b60006130e06011836128c0565b91506130eb826130aa565b602082019050919050565b6000602082019050818103600083015261310f816130d3565b9050919050565b7f496e76616c6964652076616c7565206f66206475726174696f6e000000000000600082015250565b600061314c601a836128c0565b915061315782613116565b602082019050919050565b6000602082019050818103600083015261317b8161313f565b9050919050565b7f496e76616c6964652076616c7565206f66207374617274446174650000000000600082015250565b60006131b8601b836128c0565b91506131c382613182565b602082019050919050565b600060208201905081810360008301526131e7816131ab565b9050919050565b6000604082019050613203600083018561216d565b818103602083015261321581846127ae565b90509392505050565b7f4f6e6c792063616c6c61626c65206279206f776e657200000000000000000000600082015250565b60006132546016836128c0565b915061325f8261321e565b602082019050919050565b6000602082019050818103600083015261328381613247565b9050919050565b600061329582612163565b91506132a083612163565b9250826132b0576132af612f2c565b5b828206905092915050565b60006132c682612163565b91506132d183612163565b92508282039050818111156132e9576132e8612c7d565b5b92915050565b7f4e487b7100000000000000000000000000000000000000000000000000000000600052603160045260246000fd5b7f5265656e7472616e637947756172643a207265656e7472616e742063616c6c00600082015250565b6000613354601f836128c0565b915061335f8261331e565b602082019050919050565b6000602082019050818103600083015261338381613347565b9050919050565b6000819050919050565b61339d8161338a565b82525050565b600067ffffffffffffffff82169050919050565b6133c0816133a3565b82525050565b600061ffff82169050919050565b6133dd816133c6565b82525050565b600063ffffffff82169050919050565b6133fc816133e3565b82525050565b600060a0820190506134176000830188613394565b61342460208301876133b7565b61343160408301866133d4565b61343e60608301856133f3565b61344b60808301846133f3565b9695505050505050565b600081519050613464816121ab565b92915050565b6000602082840312156134805761347f6121a1565b5b600061348e84828501613455565b91505092915050565b60006040820190506134ac600083018561216d565b6134b960208301846133f3565b9392505050565b7f43616e6e6f74207472616e7366657220746f2073656c66000000000000000000600082015250565b60006134f66017836128c0565b9150613501826134c0565b602082019050919050565b60006020820190508181036000830152613525816134e9565b9050919050565b6000819050919050565b61354761354282612163565b61352c565b82525050565b60006135598287613536565b6020820191506135698286613536565b6020820191506135798285613536565b6020820191506135898284613536565b6020820191508190509594505050505056fea2646970667358221220533315714aa71fcdfb7e70b08b5bee346c76402692c2d7283b229a591492d67e64736f6c63430008120033",
    "linkReferences": {},
    "deployedLinkReferences": {}
}