{
  "_format": "hh-sol-artifact-1",
  "contractName": "RaffleG_0",
  "sourceName": "contracts/raffleG_0.sol",
  "abi": [
    {
      "inputs": [
        {
          "internalType": "uint256",
          "name": "_startDate",
          "type": "uint256"
        },
        {
          "internalType": "uint256",
          "name": "_durationInMinutes",
          "type": "uint256"
        },
        {
          "internalType": "uint256",
          "name": "_ticketPrice",
          "type": "uint256"
        },
        {
          "internalType": "uint64",
          "name": "subscriptionId",
          "type": "uint64"
        }
      ],
      "stateMutability": "nonpayable",
      "type": "constructor"
    },
    {
      "inputs": [
        {
          "internalType": "address",
          "name": "have",
          "type": "address"
        },
        {
          "internalType": "address",
          "name": "want",
          "type": "address"
        }
      ],
      "name": "OnlyCoordinatorCanFulfill",
      "type": "error"
    },
    {
      "anonymous": false,
      "inputs": [
        {
          "indexed": true,
          "internalType": "address",
          "name": "from",
          "type": "address"
        },
        {
          "indexed": true,
          "internalType": "address",
          "name": "to",
          "type": "address"
        }
      ],
      "name": "OwnershipTransferRequested",
      "type": "event"
    },
    {
      "anonymous": false,
      "inputs": [
        {
          "indexed": true,
          "internalType": "address",
          "name": "from",
          "type": "address"
        },
        {
          "indexed": true,
          "internalType": "address",
          "name": "to",
          "type": "address"
        }
      ],
      "name": "OwnershipTransferred",
      "type": "event"
    },
    {
      "anonymous": false,
      "inputs": [
        {
          "indexed": false,
          "internalType": "uint256",
          "name": "requestId",
          "type": "uint256"
        },
        {
          "indexed": false,
          "internalType": "uint256[]",
          "name": "randomWords",
          "type": "uint256[]"
        }
      ],
      "name": "RequestFulfilled",
      "type": "event"
    },
    {
      "anonymous": false,
      "inputs": [
        {
          "indexed": false,
          "internalType": "uint256",
          "name": "requestId",
          "type": "uint256"
        },
        {
          "indexed": false,
          "internalType": "uint32",
          "name": "numWords",
          "type": "uint32"
        }
      ],
      "name": "RequestSent",
      "type": "event"
    },
    {
      "anonymous": false,
      "inputs": [
        {
          "indexed": false,
          "internalType": "address",
          "name": "addressPlayer",
          "type": "address"
        },
        {
          "indexed": false,
          "internalType": "uint256",
          "name": "nbTicket",
          "type": "uint256"
        }
      ],
      "name": "TicketsPurchased",
      "type": "event"
    },
    {
      "inputs": [],
      "name": "acceptOwnership",
      "outputs": [],
      "stateMutability": "nonpayable",
      "type": "function"
    },
    {
      "inputs": [
        {
          "internalType": "uint256",
          "name": "",
          "type": "uint256"
        }
      ],
      "name": "addressPlayers",
      "outputs": [
        {
          "internalType": "address",
          "name": "",
          "type": "address"
        }
      ],
      "stateMutability": "view",
      "type": "function"
    },
    {
      "inputs": [
        {
          "internalType": "uint256",
          "name": "_nbTickets",
          "type": "uint256"
        }
      ],
      "name": "buyTicket",
      "outputs": [],
      "stateMutability": "payable",
      "type": "function"
    },
    {
      "inputs": [],
      "name": "closeLottery",
      "outputs": [
        {
          "internalType": "uint256",
          "name": "",
          "type": "uint256"
        }
      ],
      "stateMutability": "nonpayable",
      "type": "function"
    },
    {
      "inputs": [],
      "name": "deadline",
      "outputs": [
        {
          "internalType": "uint256",
          "name": "",
          "type": "uint256"
        }
      ],
      "stateMutability": "view",
      "type": "function"
    },
    {
      "inputs": [],
      "name": "getPlayers",
      "outputs": [
        {
          "internalType": "address[]",
          "name": "",
          "type": "address[]"
        }
      ],
      "stateMutability": "view",
      "type": "function"
    },
    {
      "inputs": [],
      "name": "getPlayersList",
      "outputs": [
        {
          "components": [
            {
              "internalType": "uint256",
              "name": "idPlayer",
              "type": "uint256"
            },
            {
              "internalType": "address",
              "name": "addressPlayer",
              "type": "address"
            },
            {
              "internalType": "uint256",
              "name": "ticketsBought",
              "type": "uint256"
            },
            {
              "internalType": "uint256",
              "name": "nbOfWin",
              "type": "uint256"
            },
            {
              "internalType": "bool",
              "name": "isWinner",
              "type": "bool"
            },
            {
              "internalType": "bool",
              "name": "playerExist",
              "type": "bool"
            }
          ],
          "internalType": "struct RaffleG_0.Player[]",
          "name": "",
          "type": "tuple[]"
        }
      ],
      "stateMutability": "view",
      "type": "function"
    },
    {
      "inputs": [
        {
          "internalType": "uint256",
          "name": "_requestId",
          "type": "uint256"
        }
      ],
      "name": "getRequestStatus",
      "outputs": [
        {
          "internalType": "bool",
          "name": "fulfilled",
          "type": "bool"
        },
        {
          "internalType": "uint256[]",
          "name": "randomWords",
          "type": "uint256[]"
        }
      ],
      "stateMutability": "view",
      "type": "function"
    },
    {
      "inputs": [],
      "name": "getWinners",
      "outputs": [
        {
          "internalType": "address[]",
          "name": "",
          "type": "address[]"
        }
      ],
      "stateMutability": "view",
      "type": "function"
    },
    {
      "inputs": [
        {
          "internalType": "address",
          "name": "",
          "type": "address"
        }
      ],
      "name": "idByAddress",
      "outputs": [
        {
          "internalType": "uint256",
          "name": "",
          "type": "uint256"
        }
      ],
      "stateMutability": "view",
      "type": "function"
    },
    {
      "inputs": [],
      "name": "idCounter",
      "outputs": [
        {
          "internalType": "uint256",
          "name": "_value",
          "type": "uint256"
        }
      ],
      "stateMutability": "view",
      "type": "function"
    },
    {
      "inputs": [],
      "name": "lastRequestId",
      "outputs": [
        {
          "internalType": "uint256",
          "name": "",
          "type": "uint256"
        }
      ],
      "stateMutability": "view",
      "type": "function"
    },
    {
      "inputs": [],
      "name": "lotteryClosed",
      "outputs": [
        {
          "internalType": "bool",
          "name": "",
          "type": "bool"
        }
      ],
      "stateMutability": "view",
      "type": "function"
    },
    {
      "inputs": [],
      "name": "nbTicketSell",
      "outputs": [
        {
          "internalType": "uint256",
          "name": "",
          "type": "uint256"
        }
      ],
      "stateMutability": "view",
      "type": "function"
    },
    {
      "inputs": [],
      "name": "numWinners",
      "outputs": [
        {
          "internalType": "uint256",
          "name": "",
          "type": "uint256"
        }
      ],
      "stateMutability": "view",
      "type": "function"
    },
    {
      "inputs": [],
      "name": "owner",
      "outputs": [
        {
          "internalType": "address",
          "name": "",
          "type": "address"
        }
      ],
      "stateMutability": "view",
      "type": "function"
    },
    {
      "inputs": [
        {
          "internalType": "uint256",
          "name": "",
          "type": "uint256"
        }
      ],
      "name": "playersList",
      "outputs": [
        {
          "internalType": "uint256",
          "name": "idPlayer",
          "type": "uint256"
        },
        {
          "internalType": "address",
          "name": "addressPlayer",
          "type": "address"
        },
        {
          "internalType": "uint256",
          "name": "ticketsBought",
          "type": "uint256"
        },
        {
          "internalType": "uint256",
          "name": "nbOfWin",
          "type": "uint256"
        },
        {
          "internalType": "bool",
          "name": "isWinner",
          "type": "bool"
        },
        {
          "internalType": "bool",
          "name": "playerExist",
          "type": "bool"
        }
      ],
      "stateMutability": "view",
      "type": "function"
    },
    {
      "inputs": [
        {
          "internalType": "uint256",
          "name": "requestId",
          "type": "uint256"
        },
        {
          "internalType": "uint256[]",
          "name": "randomWords",
          "type": "uint256[]"
        }
      ],
      "name": "rawFulfillRandomWords",
      "outputs": [],
      "stateMutability": "nonpayable",
      "type": "function"
    },
    {
      "inputs": [
        {
          "internalType": "uint256",
          "name": "",
          "type": "uint256"
        }
      ],
      "name": "requestIds",
      "outputs": [
        {
          "internalType": "uint256",
          "name": "",
          "type": "uint256"
        }
      ],
      "stateMutability": "view",
      "type": "function"
    },
    {
      "inputs": [
        {
          "internalType": "uint256",
          "name": "",
          "type": "uint256"
        }
      ],
      "name": "s_requests",
      "outputs": [
        {
          "internalType": "bool",
          "name": "fulfilled",
          "type": "bool"
        },
        {
          "internalType": "bool",
          "name": "exists",
          "type": "bool"
        }
      ],
      "stateMutability": "view",
      "type": "function"
    },
    {
      "inputs": [
        {
          "internalType": "uint256",
          "name": "_startDate",
          "type": "uint256"
        },
        {
          "internalType": "uint256",
          "name": "_durationInMinutes",
          "type": "uint256"
        }
      ],
      "name": "setStartDate",
      "outputs": [],
      "stateMutability": "nonpayable",
      "type": "function"
    },
    {
      "inputs": [
        {
          "internalType": "uint256",
          "name": "_numberOfWinners",
          "type": "uint256"
        }
      ],
      "name": "setWinners",
      "outputs": [],
      "stateMutability": "nonpayable",
      "type": "function"
    },
    {
      "inputs": [],
      "name": "startDate",
      "outputs": [
        {
          "internalType": "uint256",
          "name": "",
          "type": "uint256"
        }
      ],
      "stateMutability": "view",
      "type": "function"
    },
    {
      "inputs": [],
      "name": "ticketPrice",
      "outputs": [
        {
          "internalType": "uint256",
          "name": "",
          "type": "uint256"
        }
      ],
      "stateMutability": "view",
      "type": "function"
    },
    {
      "inputs": [
        {
          "internalType": "address",
          "name": "to",
          "type": "address"
        }
      ],
      "name": "transferOwnership",
      "outputs": [],
      "stateMutability": "nonpayable",
      "type": "function"
    },
    {
      "inputs": [
        {
          "internalType": "uint256",
          "name": "",
          "type": "uint256"
        }
      ],
      "name": "winners",
      "outputs": [
        {
          "internalType": "address",
          "name": "",
          "type": "address"
        }
      ],
      "stateMutability": "view",
      "type": "function"
    },
    {
      "inputs": [],
      "name": "withdrawFunds",
      "outputs": [],
      "stateMutability": "nonpayable",
      "type": "function"
    }
  ],
  "bytecode": "0x60a06040527f4b09e658ed251bcafeebbc69400383d49f344ace09b9576fe248bb02c003fe9f60001b600f55620186a0601060006101000a81548163ffffffff021916908363ffffffff1602179055506003601060046101000a81548161ffff021916908361ffff1602179055506001601060066101000a81548163ffffffff021916908363ffffffff1602179055503480156200009c57600080fd5b5060405162003c3b38038062003c3b8339818101604052810190620000c2919062000587565b33806000737a1bac17ccc5b313516c5e16fb24f7659aa5ebed60016000819055508073ffffffffffffffffffffffffffffffffffffffff1660808173ffffffffffffffffffffffffffffffffffffffff168152505050600073ffffffffffffffffffffffffffffffffffffffff168273ffffffffffffffffffffffffffffffffffffffff16036200018a576040517f08c379a000000000000000000000000000000000000000000000000000000000815260040162000181906200065a565b60405180910390fd5b81600160006101000a81548173ffffffffffffffffffffffffffffffffffffffff021916908373ffffffffffffffffffffffffffffffffffffffff160217905550600073ffffffffffffffffffffffffffffffffffffffff168173ffffffffffffffffffffffffffffffffffffffff161462000212576200021181620003d160201b60201c565b5b5050504284116200025a576040517f08c379a00000000000000000000000000000000000000000000000000000000081526004016200025190620006cc565b60405180910390fd5b60008311620002a0576040517f08c379a000000000000000000000000000000000000000000000000000000000815260040162000297906200073e565b60405180910390fd5b60008211620002e6576040517f08c379a0000000000000000000000000000000000000000000000000000000008152600401620002dd90620007b0565b60405180910390fd5b737a1bac17ccc5b313516c5e16fb24f7659aa5ebed600c60006101000a81548173ffffffffffffffffffffffffffffffffffffffff021916908373ffffffffffffffffffffffffffffffffffffffff16021790555080600c60146101000a81548167ffffffffffffffff021916908367ffffffffffffffff16021790555083600881905550603c836200037a919062000801565b6008546200038991906200084c565b6007819055506000600960006101000a81548160ff021916908315150217905550600182620003b9919062000801565b600a81905550600060118190555050505050620008f9565b3373ffffffffffffffffffffffffffffffffffffffff168173ffffffffffffffffffffffffffffffffffffffff160362000442576040517f08c379a00000000000000000000000000000000000000000000000000000000081526004016200043990620008d7565b60405180910390fd5b80600260006101000a81548173ffffffffffffffffffffffffffffffffffffffff021916908373ffffffffffffffffffffffffffffffffffffffff1602179055508073ffffffffffffffffffffffffffffffffffffffff16600160009054906101000a900473ffffffffffffffffffffffffffffffffffffffff1673ffffffffffffffffffffffffffffffffffffffff167fed8889f560326eb138920d842192f0eb3dd22b4f139c87a2c57538e05bae127860405160405180910390a350565b600080fd5b6000819050919050565b6200051c8162000507565b81146200052857600080fd5b50565b6000815190506200053c8162000511565b92915050565b600067ffffffffffffffff82169050919050565b620005618162000542565b81146200056d57600080fd5b50565b600081519050620005818162000556565b92915050565b60008060008060808587031215620005a457620005a362000502565b5b6000620005b4878288016200052b565b9450506020620005c7878288016200052b565b9350506040620005da878288016200052b565b9250506060620005ed8782880162000570565b91505092959194509250565b600082825260208201905092915050565b7f43616e6e6f7420736574206f776e657220746f207a65726f0000000000000000600082015250565b600062000642601883620005f9565b91506200064f826200060a565b602082019050919050565b60006020820190508181036000830152620006758162000633565b9050919050565b7f696e76616c6964652076616c7565206f66207374617274446174650000000000600082015250565b6000620006b4601b83620005f9565b9150620006c1826200067c565b602082019050919050565b60006020820190508181036000830152620006e781620006a5565b9050919050565b7f696e76616c6964652076616c7565206f66206475726174696f6e000000000000600082015250565b600062000726601a83620005f9565b91506200073382620006ee565b602082019050919050565b60006020820190508181036000830152620007598162000717565b9050919050565b7f696e76616c6964652076616c7565206f66207469636b65742070726963650000600082015250565b600062000798601e83620005f9565b9150620007a58262000760565b602082019050919050565b60006020820190508181036000830152620007cb8162000789565b9050919050565b7f4e487b7100000000000000000000000000000000000000000000000000000000600052601160045260246000fd5b60006200080e8262000507565b91506200081b8362000507565b92508282026200082b8162000507565b91508282048414831517620008455762000844620007d2565b5b5092915050565b6000620008598262000507565b9150620008668362000507565b9250828201905080821115620008815762000880620007d2565b5b92915050565b7f43616e6e6f74207472616e7366657220746f2073656c66000000000000000000600082015250565b6000620008bf601783620005f9565b9150620008cc8262000887565b602082019050919050565b60006020820190508181036000830152620008f281620008b0565b9050919050565b60805161331f6200091c6000396000818161067e01526106d2015261331f6000f3fe60806040526004361061019c5760003560e01c80638796ba8c116100ec578063d8a4676f1161008a578063e433a58411610064578063e433a584146105c6578063eb08ab28146105f1578063f2fde38b1461061c578063fc2a88c3146106455761019c565b8063d8a4676f14610534578063dab4e1c914610572578063df15c37e1461059b5761019c565b80638da5cb5b116100c65780638da5cb5b14610451578063a168fa891461047c578063a2fb1175146104ba578063a725dace146104f75761019c565b80638796ba8c146103be5780638b5b9ccc146103fb5780638b7bcc86146104265761019c565b806329dcb0cf1161015957806367dd74ca1161013357806367dd74ca1461031e5780636fd098161461033a5780637319b43e1461036557806379ba5097146103a75761019c565b806329dcb0cf1461028d5780633c4e2590146102b857806354f9abfa146102e15761019c565b80630b97bc86146101a15780631209b1f6146101cc5780631fe543e3146101f757806324600fc3146102205780632668fd151461023757806329c983ec14610262575b600080fd5b3480156101ad57600080fd5b506101b6610670565b6040516101c39190611ff9565b60405180910390f35b3480156101d857600080fd5b506101e1610676565b6040516101ee9190611ff9565b60405180910390f35b34801561020357600080fd5b5061021e600480360381019061021991906121ad565b61067c565b005b34801561022c57600080fd5b5061023561073c565b005b34801561024357600080fd5b5061024c610848565b6040516102599190611ff9565b60405180910390f35b34801561026e57600080fd5b5061027761084e565b604051610284919061239e565b60405180910390f35b34801561029957600080fd5b506102a2610957565b6040516102af9190611ff9565b60405180910390f35b3480156102c457600080fd5b506102df60048036038101906102da91906123c0565b61095d565b005b3480156102ed57600080fd5b5061030860048036038101906103039190612419565b610af8565b6040516103159190611ff9565b60405180910390f35b610338600480360381019061033391906123c0565b610b10565b005b34801561034657600080fd5b5061034f610ffc565b60405161035c9190611ff9565b60405180910390f35b34801561037157600080fd5b5061038c600480360381019061038791906123c0565b611034565b60405161039e96959493929190612464565b60405180910390f35b3480156103b357600080fd5b506103bc6110ba565b005b3480156103ca57600080fd5b506103e560048036038101906103e091906123c0565b611251565b6040516103f29190611ff9565b60405180910390f35b34801561040757600080fd5b50610410611275565b60405161041d9190612574565b60405180910390f35b34801561043257600080fd5b5061043b611303565b6040516104489190611ff9565b60405180910390f35b34801561045d57600080fd5b50610466611309565b6040516104739190612596565b60405180910390f35b34801561048857600080fd5b506104a3600480360381019061049e91906123c0565b611333565b6040516104b19291906125b1565b60405180910390f35b3480156104c657600080fd5b506104e160048036038101906104dc91906123c0565b611371565b6040516104ee9190612596565b60405180910390f35b34801561050357600080fd5b5061051e600480360381019061051991906123c0565b6113b0565b60405161052b9190612596565b60405180910390f35b34801561054057600080fd5b5061055b600480360381019061055691906123c0565b6113ef565b604051610569929190612689565b60405180910390f35b34801561057e57600080fd5b50610599600480360381019061059491906126b9565b61151a565b005b3480156105a757600080fd5b506105b06115d1565b6040516105bd9190612574565b60405180910390f35b3480156105d257600080fd5b506105db61165f565b6040516105e891906126f9565b60405180910390f35b3480156105fd57600080fd5b50610606611672565b6040516106139190611ff9565b60405180910390f35b34801561062857600080fd5b50610643600480360381019061063e9190612419565b61167e565b005b34801561065157600080fd5b5061065a611692565b6040516106679190611ff9565b60405180910390f35b60085481565b600a5481565b7f000000000000000000000000000000000000000000000000000000000000000073ffffffffffffffffffffffffffffffffffffffff163373ffffffffffffffffffffffffffffffffffffffff161461072e57337f00000000000000000000000000000000000000000000000000000000000000006040517f1cf993f4000000000000000000000000000000000000000000000000000000008152600401610725929190612714565b60405180910390fd5b6107388282611698565b5050565b610744611792565b600960009054906101000a900460ff16610793576040517f08c379a000000000000000000000000000000000000000000000000000000000815260040161078a9061279a565b60405180910390fd5b600047905060003373ffffffffffffffffffffffffffffffffffffffff16826040516107be906127eb565b60006040518083038185875af1925050503d80600081146107fb576040519150601f19603f3d011682016040523d82523d6000602084013e610800565b606091505b5050905080610844576040517f08c379a000000000000000000000000000000000000000000000000000000000815260040161083b9061284c565b60405180910390fd5b5050565b60115481565b60606013805480602002602001604051908101604052809291908181526020016000905b8282101561094e57838290600052602060002090600502016040518060c0016040529081600082015481526020016001820160009054906101000a900473ffffffffffffffffffffffffffffffffffffffff1673ffffffffffffffffffffffffffffffffffffffff1673ffffffffffffffffffffffffffffffffffffffff16815260200160028201548152602001600382015481526020016004820160009054906101000a900460ff161515151581526020016004820160019054906101000a900460ff16151515158152505081526020019060010190610872565b50505050905090565b60075481565b610965611792565b600960009054906101000a900460ff166109b4576040517f08c379a00000000000000000000000000000000000000000000000000000000081526004016109ab9061279a565b60405180910390fd5b600081116109f7576040517f08c379a00000000000000000000000000000000000000000000000000000000081526004016109ee906128de565b60405180910390fd5b600060058054905014610a3f576040517f08c379a0000000000000000000000000000000000000000000000000000000008152600401610a369061294a565b60405180910390fd5b600480549050811115610a87576040517f08c379a0000000000000000000000000000000000000000000000000000000008152600401610a7e906129dc565b60405180910390fd5b600b6000600e54815260200190815260200160002060000160009054906101000a900460ff16610aec576040517f08c379a0000000000000000000000000000000000000000000000000000000008152600401610ae390612a48565b60405180910390fd5b610af581611824565b50565b60126020528060005260406000206000915090505481565b610b18611b3c565b600960009054906101000a900460ff1615610b68576040517f08c379a0000000000000000000000000000000000000000000000000000000008152600401610b5f90612ab4565b60405180910390fd5b600854421015610bad576040517f08c379a0000000000000000000000000000000000000000000000000000000008152600401610ba490612b20565b60405180910390fd5b600a5481610bbb9190612b6f565b341015610bfd576040517f08c379a0000000000000000000000000000000000000000000000000000000008152600401610bf490612bfd565b60405180910390fd5b600754421115610c42576040517f08c379a0000000000000000000000000000000000000000000000000000000008152600401610c3990612c69565b60405180910390fd5b60008080600090505b610c556003611b8b565b811015610d50573373ffffffffffffffffffffffffffffffffffffffff1660138281548110610c8757610c86612c89565b5b906000526020600020906005020160010160009054906101000a900473ffffffffffffffffffffffffffffffffffffffff1673ffffffffffffffffffffffffffffffffffffffff16148015610d0b575060138181548110610ceb57610cea612c89565b5b906000526020600020906005020160040160019054906101000a900460ff165b15610d3d576001925060138181548110610d2857610d27612c89565b5b90600052602060002090600502016000015491505b8080610d4890612cb8565b915050610c4b565b508115610d98578260138281548110610d6c57610d6b612c89565b5b90600052602060002090600502016002016000828254610d8c9190612d00565b92505081905550610f34565b60006040518060c00160405280610daf6003611b8b565b81526020013373ffffffffffffffffffffffffffffffffffffffff16815260200185815260200160008152602001600015158152602001600115158152509050610df96003611b8b565b601260003373ffffffffffffffffffffffffffffffffffffffff1673ffffffffffffffffffffffffffffffffffffffff16815260200190815260200160002081905550610e466003611b99565b60138190806001815401808255809150506001900390600052602060002090600502016000909190919091506000820151816000015560208201518160010160006101000a81548173ffffffffffffffffffffffffffffffffffffffff021916908373ffffffffffffffffffffffffffffffffffffffff160217905550604082015181600201556060820151816003015560808201518160040160006101000a81548160ff02191690831515021790555060a08201518160040160016101000a81548160ff02191690831515021790555050508360116000828254610f2b9190612d00565b92505081905550505b60005b83811015610fb5576004339080600181540180825580915050600190039060005260206000200160009091909190916101000a81548173ffffffffffffffffffffffffffffffffffffffff021916908373ffffffffffffffffffffffffffffffffffffffff1602179055508080610fad90612cb8565b915050610f37565b507fe11731cb4f1eb3ec3dd09bdc96809bb07365f4c881cda3192b397a4bc0b6da403384604051610fe7929190612d34565b60405180910390a15050610ff9611baf565b50565b6000611006611792565b6001600960006101000a81548160ff021916908315150217905550600061102b611bb9565b90508091505090565b6013818154811061104457600080fd5b90600052602060002090600502016000915090508060000154908060010160009054906101000a900473ffffffffffffffffffffffffffffffffffffffff16908060020154908060030154908060040160009054906101000a900460ff16908060040160019054906101000a900460ff16905086565b600260009054906101000a900473ffffffffffffffffffffffffffffffffffffffff1673ffffffffffffffffffffffffffffffffffffffff163373ffffffffffffffffffffffffffffffffffffffff161461114a576040517f08c379a000000000000000000000000000000000000000000000000000000000815260040161114190612da9565b60405180910390fd5b6000600160009054906101000a900473ffffffffffffffffffffffffffffffffffffffff16905033600160006101000a81548173ffffffffffffffffffffffffffffffffffffffff021916908373ffffffffffffffffffffffffffffffffffffffff1602179055506000600260006101000a81548173ffffffffffffffffffffffffffffffffffffffff021916908373ffffffffffffffffffffffffffffffffffffffff1602179055503373ffffffffffffffffffffffffffffffffffffffff168173ffffffffffffffffffffffffffffffffffffffff167f8be0079c531659141344cd1fd0a4f28419497f9722a3daafe3b4186f6b6457e060405160405180910390a350565b600d818154811061126157600080fd5b906000526020600020016000915090505481565b606060048054806020026020016040519081016040528092919081815260200182805480156112f957602002820191906000526020600020905b8160009054906101000a900473ffffffffffffffffffffffffffffffffffffffff1673ffffffffffffffffffffffffffffffffffffffff16815260200190600101908083116112af575b5050505050905090565b60065481565b6000600160009054906101000a900473ffffffffffffffffffffffffffffffffffffffff16905090565b600b6020528060005260406000206000915090508060000160009054906101000a900460ff16908060000160019054906101000a900460ff16905082565b6005818154811061138157600080fd5b906000526020600020016000915054906101000a900473ffffffffffffffffffffffffffffffffffffffff1681565b600481815481106113c057600080fd5b906000526020600020016000915054906101000a900473ffffffffffffffffffffffffffffffffffffffff1681565b60006060600b600084815260200190815260200160002060000160019054906101000a900460ff16611456576040517f08c379a000000000000000000000000000000000000000000000000000000000815260040161144d90612e15565b60405180910390fd5b6000600b60008581526020019081526020016000206040518060600160405290816000820160009054906101000a900460ff161515151581526020016000820160019054906101000a900460ff16151515158152602001600182018054806020026020016040519081016040528092919081815260200182805480156114fb57602002820191906000526020600020905b8154815260200190600101908083116114e7575b5050505050815250509050806000015181604001519250925050915091565b611522611792565b60008111611565576040517f08c379a000000000000000000000000000000000000000000000000000000000815260040161155c90612e81565b60405180910390fd5b600082116115a8576040517f08c379a000000000000000000000000000000000000000000000000000000000815260040161159f90612eed565b60405180910390fd5b603c816115b59190612b6f565b826115c09190612d00565b600781905550816008819055505050565b6060600580548060200260200160405190810160405280929190818152602001828054801561165557602002820191906000526020600020905b8160009054906101000a900473ffffffffffffffffffffffffffffffffffffffff1673ffffffffffffffffffffffffffffffffffffffff168152602001906001019080831161160b575b5050505050905090565b600960009054906101000a900460ff1681565b60038060000154905081565b611686611792565b61168f81611e0a565b50565b600e5481565b600b600083815260200190815260200160002060000160019054906101000a900460ff166116fb576040517f08c379a00000000000000000000000000000000000000000000000000000000081526004016116f290612e15565b60405180910390fd5b6001600b600084815260200190815260200160002060000160006101000a81548160ff02191690831515021790555080600b60008481526020019081526020016000206001019080519060200190611754929190611f76565b507ffe2e2d779dba245964d4e3ef9b994be63856fd568bf7d3ca9e224755cb1bd54d8282604051611786929190612f0d565b60405180910390a15050565b600160009054906101000a900473ffffffffffffffffffffffffffffffffffffffff1673ffffffffffffffffffffffffffffffffffffffff163373ffffffffffffffffffffffffffffffffffffffff1614611822576040517f08c379a000000000000000000000000000000000000000000000000000000000815260040161181990612f89565b60405180910390fd5b565b6000600b6000600e54815260200190815260200160002060010160008154811061185157611850612c89565b5b9060005260206000200154905060005b82811015611b3057600060048054905061187a84611f38565b6118849190612fd8565b905060056004828154811061189c5761189b612c89565b5b9060005260206000200160009054906101000a900473ffffffffffffffffffffffffffffffffffffffff169080600181540180825580915050600190039060005260206000200160009091909190916101000a81548173ffffffffffffffffffffffffffffffffffffffff021916908373ffffffffffffffffffffffffffffffffffffffff16021790555060006004828154811061193d5761193c612c89565b5b9060005260206000200160009054906101000a900473ffffffffffffffffffffffffffffffffffffffff1690506004600160048054905061197e9190613009565b8154811061198f5761198e612c89565b5b9060005260206000200160009054906101000a900473ffffffffffffffffffffffffffffffffffffffff16600483815481106119ce576119cd612c89565b5b9060005260206000200160006101000a81548173ffffffffffffffffffffffffffffffffffffffff021916908373ffffffffffffffffffffffffffffffffffffffff1602179055506004805480611a2857611a2761303d565b5b6001900381819060005260206000200160006101000a81549073ffffffffffffffffffffffffffffffffffffffff021916905590556000601260008373ffffffffffffffffffffffffffffffffffffffff1673ffffffffffffffffffffffffffffffffffffffff168152602001908152602001600020549050600160138281548110611ab757611ab6612c89565b5b906000526020600020906005020160040160006101000a81548160ff02191690831515021790555060138181548110611af357611af2612c89565b5b90600052602060002090600502016003016000815480929190611b1590612cb8565b91905055505050508080611b2890612cb8565b915050611861565b50816006819055505050565b600260005403611b81576040517f08c379a0000000000000000000000000000000000000000000000000000000008152600401611b78906130b8565b60405180910390fd5b6002600081905550565b600081600001549050919050565b6001816000016000828254019250508190555050565b6001600081905550565b6000600c60009054906101000a900473ffffffffffffffffffffffffffffffffffffffff1673ffffffffffffffffffffffffffffffffffffffff16635d3b1d30600f54600c60149054906101000a900467ffffffffffffffff16601060049054906101000a900461ffff16601060009054906101000a900463ffffffff16601060069054906101000a900463ffffffff166040518663ffffffff1660e01b8152600401611c6a959493929190613150565b6020604051808303816000875af1158015611c89573d6000803e3d6000fd5b505050506040513d601f19601f82011682018060405250810190611cad91906131b8565b90506040518060600160405280600015158152602001600115158152602001600067ffffffffffffffff811115611ce757611ce661206a565b5b604051908082528060200260200182016040528015611d155781602001602082028036833780820191505090505b50815250600b600083815260200190815260200160002060008201518160000160006101000a81548160ff02191690831515021790555060208201518160000160016101000a81548160ff0219169083151502179055506040820151816001019080519060200190611d88929190611f76565b50905050600d81908060018154018082558091505060019003906000526020600020016000909190919091505580600e819055507fcc58b13ad3eab50626c6a6300b1d139cd6ebb1688a7cced9461c2f7e762665ee81601060069054906101000a900463ffffffff16604051611dff9291906131e5565b60405180910390a190565b3373ffffffffffffffffffffffffffffffffffffffff168173ffffffffffffffffffffffffffffffffffffffff1603611e78576040517f08c379a0000000000000000000000000000000000000000000000000000000008152600401611e6f9061325a565b60405180910390fd5b80600260006101000a81548173ffffffffffffffffffffffffffffffffffffffff021916908373ffffffffffffffffffffffffffffffffffffffff1602179055508073ffffffffffffffffffffffffffffffffffffffff16600160009054906101000a900473ffffffffffffffffffffffffffffffffffffffff1673ffffffffffffffffffffffffffffffffffffffff167fed8889f560326eb138920d842192f0eb3dd22b4f139c87a2c57538e05bae127860405160405180910390a350565b6000444260048054905084604051602001611f56949392919061329b565b6040516020818303038152906040528051906020012060001c9050919050565b828054828255906000526020600020908101928215611fb2579160200282015b82811115611fb1578251825591602001919060010190611f96565b5b509050611fbf9190611fc3565b5090565b5b80821115611fdc576000816000905550600101611fc4565b5090565b6000819050919050565b611ff381611fe0565b82525050565b600060208201905061200e6000830184611fea565b92915050565b6000604051905090565b600080fd5b600080fd5b61203181611fe0565b811461203c57600080fd5b50565b60008135905061204e81612028565b92915050565b600080fd5b6000601f19601f8301169050919050565b7f4e487b7100000000000000000000000000000000000000000000000000000000600052604160045260246000fd5b6120a282612059565b810181811067ffffffffffffffff821117156120c1576120c061206a565b5b80604052505050565b60006120d4612014565b90506120e08282612099565b919050565b600067ffffffffffffffff821115612100576120ff61206a565b5b602082029050602081019050919050565b600080fd5b6000612129612124846120e5565b6120ca565b9050808382526020820190506020840283018581111561214c5761214b612111565b5b835b818110156121755780612161888261203f565b84526020840193505060208101905061214e565b5050509392505050565b600082601f83011261219457612193612054565b5b81356121a4848260208601612116565b91505092915050565b600080604083850312156121c4576121c361201e565b5b60006121d28582860161203f565b925050602083013567ffffffffffffffff8111156121f3576121f2612023565b5b6121ff8582860161217f565b9150509250929050565b600081519050919050565b600082825260208201905092915050565b6000819050602082019050919050565b61223e81611fe0565b82525050565b600073ffffffffffffffffffffffffffffffffffffffff82169050919050565b600061226f82612244565b9050919050565b61227f81612264565b82525050565b60008115159050919050565b61229a81612285565b82525050565b60c0820160008201516122b66000850182612235565b5060208201516122c96020850182612276565b5060408201516122dc6040850182612235565b5060608201516122ef6060850182612235565b5060808201516123026080850182612291565b5060a082015161231560a0850182612291565b50505050565b600061232783836122a0565b60c08301905092915050565b6000602082019050919050565b600061234b82612209565b6123558185612214565b935061236083612225565b8060005b83811015612391578151612378888261231b565b975061238383612333565b925050600181019050612364565b5085935050505092915050565b600060208201905081810360008301526123b88184612340565b905092915050565b6000602082840312156123d6576123d561201e565b5b60006123e48482850161203f565b91505092915050565b6123f681612264565b811461240157600080fd5b50565b600081359050612413816123ed565b92915050565b60006020828403121561242f5761242e61201e565b5b600061243d84828501612404565b91505092915050565b61244f81612264565b82525050565b61245e81612285565b82525050565b600060c0820190506124796000830189611fea565b6124866020830188612446565b6124936040830187611fea565b6124a06060830186611fea565b6124ad6080830185612455565b6124ba60a0830184612455565b979650505050505050565b600081519050919050565b600082825260208201905092915050565b6000819050602082019050919050565b60006124fd8383612276565b60208301905092915050565b6000602082019050919050565b6000612521826124c5565b61252b81856124d0565b9350612536836124e1565b8060005b8381101561256757815161254e88826124f1565b975061255983612509565b92505060018101905061253a565b5085935050505092915050565b6000602082019050818103600083015261258e8184612516565b905092915050565b60006020820190506125ab6000830184612446565b92915050565b60006040820190506125c66000830185612455565b6125d36020830184612455565b9392505050565b600081519050919050565b600082825260208201905092915050565b6000819050602082019050919050565b60006126128383612235565b60208301905092915050565b6000602082019050919050565b6000612636826125da565b61264081856125e5565b935061264b836125f6565b8060005b8381101561267c5781516126638882612606565b975061266e8361261e565b92505060018101905061264f565b5085935050505092915050565b600060408201905061269e6000830185612455565b81810360208301526126b0818461262b565b90509392505050565b600080604083850312156126d0576126cf61201e565b5b60006126de8582860161203f565b92505060206126ef8582860161203f565b9150509250929050565b600060208201905061270e6000830184612455565b92915050565b60006040820190506127296000830185612446565b6127366020830184612446565b9392505050565b600082825260208201905092915050565b7f4c6f7474657279206973207374696c6c206f70656e0000000000000000000000600082015250565b600061278460158361273d565b915061278f8261274e565b602082019050919050565b600060208201905081810360008301526127b381612777565b9050919050565b600081905092915050565b50565b60006127d56000836127ba565b91506127e0826127c5565b600082019050919050565b60006127f6826127c8565b9150819050919050565b7f726566756e64206661696c000000000000000000000000000000000000000000600082015250565b6000612836600b8361273d565b915061284182612800565b602082019050919050565b6000602082019050818103600083015261286581612829565b9050919050565b7f496e76616c69642076616c7565206f66206e756d626572206f662077696e6e6560008201527f7273000000000000000000000000000000000000000000000000000000000000602082015250565b60006128c860228361273d565b91506128d38261286c565b604082019050919050565b600060208201905081810360008301526128f7816128bb565b9050919050565b7f616c7265616479207365742057696e6e65720000000000000000000000000000600082015250565b600061293460128361273d565b915061293f826128fe565b602082019050919050565b6000602082019050818103600083015261296381612927565b9050919050565b7f4e756d626572206f662077696e6e657273206578636565647320746f74616c2060008201527f706c617965727300000000000000000000000000000000000000000000000000602082015250565b60006129c660278361273d565b91506129d18261296a565b604082019050919050565b600060208201905081810360008301526129f5816129b9565b9050919050565b7f6572726f72207769746820636861696e6c696e6b207265717565737400000000600082015250565b6000612a32601c8361273d565b9150612a3d826129fc565b602082019050919050565b60006020820190508181036000830152612a6181612a25565b9050919050565b7f4c6f747465727920697320636c6f736564000000000000000000000000000000600082015250565b6000612a9e60118361273d565b9150612aa982612a68565b602082019050919050565b60006020820190508181036000830152612acd81612a91565b9050919050565b7f4c6f7474657279206861736e2774207374617274656400000000000000000000600082015250565b6000612b0a60168361273d565b9150612b1582612ad4565b602082019050919050565b60006020820190508181036000830152612b3981612afd565b9050919050565b7f4e487b7100000000000000000000000000000000000000000000000000000000600052601160045260246000fd5b6000612b7a82611fe0565b9150612b8583611fe0565b9250828202612b9381611fe0565b91508282048414831517612baa57612ba9612b40565b5b5092915050565b7f4d696e696d756d207469636b6574207072696365206973206e6f74206d657400600082015250565b6000612be7601f8361273d565b9150612bf282612bb1565b602082019050919050565b60006020820190508181036000830152612c1681612bda565b9050919050565b7f4c6f747465727920646561646c696e6520686173207061737365640000000000600082015250565b6000612c53601b8361273d565b9150612c5e82612c1d565b602082019050919050565b60006020820190508181036000830152612c8281612c46565b9050919050565b7f4e487b7100000000000000000000000000000000000000000000000000000000600052603260045260246000fd5b6000612cc382611fe0565b91507fffffffffffffffffffffffffffffffffffffffffffffffffffffffffffffffff8203612cf557612cf4612b40565b5b600182019050919050565b6000612d0b82611fe0565b9150612d1683611fe0565b9250828201905080821115612d2e57612d2d612b40565b5b92915050565b6000604082019050612d496000830185612446565b612d566020830184611fea565b9392505050565b7f4d7573742062652070726f706f736564206f776e657200000000000000000000600082015250565b6000612d9360168361273d565b9150612d9e82612d5d565b602082019050919050565b60006020820190508181036000830152612dc281612d86565b9050919050565b7f72657175657374206e6f7420666f756e64000000000000000000000000000000600082015250565b6000612dff60118361273d565b9150612e0a82612dc9565b602082019050919050565b60006020820190508181036000830152612e2e81612df2565b9050919050565b7f696e76616c6964652076616c7565206f66206475726174696f6e000000000000600082015250565b6000612e6b601a8361273d565b9150612e7682612e35565b602082019050919050565b60006020820190508181036000830152612e9a81612e5e565b9050919050565b7f696e76616c6964652076616c7565206f66207374617274446174650000000000600082015250565b6000612ed7601b8361273d565b9150612ee282612ea1565b602082019050919050565b60006020820190508181036000830152612f0681612eca565b9050919050565b6000604082019050612f226000830185611fea565b8181036020830152612f34818461262b565b90509392505050565b7f4f6e6c792063616c6c61626c65206279206f776e657200000000000000000000600082015250565b6000612f7360168361273d565b9150612f7e82612f3d565b602082019050919050565b60006020820190508181036000830152612fa281612f66565b9050919050565b7f4e487b7100000000000000000000000000000000000000000000000000000000600052601260045260246000fd5b6000612fe382611fe0565b9150612fee83611fe0565b925082612ffe57612ffd612fa9565b5b828206905092915050565b600061301482611fe0565b915061301f83611fe0565b925082820390508181111561303757613036612b40565b5b92915050565b7f4e487b7100000000000000000000000000000000000000000000000000000000600052603160045260246000fd5b7f5265656e7472616e637947756172643a207265656e7472616e742063616c6c00600082015250565b60006130a2601f8361273d565b91506130ad8261306c565b602082019050919050565b600060208201905081810360008301526130d181613095565b9050919050565b6000819050919050565b6130eb816130d8565b82525050565b600067ffffffffffffffff82169050919050565b61310e816130f1565b82525050565b600061ffff82169050919050565b61312b81613114565b82525050565b600063ffffffff82169050919050565b61314a81613131565b82525050565b600060a08201905061316560008301886130e2565b6131726020830187613105565b61317f6040830186613122565b61318c6060830185613141565b6131996080830184613141565b9695505050505050565b6000815190506131b281612028565b92915050565b6000602082840312156131ce576131cd61201e565b5b60006131dc848285016131a3565b91505092915050565b60006040820190506131fa6000830185611fea565b6132076020830184613141565b9392505050565b7f43616e6e6f74207472616e7366657220746f2073656c66000000000000000000600082015250565b600061324460178361273d565b915061324f8261320e565b602082019050919050565b6000602082019050818103600083015261327381613237565b9050919050565b6000819050919050565b61329561329082611fe0565b61327a565b82525050565b60006132a78287613284565b6020820191506132b78286613284565b6020820191506132c78285613284565b6020820191506132d78284613284565b6020820191508190509594505050505056fea264697066735822122085fd2a809ad5d381e7ee27f9541d0920c1a333626d5d60ede978525d5956a0d964736f6c63430008120033",
  "linkReferences": {},
  "deployedLinkReferences": {}
}