{
    "_format": "hh-sol-artifact-1",
    "contractName": "RaffleG_0",
    "sourceName": "contracts/raffleG_0.sol",
    "abi": [
        {
            "inputs": [
                {
                    "internalType": "uint256",
                    "name": "_startDate",
                    "type": "uint256"
                },
                {
                    "internalType": "uint256",
                    "name": "_durationInMinutes",
                    "type": "uint256"
                },
                {
                    "internalType": "uint256",
                    "name": "_ticketPrice",
                    "type": "uint256"
                },
                {
                    "internalType": "uint64",
                    "name": "subscriptionId",
                    "type": "uint64"
                }
            ],
            "stateMutability": "nonpayable",
            "type": "constructor"
        },
        {
            "inputs": [
                {
                    "internalType": "address",
                    "name": "have",
                    "type": "address"
                },
                {
                    "internalType": "address",
                    "name": "want",
                    "type": "address"
                }
            ],
            "name": "OnlyCoordinatorCanFulfill",
            "type": "error"
        },
        {
            "anonymous": false,
            "inputs": [
                {
                    "indexed": true,
                    "internalType": "address",
                    "name": "from",
                    "type": "address"
                },
                {
                    "indexed": true,
                    "internalType": "address",
                    "name": "to",
                    "type": "address"
                }
            ],
            "name": "OwnershipTransferRequested",
            "type": "event"
        },
        {
            "anonymous": false,
            "inputs": [
                {
                    "indexed": true,
                    "internalType": "address",
                    "name": "from",
                    "type": "address"
                },
                {
                    "indexed": true,
                    "internalType": "address",
                    "name": "to",
                    "type": "address"
                }
            ],
            "name": "OwnershipTransferred",
            "type": "event"
        },
        {
            "anonymous": false,
            "inputs": [
                {
                    "indexed": false,
                    "internalType": "uint256",
                    "name": "requestId",
                    "type": "uint256"
                },
                {
                    "indexed": false,
                    "internalType": "uint256[]",
                    "name": "randomWords",
                    "type": "uint256[]"
                }
            ],
            "name": "RequestFulfilled",
            "type": "event"
        },
        {
            "anonymous": false,
            "inputs": [
                {
                    "indexed": false,
                    "internalType": "uint256",
                    "name": "requestId",
                    "type": "uint256"
                },
                {
                    "indexed": false,
                    "internalType": "uint32",
                    "name": "numWords",
                    "type": "uint32"
                }
            ],
            "name": "RequestSent",
            "type": "event"
        },
        {
            "anonymous": false,
            "inputs": [
                {
                    "indexed": false,
                    "internalType": "address",
                    "name": "addressPlayer",
                    "type": "address"
                },
                {
                    "indexed": false,
                    "internalType": "uint256",
                    "name": "nbTicket",
                    "type": "uint256"
                }
            ],
            "name": "TicketsPurchased",
            "type": "event"
        },
        {
            "inputs": [],
            "name": "acceptOwnership",
            "outputs": [],
            "stateMutability": "nonpayable",
            "type": "function"
        },
        {
            "inputs": [
                {
                    "internalType": "uint256",
                    "name": "",
                    "type": "uint256"
                }
            ],
            "name": "addressPlayers",
            "outputs": [
                {
                    "internalType": "address",
                    "name": "",
                    "type": "address"
                }
            ],
            "stateMutability": "view",
            "type": "function"
        },
        {
            "inputs": [
                {
                    "internalType": "uint256",
                    "name": "_nbTickets",
                    "type": "uint256"
                }
            ],
            "name": "buyTicket",
            "outputs": [],
            "stateMutability": "payable",
            "type": "function"
        },
        {
            "inputs": [],
            "name": "closeLottery",
            "outputs": [
                {
                    "internalType": "uint256",
                    "name": "",
                    "type": "uint256"
                }
            ],
            "stateMutability": "nonpayable",
            "type": "function"
        },
        {
            "inputs": [],
            "name": "deadline",
            "outputs": [
                {
                    "internalType": "uint256",
                    "name": "",
                    "type": "uint256"
                }
            ],
            "stateMutability": "view",
            "type": "function"
        },
        {
            "inputs": [],
            "name": "getPlayers",
            "outputs": [
                {
                    "internalType": "address[]",
                    "name": "",
                    "type": "address[]"
                }
            ],
            "stateMutability": "view",
            "type": "function"
        },
        {
            "inputs": [],
            "name": "getPlayersList",
            "outputs": [
                {
                    "components": [
                        {
                            "internalType": "uint256",
                            "name": "idPlayer",
                            "type": "uint256"
                        },
                        {
                            "internalType": "address",
                            "name": "addressPlayer",
                            "type": "address"
                        },
                        {
                            "internalType": "uint256",
                            "name": "ticketsBought",
                            "type": "uint256"
                        },
                        {
                            "internalType": "uint256",
                            "name": "nbOfWin",
                            "type": "uint256"
                        },
                        {
                            "internalType": "bool",
                            "name": "isWinner",
                            "type": "bool"
                        },
                        {
                            "internalType": "bool",
                            "name": "playerExist",
                            "type": "bool"
                        }
                    ],
                    "internalType": "struct RaffleG_0.Player[]",
                    "name": "",
                    "type": "tuple[]"
                }
            ],
            "stateMutability": "view",
            "type": "function"
        },
        {
            "inputs": [
                {
                    "internalType": "uint256",
                    "name": "_requestId",
                    "type": "uint256"
                }
            ],
            "name": "getRequestStatus",
            "outputs": [
                {
                    "internalType": "bool",
                    "name": "fulfilled",
                    "type": "bool"
                },
                {
                    "internalType": "uint256[]",
                    "name": "randomWords",
                    "type": "uint256[]"
                }
            ],
            "stateMutability": "view",
            "type": "function"
        },
        {
            "inputs": [],
            "name": "getWinners",
            "outputs": [
                {
                    "internalType": "address[]",
                    "name": "",
                    "type": "address[]"
                }
            ],
            "stateMutability": "view",
            "type": "function"
        },
        {
            "inputs": [
                {
                    "internalType": "address",
                    "name": "",
                    "type": "address"
                }
            ],
            "name": "idByAddress",
            "outputs": [
                {
                    "internalType": "uint256",
                    "name": "",
                    "type": "uint256"
                }
            ],
            "stateMutability": "view",
            "type": "function"
        },
        {
            "inputs": [],
            "name": "idCounter",
            "outputs": [
                {
                    "internalType": "uint256",
                    "name": "_value",
                    "type": "uint256"
                }
            ],
            "stateMutability": "view",
            "type": "function"
        },
        {
            "inputs": [],
            "name": "lastRequestId",
            "outputs": [
                {
                    "internalType": "uint256",
                    "name": "",
                    "type": "uint256"
                }
            ],
            "stateMutability": "view",
            "type": "function"
        },
        {
            "inputs": [],
            "name": "lotteryClosed",
            "outputs": [
                {
                    "internalType": "bool",
                    "name": "",
                    "type": "bool"
                }
            ],
            "stateMutability": "view",
            "type": "function"
        },
        {
            "inputs": [],
            "name": "nbTicketSell",
            "outputs": [
                {
                    "internalType": "uint256",
                    "name": "",
                    "type": "uint256"
                }
            ],
            "stateMutability": "view",
            "type": "function"
        },
        {
            "inputs": [],
            "name": "numWinners",
            "outputs": [
                {
                    "internalType": "uint256",
                    "name": "",
                    "type": "uint256"
                }
            ],
            "stateMutability": "view",
            "type": "function"
        },
        {
            "inputs": [],
            "name": "owner",
            "outputs": [
                {
                    "internalType": "address",
                    "name": "",
                    "type": "address"
                }
            ],
            "stateMutability": "view",
            "type": "function"
        },
        {
            "inputs": [
                {
                    "internalType": "uint256",
                    "name": "",
                    "type": "uint256"
                }
            ],
            "name": "playersList",
            "outputs": [
                {
                    "internalType": "uint256",
                    "name": "idPlayer",
                    "type": "uint256"
                },
                {
                    "internalType": "address",
                    "name": "addressPlayer",
                    "type": "address"
                },
                {
                    "internalType": "uint256",
                    "name": "ticketsBought",
                    "type": "uint256"
                },
                {
                    "internalType": "uint256",
                    "name": "nbOfWin",
                    "type": "uint256"
                },
                {
                    "internalType": "bool",
                    "name": "isWinner",
                    "type": "bool"
                },
                {
                    "internalType": "bool",
                    "name": "playerExist",
                    "type": "bool"
                }
            ],
            "stateMutability": "view",
            "type": "function"
        },
        {
            "inputs": [
                {
                    "internalType": "uint256",
                    "name": "requestId",
                    "type": "uint256"
                },
                {
                    "internalType": "uint256[]",
                    "name": "randomWords",
                    "type": "uint256[]"
                }
            ],
            "name": "rawFulfillRandomWords",
            "outputs": [],
            "stateMutability": "nonpayable",
            "type": "function"
        },
        {
            "inputs": [
                {
                    "internalType": "uint256",
                    "name": "",
                    "type": "uint256"
                }
            ],
            "name": "requestIds",
            "outputs": [
                {
                    "internalType": "uint256",
                    "name": "",
                    "type": "uint256"
                }
            ],
            "stateMutability": "view",
            "type": "function"
        },
        {
            "inputs": [
                {
                    "internalType": "uint256",
                    "name": "",
                    "type": "uint256"
                }
            ],
            "name": "s_requests",
            "outputs": [
                {
                    "internalType": "bool",
                    "name": "fulfilled",
                    "type": "bool"
                },
                {
                    "internalType": "bool",
                    "name": "exists",
                    "type": "bool"
                }
            ],
            "stateMutability": "view",
            "type": "function"
        },
        {
            "inputs": [
                {
                    "internalType": "uint256",
                    "name": "_numberOfWinners",
                    "type": "uint256"
                }
            ],
            "name": "setWinners",
            "outputs": [],
            "stateMutability": "nonpayable",
            "type": "function"
        },
        {
            "inputs": [],
            "name": "startDate",
            "outputs": [
                {
                    "internalType": "uint256",
                    "name": "",
                    "type": "uint256"
                }
            ],
            "stateMutability": "view",
            "type": "function"
        },
        {
            "inputs": [],
            "name": "ticketPrice",
            "outputs": [
                {
                    "internalType": "uint256",
                    "name": "",
                    "type": "uint256"
                }
            ],
            "stateMutability": "view",
            "type": "function"
        },
        {
            "inputs": [
                {
                    "internalType": "address",
                    "name": "to",
                    "type": "address"
                }
            ],
            "name": "transferOwnership",
            "outputs": [],
            "stateMutability": "nonpayable",
            "type": "function"
        },
        {
            "inputs": [
                {
                    "internalType": "uint256",
                    "name": "",
                    "type": "uint256"
                }
            ],
            "name": "winners",
            "outputs": [
                {
                    "internalType": "address",
                    "name": "",
                    "type": "address"
                }
            ],
            "stateMutability": "view",
            "type": "function"
        },
        {
            "inputs": [],
            "name": "withdrawFunds",
            "outputs": [],
            "stateMutability": "nonpayable",
            "type": "function"
        }
    ],
    "bytecode": "0x60a06040527f4b09e658ed251bcafeebbc69400383d49f344ace09b9576fe248bb02c003fe9f60001b600f55620186a0601060006101000a81548163ffffffff021916908363ffffffff1602179055506003601060046101000a81548161ffff021916908361ffff1602179055506001601060066101000a81548163ffffffff021916908363ffffffff1602179055503480156200009c57600080fd5b5060405162003a2838038062003a288339818101604052810190620000c2919062000587565b33806000737a1bac17ccc5b313516c5e16fb24f7659aa5ebed60016000819055508073ffffffffffffffffffffffffffffffffffffffff1660808173ffffffffffffffffffffffffffffffffffffffff168152505050600073ffffffffffffffffffffffffffffffffffffffff168273ffffffffffffffffffffffffffffffffffffffff16036200018a576040517f08c379a000000000000000000000000000000000000000000000000000000000815260040162000181906200065a565b60405180910390fd5b81600160006101000a81548173ffffffffffffffffffffffffffffffffffffffff021916908373ffffffffffffffffffffffffffffffffffffffff160217905550600073ffffffffffffffffffffffffffffffffffffffff168173ffffffffffffffffffffffffffffffffffffffff161462000212576200021181620003d160201b60201c565b5b5050504284116200025a576040517f08c379a00000000000000000000000000000000000000000000000000000000081526004016200025190620006cc565b60405180910390fd5b60008311620002a0576040517f08c379a000000000000000000000000000000000000000000000000000000000815260040162000297906200073e565b60405180910390fd5b60008211620002e6576040517f08c379a0000000000000000000000000000000000000000000000000000000008152600401620002dd90620007b0565b60405180910390fd5b737a1bac17ccc5b313516c5e16fb24f7659aa5ebed600c60006101000a81548173ffffffffffffffffffffffffffffffffffffffff021916908373ffffffffffffffffffffffffffffffffffffffff16021790555080600c60146101000a81548167ffffffffffffffff021916908367ffffffffffffffff16021790555083600881905550603c836200037a919062000801565b6008546200038991906200084c565b6007819055506000600960006101000a81548160ff021916908315150217905550600182620003b9919062000801565b600a81905550600060118190555050505050620008f9565b3373ffffffffffffffffffffffffffffffffffffffff168173ffffffffffffffffffffffffffffffffffffffff160362000442576040517f08c379a00000000000000000000000000000000000000000000000000000000081526004016200043990620008d7565b60405180910390fd5b80600260006101000a81548173ffffffffffffffffffffffffffffffffffffffff021916908373ffffffffffffffffffffffffffffffffffffffff1602179055508073ffffffffffffffffffffffffffffffffffffffff16600160009054906101000a900473ffffffffffffffffffffffffffffffffffffffff1673ffffffffffffffffffffffffffffffffffffffff167fed8889f560326eb138920d842192f0eb3dd22b4f139c87a2c57538e05bae127860405160405180910390a350565b600080fd5b6000819050919050565b6200051c8162000507565b81146200052857600080fd5b50565b6000815190506200053c8162000511565b92915050565b600067ffffffffffffffff82169050919050565b620005618162000542565b81146200056d57600080fd5b50565b600081519050620005818162000556565b92915050565b60008060008060808587031215620005a457620005a362000502565b5b6000620005b4878288016200052b565b9450506020620005c7878288016200052b565b9350506040620005da878288016200052b565b9250506060620005ed8782880162000570565b91505092959194509250565b600082825260208201905092915050565b7f43616e6e6f7420736574206f776e657220746f207a65726f0000000000000000600082015250565b600062000642601883620005f9565b91506200064f826200060a565b602082019050919050565b60006020820190508181036000830152620006758162000633565b9050919050565b7f696e76616c6964652076616c7565206f66207374617274446174650000000000600082015250565b6000620006b4601b83620005f9565b9150620006c1826200067c565b602082019050919050565b60006020820190508181036000830152620006e781620006a5565b9050919050565b7f696e76616c6964652076616c7565206f66206475726174696f6e000000000000600082015250565b600062000726601a83620005f9565b91506200073382620006ee565b602082019050919050565b60006020820190508181036000830152620007598162000717565b9050919050565b7f696e76616c6964652076616c7565206f66207469636b65742070726963650000600082015250565b600062000798601e83620005f9565b9150620007a58262000760565b602082019050919050565b60006020820190508181036000830152620007cb8162000789565b9050919050565b7f4e487b7100000000000000000000000000000000000000000000000000000000600052601160045260246000fd5b60006200080e8262000507565b91506200081b8362000507565b92508282026200082b8162000507565b91508282048414831517620008455762000844620007d2565b5b5092915050565b6000620008598262000507565b9150620008668362000507565b9250828201905080821115620008815762000880620007d2565b5b92915050565b7f43616e6e6f74207472616e7366657220746f2073656c66000000000000000000600082015250565b6000620008bf601783620005f9565b9150620008cc8262000887565b602082019050919050565b60006020820190508181036000830152620008f281620008b0565b9050919050565b60805161310c6200091c6000396000818161063a015261068e015261310c6000f3fe6080604052600436106101815760003560e01c80638796ba8c116100d1578063a725dace1161008a578063e433a58411610064578063e433a58414610582578063eb08ab28146105ad578063f2fde38b146105d8578063fc2a88c31461060157610181565b8063a725dace146104dc578063d8a4676f14610519578063df15c37e1461055757610181565b80638796ba8c146103a35780638b5b9ccc146103e05780638b7bcc861461040b5780638da5cb5b14610436578063a168fa8914610461578063a2fb11751461049f57610181565b806329dcb0cf1161013e57806367dd74ca1161011857806367dd74ca146103035780636fd098161461031f5780637319b43e1461034a57806379ba50971461038c57610181565b806329dcb0cf146102725780633c4e25901461029d57806354f9abfa146102c657610181565b80630b97bc86146101865780631209b1f6146101b15780631fe543e3146101dc57806324600fc3146102055780632668fd151461021c57806329c983ec14610247575b600080fd5b34801561019257600080fd5b5061019b61062c565b6040516101a89190611efe565b60405180910390f35b3480156101bd57600080fd5b506101c6610632565b6040516101d39190611efe565b60405180910390f35b3480156101e857600080fd5b5061020360048036038101906101fe91906120b2565b610638565b005b34801561021157600080fd5b5061021a6106f8565b005b34801561022857600080fd5b50610231610804565b60405161023e9190611efe565b60405180910390f35b34801561025357600080fd5b5061025c61080a565b60405161026991906122a3565b60405180910390f35b34801561027e57600080fd5b50610287610913565b6040516102949190611efe565b60405180910390f35b3480156102a957600080fd5b506102c460048036038101906102bf91906122c5565b610919565b005b3480156102d257600080fd5b506102ed60048036038101906102e8919061231e565b610ab4565b6040516102fa9190611efe565b60405180910390f35b61031d600480360381019061031891906122c5565b610acc565b005b34801561032b57600080fd5b50610334610fb8565b6040516103419190611efe565b60405180910390f35b34801561035657600080fd5b50610371600480360381019061036c91906122c5565b610ff0565b60405161038396959493929190612369565b60405180910390f35b34801561039857600080fd5b506103a1611076565b005b3480156103af57600080fd5b506103ca60048036038101906103c591906122c5565b61120d565b6040516103d79190611efe565b60405180910390f35b3480156103ec57600080fd5b506103f5611231565b6040516104029190612479565b60405180910390f35b34801561041757600080fd5b506104206112bf565b60405161042d9190611efe565b60405180910390f35b34801561044257600080fd5b5061044b6112c5565b604051610458919061249b565b60405180910390f35b34801561046d57600080fd5b50610488600480360381019061048391906122c5565b6112ef565b6040516104969291906124b6565b60405180910390f35b3480156104ab57600080fd5b506104c660048036038101906104c191906122c5565b61132d565b6040516104d3919061249b565b60405180910390f35b3480156104e857600080fd5b5061050360048036038101906104fe91906122c5565b61136c565b604051610510919061249b565b60405180910390f35b34801561052557600080fd5b50610540600480360381019061053b91906122c5565b6113ab565b60405161054e92919061258e565b60405180910390f35b34801561056357600080fd5b5061056c6114d6565b6040516105799190612479565b60405180910390f35b34801561058e57600080fd5b50610597611564565b6040516105a491906125be565b60405180910390f35b3480156105b957600080fd5b506105c2611577565b6040516105cf9190611efe565b60405180910390f35b3480156105e457600080fd5b506105ff60048036038101906105fa919061231e565b611583565b005b34801561060d57600080fd5b50610616611597565b6040516106239190611efe565b60405180910390f35b60085481565b600a5481565b7f000000000000000000000000000000000000000000000000000000000000000073ffffffffffffffffffffffffffffffffffffffff163373ffffffffffffffffffffffffffffffffffffffff16146106ea57337f00000000000000000000000000000000000000000000000000000000000000006040517f1cf993f40000000000000000000000000000000000000000000000000000000081526004016106e19291906125d9565b60405180910390fd5b6106f4828261159d565b5050565b610700611697565b600960009054906101000a900460ff1661074f576040517f08c379a00000000000000000000000000000000000000000000000000000000081526004016107469061265f565b60405180910390fd5b600047905060003373ffffffffffffffffffffffffffffffffffffffff168260405161077a906126b0565b60006040518083038185875af1925050503d80600081146107b7576040519150601f19603f3d011682016040523d82523d6000602084013e6107bc565b606091505b5050905080610800576040517f08c379a00000000000000000000000000000000000000000000000000000000081526004016107f790612711565b60405180910390fd5b5050565b60115481565b60606013805480602002602001604051908101604052809291908181526020016000905b8282101561090a57838290600052602060002090600502016040518060c0016040529081600082015481526020016001820160009054906101000a900473ffffffffffffffffffffffffffffffffffffffff1673ffffffffffffffffffffffffffffffffffffffff1673ffffffffffffffffffffffffffffffffffffffff16815260200160028201548152602001600382015481526020016004820160009054906101000a900460ff161515151581526020016004820160019054906101000a900460ff1615151515815250508152602001906001019061082e565b50505050905090565b60075481565b610921611697565b600960009054906101000a900460ff16610970576040517f08c379a00000000000000000000000000000000000000000000000000000000081526004016109679061265f565b60405180910390fd5b600081116109b3576040517f08c379a00000000000000000000000000000000000000000000000000000000081526004016109aa906127a3565b60405180910390fd5b6000600580549050146109fb576040517f08c379a00000000000000000000000000000000000000000000000000000000081526004016109f29061280f565b60405180910390fd5b600480549050811115610a43576040517f08c379a0000000000000000000000000000000000000000000000000000000008152600401610a3a906128a1565b60405180910390fd5b600b6000600e54815260200190815260200160002060000160009054906101000a900460ff16610aa8576040517f08c379a0000000000000000000000000000000000000000000000000000000008152600401610a9f9061290d565b60405180910390fd5b610ab181611729565b50565b60126020528060005260406000206000915090505481565b610ad4611a41565b600960009054906101000a900460ff1615610b24576040517f08c379a0000000000000000000000000000000000000000000000000000000008152600401610b1b90612979565b60405180910390fd5b600854421015610b69576040517f08c379a0000000000000000000000000000000000000000000000000000000008152600401610b60906129e5565b60405180910390fd5b600a5481610b779190612a34565b341015610bb9576040517f08c379a0000000000000000000000000000000000000000000000000000000008152600401610bb090612ac2565b60405180910390fd5b600754421115610bfe576040517f08c379a0000000000000000000000000000000000000000000000000000000008152600401610bf590612b2e565b60405180910390fd5b60008080600090505b610c116003611a90565b811015610d0c573373ffffffffffffffffffffffffffffffffffffffff1660138281548110610c4357610c42612b4e565b5b906000526020600020906005020160010160009054906101000a900473ffffffffffffffffffffffffffffffffffffffff1673ffffffffffffffffffffffffffffffffffffffff16148015610cc7575060138181548110610ca757610ca6612b4e565b5b906000526020600020906005020160040160019054906101000a900460ff165b15610cf9576001925060138181548110610ce457610ce3612b4e565b5b90600052602060002090600502016000015491505b8080610d0490612b7d565b915050610c07565b508115610d54578260138281548110610d2857610d27612b4e565b5b90600052602060002090600502016002016000828254610d489190612bc5565b92505081905550610ef0565b60006040518060c00160405280610d6b6003611a90565b81526020013373ffffffffffffffffffffffffffffffffffffffff16815260200185815260200160008152602001600015158152602001600115158152509050610db56003611a90565b601260003373ffffffffffffffffffffffffffffffffffffffff1673ffffffffffffffffffffffffffffffffffffffff16815260200190815260200160002081905550610e026003611a9e565b60138190806001815401808255809150506001900390600052602060002090600502016000909190919091506000820151816000015560208201518160010160006101000a81548173ffffffffffffffffffffffffffffffffffffffff021916908373ffffffffffffffffffffffffffffffffffffffff160217905550604082015181600201556060820151816003015560808201518160040160006101000a81548160ff02191690831515021790555060a08201518160040160016101000a81548160ff02191690831515021790555050508360116000828254610ee79190612bc5565b92505081905550505b60005b83811015610f71576004339080600181540180825580915050600190039060005260206000200160009091909190916101000a81548173ffffffffffffffffffffffffffffffffffffffff021916908373ffffffffffffffffffffffffffffffffffffffff1602179055508080610f6990612b7d565b915050610ef3565b507fe11731cb4f1eb3ec3dd09bdc96809bb07365f4c881cda3192b397a4bc0b6da403384604051610fa3929190612bf9565b60405180910390a15050610fb5611ab4565b50565b6000610fc2611697565b6001600960006101000a81548160ff0219169083151502179055506000610fe7611abe565b90508091505090565b6013818154811061100057600080fd5b90600052602060002090600502016000915090508060000154908060010160009054906101000a900473ffffffffffffffffffffffffffffffffffffffff16908060020154908060030154908060040160009054906101000a900460ff16908060040160019054906101000a900460ff16905086565b600260009054906101000a900473ffffffffffffffffffffffffffffffffffffffff1673ffffffffffffffffffffffffffffffffffffffff163373ffffffffffffffffffffffffffffffffffffffff1614611106576040517f08c379a00000000000000000000000000000000000000000000000000000000081526004016110fd90612c6e565b60405180910390fd5b6000600160009054906101000a900473ffffffffffffffffffffffffffffffffffffffff16905033600160006101000a81548173ffffffffffffffffffffffffffffffffffffffff021916908373ffffffffffffffffffffffffffffffffffffffff1602179055506000600260006101000a81548173ffffffffffffffffffffffffffffffffffffffff021916908373ffffffffffffffffffffffffffffffffffffffff1602179055503373ffffffffffffffffffffffffffffffffffffffff168173ffffffffffffffffffffffffffffffffffffffff167f8be0079c531659141344cd1fd0a4f28419497f9722a3daafe3b4186f6b6457e060405160405180910390a350565b600d818154811061121d57600080fd5b906000526020600020016000915090505481565b606060048054806020026020016040519081016040528092919081815260200182805480156112b557602002820191906000526020600020905b8160009054906101000a900473ffffffffffffffffffffffffffffffffffffffff1673ffffffffffffffffffffffffffffffffffffffff168152602001906001019080831161126b575b5050505050905090565b60065481565b6000600160009054906101000a900473ffffffffffffffffffffffffffffffffffffffff16905090565b600b6020528060005260406000206000915090508060000160009054906101000a900460ff16908060000160019054906101000a900460ff16905082565b6005818154811061133d57600080fd5b906000526020600020016000915054906101000a900473ffffffffffffffffffffffffffffffffffffffff1681565b6004818154811061137c57600080fd5b906000526020600020016000915054906101000a900473ffffffffffffffffffffffffffffffffffffffff1681565b60006060600b600084815260200190815260200160002060000160019054906101000a900460ff16611412576040517f08c379a000000000000000000000000000000000000000000000000000000000815260040161140990612cda565b60405180910390fd5b6000600b60008581526020019081526020016000206040518060600160405290816000820160009054906101000a900460ff161515151581526020016000820160019054906101000a900460ff16151515158152602001600182018054806020026020016040519081016040528092919081815260200182805480156114b757602002820191906000526020600020905b8154815260200190600101908083116114a3575b5050505050815250509050806000015181604001519250925050915091565b6060600580548060200260200160405190810160405280929190818152602001828054801561155a57602002820191906000526020600020905b8160009054906101000a900473ffffffffffffffffffffffffffffffffffffffff1673ffffffffffffffffffffffffffffffffffffffff1681526020019060010190808311611510575b5050505050905090565b600960009054906101000a900460ff1681565b60038060000154905081565b61158b611697565b61159481611d0f565b50565b600e5481565b600b600083815260200190815260200160002060000160019054906101000a900460ff16611600576040517f08c379a00000000000000000000000000000000000000000000000000000000081526004016115f790612cda565b60405180910390fd5b6001600b600084815260200190815260200160002060000160006101000a81548160ff02191690831515021790555080600b60008481526020019081526020016000206001019080519060200190611659929190611e7b565b507ffe2e2d779dba245964d4e3ef9b994be63856fd568bf7d3ca9e224755cb1bd54d828260405161168b929190612cfa565b60405180910390a15050565b600160009054906101000a900473ffffffffffffffffffffffffffffffffffffffff1673ffffffffffffffffffffffffffffffffffffffff163373ffffffffffffffffffffffffffffffffffffffff1614611727576040517f08c379a000000000000000000000000000000000000000000000000000000000815260040161171e90612d76565b60405180910390fd5b565b6000600b6000600e54815260200190815260200160002060010160008154811061175657611755612b4e565b5b9060005260206000200154905060005b82811015611a3557600060048054905061177f84611e3d565b6117899190612dc5565b90506005600482815481106117a1576117a0612b4e565b5b9060005260206000200160009054906101000a900473ffffffffffffffffffffffffffffffffffffffff169080600181540180825580915050600190039060005260206000200160009091909190916101000a81548173ffffffffffffffffffffffffffffffffffffffff021916908373ffffffffffffffffffffffffffffffffffffffff16021790555060006004828154811061184257611841612b4e565b5b9060005260206000200160009054906101000a900473ffffffffffffffffffffffffffffffffffffffff169050600460016004805490506118839190612df6565b8154811061189457611893612b4e565b5b9060005260206000200160009054906101000a900473ffffffffffffffffffffffffffffffffffffffff16600483815481106118d3576118d2612b4e565b5b9060005260206000200160006101000a81548173ffffffffffffffffffffffffffffffffffffffff021916908373ffffffffffffffffffffffffffffffffffffffff160217905550600480548061192d5761192c612e2a565b5b6001900381819060005260206000200160006101000a81549073ffffffffffffffffffffffffffffffffffffffff021916905590556000601260008373ffffffffffffffffffffffffffffffffffffffff1673ffffffffffffffffffffffffffffffffffffffff1681526020019081526020016000205490506001601382815481106119bc576119bb612b4e565b5b906000526020600020906005020160040160006101000a81548160ff021916908315150217905550601381815481106119f8576119f7612b4e565b5b90600052602060002090600502016003016000815480929190611a1a90612b7d565b91905055505050508080611a2d90612b7d565b915050611766565b50816006819055505050565b600260005403611a86576040517f08c379a0000000000000000000000000000000000000000000000000000000008152600401611a7d90612ea5565b60405180910390fd5b6002600081905550565b600081600001549050919050565b6001816000016000828254019250508190555050565b6001600081905550565b6000600c60009054906101000a900473ffffffffffffffffffffffffffffffffffffffff1673ffffffffffffffffffffffffffffffffffffffff16635d3b1d30600f54600c60149054906101000a900467ffffffffffffffff16601060049054906101000a900461ffff16601060009054906101000a900463ffffffff16601060069054906101000a900463ffffffff166040518663ffffffff1660e01b8152600401611b6f959493929190612f3d565b6020604051808303816000875af1158015611b8e573d6000803e3d6000fd5b505050506040513d601f19601f82011682018060405250810190611bb29190612fa5565b90506040518060600160405280600015158152602001600115158152602001600067ffffffffffffffff811115611bec57611beb611f6f565b5b604051908082528060200260200182016040528015611c1a5781602001602082028036833780820191505090505b50815250600b600083815260200190815260200160002060008201518160000160006101000a81548160ff02191690831515021790555060208201518160000160016101000a81548160ff0219169083151502179055506040820151816001019080519060200190611c8d929190611e7b565b50905050600d81908060018154018082558091505060019003906000526020600020016000909190919091505580600e819055507fcc58b13ad3eab50626c6a6300b1d139cd6ebb1688a7cced9461c2f7e762665ee81601060069054906101000a900463ffffffff16604051611d04929190612fd2565b60405180910390a190565b3373ffffffffffffffffffffffffffffffffffffffff168173ffffffffffffffffffffffffffffffffffffffff1603611d7d576040517f08c379a0000000000000000000000000000000000000000000000000000000008152600401611d7490613047565b60405180910390fd5b80600260006101000a81548173ffffffffffffffffffffffffffffffffffffffff021916908373ffffffffffffffffffffffffffffffffffffffff1602179055508073ffffffffffffffffffffffffffffffffffffffff16600160009054906101000a900473ffffffffffffffffffffffffffffffffffffffff1673ffffffffffffffffffffffffffffffffffffffff167fed8889f560326eb138920d842192f0eb3dd22b4f139c87a2c57538e05bae127860405160405180910390a350565b6000444260048054905084604051602001611e5b9493929190613088565b6040516020818303038152906040528051906020012060001c9050919050565b828054828255906000526020600020908101928215611eb7579160200282015b82811115611eb6578251825591602001919060010190611e9b565b5b509050611ec49190611ec8565b5090565b5b80821115611ee1576000816000905550600101611ec9565b5090565b6000819050919050565b611ef881611ee5565b82525050565b6000602082019050611f136000830184611eef565b92915050565b6000604051905090565b600080fd5b600080fd5b611f3681611ee5565b8114611f4157600080fd5b50565b600081359050611f5381611f2d565b92915050565b600080fd5b6000601f19601f8301169050919050565b7f4e487b7100000000000000000000000000000000000000000000000000000000600052604160045260246000fd5b611fa782611f5e565b810181811067ffffffffffffffff82111715611fc657611fc5611f6f565b5b80604052505050565b6000611fd9611f19565b9050611fe58282611f9e565b919050565b600067ffffffffffffffff82111561200557612004611f6f565b5b602082029050602081019050919050565b600080fd5b600061202e61202984611fea565b611fcf565b9050808382526020820190506020840283018581111561205157612050612016565b5b835b8181101561207a57806120668882611f44565b845260208401935050602081019050612053565b5050509392505050565b600082601f83011261209957612098611f59565b5b81356120a984826020860161201b565b91505092915050565b600080604083850312156120c9576120c8611f23565b5b60006120d785828601611f44565b925050602083013567ffffffffffffffff8111156120f8576120f7611f28565b5b61210485828601612084565b9150509250929050565b600081519050919050565b600082825260208201905092915050565b6000819050602082019050919050565b61214381611ee5565b82525050565b600073ffffffffffffffffffffffffffffffffffffffff82169050919050565b600061217482612149565b9050919050565b61218481612169565b82525050565b60008115159050919050565b61219f8161218a565b82525050565b60c0820160008201516121bb600085018261213a565b5060208201516121ce602085018261217b565b5060408201516121e1604085018261213a565b5060608201516121f4606085018261213a565b5060808201516122076080850182612196565b5060a082015161221a60a0850182612196565b50505050565b600061222c83836121a5565b60c08301905092915050565b6000602082019050919050565b60006122508261210e565b61225a8185612119565b93506122658361212a565b8060005b8381101561229657815161227d8882612220565b975061228883612238565b925050600181019050612269565b5085935050505092915050565b600060208201905081810360008301526122bd8184612245565b905092915050565b6000602082840312156122db576122da611f23565b5b60006122e984828501611f44565b91505092915050565b6122fb81612169565b811461230657600080fd5b50565b600081359050612318816122f2565b92915050565b60006020828403121561233457612333611f23565b5b600061234284828501612309565b91505092915050565b61235481612169565b82525050565b6123638161218a565b82525050565b600060c08201905061237e6000830189611eef565b61238b602083018861234b565b6123986040830187611eef565b6123a56060830186611eef565b6123b2608083018561235a565b6123bf60a083018461235a565b979650505050505050565b600081519050919050565b600082825260208201905092915050565b6000819050602082019050919050565b6000612402838361217b565b60208301905092915050565b6000602082019050919050565b6000612426826123ca565b61243081856123d5565b935061243b836123e6565b8060005b8381101561246c57815161245388826123f6565b975061245e8361240e565b92505060018101905061243f565b5085935050505092915050565b60006020820190508181036000830152612493818461241b565b905092915050565b60006020820190506124b0600083018461234b565b92915050565b60006040820190506124cb600083018561235a565b6124d8602083018461235a565b9392505050565b600081519050919050565b600082825260208201905092915050565b6000819050602082019050919050565b6000612517838361213a565b60208301905092915050565b6000602082019050919050565b600061253b826124df565b61254581856124ea565b9350612550836124fb565b8060005b83811015612581578151612568888261250b565b975061257383612523565b925050600181019050612554565b5085935050505092915050565b60006040820190506125a3600083018561235a565b81810360208301526125b58184612530565b90509392505050565b60006020820190506125d3600083018461235a565b92915050565b60006040820190506125ee600083018561234b565b6125fb602083018461234b565b9392505050565b600082825260208201905092915050565b7f4c6f7474657279206973207374696c6c206f70656e0000000000000000000000600082015250565b6000612649601583612602565b915061265482612613565b602082019050919050565b600060208201905081810360008301526126788161263c565b9050919050565b600081905092915050565b50565b600061269a60008361267f565b91506126a58261268a565b600082019050919050565b60006126bb8261268d565b9150819050919050565b7f726566756e64206661696c000000000000000000000000000000000000000000600082015250565b60006126fb600b83612602565b9150612706826126c5565b602082019050919050565b6000602082019050818103600083015261272a816126ee565b9050919050565b7f496e76616c69642076616c7565206f66206e756d626572206f662077696e6e6560008201527f7273000000000000000000000000000000000000000000000000000000000000602082015250565b600061278d602283612602565b915061279882612731565b604082019050919050565b600060208201905081810360008301526127bc81612780565b9050919050565b7f616c7265616479207365742057696e6e65720000000000000000000000000000600082015250565b60006127f9601283612602565b9150612804826127c3565b602082019050919050565b60006020820190508181036000830152612828816127ec565b9050919050565b7f4e756d626572206f662077696e6e657273206578636565647320746f74616c2060008201527f706c617965727300000000000000000000000000000000000000000000000000602082015250565b600061288b602783612602565b91506128968261282f565b604082019050919050565b600060208201905081810360008301526128ba8161287e565b9050919050565b7f6572726f72207769746820636861696e6c696e6b207265717565737400000000600082015250565b60006128f7601c83612602565b9150612902826128c1565b602082019050919050565b60006020820190508181036000830152612926816128ea565b9050919050565b7f4c6f747465727920697320636c6f736564000000000000000000000000000000600082015250565b6000612963601183612602565b915061296e8261292d565b602082019050919050565b6000602082019050818103600083015261299281612956565b9050919050565b7f4c6f7474657279206861736e2774207374617274656400000000000000000000600082015250565b60006129cf601683612602565b91506129da82612999565b602082019050919050565b600060208201905081810360008301526129fe816129c2565b9050919050565b7f4e487b7100000000000000000000000000000000000000000000000000000000600052601160045260246000fd5b6000612a3f82611ee5565b9150612a4a83611ee5565b9250828202612a5881611ee5565b91508282048414831517612a6f57612a6e612a05565b5b5092915050565b7f4d696e696d756d207469636b6574207072696365206973206e6f74206d657400600082015250565b6000612aac601f83612602565b9150612ab782612a76565b602082019050919050565b60006020820190508181036000830152612adb81612a9f565b9050919050565b7f4c6f747465727920646561646c696e6520686173207061737365640000000000600082015250565b6000612b18601b83612602565b9150612b2382612ae2565b602082019050919050565b60006020820190508181036000830152612b4781612b0b565b9050919050565b7f4e487b7100000000000000000000000000000000000000000000000000000000600052603260045260246000fd5b6000612b8882611ee5565b91507fffffffffffffffffffffffffffffffffffffffffffffffffffffffffffffffff8203612bba57612bb9612a05565b5b600182019050919050565b6000612bd082611ee5565b9150612bdb83611ee5565b9250828201905080821115612bf357612bf2612a05565b5b92915050565b6000604082019050612c0e600083018561234b565b612c1b6020830184611eef565b9392505050565b7f4d7573742062652070726f706f736564206f776e657200000000000000000000600082015250565b6000612c58601683612602565b9150612c6382612c22565b602082019050919050565b60006020820190508181036000830152612c8781612c4b565b9050919050565b7f72657175657374206e6f7420666f756e64000000000000000000000000000000600082015250565b6000612cc4601183612602565b9150612ccf82612c8e565b602082019050919050565b60006020820190508181036000830152612cf381612cb7565b9050919050565b6000604082019050612d0f6000830185611eef565b8181036020830152612d218184612530565b90509392505050565b7f4f6e6c792063616c6c61626c65206279206f776e657200000000000000000000600082015250565b6000612d60601683612602565b9150612d6b82612d2a565b602082019050919050565b60006020820190508181036000830152612d8f81612d53565b9050919050565b7f4e487b7100000000000000000000000000000000000000000000000000000000600052601260045260246000fd5b6000612dd082611ee5565b9150612ddb83611ee5565b925082612deb57612dea612d96565b5b828206905092915050565b6000612e0182611ee5565b9150612e0c83611ee5565b9250828203905081811115612e2457612e23612a05565b5b92915050565b7f4e487b7100000000000000000000000000000000000000000000000000000000600052603160045260246000fd5b7f5265656e7472616e637947756172643a207265656e7472616e742063616c6c00600082015250565b6000612e8f601f83612602565b9150612e9a82612e59565b602082019050919050565b60006020820190508181036000830152612ebe81612e82565b9050919050565b6000819050919050565b612ed881612ec5565b82525050565b600067ffffffffffffffff82169050919050565b612efb81612ede565b82525050565b600061ffff82169050919050565b612f1881612f01565b82525050565b600063ffffffff82169050919050565b612f3781612f1e565b82525050565b600060a082019050612f526000830188612ecf565b612f5f6020830187612ef2565b612f6c6040830186612f0f565b612f796060830185612f2e565b612f866080830184612f2e565b9695505050505050565b600081519050612f9f81611f2d565b92915050565b600060208284031215612fbb57612fba611f23565b5b6000612fc984828501612f90565b91505092915050565b6000604082019050612fe76000830185611eef565b612ff46020830184612f2e565b9392505050565b7f43616e6e6f74207472616e7366657220746f2073656c66000000000000000000600082015250565b6000613031601783612602565b915061303c82612ffb565b602082019050919050565b6000602082019050818103600083015261306081613024565b9050919050565b6000819050919050565b61308261307d82611ee5565b613067565b82525050565b60006130948287613071565b6020820191506130a48286613071565b6020820191506130b48285613071565b6020820191506130c48284613071565b6020820191508190509594505050505056fea2646970667358221220b216bbdf5aad4ba5ad289ae0e3976daaf1afeea92b04b684d34f20c495778a0864736f6c63430008120033",
    "linkReferences": {},
    "deployedLinkReferences": {}
}