{
  "_format": "hh-sol-artifact-1",
  "contractName": "RaffleG_0",
  "sourceName": "contracts/raffleG_0.sol",
  "abi": [
    {
      "inputs": [
        {
          "internalType": "uint256",
          "name": "_durationInMinutes",
          "type": "uint256"
        },
        {
          "internalType": "uint256",
          "name": "_ticketPrice",
          "type": "uint256"
        },
        {
          "internalType": "uint64",
          "name": "subscriptionId",
          "type": "uint64"
        }
      ],
      "stateMutability": "nonpayable",
      "type": "constructor"
    },
    {
      "inputs": [
        {
          "internalType": "address",
          "name": "have",
          "type": "address"
        },
        {
          "internalType": "address",
          "name": "want",
          "type": "address"
        }
      ],
      "name": "OnlyCoordinatorCanFulfill",
      "type": "error"
    },
    {
      "anonymous": false,
      "inputs": [
        {
          "indexed": true,
          "internalType": "address",
          "name": "from",
          "type": "address"
        },
        {
          "indexed": true,
          "internalType": "address",
          "name": "to",
          "type": "address"
        }
      ],
      "name": "OwnershipTransferRequested",
      "type": "event"
    },
    {
      "anonymous": false,
      "inputs": [
        {
          "indexed": true,
          "internalType": "address",
          "name": "from",
          "type": "address"
        },
        {
          "indexed": true,
          "internalType": "address",
          "name": "to",
          "type": "address"
        }
      ],
      "name": "OwnershipTransferred",
      "type": "event"
    },
    {
      "anonymous": false,
      "inputs": [
        {
          "indexed": false,
          "internalType": "uint256",
          "name": "requestId",
          "type": "uint256"
        },
        {
          "indexed": false,
          "internalType": "uint256[]",
          "name": "randomWords",
          "type": "uint256[]"
        }
      ],
      "name": "RequestFulfilled",
      "type": "event"
    },
    {
      "anonymous": false,
      "inputs": [
        {
          "indexed": false,
          "internalType": "uint256",
          "name": "requestId",
          "type": "uint256"
        },
        {
          "indexed": false,
          "internalType": "uint32",
          "name": "numWords",
          "type": "uint32"
        }
      ],
      "name": "RequestSent",
      "type": "event"
    },
    {
      "anonymous": false,
      "inputs": [
        {
          "indexed": false,
          "internalType": "address",
          "name": "addressPlayer",
          "type": "address"
        },
        {
          "indexed": false,
          "internalType": "uint256",
          "name": "nbTicket",
          "type": "uint256"
        }
      ],
      "name": "TicketsPurchased",
      "type": "event"
    },
    {
      "inputs": [],
      "name": "acceptOwnership",
      "outputs": [],
      "stateMutability": "nonpayable",
      "type": "function"
    },
    {
      "inputs": [
        {
          "internalType": "uint256",
          "name": "",
          "type": "uint256"
        }
      ],
      "name": "addressPlayers",
      "outputs": [
        {
          "internalType": "address",
          "name": "",
          "type": "address"
        }
      ],
      "stateMutability": "view",
      "type": "function"
    },
    {
      "inputs": [
        {
          "internalType": "uint256",
          "name": "_nbTickets",
          "type": "uint256"
        }
      ],
      "name": "buyTicket",
      "outputs": [],
      "stateMutability": "payable",
      "type": "function"
    },
    {
      "inputs": [],
      "name": "closeLottery",
      "outputs": [
        {
          "internalType": "uint256",
          "name": "",
          "type": "uint256"
        }
      ],
      "stateMutability": "nonpayable",
      "type": "function"
    },
    {
      "inputs": [],
      "name": "deadline",
      "outputs": [
        {
          "internalType": "uint256",
          "name": "",
          "type": "uint256"
        }
      ],
      "stateMutability": "view",
      "type": "function"
    },
    {
      "inputs": [],
      "name": "getPlayers",
      "outputs": [
        {
          "internalType": "address[]",
          "name": "",
          "type": "address[]"
        }
      ],
      "stateMutability": "view",
      "type": "function"
    },
    {
      "inputs": [],
      "name": "getPlayersList",
      "outputs": [
        {
          "components": [
            {
              "internalType": "uint256",
              "name": "idPlayer",
              "type": "uint256"
            },
            {
              "internalType": "address",
              "name": "addressPlayer",
              "type": "address"
            },
            {
              "internalType": "uint256",
              "name": "ticketsBought",
              "type": "uint256"
            },
            {
              "internalType": "uint256",
              "name": "nbOfWin",
              "type": "uint256"
            },
            {
              "internalType": "bool",
              "name": "isWinner",
              "type": "bool"
            },
            {
              "internalType": "bool",
              "name": "playerExist",
              "type": "bool"
            }
          ],
          "internalType": "struct RaffleG_0.Player[]",
          "name": "",
          "type": "tuple[]"
        }
      ],
      "stateMutability": "view",
      "type": "function"
    },
    {
      "inputs": [
        {
          "internalType": "uint256",
          "name": "_requestId",
          "type": "uint256"
        }
      ],
      "name": "getRequestStatus",
      "outputs": [
        {
          "internalType": "bool",
          "name": "fulfilled",
          "type": "bool"
        },
        {
          "internalType": "uint256[]",
          "name": "randomWords",
          "type": "uint256[]"
        }
      ],
      "stateMutability": "view",
      "type": "function"
    },
    {
      "inputs": [],
      "name": "getWinners",
      "outputs": [
        {
          "internalType": "address[]",
          "name": "",
          "type": "address[]"
        }
      ],
      "stateMutability": "view",
      "type": "function"
    },
    {
      "inputs": [
        {
          "internalType": "address",
          "name": "",
          "type": "address"
        }
      ],
      "name": "idByAddress",
      "outputs": [
        {
          "internalType": "uint256",
          "name": "",
          "type": "uint256"
        }
      ],
      "stateMutability": "view",
      "type": "function"
    },
    {
      "inputs": [],
      "name": "idCounter",
      "outputs": [
        {
          "internalType": "uint256",
          "name": "_value",
          "type": "uint256"
        }
      ],
      "stateMutability": "view",
      "type": "function"
    },
    {
      "inputs": [],
      "name": "lastRequestId",
      "outputs": [
        {
          "internalType": "uint256",
          "name": "",
          "type": "uint256"
        }
      ],
      "stateMutability": "view",
      "type": "function"
    },
    {
      "inputs": [],
      "name": "lotteryClosed",
      "outputs": [
        {
          "internalType": "bool",
          "name": "",
          "type": "bool"
        }
      ],
      "stateMutability": "view",
      "type": "function"
    },
    {
      "inputs": [],
      "name": "nbTicketSell",
      "outputs": [
        {
          "internalType": "uint256",
          "name": "",
          "type": "uint256"
        }
      ],
      "stateMutability": "view",
      "type": "function"
    },
    {
      "inputs": [],
      "name": "numWinners",
      "outputs": [
        {
          "internalType": "uint256",
          "name": "",
          "type": "uint256"
        }
      ],
      "stateMutability": "view",
      "type": "function"
    },
    {
      "inputs": [],
      "name": "owner",
      "outputs": [
        {
          "internalType": "address",
          "name": "",
          "type": "address"
        }
      ],
      "stateMutability": "view",
      "type": "function"
    },
    {
      "inputs": [
        {
          "internalType": "uint256",
          "name": "",
          "type": "uint256"
        }
      ],
      "name": "playersList",
      "outputs": [
        {
          "internalType": "uint256",
          "name": "idPlayer",
          "type": "uint256"
        },
        {
          "internalType": "address",
          "name": "addressPlayer",
          "type": "address"
        },
        {
          "internalType": "uint256",
          "name": "ticketsBought",
          "type": "uint256"
        },
        {
          "internalType": "uint256",
          "name": "nbOfWin",
          "type": "uint256"
        },
        {
          "internalType": "bool",
          "name": "isWinner",
          "type": "bool"
        },
        {
          "internalType": "bool",
          "name": "playerExist",
          "type": "bool"
        }
      ],
      "stateMutability": "view",
      "type": "function"
    },
    {
      "inputs": [
        {
          "internalType": "uint256",
          "name": "requestId",
          "type": "uint256"
        },
        {
          "internalType": "uint256[]",
          "name": "randomWords",
          "type": "uint256[]"
        }
      ],
      "name": "rawFulfillRandomWords",
      "outputs": [],
      "stateMutability": "nonpayable",
      "type": "function"
    },
    {
      "inputs": [
        {
          "internalType": "uint256",
          "name": "",
          "type": "uint256"
        }
      ],
      "name": "requestIds",
      "outputs": [
        {
          "internalType": "uint256",
          "name": "",
          "type": "uint256"
        }
      ],
      "stateMutability": "view",
      "type": "function"
    },
    {
      "inputs": [
        {
          "internalType": "uint256",
          "name": "",
          "type": "uint256"
        }
      ],
      "name": "s_requests",
      "outputs": [
        {
          "internalType": "bool",
          "name": "fulfilled",
          "type": "bool"
        },
        {
          "internalType": "bool",
          "name": "exists",
          "type": "bool"
        }
      ],
      "stateMutability": "view",
      "type": "function"
    },
    {
      "inputs": [
        {
          "internalType": "uint256",
          "name": "_numberOfWinners",
          "type": "uint256"
        }
      ],
      "name": "setWinners",
      "outputs": [],
      "stateMutability": "nonpayable",
      "type": "function"
    },
    {
      "inputs": [],
      "name": "ticketPrice",
      "outputs": [
        {
          "internalType": "uint256",
          "name": "",
          "type": "uint256"
        }
      ],
      "stateMutability": "view",
      "type": "function"
    },
    {
      "inputs": [
        {
          "internalType": "address",
          "name": "to",
          "type": "address"
        }
      ],
      "name": "transferOwnership",
      "outputs": [],
      "stateMutability": "nonpayable",
      "type": "function"
    },
    {
      "inputs": [
        {
          "internalType": "uint256",
          "name": "",
          "type": "uint256"
        }
      ],
      "name": "winners",
      "outputs": [
        {
          "internalType": "address",
          "name": "",
          "type": "address"
        }
      ],
      "stateMutability": "view",
      "type": "function"
    },
    {
      "inputs": [],
      "name": "withdrawFunds",
      "outputs": [],
      "stateMutability": "nonpayable",
      "type": "function"
    }
  ],
  "bytecode": "0x60a06040527f4b09e658ed251bcafeebbc69400383d49f344ace09b9576fe248bb02c003fe9f60001b600e55620186a0600f60006101000a81548163ffffffff021916908363ffffffff1602179055506003600f60046101000a81548161ffff021916908361ffff1602179055506001600f60066101000a81548163ffffffff021916908363ffffffff1602179055503480156200009c57600080fd5b5060405162003854380380620038548339818101604052810190620000c2919062000538565b33806000737a1bac17ccc5b313516c5e16fb24f7659aa5ebed60016000819055508073ffffffffffffffffffffffffffffffffffffffff1660808173ffffffffffffffffffffffffffffffffffffffff168152505050600073ffffffffffffffffffffffffffffffffffffffff168273ffffffffffffffffffffffffffffffffffffffff16036200018a576040517f08c379a00000000000000000000000000000000000000000000000000000000081526004016200018190620005f5565b60405180910390fd5b81600160006101000a81548173ffffffffffffffffffffffffffffffffffffffff021916908373ffffffffffffffffffffffffffffffffffffffff160217905550600073ffffffffffffffffffffffffffffffffffffffff168173ffffffffffffffffffffffffffffffffffffffff1614620002125762000211816200038260201b60201c565b5b505050600083116200025b576040517f08c379a0000000000000000000000000000000000000000000000000000000008152600401620002529062000667565b60405180910390fd5b60008211620002a1576040517f08c379a00000000000000000000000000000000000000000000000000000000081526004016200029890620006d9565b60405180910390fd5b737a1bac17ccc5b313516c5e16fb24f7659aa5ebed600b60006101000a81548173ffffffffffffffffffffffffffffffffffffffff021916908373ffffffffffffffffffffffffffffffffffffffff16021790555080600b60146101000a81548167ffffffffffffffff021916908367ffffffffffffffff160217905550603c836200032e91906200072a565b426200033b919062000775565b6007819055506000600860006101000a81548160ff0219169083151502179055506001826200036b91906200072a565b600981905550600060108190555050505062000822565b3373ffffffffffffffffffffffffffffffffffffffff168173ffffffffffffffffffffffffffffffffffffffff1603620003f3576040517f08c379a0000000000000000000000000000000000000000000000000000000008152600401620003ea9062000800565b60405180910390fd5b80600260006101000a81548173ffffffffffffffffffffffffffffffffffffffff021916908373ffffffffffffffffffffffffffffffffffffffff1602179055508073ffffffffffffffffffffffffffffffffffffffff16600160009054906101000a900473ffffffffffffffffffffffffffffffffffffffff1673ffffffffffffffffffffffffffffffffffffffff167fed8889f560326eb138920d842192f0eb3dd22b4f139c87a2c57538e05bae127860405160405180910390a350565b600080fd5b6000819050919050565b620004cd81620004b8565b8114620004d957600080fd5b50565b600081519050620004ed81620004c2565b92915050565b600067ffffffffffffffff82169050919050565b6200051281620004f3565b81146200051e57600080fd5b50565b600081519050620005328162000507565b92915050565b600080600060608486031215620005545762000553620004b3565b5b60006200056486828701620004dc565b93505060206200057786828701620004dc565b92505060406200058a8682870162000521565b9150509250925092565b600082825260208201905092915050565b7f43616e6e6f7420736574206f776e657220746f207a65726f0000000000000000600082015250565b6000620005dd60188362000594565b9150620005ea82620005a5565b602082019050919050565b600060208201905081810360008301526200061081620005ce565b9050919050565b7f696e76616c6964652076616c7565206f66206475726174696f6e000000000000600082015250565b60006200064f601a8362000594565b91506200065c8262000617565b602082019050919050565b60006020820190508181036000830152620006828162000640565b9050919050565b7f696e76616c6964652076616c7565206f66207469636b65742070726963650000600082015250565b6000620006c1601e8362000594565b9150620006ce8262000689565b602082019050919050565b60006020820190508181036000830152620006f481620006b2565b9050919050565b7f4e487b7100000000000000000000000000000000000000000000000000000000600052601160045260246000fd5b60006200073782620004b8565b91506200074483620004b8565b92508282026200075481620004b8565b915082820484148315176200076e576200076d620006fb565b5b5092915050565b60006200078282620004b8565b91506200078f83620004b8565b9250828201905080821115620007aa57620007a9620006fb565b5b92915050565b7f43616e6e6f74207472616e7366657220746f2073656c66000000000000000000600082015250565b6000620007e860178362000594565b9150620007f582620007b0565b602082019050919050565b600060208201905081810360008301526200081b81620007d9565b9050919050565b60805161300f62000845600039600081816105ee0152610642015261300f6000f3fe6080604052600436106101665760003560e01c80638796ba8c116100d1578063a725dace1161008a578063e433a58411610064578063e433a5841461053c578063eb08ab2814610567578063f2fde38b14610592578063fc2a88c3146105bb57610166565b8063a725dace14610496578063d8a4676f146104d3578063df15c37e1461051157610166565b80638796ba8c1461035d5780638b5b9ccc1461039a5780638b7bcc86146103c55780638da5cb5b146103f0578063a168fa891461041b578063a2fb11751461045957610166565b80633c4e2590116101235780633c4e25901461025757806354f9abfa1461028057806367dd74ca146102bd5780636fd09816146102d95780637319b43e1461030457806379ba50971461034657610166565b80631209b1f61461016b5780631fe543e31461019657806324600fc3146101bf5780632668fd15146101d657806329c983ec1461020157806329dcb0cf1461022c575b600080fd5b34801561017757600080fd5b506101806105e6565b60405161018d9190611e6d565b60405180910390f35b3480156101a257600080fd5b506101bd60048036038101906101b89190612021565b6105ec565b005b3480156101cb57600080fd5b506101d46106ac565b005b3480156101e257600080fd5b506101eb6107b8565b6040516101f89190611e6d565b60405180910390f35b34801561020d57600080fd5b506102166107be565b6040516102239190612212565b60405180910390f35b34801561023857600080fd5b506102416108c7565b60405161024e9190611e6d565b60405180910390f35b34801561026357600080fd5b5061027e60048036038101906102799190612234565b6108cd565b005b34801561028c57600080fd5b506102a760048036038101906102a2919061228d565b610a68565b6040516102b49190611e6d565b60405180910390f35b6102d760048036038101906102d29190612234565b610a80565b005b3480156102e557600080fd5b506102ee610f27565b6040516102fb9190611e6d565b60405180910390f35b34801561031057600080fd5b5061032b60048036038101906103269190612234565b610f5f565b60405161033d969594939291906122d8565b60405180910390f35b34801561035257600080fd5b5061035b610fe5565b005b34801561036957600080fd5b50610384600480360381019061037f9190612234565b61117c565b6040516103919190611e6d565b60405180910390f35b3480156103a657600080fd5b506103af6111a0565b6040516103bc91906123e8565b60405180910390f35b3480156103d157600080fd5b506103da61122e565b6040516103e79190611e6d565b60405180910390f35b3480156103fc57600080fd5b50610405611234565b604051610412919061240a565b60405180910390f35b34801561042757600080fd5b50610442600480360381019061043d9190612234565b61125e565b604051610450929190612425565b60405180910390f35b34801561046557600080fd5b50610480600480360381019061047b9190612234565b61129c565b60405161048d919061240a565b60405180910390f35b3480156104a257600080fd5b506104bd60048036038101906104b89190612234565b6112db565b6040516104ca919061240a565b60405180910390f35b3480156104df57600080fd5b506104fa60048036038101906104f59190612234565b61131a565b6040516105089291906124fd565b60405180910390f35b34801561051d57600080fd5b50610526611445565b60405161053391906123e8565b60405180910390f35b34801561054857600080fd5b506105516114d3565b60405161055e919061252d565b60405180910390f35b34801561057357600080fd5b5061057c6114e6565b6040516105899190611e6d565b60405180910390f35b34801561059e57600080fd5b506105b960048036038101906105b4919061228d565b6114f2565b005b3480156105c757600080fd5b506105d0611506565b6040516105dd9190611e6d565b60405180910390f35b60095481565b7f000000000000000000000000000000000000000000000000000000000000000073ffffffffffffffffffffffffffffffffffffffff163373ffffffffffffffffffffffffffffffffffffffff161461069e57337f00000000000000000000000000000000000000000000000000000000000000006040517f1cf993f4000000000000000000000000000000000000000000000000000000008152600401610695929190612548565b60405180910390fd5b6106a8828261150c565b5050565b6106b4611606565b600860009054906101000a900460ff16610703576040517f08c379a00000000000000000000000000000000000000000000000000000000081526004016106fa906125ce565b60405180910390fd5b600047905060003373ffffffffffffffffffffffffffffffffffffffff168260405161072e9061261f565b60006040518083038185875af1925050503d806000811461076b576040519150601f19603f3d011682016040523d82523d6000602084013e610770565b606091505b50509050806107b4576040517f08c379a00000000000000000000000000000000000000000000000000000000081526004016107ab90612680565b60405180910390fd5b5050565b60105481565b60606012805480602002602001604051908101604052809291908181526020016000905b828210156108be57838290600052602060002090600502016040518060c0016040529081600082015481526020016001820160009054906101000a900473ffffffffffffffffffffffffffffffffffffffff1673ffffffffffffffffffffffffffffffffffffffff1673ffffffffffffffffffffffffffffffffffffffff16815260200160028201548152602001600382015481526020016004820160009054906101000a900460ff161515151581526020016004820160019054906101000a900460ff161515151581525050815260200190600101906107e2565b50505050905090565b60075481565b6108d5611606565b600860009054906101000a900460ff16610924576040517f08c379a000000000000000000000000000000000000000000000000000000000815260040161091b906125ce565b60405180910390fd5b60008111610967576040517f08c379a000000000000000000000000000000000000000000000000000000000815260040161095e90612712565b60405180910390fd5b6000600580549050146109af576040517f08c379a00000000000000000000000000000000000000000000000000000000081526004016109a69061277e565b60405180910390fd5b6004805490508111156109f7576040517f08c379a00000000000000000000000000000000000000000000000000000000081526004016109ee90612810565b60405180910390fd5b600a6000600d54815260200190815260200160002060000160009054906101000a900460ff16610a5c576040517f08c379a0000000000000000000000000000000000000000000000000000000008152600401610a539061287c565b60405180910390fd5b610a6581611698565b50565b60116020528060005260406000206000915090505481565b610a886119b0565b600860009054906101000a900460ff1615610ad8576040517f08c379a0000000000000000000000000000000000000000000000000000000008152600401610acf906128e8565b60405180910390fd5b60095481610ae69190612937565b341015610b28576040517f08c379a0000000000000000000000000000000000000000000000000000000008152600401610b1f906129c5565b60405180910390fd5b600754421115610b6d576040517f08c379a0000000000000000000000000000000000000000000000000000000008152600401610b6490612a31565b60405180910390fd5b60008080600090505b610b8060036119ff565b811015610c7b573373ffffffffffffffffffffffffffffffffffffffff1660128281548110610bb257610bb1612a51565b5b906000526020600020906005020160010160009054906101000a900473ffffffffffffffffffffffffffffffffffffffff1673ffffffffffffffffffffffffffffffffffffffff16148015610c36575060128181548110610c1657610c15612a51565b5b906000526020600020906005020160040160019054906101000a900460ff165b15610c68576001925060128181548110610c5357610c52612a51565b5b90600052602060002090600502016000015491505b8080610c7390612a80565b915050610b76565b508115610cc3578260128281548110610c9757610c96612a51565b5b90600052602060002090600502016002016000828254610cb79190612ac8565b92505081905550610e5f565b60006040518060c00160405280610cda60036119ff565b81526020013373ffffffffffffffffffffffffffffffffffffffff16815260200185815260200160008152602001600015158152602001600115158152509050610d2460036119ff565b601160003373ffffffffffffffffffffffffffffffffffffffff1673ffffffffffffffffffffffffffffffffffffffff16815260200190815260200160002081905550610d716003611a0d565b60128190806001815401808255809150506001900390600052602060002090600502016000909190919091506000820151816000015560208201518160010160006101000a81548173ffffffffffffffffffffffffffffffffffffffff021916908373ffffffffffffffffffffffffffffffffffffffff160217905550604082015181600201556060820151816003015560808201518160040160006101000a81548160ff02191690831515021790555060a08201518160040160016101000a81548160ff02191690831515021790555050508360106000828254610e569190612ac8565b92505081905550505b60005b83811015610ee0576004339080600181540180825580915050600190039060005260206000200160009091909190916101000a81548173ffffffffffffffffffffffffffffffffffffffff021916908373ffffffffffffffffffffffffffffffffffffffff1602179055508080610ed890612a80565b915050610e62565b507fe11731cb4f1eb3ec3dd09bdc96809bb07365f4c881cda3192b397a4bc0b6da403384604051610f12929190612afc565b60405180910390a15050610f24611a23565b50565b6000610f31611606565b6001600860006101000a81548160ff0219169083151502179055506000610f56611a2d565b90508091505090565b60128181548110610f6f57600080fd5b90600052602060002090600502016000915090508060000154908060010160009054906101000a900473ffffffffffffffffffffffffffffffffffffffff16908060020154908060030154908060040160009054906101000a900460ff16908060040160019054906101000a900460ff16905086565b600260009054906101000a900473ffffffffffffffffffffffffffffffffffffffff1673ffffffffffffffffffffffffffffffffffffffff163373ffffffffffffffffffffffffffffffffffffffff1614611075576040517f08c379a000000000000000000000000000000000000000000000000000000000815260040161106c90612b71565b60405180910390fd5b6000600160009054906101000a900473ffffffffffffffffffffffffffffffffffffffff16905033600160006101000a81548173ffffffffffffffffffffffffffffffffffffffff021916908373ffffffffffffffffffffffffffffffffffffffff1602179055506000600260006101000a81548173ffffffffffffffffffffffffffffffffffffffff021916908373ffffffffffffffffffffffffffffffffffffffff1602179055503373ffffffffffffffffffffffffffffffffffffffff168173ffffffffffffffffffffffffffffffffffffffff167f8be0079c531659141344cd1fd0a4f28419497f9722a3daafe3b4186f6b6457e060405160405180910390a350565b600c818154811061118c57600080fd5b906000526020600020016000915090505481565b6060600480548060200260200160405190810160405280929190818152602001828054801561122457602002820191906000526020600020905b8160009054906101000a900473ffffffffffffffffffffffffffffffffffffffff1673ffffffffffffffffffffffffffffffffffffffff16815260200190600101908083116111da575b5050505050905090565b60065481565b6000600160009054906101000a900473ffffffffffffffffffffffffffffffffffffffff16905090565b600a6020528060005260406000206000915090508060000160009054906101000a900460ff16908060000160019054906101000a900460ff16905082565b600581815481106112ac57600080fd5b906000526020600020016000915054906101000a900473ffffffffffffffffffffffffffffffffffffffff1681565b600481815481106112eb57600080fd5b906000526020600020016000915054906101000a900473ffffffffffffffffffffffffffffffffffffffff1681565b60006060600a600084815260200190815260200160002060000160019054906101000a900460ff16611381576040517f08c379a000000000000000000000000000000000000000000000000000000000815260040161137890612bdd565b60405180910390fd5b6000600a60008581526020019081526020016000206040518060600160405290816000820160009054906101000a900460ff161515151581526020016000820160019054906101000a900460ff161515151581526020016001820180548060200260200160405190810160405280929190818152602001828054801561142657602002820191906000526020600020905b815481526020019060010190808311611412575b5050505050815250509050806000015181604001519250925050915091565b606060058054806020026020016040519081016040528092919081815260200182805480156114c957602002820191906000526020600020905b8160009054906101000a900473ffffffffffffffffffffffffffffffffffffffff1673ffffffffffffffffffffffffffffffffffffffff168152602001906001019080831161147f575b5050505050905090565b600860009054906101000a900460ff1681565b60038060000154905081565b6114fa611606565b61150381611c7e565b50565b600d5481565b600a600083815260200190815260200160002060000160019054906101000a900460ff1661156f576040517f08c379a000000000000000000000000000000000000000000000000000000000815260040161156690612bdd565b60405180910390fd5b6001600a600084815260200190815260200160002060000160006101000a81548160ff02191690831515021790555080600a600084815260200190815260200160002060010190805190602001906115c8929190611dea565b507ffe2e2d779dba245964d4e3ef9b994be63856fd568bf7d3ca9e224755cb1bd54d82826040516115fa929190612bfd565b60405180910390a15050565b600160009054906101000a900473ffffffffffffffffffffffffffffffffffffffff1673ffffffffffffffffffffffffffffffffffffffff163373ffffffffffffffffffffffffffffffffffffffff1614611696576040517f08c379a000000000000000000000000000000000000000000000000000000000815260040161168d90612c79565b60405180910390fd5b565b6000600a6000600d5481526020019081526020016000206001016000815481106116c5576116c4612a51565b5b9060005260206000200154905060005b828110156119a45760006004805490506116ee84611dac565b6116f89190612cc8565b90506005600482815481106117105761170f612a51565b5b9060005260206000200160009054906101000a900473ffffffffffffffffffffffffffffffffffffffff169080600181540180825580915050600190039060005260206000200160009091909190916101000a81548173ffffffffffffffffffffffffffffffffffffffff021916908373ffffffffffffffffffffffffffffffffffffffff1602179055506000600482815481106117b1576117b0612a51565b5b9060005260206000200160009054906101000a900473ffffffffffffffffffffffffffffffffffffffff169050600460016004805490506117f29190612cf9565b8154811061180357611802612a51565b5b9060005260206000200160009054906101000a900473ffffffffffffffffffffffffffffffffffffffff166004838154811061184257611841612a51565b5b9060005260206000200160006101000a81548173ffffffffffffffffffffffffffffffffffffffff021916908373ffffffffffffffffffffffffffffffffffffffff160217905550600480548061189c5761189b612d2d565b5b6001900381819060005260206000200160006101000a81549073ffffffffffffffffffffffffffffffffffffffff021916905590556000601160008373ffffffffffffffffffffffffffffffffffffffff1673ffffffffffffffffffffffffffffffffffffffff16815260200190815260200160002054905060016012828154811061192b5761192a612a51565b5b906000526020600020906005020160040160006101000a81548160ff0219169083151502179055506012818154811061196757611966612a51565b5b9060005260206000209060050201600301600081548092919061198990612a80565b9190505550505050808061199c90612a80565b9150506116d5565b50816006819055505050565b6002600054036119f5576040517f08c379a00000000000000000000000000000000000000000000000000000000081526004016119ec90612da8565b60405180910390fd5b6002600081905550565b600081600001549050919050565b6001816000016000828254019250508190555050565b6001600081905550565b6000600b60009054906101000a900473ffffffffffffffffffffffffffffffffffffffff1673ffffffffffffffffffffffffffffffffffffffff16635d3b1d30600e54600b60149054906101000a900467ffffffffffffffff16600f60049054906101000a900461ffff16600f60009054906101000a900463ffffffff16600f60069054906101000a900463ffffffff166040518663ffffffff1660e01b8152600401611ade959493929190612e40565b6020604051808303816000875af1158015611afd573d6000803e3d6000fd5b505050506040513d601f19601f82011682018060405250810190611b219190612ea8565b90506040518060600160405280600015158152602001600115158152602001600067ffffffffffffffff811115611b5b57611b5a611ede565b5b604051908082528060200260200182016040528015611b895781602001602082028036833780820191505090505b50815250600a600083815260200190815260200160002060008201518160000160006101000a81548160ff02191690831515021790555060208201518160000160016101000a81548160ff0219169083151502179055506040820151816001019080519060200190611bfc929190611dea565b50905050600c81908060018154018082558091505060019003906000526020600020016000909190919091505580600d819055507fcc58b13ad3eab50626c6a6300b1d139cd6ebb1688a7cced9461c2f7e762665ee81600f60069054906101000a900463ffffffff16604051611c73929190612ed5565b60405180910390a190565b3373ffffffffffffffffffffffffffffffffffffffff168173ffffffffffffffffffffffffffffffffffffffff1603611cec576040517f08c379a0000000000000000000000000000000000000000000000000000000008152600401611ce390612f4a565b60405180910390fd5b80600260006101000a81548173ffffffffffffffffffffffffffffffffffffffff021916908373ffffffffffffffffffffffffffffffffffffffff1602179055508073ffffffffffffffffffffffffffffffffffffffff16600160009054906101000a900473ffffffffffffffffffffffffffffffffffffffff1673ffffffffffffffffffffffffffffffffffffffff167fed8889f560326eb138920d842192f0eb3dd22b4f139c87a2c57538e05bae127860405160405180910390a350565b6000444260048054905084604051602001611dca9493929190612f8b565b6040516020818303038152906040528051906020012060001c9050919050565b828054828255906000526020600020908101928215611e26579160200282015b82811115611e25578251825591602001919060010190611e0a565b5b509050611e339190611e37565b5090565b5b80821115611e50576000816000905550600101611e38565b5090565b6000819050919050565b611e6781611e54565b82525050565b6000602082019050611e826000830184611e5e565b92915050565b6000604051905090565b600080fd5b600080fd5b611ea581611e54565b8114611eb057600080fd5b50565b600081359050611ec281611e9c565b92915050565b600080fd5b6000601f19601f8301169050919050565b7f4e487b7100000000000000000000000000000000000000000000000000000000600052604160045260246000fd5b611f1682611ecd565b810181811067ffffffffffffffff82111715611f3557611f34611ede565b5b80604052505050565b6000611f48611e88565b9050611f548282611f0d565b919050565b600067ffffffffffffffff821115611f7457611f73611ede565b5b602082029050602081019050919050565b600080fd5b6000611f9d611f9884611f59565b611f3e565b90508083825260208201905060208402830185811115611fc057611fbf611f85565b5b835b81811015611fe95780611fd58882611eb3565b845260208401935050602081019050611fc2565b5050509392505050565b600082601f83011261200857612007611ec8565b5b8135612018848260208601611f8a565b91505092915050565b6000806040838503121561203857612037611e92565b5b600061204685828601611eb3565b925050602083013567ffffffffffffffff81111561206757612066611e97565b5b61207385828601611ff3565b9150509250929050565b600081519050919050565b600082825260208201905092915050565b6000819050602082019050919050565b6120b281611e54565b82525050565b600073ffffffffffffffffffffffffffffffffffffffff82169050919050565b60006120e3826120b8565b9050919050565b6120f3816120d8565b82525050565b60008115159050919050565b61210e816120f9565b82525050565b60c08201600082015161212a60008501826120a9565b50602082015161213d60208501826120ea565b50604082015161215060408501826120a9565b50606082015161216360608501826120a9565b5060808201516121766080850182612105565b5060a082015161218960a0850182612105565b50505050565b600061219b8383612114565b60c08301905092915050565b6000602082019050919050565b60006121bf8261207d565b6121c98185612088565b93506121d483612099565b8060005b838110156122055781516121ec888261218f565b97506121f7836121a7565b9250506001810190506121d8565b5085935050505092915050565b6000602082019050818103600083015261222c81846121b4565b905092915050565b60006020828403121561224a57612249611e92565b5b600061225884828501611eb3565b91505092915050565b61226a816120d8565b811461227557600080fd5b50565b60008135905061228781612261565b92915050565b6000602082840312156122a3576122a2611e92565b5b60006122b184828501612278565b91505092915050565b6122c3816120d8565b82525050565b6122d2816120f9565b82525050565b600060c0820190506122ed6000830189611e5e565b6122fa60208301886122ba565b6123076040830187611e5e565b6123146060830186611e5e565b61232160808301856122c9565b61232e60a08301846122c9565b979650505050505050565b600081519050919050565b600082825260208201905092915050565b6000819050602082019050919050565b600061237183836120ea565b60208301905092915050565b6000602082019050919050565b600061239582612339565b61239f8185612344565b93506123aa83612355565b8060005b838110156123db5781516123c28882612365565b97506123cd8361237d565b9250506001810190506123ae565b5085935050505092915050565b60006020820190508181036000830152612402818461238a565b905092915050565b600060208201905061241f60008301846122ba565b92915050565b600060408201905061243a60008301856122c9565b61244760208301846122c9565b9392505050565b600081519050919050565b600082825260208201905092915050565b6000819050602082019050919050565b600061248683836120a9565b60208301905092915050565b6000602082019050919050565b60006124aa8261244e565b6124b48185612459565b93506124bf8361246a565b8060005b838110156124f05781516124d7888261247a565b97506124e283612492565b9250506001810190506124c3565b5085935050505092915050565b600060408201905061251260008301856122c9565b8181036020830152612524818461249f565b90509392505050565b600060208201905061254260008301846122c9565b92915050565b600060408201905061255d60008301856122ba565b61256a60208301846122ba565b9392505050565b600082825260208201905092915050565b7f4c6f7474657279206973207374696c6c206f70656e0000000000000000000000600082015250565b60006125b8601583612571565b91506125c382612582565b602082019050919050565b600060208201905081810360008301526125e7816125ab565b9050919050565b600081905092915050565b50565b60006126096000836125ee565b9150612614826125f9565b600082019050919050565b600061262a826125fc565b9150819050919050565b7f726566756e64206661696c000000000000000000000000000000000000000000600082015250565b600061266a600b83612571565b915061267582612634565b602082019050919050565b600060208201905081810360008301526126998161265d565b9050919050565b7f496e76616c69642076616c7565206f66206e756d626572206f662077696e6e6560008201527f7273000000000000000000000000000000000000000000000000000000000000602082015250565b60006126fc602283612571565b9150612707826126a0565b604082019050919050565b6000602082019050818103600083015261272b816126ef565b9050919050565b7f616c7265616479207365742057696e6e65720000000000000000000000000000600082015250565b6000612768601283612571565b915061277382612732565b602082019050919050565b600060208201905081810360008301526127978161275b565b9050919050565b7f4e756d626572206f662077696e6e657273206578636565647320746f74616c2060008201527f706c617965727300000000000000000000000000000000000000000000000000602082015250565b60006127fa602783612571565b91506128058261279e565b604082019050919050565b60006020820190508181036000830152612829816127ed565b9050919050565b7f6572726f72207769746820636861696e6c696e6b207265717565737400000000600082015250565b6000612866601c83612571565b915061287182612830565b602082019050919050565b6000602082019050818103600083015261289581612859565b9050919050565b7f4c6f747465727920697320636c6f736564000000000000000000000000000000600082015250565b60006128d2601183612571565b91506128dd8261289c565b602082019050919050565b60006020820190508181036000830152612901816128c5565b9050919050565b7f4e487b7100000000000000000000000000000000000000000000000000000000600052601160045260246000fd5b600061294282611e54565b915061294d83611e54565b925082820261295b81611e54565b9150828204841483151761297257612971612908565b5b5092915050565b7f4d696e696d756d207469636b6574207072696365206973206e6f74206d657400600082015250565b60006129af601f83612571565b91506129ba82612979565b602082019050919050565b600060208201905081810360008301526129de816129a2565b9050919050565b7f4c6f747465727920646561646c696e6520686173207061737365640000000000600082015250565b6000612a1b601b83612571565b9150612a26826129e5565b602082019050919050565b60006020820190508181036000830152612a4a81612a0e565b9050919050565b7f4e487b7100000000000000000000000000000000000000000000000000000000600052603260045260246000fd5b6000612a8b82611e54565b91507fffffffffffffffffffffffffffffffffffffffffffffffffffffffffffffffff8203612abd57612abc612908565b5b600182019050919050565b6000612ad382611e54565b9150612ade83611e54565b9250828201905080821115612af657612af5612908565b5b92915050565b6000604082019050612b1160008301856122ba565b612b1e6020830184611e5e565b9392505050565b7f4d7573742062652070726f706f736564206f776e657200000000000000000000600082015250565b6000612b5b601683612571565b9150612b6682612b25565b602082019050919050565b60006020820190508181036000830152612b8a81612b4e565b9050919050565b7f72657175657374206e6f7420666f756e64000000000000000000000000000000600082015250565b6000612bc7601183612571565b9150612bd282612b91565b602082019050919050565b60006020820190508181036000830152612bf681612bba565b9050919050565b6000604082019050612c126000830185611e5e565b8181036020830152612c24818461249f565b90509392505050565b7f4f6e6c792063616c6c61626c65206279206f776e657200000000000000000000600082015250565b6000612c63601683612571565b9150612c6e82612c2d565b602082019050919050565b60006020820190508181036000830152612c9281612c56565b9050919050565b7f4e487b7100000000000000000000000000000000000000000000000000000000600052601260045260246000fd5b6000612cd382611e54565b9150612cde83611e54565b925082612cee57612ced612c99565b5b828206905092915050565b6000612d0482611e54565b9150612d0f83611e54565b9250828203905081811115612d2757612d26612908565b5b92915050565b7f4e487b7100000000000000000000000000000000000000000000000000000000600052603160045260246000fd5b7f5265656e7472616e637947756172643a207265656e7472616e742063616c6c00600082015250565b6000612d92601f83612571565b9150612d9d82612d5c565b602082019050919050565b60006020820190508181036000830152612dc181612d85565b9050919050565b6000819050919050565b612ddb81612dc8565b82525050565b600067ffffffffffffffff82169050919050565b612dfe81612de1565b82525050565b600061ffff82169050919050565b612e1b81612e04565b82525050565b600063ffffffff82169050919050565b612e3a81612e21565b82525050565b600060a082019050612e556000830188612dd2565b612e626020830187612df5565b612e6f6040830186612e12565b612e7c6060830185612e31565b612e896080830184612e31565b9695505050505050565b600081519050612ea281611e9c565b92915050565b600060208284031215612ebe57612ebd611e92565b5b6000612ecc84828501612e93565b91505092915050565b6000604082019050612eea6000830185611e5e565b612ef76020830184612e31565b9392505050565b7f43616e6e6f74207472616e7366657220746f2073656c66000000000000000000600082015250565b6000612f34601783612571565b9150612f3f82612efe565b602082019050919050565b60006020820190508181036000830152612f6381612f27565b9050919050565b6000819050919050565b612f85612f8082611e54565b612f6a565b82525050565b6000612f978287612f74565b602082019150612fa78286612f74565b602082019150612fb78285612f74565b602082019150612fc78284612f74565b6020820191508190509594505050505056fea264697066735822122056b2cab5dd50d210398a0ad9d0433218d4c30d539d0dadf2c66180b533bf787e64736f6c63430008120033",
  "linkReferences": {},
  "deployedLinkReferences": {}
}