{
  "_format": "hh-sol-artifact-1",
  "contractName": "RaffleG_0",
  "sourceName": "contracts/raffleG_0.sol",
  "abi": [
    {
      "inputs": [
        {
          "internalType": "uint256",
          "name": "_startDate",
          "type": "uint256"
        },
        {
          "internalType": "uint256",
          "name": "_durationInMinutes",
          "type": "uint256"
        },
        {
          "internalType": "uint256",
          "name": "_ticketPrice",
          "type": "uint256"
        },
        {
          "internalType": "uint64",
          "name": "subscriptionId",
          "type": "uint64"
        }
      ],
      "stateMutability": "nonpayable",
      "type": "constructor"
    },
    {
      "inputs": [
        {
          "internalType": "address",
          "name": "have",
          "type": "address"
        },
        {
          "internalType": "address",
          "name": "want",
          "type": "address"
        }
      ],
      "name": "OnlyCoordinatorCanFulfill",
      "type": "error"
    },
    {
      "anonymous": false,
      "inputs": [
        {
          "indexed": true,
          "internalType": "address",
          "name": "from",
          "type": "address"
        },
        {
          "indexed": true,
          "internalType": "address",
          "name": "to",
          "type": "address"
        }
      ],
      "name": "OwnershipTransferRequested",
      "type": "event"
    },
    {
      "anonymous": false,
      "inputs": [
        {
          "indexed": true,
          "internalType": "address",
          "name": "from",
          "type": "address"
        },
        {
          "indexed": true,
          "internalType": "address",
          "name": "to",
          "type": "address"
        }
      ],
      "name": "OwnershipTransferred",
      "type": "event"
    },
    {
      "anonymous": false,
      "inputs": [
        {
          "indexed": false,
          "internalType": "uint256",
          "name": "requestId",
          "type": "uint256"
        },
        {
          "indexed": false,
          "internalType": "uint256[]",
          "name": "randomWords",
          "type": "uint256[]"
        }
      ],
      "name": "RequestFulfilled",
      "type": "event"
    },
    {
      "anonymous": false,
      "inputs": [
        {
          "indexed": false,
          "internalType": "uint256",
          "name": "requestId",
          "type": "uint256"
        },
        {
          "indexed": false,
          "internalType": "uint32",
          "name": "numWords",
          "type": "uint32"
        }
      ],
      "name": "RequestSent",
      "type": "event"
    },
    {
      "anonymous": false,
      "inputs": [
        {
          "indexed": false,
          "internalType": "address",
          "name": "addressPlayer",
          "type": "address"
        },
        {
          "indexed": false,
          "internalType": "uint256",
          "name": "nbTicket",
          "type": "uint256"
        }
      ],
      "name": "TicketsPurchased",
      "type": "event"
    },
    {
      "inputs": [],
      "name": "acceptOwnership",
      "outputs": [],
      "stateMutability": "nonpayable",
      "type": "function"
    },
    {
      "inputs": [
        {
          "internalType": "uint256",
          "name": "",
          "type": "uint256"
        }
      ],
      "name": "addressPlayers",
      "outputs": [
        {
          "internalType": "address",
          "name": "",
          "type": "address"
        }
      ],
      "stateMutability": "view",
      "type": "function"
    },
    {
      "inputs": [
        {
          "internalType": "uint256",
          "name": "_nbTickets",
          "type": "uint256"
        }
      ],
      "name": "buyTicket",
      "outputs": [],
      "stateMutability": "payable",
      "type": "function"
    },
    {
      "inputs": [],
      "name": "closeLottery",
      "outputs": [
        {
          "internalType": "uint256",
          "name": "",
          "type": "uint256"
        }
      ],
      "stateMutability": "nonpayable",
      "type": "function"
    },
    {
      "inputs": [],
      "name": "deadline",
      "outputs": [
        {
          "internalType": "uint256",
          "name": "",
          "type": "uint256"
        }
      ],
      "stateMutability": "view",
      "type": "function"
    },
    {
      "inputs": [],
      "name": "getPlayers",
      "outputs": [
        {
          "internalType": "address[]",
          "name": "",
          "type": "address[]"
        }
      ],
      "stateMutability": "view",
      "type": "function"
    },
    {
      "inputs": [],
      "name": "getPlayersList",
      "outputs": [
        {
          "components": [
            {
              "internalType": "uint256",
              "name": "idPlayer",
              "type": "uint256"
            },
            {
              "internalType": "address",
              "name": "addressPlayer",
              "type": "address"
            },
            {
              "internalType": "uint256",
              "name": "ticketsBought",
              "type": "uint256"
            },
            {
              "internalType": "uint256",
              "name": "nbOfWin",
              "type": "uint256"
            },
            {
              "internalType": "bool",
              "name": "isWinner",
              "type": "bool"
            },
            {
              "internalType": "bool",
              "name": "playerExist",
              "type": "bool"
            }
          ],
          "internalType": "struct RaffleG_0.Player[]",
          "name": "",
          "type": "tuple[]"
        }
      ],
      "stateMutability": "view",
      "type": "function"
    },
    {
      "inputs": [
        {
          "internalType": "uint256",
          "name": "_requestId",
          "type": "uint256"
        }
      ],
      "name": "getRequestStatus",
      "outputs": [
        {
          "internalType": "bool",
          "name": "fulfilled",
          "type": "bool"
        },
        {
          "internalType": "uint256[]",
          "name": "randomWords",
          "type": "uint256[]"
        }
      ],
      "stateMutability": "view",
      "type": "function"
    },
    {
      "inputs": [],
      "name": "getWinners",
      "outputs": [
        {
          "internalType": "address[]",
          "name": "",
          "type": "address[]"
        }
      ],
      "stateMutability": "view",
      "type": "function"
    },
    {
      "inputs": [
        {
          "internalType": "address",
          "name": "",
          "type": "address"
        }
      ],
      "name": "idByAddress",
      "outputs": [
        {
          "internalType": "uint256",
          "name": "",
          "type": "uint256"
        }
      ],
      "stateMutability": "view",
      "type": "function"
    },
    {
      "inputs": [],
      "name": "idCounter",
      "outputs": [
        {
          "internalType": "uint256",
          "name": "_value",
          "type": "uint256"
        }
      ],
      "stateMutability": "view",
      "type": "function"
    },
    {
      "inputs": [],
      "name": "lastRequestId",
      "outputs": [
        {
          "internalType": "uint256",
          "name": "",
          "type": "uint256"
        }
      ],
      "stateMutability": "view",
      "type": "function"
    },
    {
      "inputs": [],
      "name": "lotteryClosed",
      "outputs": [
        {
          "internalType": "bool",
          "name": "",
          "type": "bool"
        }
      ],
      "stateMutability": "view",
      "type": "function"
    },
    {
      "inputs": [],
      "name": "nbTicketSell",
      "outputs": [
        {
          "internalType": "uint256",
          "name": "",
          "type": "uint256"
        }
      ],
      "stateMutability": "view",
      "type": "function"
    },
    {
      "inputs": [],
      "name": "numWinners",
      "outputs": [
        {
          "internalType": "uint256",
          "name": "",
          "type": "uint256"
        }
      ],
      "stateMutability": "view",
      "type": "function"
    },
    {
      "inputs": [],
      "name": "owner",
      "outputs": [
        {
          "internalType": "address",
          "name": "",
          "type": "address"
        }
      ],
      "stateMutability": "view",
      "type": "function"
    },
    {
      "inputs": [
        {
          "internalType": "uint256",
          "name": "",
          "type": "uint256"
        }
      ],
      "name": "playersList",
      "outputs": [
        {
          "internalType": "uint256",
          "name": "idPlayer",
          "type": "uint256"
        },
        {
          "internalType": "address",
          "name": "addressPlayer",
          "type": "address"
        },
        {
          "internalType": "uint256",
          "name": "ticketsBought",
          "type": "uint256"
        },
        {
          "internalType": "uint256",
          "name": "nbOfWin",
          "type": "uint256"
        },
        {
          "internalType": "bool",
          "name": "isWinner",
          "type": "bool"
        },
        {
          "internalType": "bool",
          "name": "playerExist",
          "type": "bool"
        }
      ],
      "stateMutability": "view",
      "type": "function"
    },
    {
      "inputs": [
        {
          "internalType": "uint256",
          "name": "requestId",
          "type": "uint256"
        },
        {
          "internalType": "uint256[]",
          "name": "randomWords",
          "type": "uint256[]"
        }
      ],
      "name": "rawFulfillRandomWords",
      "outputs": [],
      "stateMutability": "nonpayable",
      "type": "function"
    },
    {
      "inputs": [
        {
          "internalType": "uint256",
          "name": "",
          "type": "uint256"
        }
      ],
      "name": "requestIds",
      "outputs": [
        {
          "internalType": "uint256",
          "name": "",
          "type": "uint256"
        }
      ],
      "stateMutability": "view",
      "type": "function"
    },
    {
      "inputs": [
        {
          "internalType": "uint256",
          "name": "",
          "type": "uint256"
        }
      ],
      "name": "s_requests",
      "outputs": [
        {
          "internalType": "bool",
          "name": "fulfilled",
          "type": "bool"
        },
        {
          "internalType": "bool",
          "name": "exists",
          "type": "bool"
        }
      ],
      "stateMutability": "view",
      "type": "function"
    },
    {
      "inputs": [
        {
          "internalType": "uint256",
          "name": "_startDate",
          "type": "uint256"
        },
        {
          "internalType": "uint256",
          "name": "_durationInMinutes",
          "type": "uint256"
        }
      ],
      "name": "setStartDate",
      "outputs": [],
      "stateMutability": "nonpayable",
      "type": "function"
    },
    {
      "inputs": [
        {
          "internalType": "uint256",
          "name": "_numberOfWinners",
          "type": "uint256"
        }
      ],
      "name": "setWinners",
      "outputs": [],
      "stateMutability": "nonpayable",
      "type": "function"
    },
    {
      "inputs": [],
      "name": "startDate",
      "outputs": [
        {
          "internalType": "uint256",
          "name": "",
          "type": "uint256"
        }
      ],
      "stateMutability": "view",
      "type": "function"
    },
    {
      "inputs": [],
      "name": "ticketPrice",
      "outputs": [
        {
          "internalType": "uint256",
          "name": "",
          "type": "uint256"
        }
      ],
      "stateMutability": "view",
      "type": "function"
    },
    {
      "inputs": [
        {
          "internalType": "address",
          "name": "to",
          "type": "address"
        }
      ],
      "name": "transferOwnership",
      "outputs": [],
      "stateMutability": "nonpayable",
      "type": "function"
    },
    {
      "inputs": [
        {
          "internalType": "uint256",
          "name": "",
          "type": "uint256"
        }
      ],
      "name": "winners",
      "outputs": [
        {
          "internalType": "address",
          "name": "",
          "type": "address"
        }
      ],
      "stateMutability": "view",
      "type": "function"
    },
    {
      "inputs": [],
      "name": "withdrawFunds",
      "outputs": [],
      "stateMutability": "nonpayable",
      "type": "function"
    }
  ],
  "bytecode": "0x60a06040527fcc294a196eeeb44da2888d17c0625cc88d70d9760a69d58d853ba6581a9ab0cd60001b600f55620186a0601060006101000a81548163ffffffff021916908363ffffffff1602179055506003601060046101000a81548161ffff021916908361ffff1602179055506001601060066101000a81548163ffffffff021916908363ffffffff1602179055503480156200009c57600080fd5b5060405162003cea38038062003cea8339818101604052810190620000c2919062000587565b3380600073ae975071be8f8ee67addbc1a82488f1c2485806760016000819055508073ffffffffffffffffffffffffffffffffffffffff1660808173ffffffffffffffffffffffffffffffffffffffff168152505050600073ffffffffffffffffffffffffffffffffffffffff168273ffffffffffffffffffffffffffffffffffffffff16036200018a576040517f08c379a000000000000000000000000000000000000000000000000000000000815260040162000181906200065a565b60405180910390fd5b81600160006101000a81548173ffffffffffffffffffffffffffffffffffffffff021916908373ffffffffffffffffffffffffffffffffffffffff160217905550600073ffffffffffffffffffffffffffffffffffffffff168173ffffffffffffffffffffffffffffffffffffffff161462000212576200021181620003d160201b60201c565b5b5050504284116200025a576040517f08c379a00000000000000000000000000000000000000000000000000000000081526004016200025190620006cc565b60405180910390fd5b60008311620002a0576040517f08c379a000000000000000000000000000000000000000000000000000000000815260040162000297906200073e565b60405180910390fd5b60008211620002e6576040517f08c379a0000000000000000000000000000000000000000000000000000000008152600401620002dd90620007b0565b60405180910390fd5b73ae975071be8f8ee67addbc1a82488f1c24858067600c60006101000a81548173ffffffffffffffffffffffffffffffffffffffff021916908373ffffffffffffffffffffffffffffffffffffffff16021790555080600c60146101000a81548167ffffffffffffffff021916908367ffffffffffffffff16021790555083600881905550603c836200037a919062000801565b6008546200038991906200084c565b6007819055506000600960006101000a81548160ff021916908315150217905550600182620003b9919062000801565b600a81905550600060118190555050505050620008f9565b3373ffffffffffffffffffffffffffffffffffffffff168173ffffffffffffffffffffffffffffffffffffffff160362000442576040517f08c379a00000000000000000000000000000000000000000000000000000000081526004016200043990620008d7565b60405180910390fd5b80600260006101000a81548173ffffffffffffffffffffffffffffffffffffffff021916908373ffffffffffffffffffffffffffffffffffffffff1602179055508073ffffffffffffffffffffffffffffffffffffffff16600160009054906101000a900473ffffffffffffffffffffffffffffffffffffffff1673ffffffffffffffffffffffffffffffffffffffff167fed8889f560326eb138920d842192f0eb3dd22b4f139c87a2c57538e05bae127860405160405180910390a350565b600080fd5b6000819050919050565b6200051c8162000507565b81146200052857600080fd5b50565b6000815190506200053c8162000511565b92915050565b600067ffffffffffffffff82169050919050565b620005618162000542565b81146200056d57600080fd5b50565b600081519050620005818162000556565b92915050565b60008060008060808587031215620005a457620005a362000502565b5b6000620005b4878288016200052b565b9450506020620005c7878288016200052b565b9350506040620005da878288016200052b565b9250506060620005ed8782880162000570565b91505092959194509250565b600082825260208201905092915050565b7f43616e6e6f7420736574206f776e657220746f207a65726f0000000000000000600082015250565b600062000642601883620005f9565b91506200064f826200060a565b602082019050919050565b60006020820190508181036000830152620006758162000633565b9050919050565b7f496e76616c6964652076616c7565206f66207374617274446174650000000000600082015250565b6000620006b4601b83620005f9565b9150620006c1826200067c565b602082019050919050565b60006020820190508181036000830152620006e781620006a5565b9050919050565b7f496e76616c6964652076616c7565206f66206475726174696f6e000000000000600082015250565b600062000726601a83620005f9565b91506200073382620006ee565b602082019050919050565b60006020820190508181036000830152620007598162000717565b9050919050565b7f496e76616c6964652076616c7565206f66207469636b65742070726963650000600082015250565b600062000798601e83620005f9565b9150620007a58262000760565b602082019050919050565b60006020820190508181036000830152620007cb8162000789565b9050919050565b7f4e487b7100000000000000000000000000000000000000000000000000000000600052601160045260246000fd5b60006200080e8262000507565b91506200081b8362000507565b92508282026200082b8162000507565b91508282048414831517620008455762000844620007d2565b5b5092915050565b6000620008598262000507565b9150620008668362000507565b9250828201905080821115620008815762000880620007d2565b5b92915050565b7f43616e6e6f74207472616e7366657220746f2073656c66000000000000000000600082015250565b6000620008bf601783620005f9565b9150620008cc8262000887565b602082019050919050565b60006020820190508181036000830152620008f281620008b0565b9050919050565b6080516133ce6200091c6000396000818161067e01526106d201526133ce6000f3fe60806040526004361061019c5760003560e01c80638796ba8c116100ec578063d8a4676f1161008a578063e433a58411610064578063e433a584146105c6578063eb08ab28146105f1578063f2fde38b1461061c578063fc2a88c3146106455761019c565b8063d8a4676f14610534578063dab4e1c914610572578063df15c37e1461059b5761019c565b80638da5cb5b116100c65780638da5cb5b14610451578063a168fa891461047c578063a2fb1175146104ba578063a725dace146104f75761019c565b80638796ba8c146103be5780638b5b9ccc146103fb5780638b7bcc86146104265761019c565b806329dcb0cf1161015957806367dd74ca1161013357806367dd74ca1461031e5780636fd098161461033a5780637319b43e1461036557806379ba5097146103a75761019c565b806329dcb0cf1461028d5780633c4e2590146102b857806354f9abfa146102e15761019c565b80630b97bc86146101a15780631209b1f6146101cc5780631fe543e3146101f757806324600fc3146102205780632668fd151461023757806329c983ec14610262575b600080fd5b3480156101ad57600080fd5b506101b6610670565b6040516101c3919061203c565b60405180910390f35b3480156101d857600080fd5b506101e1610676565b6040516101ee919061203c565b60405180910390f35b34801561020357600080fd5b5061021e600480360381019061021991906121f0565b61067c565b005b34801561022c57600080fd5b5061023561073c565b005b34801561024357600080fd5b5061024c610848565b604051610259919061203c565b60405180910390f35b34801561026e57600080fd5b5061027761084e565b60405161028491906123e1565b60405180910390f35b34801561029957600080fd5b506102a2610957565b6040516102af919061203c565b60405180910390f35b3480156102c457600080fd5b506102df60048036038101906102da9190612403565b61095d565b005b3480156102ed57600080fd5b506103086004803603810190610303919061245c565b610af8565b604051610315919061203c565b60405180910390f35b61033860048036038101906103339190612403565b610b10565b005b34801561034657600080fd5b5061034f61103f565b60405161035c919061203c565b60405180910390f35b34801561037157600080fd5b5061038c60048036038101906103879190612403565b611077565b60405161039e969594939291906124a7565b60405180910390f35b3480156103b357600080fd5b506103bc6110fd565b005b3480156103ca57600080fd5b506103e560048036038101906103e09190612403565b611294565b6040516103f2919061203c565b60405180910390f35b34801561040757600080fd5b506104106112b8565b60405161041d91906125b7565b60405180910390f35b34801561043257600080fd5b5061043b611346565b604051610448919061203c565b60405180910390f35b34801561045d57600080fd5b5061046661134c565b60405161047391906125d9565b60405180910390f35b34801561048857600080fd5b506104a3600480360381019061049e9190612403565b611376565b6040516104b19291906125f4565b60405180910390f35b3480156104c657600080fd5b506104e160048036038101906104dc9190612403565b6113b4565b6040516104ee91906125d9565b60405180910390f35b34801561050357600080fd5b5061051e60048036038101906105199190612403565b6113f3565b60405161052b91906125d9565b60405180910390f35b34801561054057600080fd5b5061055b60048036038101906105569190612403565b611432565b6040516105699291906126cc565b60405180910390f35b34801561057e57600080fd5b50610599600480360381019061059491906126fc565b61155d565b005b3480156105a757600080fd5b506105b0611614565b6040516105bd91906125b7565b60405180910390f35b3480156105d257600080fd5b506105db6116a2565b6040516105e8919061273c565b60405180910390f35b3480156105fd57600080fd5b506106066116b5565b604051610613919061203c565b60405180910390f35b34801561062857600080fd5b50610643600480360381019061063e919061245c565b6116c1565b005b34801561065157600080fd5b5061065a6116d5565b604051610667919061203c565b60405180910390f35b60085481565b600a5481565b7f000000000000000000000000000000000000000000000000000000000000000073ffffffffffffffffffffffffffffffffffffffff163373ffffffffffffffffffffffffffffffffffffffff161461072e57337f00000000000000000000000000000000000000000000000000000000000000006040517f1cf993f4000000000000000000000000000000000000000000000000000000008152600401610725929190612757565b60405180910390fd5b61073882826116db565b5050565b6107446117d5565b600960009054906101000a900460ff16610793576040517f08c379a000000000000000000000000000000000000000000000000000000000815260040161078a906127dd565b60405180910390fd5b600047905060003373ffffffffffffffffffffffffffffffffffffffff16826040516107be9061282e565b60006040518083038185875af1925050503d80600081146107fb576040519150601f19603f3d011682016040523d82523d6000602084013e610800565b606091505b5050905080610844576040517f08c379a000000000000000000000000000000000000000000000000000000000815260040161083b9061288f565b60405180910390fd5b5050565b60115481565b60606013805480602002602001604051908101604052809291908181526020016000905b8282101561094e57838290600052602060002090600502016040518060c0016040529081600082015481526020016001820160009054906101000a900473ffffffffffffffffffffffffffffffffffffffff1673ffffffffffffffffffffffffffffffffffffffff1673ffffffffffffffffffffffffffffffffffffffff16815260200160028201548152602001600382015481526020016004820160009054906101000a900460ff161515151581526020016004820160019054906101000a900460ff16151515158152505081526020019060010190610872565b50505050905090565b60075481565b6109656117d5565b600960009054906101000a900460ff166109b4576040517f08c379a00000000000000000000000000000000000000000000000000000000081526004016109ab906127dd565b60405180910390fd5b600081116109f7576040517f08c379a00000000000000000000000000000000000000000000000000000000081526004016109ee90612921565b60405180910390fd5b600060058054905014610a3f576040517f08c379a0000000000000000000000000000000000000000000000000000000008152600401610a369061298d565b60405180910390fd5b600480549050811115610a87576040517f08c379a0000000000000000000000000000000000000000000000000000000008152600401610a7e90612a1f565b60405180910390fd5b600b6000600e54815260200190815260200160002060000160009054906101000a900460ff16610aec576040517f08c379a0000000000000000000000000000000000000000000000000000000008152600401610ae390612a8b565b60405180910390fd5b610af581611867565b50565b60126020528060005260406000206000915090505481565b610b18611b7f565b600960009054906101000a900460ff1615610b68576040517f08c379a0000000000000000000000000000000000000000000000000000000008152600401610b5f90612af7565b60405180910390fd5b60008111610bab576040517f08c379a0000000000000000000000000000000000000000000000000000000008152600401610ba290612b63565b60405180910390fd5b600854421015610bf0576040517f08c379a0000000000000000000000000000000000000000000000000000000008152600401610be790612bcf565b60405180910390fd5b600a5481610bfe9190612c1e565b341015610c40576040517f08c379a0000000000000000000000000000000000000000000000000000000008152600401610c3790612cac565b60405180910390fd5b600754421115610c85576040517f08c379a0000000000000000000000000000000000000000000000000000000008152600401610c7c90612d18565b60405180910390fd5b60008080600090505b610c986003611bce565b811015610d93573373ffffffffffffffffffffffffffffffffffffffff1660138281548110610cca57610cc9612d38565b5b906000526020600020906005020160010160009054906101000a900473ffffffffffffffffffffffffffffffffffffffff1673ffffffffffffffffffffffffffffffffffffffff16148015610d4e575060138181548110610d2e57610d2d612d38565b5b906000526020600020906005020160040160019054906101000a900460ff165b15610d80576001925060138181548110610d6b57610d6a612d38565b5b90600052602060002090600502016000015491505b8080610d8b90612d67565b915050610c8e565b508115610ddb578260138281548110610daf57610dae612d38565b5b90600052602060002090600502016002016000828254610dcf9190612daf565b92505081905550610f5e565b60006040518060c00160405280610df26003611bce565b81526020013373ffffffffffffffffffffffffffffffffffffffff16815260200185815260200160008152602001600015158152602001600115158152509050610e3c6003611bce565b601260003373ffffffffffffffffffffffffffffffffffffffff1673ffffffffffffffffffffffffffffffffffffffff16815260200190815260200160002081905550610e896003611bdc565b60138190806001815401808255809150506001900390600052602060002090600502016000909190919091506000820151816000015560208201518160010160006101000a81548173ffffffffffffffffffffffffffffffffffffffff021916908373ffffffffffffffffffffffffffffffffffffffff160217905550604082015181600201556060820151816003015560808201518160040160006101000a81548160ff02191690831515021790555060a08201518160040160016101000a81548160ff0219169083151502179055505050505b8260116000828254610f709190612daf565b9250508190555060005b83811015610ff8576004339080600181540180825580915050600190039060005260206000200160009091909190916101000a81548173ffffffffffffffffffffffffffffffffffffffff021916908373ffffffffffffffffffffffffffffffffffffffff1602179055508080610ff090612d67565b915050610f7a565b507fe11731cb4f1eb3ec3dd09bdc96809bb07365f4c881cda3192b397a4bc0b6da40338460405161102a929190612de3565b60405180910390a1505061103c611bf2565b50565b60006110496117d5565b6001600960006101000a81548160ff021916908315150217905550600061106e611bfc565b90508091505090565b6013818154811061108757600080fd5b90600052602060002090600502016000915090508060000154908060010160009054906101000a900473ffffffffffffffffffffffffffffffffffffffff16908060020154908060030154908060040160009054906101000a900460ff16908060040160019054906101000a900460ff16905086565b600260009054906101000a900473ffffffffffffffffffffffffffffffffffffffff1673ffffffffffffffffffffffffffffffffffffffff163373ffffffffffffffffffffffffffffffffffffffff161461118d576040517f08c379a000000000000000000000000000000000000000000000000000000000815260040161118490612e58565b60405180910390fd5b6000600160009054906101000a900473ffffffffffffffffffffffffffffffffffffffff16905033600160006101000a81548173ffffffffffffffffffffffffffffffffffffffff021916908373ffffffffffffffffffffffffffffffffffffffff1602179055506000600260006101000a81548173ffffffffffffffffffffffffffffffffffffffff021916908373ffffffffffffffffffffffffffffffffffffffff1602179055503373ffffffffffffffffffffffffffffffffffffffff168173ffffffffffffffffffffffffffffffffffffffff167f8be0079c531659141344cd1fd0a4f28419497f9722a3daafe3b4186f6b6457e060405160405180910390a350565b600d81815481106112a457600080fd5b906000526020600020016000915090505481565b6060600480548060200260200160405190810160405280929190818152602001828054801561133c57602002820191906000526020600020905b8160009054906101000a900473ffffffffffffffffffffffffffffffffffffffff1673ffffffffffffffffffffffffffffffffffffffff16815260200190600101908083116112f2575b5050505050905090565b60065481565b6000600160009054906101000a900473ffffffffffffffffffffffffffffffffffffffff16905090565b600b6020528060005260406000206000915090508060000160009054906101000a900460ff16908060000160019054906101000a900460ff16905082565b600581815481106113c457600080fd5b906000526020600020016000915054906101000a900473ffffffffffffffffffffffffffffffffffffffff1681565b6004818154811061140357600080fd5b906000526020600020016000915054906101000a900473ffffffffffffffffffffffffffffffffffffffff1681565b60006060600b600084815260200190815260200160002060000160019054906101000a900460ff16611499576040517f08c379a000000000000000000000000000000000000000000000000000000000815260040161149090612ec4565b60405180910390fd5b6000600b60008581526020019081526020016000206040518060600160405290816000820160009054906101000a900460ff161515151581526020016000820160019054906101000a900460ff161515151581526020016001820180548060200260200160405190810160405280929190818152602001828054801561153e57602002820191906000526020600020905b81548152602001906001019080831161152a575b5050505050815250509050806000015181604001519250925050915091565b6115656117d5565b600081116115a8576040517f08c379a000000000000000000000000000000000000000000000000000000000815260040161159f90612f30565b60405180910390fd5b600082116115eb576040517f08c379a00000000000000000000000000000000000000000000000000000000081526004016115e290612f9c565b60405180910390fd5b603c816115f89190612c1e565b826116039190612daf565b600781905550816008819055505050565b6060600580548060200260200160405190810160405280929190818152602001828054801561169857602002820191906000526020600020905b8160009054906101000a900473ffffffffffffffffffffffffffffffffffffffff1673ffffffffffffffffffffffffffffffffffffffff168152602001906001019080831161164e575b5050505050905090565b600960009054906101000a900460ff1681565b60038060000154905081565b6116c96117d5565b6116d281611e4d565b50565b600e5481565b600b600083815260200190815260200160002060000160019054906101000a900460ff1661173e576040517f08c379a000000000000000000000000000000000000000000000000000000000815260040161173590612ec4565b60405180910390fd5b6001600b600084815260200190815260200160002060000160006101000a81548160ff02191690831515021790555080600b60008481526020019081526020016000206001019080519060200190611797929190611fb9565b507ffe2e2d779dba245964d4e3ef9b994be63856fd568bf7d3ca9e224755cb1bd54d82826040516117c9929190612fbc565b60405180910390a15050565b600160009054906101000a900473ffffffffffffffffffffffffffffffffffffffff1673ffffffffffffffffffffffffffffffffffffffff163373ffffffffffffffffffffffffffffffffffffffff1614611865576040517f08c379a000000000000000000000000000000000000000000000000000000000815260040161185c90613038565b60405180910390fd5b565b6000600b6000600e54815260200190815260200160002060010160008154811061189457611893612d38565b5b9060005260206000200154905060005b82811015611b735760006004805490506118bd84611f7b565b6118c79190613087565b90506005600482815481106118df576118de612d38565b5b9060005260206000200160009054906101000a900473ffffffffffffffffffffffffffffffffffffffff169080600181540180825580915050600190039060005260206000200160009091909190916101000a81548173ffffffffffffffffffffffffffffffffffffffff021916908373ffffffffffffffffffffffffffffffffffffffff1602179055506000600482815481106119805761197f612d38565b5b9060005260206000200160009054906101000a900473ffffffffffffffffffffffffffffffffffffffff169050600460016004805490506119c191906130b8565b815481106119d2576119d1612d38565b5b9060005260206000200160009054906101000a900473ffffffffffffffffffffffffffffffffffffffff1660048381548110611a1157611a10612d38565b5b9060005260206000200160006101000a81548173ffffffffffffffffffffffffffffffffffffffff021916908373ffffffffffffffffffffffffffffffffffffffff1602179055506004805480611a6b57611a6a6130ec565b5b6001900381819060005260206000200160006101000a81549073ffffffffffffffffffffffffffffffffffffffff021916905590556000601260008373ffffffffffffffffffffffffffffffffffffffff1673ffffffffffffffffffffffffffffffffffffffff168152602001908152602001600020549050600160138281548110611afa57611af9612d38565b5b906000526020600020906005020160040160006101000a81548160ff02191690831515021790555060138181548110611b3657611b35612d38565b5b90600052602060002090600502016003016000815480929190611b5890612d67565b91905055505050508080611b6b90612d67565b9150506118a4565b50816006819055505050565b600260005403611bc4576040517f08c379a0000000000000000000000000000000000000000000000000000000008152600401611bbb90613167565b60405180910390fd5b6002600081905550565b600081600001549050919050565b6001816000016000828254019250508190555050565b6001600081905550565b6000600c60009054906101000a900473ffffffffffffffffffffffffffffffffffffffff1673ffffffffffffffffffffffffffffffffffffffff16635d3b1d30600f54600c60149054906101000a900467ffffffffffffffff16601060049054906101000a900461ffff16601060009054906101000a900463ffffffff16601060069054906101000a900463ffffffff166040518663ffffffff1660e01b8152600401611cad9594939291906131ff565b6020604051808303816000875af1158015611ccc573d6000803e3d6000fd5b505050506040513d601f19601f82011682018060405250810190611cf09190613267565b90506040518060600160405280600015158152602001600115158152602001600067ffffffffffffffff811115611d2a57611d296120ad565b5b604051908082528060200260200182016040528015611d585781602001602082028036833780820191505090505b50815250600b600083815260200190815260200160002060008201518160000160006101000a81548160ff02191690831515021790555060208201518160000160016101000a81548160ff0219169083151502179055506040820151816001019080519060200190611dcb929190611fb9565b50905050600d81908060018154018082558091505060019003906000526020600020016000909190919091505580600e819055507fcc58b13ad3eab50626c6a6300b1d139cd6ebb1688a7cced9461c2f7e762665ee81601060069054906101000a900463ffffffff16604051611e42929190613294565b60405180910390a190565b3373ffffffffffffffffffffffffffffffffffffffff168173ffffffffffffffffffffffffffffffffffffffff1603611ebb576040517f08c379a0000000000000000000000000000000000000000000000000000000008152600401611eb290613309565b60405180910390fd5b80600260006101000a81548173ffffffffffffffffffffffffffffffffffffffff021916908373ffffffffffffffffffffffffffffffffffffffff1602179055508073ffffffffffffffffffffffffffffffffffffffff16600160009054906101000a900473ffffffffffffffffffffffffffffffffffffffff1673ffffffffffffffffffffffffffffffffffffffff167fed8889f560326eb138920d842192f0eb3dd22b4f139c87a2c57538e05bae127860405160405180910390a350565b6000444260048054905084604051602001611f99949392919061334a565b6040516020818303038152906040528051906020012060001c9050919050565b828054828255906000526020600020908101928215611ff5579160200282015b82811115611ff4578251825591602001919060010190611fd9565b5b5090506120029190612006565b5090565b5b8082111561201f576000816000905550600101612007565b5090565b6000819050919050565b61203681612023565b82525050565b6000602082019050612051600083018461202d565b92915050565b6000604051905090565b600080fd5b600080fd5b61207481612023565b811461207f57600080fd5b50565b6000813590506120918161206b565b92915050565b600080fd5b6000601f19601f8301169050919050565b7f4e487b7100000000000000000000000000000000000000000000000000000000600052604160045260246000fd5b6120e58261209c565b810181811067ffffffffffffffff82111715612104576121036120ad565b5b80604052505050565b6000612117612057565b905061212382826120dc565b919050565b600067ffffffffffffffff821115612143576121426120ad565b5b602082029050602081019050919050565b600080fd5b600061216c61216784612128565b61210d565b9050808382526020820190506020840283018581111561218f5761218e612154565b5b835b818110156121b857806121a48882612082565b845260208401935050602081019050612191565b5050509392505050565b600082601f8301126121d7576121d6612097565b5b81356121e7848260208601612159565b91505092915050565b6000806040838503121561220757612206612061565b5b600061221585828601612082565b925050602083013567ffffffffffffffff81111561223657612235612066565b5b612242858286016121c2565b9150509250929050565b600081519050919050565b600082825260208201905092915050565b6000819050602082019050919050565b61228181612023565b82525050565b600073ffffffffffffffffffffffffffffffffffffffff82169050919050565b60006122b282612287565b9050919050565b6122c2816122a7565b82525050565b60008115159050919050565b6122dd816122c8565b82525050565b60c0820160008201516122f96000850182612278565b50602082015161230c60208501826122b9565b50604082015161231f6040850182612278565b5060608201516123326060850182612278565b50608082015161234560808501826122d4565b5060a082015161235860a08501826122d4565b50505050565b600061236a83836122e3565b60c08301905092915050565b6000602082019050919050565b600061238e8261224c565b6123988185612257565b93506123a383612268565b8060005b838110156123d45781516123bb888261235e565b97506123c683612376565b9250506001810190506123a7565b5085935050505092915050565b600060208201905081810360008301526123fb8184612383565b905092915050565b60006020828403121561241957612418612061565b5b600061242784828501612082565b91505092915050565b612439816122a7565b811461244457600080fd5b50565b60008135905061245681612430565b92915050565b60006020828403121561247257612471612061565b5b600061248084828501612447565b91505092915050565b612492816122a7565b82525050565b6124a1816122c8565b82525050565b600060c0820190506124bc600083018961202d565b6124c96020830188612489565b6124d6604083018761202d565b6124e3606083018661202d565b6124f06080830185612498565b6124fd60a0830184612498565b979650505050505050565b600081519050919050565b600082825260208201905092915050565b6000819050602082019050919050565b600061254083836122b9565b60208301905092915050565b6000602082019050919050565b600061256482612508565b61256e8185612513565b935061257983612524565b8060005b838110156125aa5781516125918882612534565b975061259c8361254c565b92505060018101905061257d565b5085935050505092915050565b600060208201905081810360008301526125d18184612559565b905092915050565b60006020820190506125ee6000830184612489565b92915050565b60006040820190506126096000830185612498565b6126166020830184612498565b9392505050565b600081519050919050565b600082825260208201905092915050565b6000819050602082019050919050565b60006126558383612278565b60208301905092915050565b6000602082019050919050565b60006126798261261d565b6126838185612628565b935061268e83612639565b8060005b838110156126bf5781516126a68882612649565b97506126b183612661565b925050600181019050612692565b5085935050505092915050565b60006040820190506126e16000830185612498565b81810360208301526126f3818461266e565b90509392505050565b6000806040838503121561271357612712612061565b5b600061272185828601612082565b925050602061273285828601612082565b9150509250929050565b60006020820190506127516000830184612498565b92915050565b600060408201905061276c6000830185612489565b6127796020830184612489565b9392505050565b600082825260208201905092915050565b7f4c6f7474657279206973207374696c6c206f70656e0000000000000000000000600082015250565b60006127c7601583612780565b91506127d282612791565b602082019050919050565b600060208201905081810360008301526127f6816127ba565b9050919050565b600081905092915050565b50565b60006128186000836127fd565b915061282382612808565b600082019050919050565b60006128398261280b565b9150819050919050565b7f5769746864726177206661696c00000000000000000000000000000000000000600082015250565b6000612879600d83612780565b915061288482612843565b602082019050919050565b600060208201905081810360008301526128a88161286c565b9050919050565b7f496e76616c69642076616c7565206f66206e756d626572206f662077696e6e6560008201527f7273000000000000000000000000000000000000000000000000000000000000602082015250565b600061290b602283612780565b9150612916826128af565b604082019050919050565b6000602082019050818103600083015261293a816128fe565b9050919050565b7f416c7265616479207365742057696e6e65720000000000000000000000000000600082015250565b6000612977601283612780565b915061298282612941565b602082019050919050565b600060208201905081810360008301526129a68161296a565b9050919050565b7f4e756d626572206f662077696e6e657273206578636565647320746f74616c2060008201527f706c617965727300000000000000000000000000000000000000000000000000602082015250565b6000612a09602783612780565b9150612a14826129ad565b604082019050919050565b60006020820190508181036000830152612a38816129fc565b9050919050565b7f4572726f72207769746820636861696e6c696e6b207265717565737400000000600082015250565b6000612a75601c83612780565b9150612a8082612a3f565b602082019050919050565b60006020820190508181036000830152612aa481612a68565b9050919050565b7f4c6f747465727920697320636c6f736564000000000000000000000000000000600082015250565b6000612ae1601183612780565b9150612aec82612aab565b602082019050919050565b60006020820190508181036000830152612b1081612ad4565b9050919050565b7f496e76616c6964652076616c7565206f66206e62207469636b65747300000000600082015250565b6000612b4d601c83612780565b9150612b5882612b17565b602082019050919050565b60006020820190508181036000830152612b7c81612b40565b9050919050565b7f4c6f7474657279206861736e2774207374617274656400000000000000000000600082015250565b6000612bb9601683612780565b9150612bc482612b83565b602082019050919050565b60006020820190508181036000830152612be881612bac565b9050919050565b7f4e487b7100000000000000000000000000000000000000000000000000000000600052601160045260246000fd5b6000612c2982612023565b9150612c3483612023565b9250828202612c4281612023565b91508282048414831517612c5957612c58612bef565b5b5092915050565b7f4d696e696d756d207469636b6574207072696365206973206e6f74206d657400600082015250565b6000612c96601f83612780565b9150612ca182612c60565b602082019050919050565b60006020820190508181036000830152612cc581612c89565b9050919050565b7f4c6f747465727920646561646c696e6520686173207061737365640000000000600082015250565b6000612d02601b83612780565b9150612d0d82612ccc565b602082019050919050565b60006020820190508181036000830152612d3181612cf5565b9050919050565b7f4e487b7100000000000000000000000000000000000000000000000000000000600052603260045260246000fd5b6000612d7282612023565b91507fffffffffffffffffffffffffffffffffffffffffffffffffffffffffffffffff8203612da457612da3612bef565b5b600182019050919050565b6000612dba82612023565b9150612dc583612023565b9250828201905080821115612ddd57612ddc612bef565b5b92915050565b6000604082019050612df86000830185612489565b612e05602083018461202d565b9392505050565b7f4d7573742062652070726f706f736564206f776e657200000000000000000000600082015250565b6000612e42601683612780565b9150612e4d82612e0c565b602082019050919050565b60006020820190508181036000830152612e7181612e35565b9050919050565b7f72657175657374206e6f7420666f756e64000000000000000000000000000000600082015250565b6000612eae601183612780565b9150612eb982612e78565b602082019050919050565b60006020820190508181036000830152612edd81612ea1565b9050919050565b7f496e76616c6964652076616c7565206f66206475726174696f6e000000000000600082015250565b6000612f1a601a83612780565b9150612f2582612ee4565b602082019050919050565b60006020820190508181036000830152612f4981612f0d565b9050919050565b7f496e76616c6964652076616c7565206f66207374617274446174650000000000600082015250565b6000612f86601b83612780565b9150612f9182612f50565b602082019050919050565b60006020820190508181036000830152612fb581612f79565b9050919050565b6000604082019050612fd1600083018561202d565b8181036020830152612fe3818461266e565b90509392505050565b7f4f6e6c792063616c6c61626c65206279206f776e657200000000000000000000600082015250565b6000613022601683612780565b915061302d82612fec565b602082019050919050565b6000602082019050818103600083015261305181613015565b9050919050565b7f4e487b7100000000000000000000000000000000000000000000000000000000600052601260045260246000fd5b600061309282612023565b915061309d83612023565b9250826130ad576130ac613058565b5b828206905092915050565b60006130c382612023565b91506130ce83612023565b92508282039050818111156130e6576130e5612bef565b5b92915050565b7f4e487b7100000000000000000000000000000000000000000000000000000000600052603160045260246000fd5b7f5265656e7472616e637947756172643a207265656e7472616e742063616c6c00600082015250565b6000613151601f83612780565b915061315c8261311b565b602082019050919050565b6000602082019050818103600083015261318081613144565b9050919050565b6000819050919050565b61319a81613187565b82525050565b600067ffffffffffffffff82169050919050565b6131bd816131a0565b82525050565b600061ffff82169050919050565b6131da816131c3565b82525050565b600063ffffffff82169050919050565b6131f9816131e0565b82525050565b600060a0820190506132146000830188613191565b61322160208301876131b4565b61322e60408301866131d1565b61323b60608301856131f0565b61324860808301846131f0565b9695505050505050565b6000815190506132618161206b565b92915050565b60006020828403121561327d5761327c612061565b5b600061328b84828501613252565b91505092915050565b60006040820190506132a9600083018561202d565b6132b660208301846131f0565b9392505050565b7f43616e6e6f74207472616e7366657220746f2073656c66000000000000000000600082015250565b60006132f3601783612780565b91506132fe826132bd565b602082019050919050565b60006020820190508181036000830152613322816132e6565b9050919050565b6000819050919050565b61334461333f82612023565b613329565b82525050565b60006133568287613333565b6020820191506133668286613333565b6020820191506133768285613333565b6020820191506133868284613333565b6020820191508190509594505050505056fea264697066735822122003be15dd8ecc622d4e05362e1b23c66bd8cd623070f1e51f4181a8d024424bed64736f6c63430008120033",
  "linkReferences": {},
  "deployedLinkReferences": {}
}