{
  "_format": "hh-sol-artifact-1",
  "contractName": "TBT_NFT",
  "sourceName": "contracts/TBT_NFT.sol",
  "abi": [
    {
      "inputs": [
        {
          "internalType": "bytes32",
          "name": "_merkleRoot",
          "type": "bytes32"
        },
        {
          "internalType": "string",
          "name": "_preRevealedURI",
          "type": "string"
        },
        {
          "internalType": "contract RaffleG_0",
          "name": "_raffleContract",
          "type": "address"
        },
        {
          "internalType": "uint256",
          "name": "_saleStartTime",
          "type": "uint256"
        },
        {
          "internalType": "uint256",
          "name": "_endTimeGuarranted",
          "type": "uint256"
        }
      ],
      "stateMutability": "nonpayable",
      "type": "constructor"
    },
    {
      "inputs": [],
      "name": "ApprovalCallerNotOwnerNorApproved",
      "type": "error"
    },
    {
      "inputs": [],
      "name": "ApprovalQueryForNonexistentToken",
      "type": "error"
    },
    {
      "inputs": [],
      "name": "BalanceQueryForZeroAddress",
      "type": "error"
    },
    {
      "inputs": [],
      "name": "MintERC2309QuantityExceedsLimit",
      "type": "error"
    },
    {
      "inputs": [],
      "name": "MintToZeroAddress",
      "type": "error"
    },
    {
      "inputs": [],
      "name": "MintZeroQuantity",
      "type": "error"
    },
    {
      "inputs": [],
      "name": "OwnerQueryForNonexistentToken",
      "type": "error"
    },
    {
      "inputs": [],
      "name": "OwnershipNotInitializedForExtraData",
      "type": "error"
    },
    {
      "inputs": [],
      "name": "TransferCallerNotOwnerNorApproved",
      "type": "error"
    },
    {
      "inputs": [],
      "name": "TransferFromIncorrectOwner",
      "type": "error"
    },
    {
      "inputs": [],
      "name": "TransferToNonERC721ReceiverImplementer",
      "type": "error"
    },
    {
      "inputs": [],
      "name": "TransferToZeroAddress",
      "type": "error"
    },
    {
      "inputs": [],
      "name": "URIQueryForNonexistentToken",
      "type": "error"
    },
    {
      "anonymous": false,
      "inputs": [
        {
          "indexed": true,
          "internalType": "address",
          "name": "owner",
          "type": "address"
        },
        {
          "indexed": true,
          "internalType": "address",
          "name": "approved",
          "type": "address"
        },
        {
          "indexed": true,
          "internalType": "uint256",
          "name": "tokenId",
          "type": "uint256"
        }
      ],
      "name": "Approval",
      "type": "event"
    },
    {
      "anonymous": false,
      "inputs": [
        {
          "indexed": true,
          "internalType": "address",
          "name": "owner",
          "type": "address"
        },
        {
          "indexed": true,
          "internalType": "address",
          "name": "operator",
          "type": "address"
        },
        {
          "indexed": false,
          "internalType": "bool",
          "name": "approved",
          "type": "bool"
        }
      ],
      "name": "ApprovalForAll",
      "type": "event"
    },
    {
      "anonymous": false,
      "inputs": [
        {
          "indexed": true,
          "internalType": "uint256",
          "name": "fromTokenId",
          "type": "uint256"
        },
        {
          "indexed": false,
          "internalType": "uint256",
          "name": "toTokenId",
          "type": "uint256"
        },
        {
          "indexed": true,
          "internalType": "address",
          "name": "from",
          "type": "address"
        },
        {
          "indexed": true,
          "internalType": "address",
          "name": "to",
          "type": "address"
        }
      ],
      "name": "ConsecutiveTransfer",
      "type": "event"
    },
    {
      "anonymous": false,
      "inputs": [
        {
          "indexed": true,
          "internalType": "address",
          "name": "previousOwner",
          "type": "address"
        },
        {
          "indexed": true,
          "internalType": "address",
          "name": "newOwner",
          "type": "address"
        }
      ],
      "name": "OwnershipTransferred",
      "type": "event"
    },
    {
      "anonymous": false,
      "inputs": [
        {
          "indexed": true,
          "internalType": "address",
          "name": "from",
          "type": "address"
        },
        {
          "indexed": true,
          "internalType": "address",
          "name": "to",
          "type": "address"
        },
        {
          "indexed": true,
          "internalType": "uint256",
          "name": "tokenId",
          "type": "uint256"
        }
      ],
      "name": "Transfer",
      "type": "event"
    },
    {
      "inputs": [
        {
          "internalType": "address",
          "name": "",
          "type": "address"
        }
      ],
      "name": "amountNFTsperWalletWhitelistSale",
      "outputs": [
        {
          "internalType": "uint256",
          "name": "",
          "type": "uint256"
        }
      ],
      "stateMutability": "view",
      "type": "function"
    },
    {
      "inputs": [
        {
          "internalType": "address",
          "name": "to",
          "type": "address"
        },
        {
          "internalType": "uint256",
          "name": "tokenId",
          "type": "uint256"
        }
      ],
      "name": "approve",
      "outputs": [],
      "stateMutability": "payable",
      "type": "function"
    },
    {
      "inputs": [
        {
          "internalType": "address",
          "name": "owner",
          "type": "address"
        }
      ],
      "name": "balanceOf",
      "outputs": [
        {
          "internalType": "uint256",
          "name": "",
          "type": "uint256"
        }
      ],
      "stateMutability": "view",
      "type": "function"
    },
    {
      "inputs": [],
      "name": "baseURI",
      "outputs": [
        {
          "internalType": "string",
          "name": "",
          "type": "string"
        }
      ],
      "stateMutability": "view",
      "type": "function"
    },
    {
      "inputs": [],
      "name": "endTimeGuarranted",
      "outputs": [
        {
          "internalType": "uint256",
          "name": "",
          "type": "uint256"
        }
      ],
      "stateMutability": "view",
      "type": "function"
    },
    {
      "inputs": [],
      "name": "endTimeWinnerMint",
      "outputs": [
        {
          "internalType": "uint256",
          "name": "",
          "type": "uint256"
        }
      ],
      "stateMutability": "view",
      "type": "function"
    },
    {
      "inputs": [
        {
          "internalType": "uint256",
          "name": "tokenId",
          "type": "uint256"
        }
      ],
      "name": "getApproved",
      "outputs": [
        {
          "internalType": "address",
          "name": "",
          "type": "address"
        }
      ],
      "stateMutability": "view",
      "type": "function"
    },
    {
      "inputs": [
        {
          "internalType": "address",
          "name": "_to",
          "type": "address"
        },
        {
          "internalType": "uint256",
          "name": "_quantity",
          "type": "uint256"
        }
      ],
      "name": "giftCollab",
      "outputs": [],
      "stateMutability": "nonpayable",
      "type": "function"
    },
    {
      "inputs": [
        {
          "internalType": "address",
          "name": "owner",
          "type": "address"
        },
        {
          "internalType": "address",
          "name": "operator",
          "type": "address"
        }
      ],
      "name": "isApprovedForAll",
      "outputs": [
        {
          "internalType": "bool",
          "name": "",
          "type": "bool"
        }
      ],
      "stateMutability": "view",
      "type": "function"
    },
    {
      "inputs": [],
      "name": "isRevealed",
      "outputs": [
        {
          "internalType": "bool",
          "name": "",
          "type": "bool"
        }
      ],
      "stateMutability": "view",
      "type": "function"
    },
    {
      "inputs": [],
      "name": "merkleRootGuaranteed",
      "outputs": [
        {
          "internalType": "bytes32",
          "name": "",
          "type": "bytes32"
        }
      ],
      "stateMutability": "view",
      "type": "function"
    },
    {
      "inputs": [],
      "name": "name",
      "outputs": [
        {
          "internalType": "string",
          "name": "",
          "type": "string"
        }
      ],
      "stateMutability": "view",
      "type": "function"
    },
    {
      "inputs": [],
      "name": "owner",
      "outputs": [
        {
          "internalType": "address",
          "name": "",
          "type": "address"
        }
      ],
      "stateMutability": "view",
      "type": "function"
    },
    {
      "inputs": [
        {
          "internalType": "uint256",
          "name": "tokenId",
          "type": "uint256"
        }
      ],
      "name": "ownerOf",
      "outputs": [
        {
          "internalType": "address",
          "name": "",
          "type": "address"
        }
      ],
      "stateMutability": "view",
      "type": "function"
    },
    {
      "inputs": [],
      "name": "preRevealedURI",
      "outputs": [
        {
          "internalType": "string",
          "name": "",
          "type": "string"
        }
      ],
      "stateMutability": "view",
      "type": "function"
    },
    {
      "inputs": [],
      "name": "raffleContract",
      "outputs": [
        {
          "internalType": "contract RaffleG_0",
          "name": "",
          "type": "address"
        }
      ],
      "stateMutability": "view",
      "type": "function"
    },
    {
      "inputs": [],
      "name": "renounceOwnership",
      "outputs": [],
      "stateMutability": "nonpayable",
      "type": "function"
    },
    {
      "inputs": [
        {
          "internalType": "string",
          "name": "baseURI_",
          "type": "string"
        }
      ],
      "name": "revealAndSetBaseURI",
      "outputs": [],
      "stateMutability": "nonpayable",
      "type": "function"
    },
    {
      "inputs": [
        {
          "internalType": "address",
          "name": "from",
          "type": "address"
        },
        {
          "internalType": "address",
          "name": "to",
          "type": "address"
        },
        {
          "internalType": "uint256",
          "name": "tokenId",
          "type": "uint256"
        }
      ],
      "name": "safeTransferFrom",
      "outputs": [],
      "stateMutability": "payable",
      "type": "function"
    },
    {
      "inputs": [
        {
          "internalType": "address",
          "name": "from",
          "type": "address"
        },
        {
          "internalType": "address",
          "name": "to",
          "type": "address"
        },
        {
          "internalType": "uint256",
          "name": "tokenId",
          "type": "uint256"
        },
        {
          "internalType": "bytes",
          "name": "_data",
          "type": "bytes"
        }
      ],
      "name": "safeTransferFrom",
      "outputs": [],
      "stateMutability": "payable",
      "type": "function"
    },
    {
      "inputs": [],
      "name": "saleStartTime",
      "outputs": [
        {
          "internalType": "uint256",
          "name": "",
          "type": "uint256"
        }
      ],
      "stateMutability": "view",
      "type": "function"
    },
    {
      "inputs": [],
      "name": "sellingStep",
      "outputs": [
        {
          "internalType": "enum TBT_NFT.Step",
          "name": "",
          "type": "uint8"
        }
      ],
      "stateMutability": "view",
      "type": "function"
    },
    {
      "inputs": [
        {
          "internalType": "address",
          "name": "operator",
          "type": "address"
        },
        {
          "internalType": "bool",
          "name": "approved",
          "type": "bool"
        }
      ],
      "name": "setApprovalForAll",
      "outputs": [],
      "stateMutability": "nonpayable",
      "type": "function"
    },
    {
      "inputs": [
        {
          "internalType": "uint256",
          "name": "_endTimeGuarranted",
          "type": "uint256"
        }
      ],
      "name": "setEndTimeGuarranted",
      "outputs": [],
      "stateMutability": "nonpayable",
      "type": "function"
    },
    {
      "inputs": [
        {
          "internalType": "uint256",
          "name": "_endTimeWinnerMint",
          "type": "uint256"
        }
      ],
      "name": "setEndTimeWinnerMint",
      "outputs": [],
      "stateMutability": "nonpayable",
      "type": "function"
    },
    {
      "inputs": [
        {
          "internalType": "bytes32",
          "name": "_merkleRoot",
          "type": "bytes32"
        }
      ],
      "name": "setMerkleRootGuarranteed",
      "outputs": [],
      "stateMutability": "nonpayable",
      "type": "function"
    },
    {
      "inputs": [
        {
          "internalType": "string",
          "name": "_preRevealedURI",
          "type": "string"
        }
      ],
      "name": "setPreRevealedURI",
      "outputs": [],
      "stateMutability": "nonpayable",
      "type": "function"
    },
    {
      "inputs": [
        {
          "internalType": "contract RaffleG_0",
          "name": "_raffleContract",
          "type": "address"
        }
      ],
      "name": "setRaffleContract",
      "outputs": [],
      "stateMutability": "nonpayable",
      "type": "function"
    },
    {
      "inputs": [
        {
          "internalType": "uint256",
          "name": "_saleStartTime",
          "type": "uint256"
        }
      ],
      "name": "setSaleStartTime",
      "outputs": [],
      "stateMutability": "nonpayable",
      "type": "function"
    },
    {
      "inputs": [
        {
          "internalType": "uint256",
          "name": "_step",
          "type": "uint256"
        }
      ],
      "name": "setStep",
      "outputs": [],
      "stateMutability": "nonpayable",
      "type": "function"
    },
    {
      "inputs": [
        {
          "internalType": "uint256",
          "name": "_endTimeWinnerMint",
          "type": "uint256"
        }
      ],
      "name": "setWinnerStructViaRaffle",
      "outputs": [],
      "stateMutability": "nonpayable",
      "type": "function"
    },
    {
      "inputs": [
        {
          "internalType": "bytes4",
          "name": "interfaceId",
          "type": "bytes4"
        }
      ],
      "name": "supportsInterface",
      "outputs": [
        {
          "internalType": "bool",
          "name": "",
          "type": "bool"
        }
      ],
      "stateMutability": "view",
      "type": "function"
    },
    {
      "inputs": [],
      "name": "symbol",
      "outputs": [
        {
          "internalType": "string",
          "name": "",
          "type": "string"
        }
      ],
      "stateMutability": "view",
      "type": "function"
    },
    {
      "inputs": [
        {
          "internalType": "uint256",
          "name": "_tokenId",
          "type": "uint256"
        }
      ],
      "name": "tokenURI",
      "outputs": [
        {
          "internalType": "string",
          "name": "",
          "type": "string"
        }
      ],
      "stateMutability": "view",
      "type": "function"
    },
    {
      "inputs": [],
      "name": "totalSupply",
      "outputs": [
        {
          "internalType": "uint256",
          "name": "",
          "type": "uint256"
        }
      ],
      "stateMutability": "view",
      "type": "function"
    },
    {
      "inputs": [
        {
          "internalType": "address",
          "name": "from",
          "type": "address"
        },
        {
          "internalType": "address",
          "name": "to",
          "type": "address"
        },
        {
          "internalType": "uint256",
          "name": "tokenId",
          "type": "uint256"
        }
      ],
      "name": "transferFrom",
      "outputs": [],
      "stateMutability": "payable",
      "type": "function"
    },
    {
      "inputs": [
        {
          "internalType": "address",
          "name": "newOwner",
          "type": "address"
        }
      ],
      "name": "transferOwnership",
      "outputs": [],
      "stateMutability": "nonpayable",
      "type": "function"
    },
    {
      "inputs": [
        {
          "internalType": "bytes32[]",
          "name": "_proof",
          "type": "bytes32[]"
        }
      ],
      "name": "whitelistMint",
      "outputs": [],
      "stateMutability": "nonpayable",
      "type": "function"
    },
    {
      "inputs": [
        {
          "internalType": "address",
          "name": "",
          "type": "address"
        }
      ],
      "name": "winnerByAddress",
      "outputs": [
        {
          "internalType": "address",
          "name": "addressWinner",
          "type": "address"
        },
        {
          "internalType": "uint256",
          "name": "numberOfWin",
          "type": "uint256"
        },
        {
          "internalType": "bool",
          "name": "notMinted",
          "type": "bool"
        }
      ],
      "stateMutability": "view",
      "type": "function"
    },
    {
      "inputs": [],
      "name": "winnerRaffleSaleMint",
      "outputs": [],
      "stateMutability": "nonpayable",
      "type": "function"
    }
  ],
  "bytecode": "0x60806040523480156200001157600080fd5b50604051620052d9380380620052d9833981810160405281019062000037919062000501565b6040518060400160405280601481526020017f54656464792042656172205472656173757265730000000000000000000000008152506040518060400160405280600381526020017f5442540000000000000000000000000000000000000000000000000000000000815250620000c3620000b7620001ae60201b60201c565b620001b660201b60201c565b8160039081620000d49190620007e9565b508060049081620000e69190620007e9565b50620000f76200027a60201b60201c565b600181905550505084600e8190555083600c9081620001179190620007e9565b5082601360006101000a81548173ffffffffffffffffffffffffffffffffffffffff021916908373ffffffffffffffffffffffffffffffffffffffff16021790555081600f819055508060108190555060405180602001604052806000815250600a9081620001879190620007e9565b506000600b60006101000a81548160ff0219169083151502179055505050505050620008d0565b600033905090565b60008060009054906101000a900473ffffffffffffffffffffffffffffffffffffffff169050816000806101000a81548173ffffffffffffffffffffffffffffffffffffffff021916908373ffffffffffffffffffffffffffffffffffffffff1602179055508173ffffffffffffffffffffffffffffffffffffffff168173ffffffffffffffffffffffffffffffffffffffff167f8be0079c531659141344cd1fd0a4f28419497f9722a3daafe3b4186f6b6457e060405160405180910390a35050565b600090565b6000604051905090565b600080fd5b600080fd5b6000819050919050565b620002a88162000293565b8114620002b457600080fd5b50565b600081519050620002c8816200029d565b92915050565b600080fd5b600080fd5b6000601f19601f8301169050919050565b7f4e487b7100000000000000000000000000000000000000000000000000000000600052604160045260246000fd5b6200032382620002d8565b810181811067ffffffffffffffff82111715620003455762000344620002e9565b5b80604052505050565b60006200035a6200027f565b905062000368828262000318565b919050565b600067ffffffffffffffff8211156200038b576200038a620002e9565b5b6200039682620002d8565b9050602081019050919050565b60005b83811015620003c3578082015181840152602081019050620003a6565b60008484015250505050565b6000620003e6620003e0846200036d565b6200034e565b905082815260208101848484011115620004055762000404620002d3565b5b62000412848285620003a3565b509392505050565b600082601f830112620004325762000431620002ce565b5b815162000444848260208601620003cf565b91505092915050565b600073ffffffffffffffffffffffffffffffffffffffff82169050919050565b60006200047a826200044d565b9050919050565b60006200048e826200046d565b9050919050565b620004a08162000481565b8114620004ac57600080fd5b50565b600081519050620004c08162000495565b92915050565b6000819050919050565b620004db81620004c6565b8114620004e757600080fd5b50565b600081519050620004fb81620004d0565b92915050565b600080600080600060a0868803121562000520576200051f62000289565b5b60006200053088828901620002b7565b955050602086015167ffffffffffffffff8111156200055457620005536200028e565b5b62000562888289016200041a565b94505060406200057588828901620004af565b93505060606200058888828901620004ea565b92505060806200059b88828901620004ea565b9150509295509295909350565b600081519050919050565b7f4e487b7100000000000000000000000000000000000000000000000000000000600052602260045260246000fd5b60006002820490506001821680620005fb57607f821691505b602082108103620006115762000610620005b3565b5b50919050565b60008190508160005260206000209050919050565b60006020601f8301049050919050565b600082821b905092915050565b6000600883026200067b7fffffffffffffffffffffffffffffffffffffffffffffffffffffffffffffffff826200063c565b6200068786836200063c565b95508019841693508086168417925050509392505050565b6000819050919050565b6000620006ca620006c4620006be84620004c6565b6200069f565b620004c6565b9050919050565b6000819050919050565b620006e683620006a9565b620006fe620006f582620006d1565b84845462000649565b825550505050565b600090565b6200071562000706565b62000722818484620006db565b505050565b5b818110156200074a576200073e6000826200070b565b60018101905062000728565b5050565b601f8211156200079957620007638162000617565b6200076e846200062c565b810160208510156200077e578190505b620007966200078d856200062c565b83018262000727565b50505b505050565b600082821c905092915050565b6000620007be600019846008026200079e565b1980831691505092915050565b6000620007d98383620007ab565b9150826002028217905092915050565b620007f482620005a8565b67ffffffffffffffff81111562000810576200080f620002e9565b5b6200081c8254620005e2565b620008298282856200074e565b600060209050601f8311600181146200086157600084156200084c578287015190505b620008588582620007cb565b865550620008c8565b601f198416620008718662000617565b60005b828110156200089b5784890151825560018201915060208501945060208101905062000874565b86831015620008bb5784890151620008b7601f891682620007ab565b8355505b6001600288020188555050505b505050505050565b6149f980620008e06000396000f3fe60806040526004361061023a5760003560e01c80636714ba391161012e5780639d286585116100ab578063de210ab31161006f578063de210ab314610826578063e985e9c514610851578063f2fde38b1461088e578063f79ae88d146108b7578063f8dcbddb146108e25761023a565b80639d28658514610750578063a22cb46514610779578063b88d4fde146107a2578063c87b56dd146107be578063cbccefb2146107fb5761023a565b80638da5cb5b116100f25780638da5cb5b1461065557806393034fb21461068057806395d89b41146106bf57806399d13800146106ea5780639bfd8a25146107275761023a565b80636714ba3914610582578063675b1450146105ab5780636c0360eb146105d657806370a0823114610601578063715018a61461063e5761023a565b806332a278b9116101bc578063525f8a5c11610180578063525f8a5c1461049d57806354214f69146104c65780635d7916ed146104f15780636352211e1461051c5780636602da42146105595761023a565b806332a278b9146103db57806333cc9b7814610406578063372f657c1461042f5780634248db611461045857806342842e0e146104815761023a565b806316f5bb241161020357806316f5bb241461032957806318160ddd146103405780631cbaee2d1461036b57806323b872dd146103965780632ca4b209146103b25761023a565b806256c0841461023f57806301ffc9a71461026857806306fdde03146102a5578063081812fc146102d0578063095ea7b31461030d575b600080fd5b34801561024b57600080fd5b5061026660048036038101906102619190612e99565b61090b565b005b34801561027457600080fd5b5061028f600480360381019061028a9190612f1e565b610957565b60405161029c9190612f66565b60405180910390f35b3480156102b157600080fd5b506102ba6109e9565b6040516102c79190613011565b60405180910390f35b3480156102dc57600080fd5b506102f760048036038101906102f29190613069565b610a7b565b60405161030491906130a5565b60405180910390f35b610327600480360381019061032291906130ec565b610afa565b005b34801561033557600080fd5b5061033e610c3e565b005b34801561034c57600080fd5b5061035561108c565b604051610362919061313b565b60405180910390f35b34801561037757600080fd5b506103806110a3565b60405161038d919061313b565b60405180910390f35b6103b060048036038101906103ab9190613156565b6110a9565b005b3480156103be57600080fd5b506103d960048036038101906103d491906132de565b6113cb565b005b3480156103e757600080fd5b506103f06113e6565b6040516103fd919061313b565b60405180910390f35b34801561041257600080fd5b5061042d60048036038101906104289190613069565b6113ec565b005b34801561043b57600080fd5b5061045660048036038101906104519190613387565b6113fe565b005b34801561046457600080fd5b5061047f600480360381019061047a9190613069565b61170f565b005b61049b60048036038101906104969190613156565b611721565b005b3480156104a957600080fd5b506104c460048036038101906104bf9190613069565b611741565b005b3480156104d257600080fd5b506104db611753565b6040516104e89190612f66565b60405180910390f35b3480156104fd57600080fd5b50610506611766565b6040516105139190613433565b60405180910390f35b34801561052857600080fd5b50610543600480360381019061053e9190613069565b61178c565b60405161055091906130a5565b60405180910390f35b34801561056557600080fd5b50610580600480360381019061057b9190613484565b61179e565b005b34801561058e57600080fd5b506105a960048036038101906105a49190613069565b6117b0565b005b3480156105b757600080fd5b506105c0611bfe565b6040516105cd919061313b565b60405180910390f35b3480156105e257600080fd5b506105eb611c04565b6040516105f89190613011565b60405180910390f35b34801561060d57600080fd5b50610628600480360381019061062391906134b1565b611c92565b604051610635919061313b565b60405180910390f35b34801561064a57600080fd5b50610653611d4a565b005b34801561066157600080fd5b5061066a611d5e565b60405161067791906130a5565b60405180910390f35b34801561068c57600080fd5b506106a760048036038101906106a291906134b1565b611d87565b6040516106b6939291906134de565b60405180910390f35b3480156106cb57600080fd5b506106d4611dde565b6040516106e19190613011565b60405180910390f35b3480156106f657600080fd5b50610711600480360381019061070c91906134b1565b611e70565b60405161071e919061313b565b60405180910390f35b34801561073357600080fd5b5061074e600480360381019061074991906132de565b611e88565b005b34801561075c57600080fd5b50610777600480360381019061077291906130ec565b611ebe565b005b34801561078557600080fd5b506107a0600480360381019061079b9190613541565b611f2b565b005b6107bc60048036038101906107b79190613622565b612036565b005b3480156107ca57600080fd5b506107e560048036038101906107e09190613069565b6120a9565b6040516107f29190613011565b60405180910390f35b34801561080757600080fd5b5061081061216d565b60405161081d919061371c565b60405180910390f35b34801561083257600080fd5b5061083b612180565b6040516108489190613011565b60405180910390f35b34801561085d57600080fd5b5061087860048036038101906108739190613737565b61220e565b6040516108859190612f66565b60405180910390f35b34801561089a57600080fd5b506108b560048036038101906108b091906134b1565b6122a2565b005b3480156108c357600080fd5b506108cc612325565b6040516108d99190613786565b60405180910390f35b3480156108ee57600080fd5b5061090960048036038101906109049190613069565b61232b565b005b610913612372565b80601360006101000a81548173ffffffffffffffffffffffffffffffffffffffff021916908373ffffffffffffffffffffffffffffffffffffffff16021790555050565b60006301ffc9a760e01b827bffffffffffffffffffffffffffffffffffffffffffffffffffffffff191614806109b257506380ac58cd60e01b827bffffffffffffffffffffffffffffffffffffffffffffffffffffffff1916145b806109e25750635b5e139f60e01b827bffffffffffffffffffffffffffffffffffffffffffffffffffffffff1916145b9050919050565b6060600380546109f8906137d0565b80601f0160208091040260200160405190810160405280929190818152602001828054610a24906137d0565b8015610a715780601f10610a4657610100808354040283529160200191610a71565b820191906000526020600020905b815481529060010190602001808311610a5457829003601f168201915b5050505050905090565b6000610a86826123f0565b610abc576040517fcf4700e400000000000000000000000000000000000000000000000000000000815260040160405180910390fd5b6007600083815260200190815260200160002060000160009054906101000a900473ffffffffffffffffffffffffffffffffffffffff169050919050565b6000610b058261178c565b90508073ffffffffffffffffffffffffffffffffffffffff16610b2661244f565b73ffffffffffffffffffffffffffffffffffffffff1614610b8957610b5281610b4d61244f565b61220e565b610b88576040517fcfb3b94200000000000000000000000000000000000000000000000000000000815260040160405180910390fd5b5b826007600084815260200190815260200160002060000160006101000a81548173ffffffffffffffffffffffffffffffffffffffff021916908373ffffffffffffffffffffffffffffffffffffffff160217905550818373ffffffffffffffffffffffffffffffffffffffff168273ffffffffffffffffffffffffffffffffffffffff167f8c5be1e5ebec7d5bd14f71427d1e84f3dd0314c0f7b2291e5b200ac8c7c3b92560405160405180910390a4505050565b3373ffffffffffffffffffffffffffffffffffffffff163273ffffffffffffffffffffffffffffffffffffffff1614610cac576040517f08c379a0000000000000000000000000000000000000000000000000000000008152600401610ca39061384d565b60405180910390fd5b60026004811115610cc057610cbf6136a5565b5b600d60009054906101000a900460ff166004811115610ce257610ce16136a5565b5b14610d22576040517f08c379a0000000000000000000000000000000000000000000000000000000008152600401610d19906138b9565b60405180910390fd5b6011544210610d66576040517f08c379a0000000000000000000000000000000000000000000000000000000008152600401610d5d90613925565b60405180910390fd5b3373ffffffffffffffffffffffffffffffffffffffff16600960003373ffffffffffffffffffffffffffffffffffffffff1673ffffffffffffffffffffffffffffffffffffffff16815260200190815260200160002060000160009054906101000a900473ffffffffffffffffffffffffffffffffffffffff1673ffffffffffffffffffffffffffffffffffffffff1614610e36576040517f08c379a0000000000000000000000000000000000000000000000000000000008152600401610e2d90613991565b60405180910390fd5b600960003373ffffffffffffffffffffffffffffffffffffffff1673ffffffffffffffffffffffffffffffffffffffff16815260200190815260200160002060020160009054906101000a900460ff16610ec5576040517f08c379a0000000000000000000000000000000000000000000000000000000008152600401610ebc906139fd565b60405180910390fd5b6000600960003373ffffffffffffffffffffffffffffffffffffffff1673ffffffffffffffffffffffffffffffffffffffff1681526020019081526020016000206001015411610f4a576040517f08c379a0000000000000000000000000000000000000000000000000000000008152600401610f4190613a69565b60405180910390fd5b61014d600960003373ffffffffffffffffffffffffffffffffffffffff1673ffffffffffffffffffffffffffffffffffffffff16815260200190815260200160002060010154610f9861108c565b610fa29190613ab8565b1115610fe3576040517f08c379a0000000000000000000000000000000000000000000000000000000008152600401610fda90613b38565b60405180910390fd5b6000600960003373ffffffffffffffffffffffffffffffffffffffff1673ffffffffffffffffffffffffffffffffffffffff16815260200190815260200160002060020160006101000a81548160ff02191690831515021790555061108a33600960003373ffffffffffffffffffffffffffffffffffffffff1673ffffffffffffffffffffffffffffffffffffffff16815260200190815260200160002060010154612457565b565b6000611096612475565b6002546001540303905090565b600f5481565b60006110b48261247a565b90508373ffffffffffffffffffffffffffffffffffffffff168173ffffffffffffffffffffffffffffffffffffffff161461111b576040517fa114810000000000000000000000000000000000000000000000000000000000815260040160405180910390fd5b60008061112784612546565b9150915061113d818761113861244f565b61256d565b611189576111528661114d61244f565b61220e565b611188576040517f59c896be00000000000000000000000000000000000000000000000000000000815260040160405180910390fd5b5b600073ffffffffffffffffffffffffffffffffffffffff168573ffffffffffffffffffffffffffffffffffffffff16036111ef576040517fea553b3400000000000000000000000000000000000000000000000000000000815260040160405180910390fd5b6111fc86868660016125b1565b801561120757600082555b600660008773ffffffffffffffffffffffffffffffffffffffff1673ffffffffffffffffffffffffffffffffffffffff168152602001908152602001600020600081546001900391905081905550600660008673ffffffffffffffffffffffffffffffffffffffff1673ffffffffffffffffffffffffffffffffffffffff16815260200190815260200160002060008154600101919050819055506112d5856112b18888876125b7565b7c0200000000000000000000000000000000000000000000000000000000176125df565b600560008681526020019081526020016000208190555060007c020000000000000000000000000000000000000000000000000000000084160361135b5760006001850190506000600560008381526020019081526020016000205403611359576001548114611358578360056000838152602001908152602001600020819055505b5b505b838573ffffffffffffffffffffffffffffffffffffffff168773ffffffffffffffffffffffffffffffffffffffff167fddf252ad1be2c89b69c2b068fc378daa952ba7f163c4a11628f55a4df523b3ef60405160405180910390a46113c3868686600161260a565b505050505050565b6113d3612372565b80600c90816113e29190613cfa565b5050565b60115481565b6113f4612372565b8060118190555050565b3373ffffffffffffffffffffffffffffffffffffffff163273ffffffffffffffffffffffffffffffffffffffff161461146c576040517f08c379a00000000000000000000000000000000000000000000000000000000081526004016114639061384d565b60405180910390fd5b600f544210156114b1576040517f08c379a00000000000000000000000000000000000000000000000000000000081526004016114a890613e3e565b60405180910390fd5b60105442106114f5576040517f08c379a00000000000000000000000000000000000000000000000000000000081526004016114ec90613eaa565b60405180910390fd5b60016004811115611509576115086136a5565b5b600d60009054906101000a900460ff16600481111561152b5761152a6136a5565b5b1461156b576040517f08c379a000000000000000000000000000000000000000000000000000000000815260040161156290613f16565b60405180910390fd5b61157933600e548484612610565b6115b8576040517f08c379a00000000000000000000000000000000000000000000000000000000081526004016115af90613f82565b60405180910390fd5b600180601260003373ffffffffffffffffffffffffffffffffffffffff1673ffffffffffffffffffffffffffffffffffffffff168152602001908152602001600020546116059190613ab8565b1115611646576040517f08c379a000000000000000000000000000000000000000000000000000000000815260040161163d90614014565b60405180910390fd5b601460716116549190613ab8565b600161165e61108c565b6116689190613ab8565b11156116a9576040517f08c379a00000000000000000000000000000000000000000000000000000000081526004016116a090613b38565b60405180910390fd5b6001601260003373ffffffffffffffffffffffffffffffffffffffff1673ffffffffffffffffffffffffffffffffffffffff16815260200190815260200160002060008282546116f99190613ab8565b9250508190555061170b336001612457565b5050565b611717612372565b8060108190555050565b61173c83838360405180602001604052806000815250612036565b505050565b611749612372565b80600f8190555050565b600b60009054906101000a900460ff1681565b601360009054906101000a900473ffffffffffffffffffffffffffffffffffffffff1681565b60006117978261247a565b9050919050565b6117a6612372565b80600e8190555050565b6117b8612372565b8042106117fa576040517f08c379a00000000000000000000000000000000000000000000000000000000081526004016117f190614080565b60405180910390fd5b601360009054906101000a900473ffffffffffffffffffffffffffffffffffffffff1673ffffffffffffffffffffffffffffffffffffffff1663e433a5846040518163ffffffff1660e01b8152600401602060405180830381865afa158015611867573d6000803e3d6000fd5b505050506040513d601f19601f8201168201806040525081019061188b91906140b5565b6118ca576040517f08c379a00000000000000000000000000000000000000000000000000000000081526004016118c19061412e565b60405180910390fd5b6000601360009054906101000a900473ffffffffffffffffffffffffffffffffffffffff1673ffffffffffffffffffffffffffffffffffffffff1663df15c37e6040518163ffffffff1660e01b8152600401600060405180830381865afa158015611939573d6000803e3d6000fd5b505050506040513d6000823e3d601f19601f820116820180604052508101906119629190614226565b51116119a3576040517f08c379a000000000000000000000000000000000000000000000000000000000815260040161199a906142e1565b60405180910390fd5b806011819055506000601360009054906101000a900473ffffffffffffffffffffffffffffffffffffffff1673ffffffffffffffffffffffffffffffffffffffff166329c983ec6040518163ffffffff1660e01b8152600401600060405180830381865afa158015611a19573d6000803e3d6000fd5b505050506040513d6000823e3d601f19601f82011682018060405250810190611a42919061447e565b905060005b8151811015611bf957818181518110611a6357611a626144c7565b5b6020026020010151608001518015611a9957506000828281518110611a8b57611a8a6144c7565b5b602002602001015160600151115b15611be65760006040518060600160405280848481518110611abe57611abd6144c7565b5b60200260200101516020015173ffffffffffffffffffffffffffffffffffffffff168152602001848481518110611af857611af76144c7565b5b60200260200101516060015181526020016001151581525090508060096000858581518110611b2a57611b296144c7565b5b60200260200101516020015173ffffffffffffffffffffffffffffffffffffffff1673ffffffffffffffffffffffffffffffffffffffff16815260200190815260200160002060008201518160000160006101000a81548173ffffffffffffffffffffffffffffffffffffffff021916908373ffffffffffffffffffffffffffffffffffffffff1602179055506020820151816001015560408201518160020160006101000a81548160ff021916908315150217905550905050505b8080611bf1906144f6565b915050611a47565b505050565b60105481565b600a8054611c11906137d0565b80601f0160208091040260200160405190810160405280929190818152602001828054611c3d906137d0565b8015611c8a5780601f10611c5f57610100808354040283529160200191611c8a565b820191906000526020600020905b815481529060010190602001808311611c6d57829003601f168201915b505050505081565b60008073ffffffffffffffffffffffffffffffffffffffff168273ffffffffffffffffffffffffffffffffffffffff1603611cf9576040517f8f4eb60400000000000000000000000000000000000000000000000000000000815260040160405180910390fd5b67ffffffffffffffff600660008473ffffffffffffffffffffffffffffffffffffffff1673ffffffffffffffffffffffffffffffffffffffff16815260200190815260200160002054169050919050565b611d52612372565b611d5c6000612670565b565b60008060009054906101000a900473ffffffffffffffffffffffffffffffffffffffff16905090565b60096020528060005260406000206000915090508060000160009054906101000a900473ffffffffffffffffffffffffffffffffffffffff16908060010154908060020160009054906101000a900460ff16905083565b606060048054611ded906137d0565b80601f0160208091040260200160405190810160405280929190818152602001828054611e19906137d0565b8015611e665780601f10611e3b57610100808354040283529160200191611e66565b820191906000526020600020905b815481529060010190602001808311611e4957829003601f168201915b5050505050905090565b60126020528060005260406000206000915090505481565b611e90612372565b6001600b60006101000a81548160ff02191690831515021790555080600a9081611eba9190613cfa565b5050565b611ec6612372565b61014d81611ed261108c565b611edc9190613ab8565b1115611f1d576040517f08c379a0000000000000000000000000000000000000000000000000000000008152600401611f149061458a565b60405180910390fd5b611f278282612457565b5050565b8060086000611f3861244f565b73ffffffffffffffffffffffffffffffffffffffff1673ffffffffffffffffffffffffffffffffffffffff16815260200190815260200160002060008473ffffffffffffffffffffffffffffffffffffffff1673ffffffffffffffffffffffffffffffffffffffff16815260200190815260200160002060006101000a81548160ff0219169083151502179055508173ffffffffffffffffffffffffffffffffffffffff16611fe561244f565b73ffffffffffffffffffffffffffffffffffffffff167f17307eab39ab6107e8899845ad3d59bd9653f200f220920489ca2b5937696c318360405161202a9190612f66565b60405180910390a35050565b6120418484846110a9565b60008373ffffffffffffffffffffffffffffffffffffffff163b146120a35761206c84848484612734565b6120a2576040517fd1a57ed600000000000000000000000000000000000000000000000000000000815260040160405180910390fd5b5b50505050565b60606120b4826123f0565b6120f3576040517f08c379a00000000000000000000000000000000000000000000000000000000081526004016120ea906145f6565b60405180910390fd5b600b60009054906101000a900460ff161561213a57600a61211383612884565b604051602001612124929190614721565b6040516020818303038152906040529050612168565b600c61214583612884565b604051602001612156929190614721565b60405160208183030381529060405290505b919050565b600d60009054906101000a900460ff1681565b600c805461218d906137d0565b80601f01602080910402602001604051908101604052809291908181526020018280546121b9906137d0565b80156122065780601f106121db57610100808354040283529160200191612206565b820191906000526020600020905b8154815290600101906020018083116121e957829003601f168201915b505050505081565b6000600860008473ffffffffffffffffffffffffffffffffffffffff1673ffffffffffffffffffffffffffffffffffffffff16815260200190815260200160002060008373ffffffffffffffffffffffffffffffffffffffff1673ffffffffffffffffffffffffffffffffffffffff16815260200190815260200160002060009054906101000a900460ff16905092915050565b6122aa612372565b600073ffffffffffffffffffffffffffffffffffffffff168173ffffffffffffffffffffffffffffffffffffffff1603612319576040517f08c379a0000000000000000000000000000000000000000000000000000000008152600401612310906147c2565b60405180910390fd5b61232281612670565b50565b600e5481565b612333612372565b806004811115612346576123456136a5565b5b600d60006101000a81548160ff0219169083600481111561236a576123696136a5565b5b021790555050565b61237a612952565b73ffffffffffffffffffffffffffffffffffffffff16612398611d5e565b73ffffffffffffffffffffffffffffffffffffffff16146123ee576040517f08c379a00000000000000000000000000000000000000000000000000000000081526004016123e59061482e565b60405180910390fd5b565b6000816123fb612475565b1115801561240a575060015482105b8015612448575060007c0100000000000000000000000000000000000000000000000000000000600560008581526020019081526020016000205416145b9050919050565b600033905090565b61247182826040518060200160405280600081525061295a565b5050565b600090565b60008082905080612489612475565b1161250f5760015481101561250e5760006005600083815260200190815260200160002054905060007c010000000000000000000000000000000000000000000000000000000082160361250c575b600081036125025760056000836001900393508381526020019081526020016000205490506124d8565b8092505050612541565b505b5b6040517fdf2d9b4200000000000000000000000000000000000000000000000000000000815260040160405180910390fd5b919050565b60008060006007600085815260200190815260200160002090508092508254915050915091565b600073ffffffffffffffffffffffffffffffffffffffff8316925073ffffffffffffffffffffffffffffffffffffffff821691508382148383141790509392505050565b50505050565b60008060e883901c905060e86125ce8686846129f8565b62ffffff16901b9150509392505050565b600073ffffffffffffffffffffffffffffffffffffffff83169250814260a01b178317905092915050565b50505050565b600061266661261e86612a01565b85858580806020026020016040519081016040528093929190818152602001838360200280828437600081840152601f19601f82011690508083019250505050505050612a31565b9050949350505050565b60008060009054906101000a900473ffffffffffffffffffffffffffffffffffffffff169050816000806101000a81548173ffffffffffffffffffffffffffffffffffffffff021916908373ffffffffffffffffffffffffffffffffffffffff1602179055508173ffffffffffffffffffffffffffffffffffffffff168173ffffffffffffffffffffffffffffffffffffffff167f8be0079c531659141344cd1fd0a4f28419497f9722a3daafe3b4186f6b6457e060405160405180910390a35050565b60008373ffffffffffffffffffffffffffffffffffffffff1663150b7a0261275a61244f565b8786866040518563ffffffff1660e01b815260040161277c94939291906148a3565b6020604051808303816000875af19250505080156127b857506040513d601f19601f820116820180604052508101906127b59190614904565b60015b612831573d80600081146127e8576040519150601f19603f3d011682016040523d82523d6000602084013e6127ed565b606091505b506000815103612829576040517fd1a57ed600000000000000000000000000000000000000000000000000000000815260040160405180910390fd5b805181602001fd5b63150b7a0260e01b7bffffffffffffffffffffffffffffffffffffffffffffffffffffffff1916817bffffffffffffffffffffffffffffffffffffffffffffffffffffffff191614915050949350505050565b60606000600161289384612a47565b01905060008167ffffffffffffffff8111156128b2576128b16131b3565b5b6040519080825280601f01601f1916602001820160405280156128e45781602001600182028036833780820191505090505b509050600082602001820190505b600115612947578080600190039150507f3031323334353637383961626364656600000000000000000000000000000000600a86061a8153600a858161293b5761293a614931565b5b049450600085036128f2575b819350505050919050565b600033905090565b6129648383612b9a565b60008373ffffffffffffffffffffffffffffffffffffffff163b146129f35760006001549050600083820390505b6129a56000868380600101945086612734565b6129db576040517fd1a57ed600000000000000000000000000000000000000000000000000000000815260040160405180910390fd5b8181106129925781600154146129f057600080fd5b50505b505050565b60009392505050565b600081604051602001612a1491906149a8565b604051602081830303815290604052805190602001209050919050565b6000612a3e828486612d56565b90509392505050565b600080600090507a184f03e93ff9f4daa797ed6e38ed64bf6a1f0100000000000000008310612aa5577a184f03e93ff9f4daa797ed6e38ed64bf6a1f0100000000000000008381612a9b57612a9a614931565b5b0492506040810190505b6d04ee2d6d415b85acef81000000008310612ae2576d04ee2d6d415b85acef81000000008381612ad857612ad7614931565b5b0492506020810190505b662386f26fc100008310612b1157662386f26fc100008381612b0757612b06614931565b5b0492506010810190505b6305f5e1008310612b3a576305f5e1008381612b3057612b2f614931565b5b0492506008810190505b6127108310612b5f576127108381612b5557612b54614931565b5b0492506004810190505b60648310612b825760648381612b7857612b77614931565b5b0492506002810190505b600a8310612b91576001810190505b80915050919050565b6000600154905060008203612bdb576040517fb562e8dd00000000000000000000000000000000000000000000000000000000815260040160405180910390fd5b612be860008483856125b1565b600160406001901b178202600660008573ffffffffffffffffffffffffffffffffffffffff1673ffffffffffffffffffffffffffffffffffffffff16815260200190815260200160002060008282540192505081905550612c5f83612c5060008660006125b7565b612c5985612d6d565b176125df565b6005600083815260200190815260200160002081905550600080838301905073ffffffffffffffffffffffffffffffffffffffff85169150828260007fddf252ad1be2c89b69c2b068fc378daa952ba7f163c4a11628f55a4df523b3ef600080a4600183015b818114612d0057808360007fddf252ad1be2c89b69c2b068fc378daa952ba7f163c4a11628f55a4df523b3ef600080a4600181019050612cc5565b5060008203612d3b576040517f2e07630000000000000000000000000000000000000000000000000000000000815260040160405180910390fd5b806001819055505050612d51600084838561260a565b505050565b600082612d638584612d7d565b1490509392505050565b60006001821460e11b9050919050565b60008082905060005b8451811015612dc857612db382868381518110612da657612da56144c7565b5b6020026020010151612dd3565b91508080612dc0906144f6565b915050612d86565b508091505092915050565b6000818310612deb57612de68284612dfe565b612df6565b612df58383612dfe565b5b905092915050565b600082600052816020526040600020905092915050565b6000604051905090565b600080fd5b600080fd5b600073ffffffffffffffffffffffffffffffffffffffff82169050919050565b6000612e5482612e29565b9050919050565b6000612e6682612e49565b9050919050565b612e7681612e5b565b8114612e8157600080fd5b50565b600081359050612e9381612e6d565b92915050565b600060208284031215612eaf57612eae612e1f565b5b6000612ebd84828501612e84565b91505092915050565b60007fffffffff0000000000000000000000000000000000000000000000000000000082169050919050565b612efb81612ec6565b8114612f0657600080fd5b50565b600081359050612f1881612ef2565b92915050565b600060208284031215612f3457612f33612e1f565b5b6000612f4284828501612f09565b91505092915050565b60008115159050919050565b612f6081612f4b565b82525050565b6000602082019050612f7b6000830184612f57565b92915050565b600081519050919050565b600082825260208201905092915050565b60005b83811015612fbb578082015181840152602081019050612fa0565b60008484015250505050565b6000601f19601f8301169050919050565b6000612fe382612f81565b612fed8185612f8c565b9350612ffd818560208601612f9d565b61300681612fc7565b840191505092915050565b6000602082019050818103600083015261302b8184612fd8565b905092915050565b6000819050919050565b61304681613033565b811461305157600080fd5b50565b6000813590506130638161303d565b92915050565b60006020828403121561307f5761307e612e1f565b5b600061308d84828501613054565b91505092915050565b61309f81612e49565b82525050565b60006020820190506130ba6000830184613096565b92915050565b6130c981612e49565b81146130d457600080fd5b50565b6000813590506130e6816130c0565b92915050565b6000806040838503121561310357613102612e1f565b5b6000613111858286016130d7565b925050602061312285828601613054565b9150509250929050565b61313581613033565b82525050565b6000602082019050613150600083018461312c565b92915050565b60008060006060848603121561316f5761316e612e1f565b5b600061317d868287016130d7565b935050602061318e868287016130d7565b925050604061319f86828701613054565b9150509250925092565b600080fd5b600080fd5b7f4e487b7100000000000000000000000000000000000000000000000000000000600052604160045260246000fd5b6131eb82612fc7565b810181811067ffffffffffffffff8211171561320a576132096131b3565b5b80604052505050565b600061321d612e15565b905061322982826131e2565b919050565b600067ffffffffffffffff821115613249576132486131b3565b5b61325282612fc7565b9050602081019050919050565b82818337600083830152505050565b600061328161327c8461322e565b613213565b90508281526020810184848401111561329d5761329c6131ae565b5b6132a884828561325f565b509392505050565b600082601f8301126132c5576132c46131a9565b5b81356132d584826020860161326e565b91505092915050565b6000602082840312156132f4576132f3612e1f565b5b600082013567ffffffffffffffff81111561331257613311612e24565b5b61331e848285016132b0565b91505092915050565b600080fd5b600080fd5b60008083601f840112613347576133466131a9565b5b8235905067ffffffffffffffff81111561336457613363613327565b5b6020830191508360208202830111156133805761337f61332c565b5b9250929050565b6000806020838503121561339e5761339d612e1f565b5b600083013567ffffffffffffffff8111156133bc576133bb612e24565b5b6133c885828601613331565b92509250509250929050565b6000819050919050565b60006133f96133f46133ef84612e29565b6133d4565b612e29565b9050919050565b600061340b826133de565b9050919050565b600061341d82613400565b9050919050565b61342d81613412565b82525050565b60006020820190506134486000830184613424565b92915050565b6000819050919050565b6134618161344e565b811461346c57600080fd5b50565b60008135905061347e81613458565b92915050565b60006020828403121561349a57613499612e1f565b5b60006134a88482850161346f565b91505092915050565b6000602082840312156134c7576134c6612e1f565b5b60006134d5848285016130d7565b91505092915050565b60006060820190506134f36000830186613096565b613500602083018561312c565b61350d6040830184612f57565b949350505050565b61351e81612f4b565b811461352957600080fd5b50565b60008135905061353b81613515565b92915050565b6000806040838503121561355857613557612e1f565b5b6000613566858286016130d7565b92505060206135778582860161352c565b9150509250929050565b600067ffffffffffffffff82111561359c5761359b6131b3565b5b6135a582612fc7565b9050602081019050919050565b60006135c56135c084613581565b613213565b9050828152602081018484840111156135e1576135e06131ae565b5b6135ec84828561325f565b509392505050565b600082601f830112613609576136086131a9565b5b81356136198482602086016135b2565b91505092915050565b6000806000806080858703121561363c5761363b612e1f565b5b600061364a878288016130d7565b945050602061365b878288016130d7565b935050604061366c87828801613054565b925050606085013567ffffffffffffffff81111561368d5761368c612e24565b5b613699878288016135f4565b91505092959194509250565b7f4e487b7100000000000000000000000000000000000000000000000000000000600052602160045260246000fd5b600581106136e5576136e46136a5565b5b50565b60008190506136f6826136d4565b919050565b6000613706826136e8565b9050919050565b613716816136fb565b82525050565b6000602082019050613731600083018461370d565b92915050565b6000806040838503121561374e5761374d612e1f565b5b600061375c858286016130d7565b925050602061376d858286016130d7565b9150509250929050565b6137808161344e565b82525050565b600060208201905061379b6000830184613777565b92915050565b7f4e487b7100000000000000000000000000000000000000000000000000000000600052602260045260246000fd5b600060028204905060018216806137e857607f821691505b6020821081036137fb576137fa6137a1565b5b50919050565b7f5468652063616c6c657220697320616e6f7468657220636f6e74726163740000600082015250565b6000613837601e83612f8c565b915061384282613801565b602082019050919050565b600060208201905081810360008301526138668161382a565b9050919050565b7f5075626c69632073616c65206973206e6f742061637469766174656400000000600082015250565b60006138a3601c83612f8c565b91506138ae8261386d565b602082019050919050565b600060208201905081810360008301526138d281613896565b9050919050565b7f57696e6e6572204d696e742069732066696e6973680000000000000000000000600082015250565b600061390f601583612f8c565b915061391a826138d9565b602082019050919050565b6000602082019050818103600083015261393e81613902565b9050919050565b7f77696e6e6572206e6f7420657869737400000000000000000000000000000000600082015250565b600061397b601083612f8c565b915061398682613945565b602082019050919050565b600060208201905081810360008301526139aa8161396e565b9050919050565b7f416c7265616479206d696e742000000000000000000000000000000000000000600082015250565b60006139e7600d83612f8c565b91506139f2826139b1565b602082019050919050565b60006020820190508181036000830152613a16816139da565b9050919050565b7f4e6f7468696e6720746f206d696e740000000000000000000000000000000000600082015250565b6000613a53600f83612f8c565b9150613a5e82613a1d565b602082019050919050565b60006020820190508181036000830152613a8281613a46565b9050919050565b7f4e487b7100000000000000000000000000000000000000000000000000000000600052601160045260246000fd5b6000613ac382613033565b9150613ace83613033565b9250828201905080821115613ae657613ae5613a89565b5b92915050565b7f4d617820737570706c7920657863656564656400000000000000000000000000600082015250565b6000613b22601383612f8c565b9150613b2d82613aec565b602082019050919050565b60006020820190508181036000830152613b5181613b15565b9050919050565b60008190508160005260206000209050919050565b60006020601f8301049050919050565b600082821b905092915050565b600060088302613bba7fffffffffffffffffffffffffffffffffffffffffffffffffffffffffffffffff82613b7d565b613bc48683613b7d565b95508019841693508086168417925050509392505050565b6000613bf7613bf2613bed84613033565b6133d4565b613033565b9050919050565b6000819050919050565b613c1183613bdc565b613c25613c1d82613bfe565b848454613b8a565b825550505050565b600090565b613c3a613c2d565b613c45818484613c08565b505050565b5b81811015613c6957613c5e600082613c32565b600181019050613c4b565b5050565b601f821115613cae57613c7f81613b58565b613c8884613b6d565b81016020851015613c97578190505b613cab613ca385613b6d565b830182613c4a565b50505b505050565b600082821c905092915050565b6000613cd160001984600802613cb3565b1980831691505092915050565b6000613cea8383613cc0565b9150826002028217905092915050565b613d0382612f81565b67ffffffffffffffff811115613d1c57613d1b6131b3565b5b613d2682546137d0565b613d31828285613c6d565b600060209050601f831160018114613d645760008415613d52578287015190505b613d5c8582613cde565b865550613dc4565b601f198416613d7286613b58565b60005b82811015613d9a57848901518255600182019150602085019450602081019050613d75565b86831015613db75784890151613db3601f891682613cc0565b8355505b6001600288020188555050505b505050505050565b7f57686974656c6973742053616c6520686173206e6f742073746172746564207960008201527f6574000000000000000000000000000000000000000000000000000000000000602082015250565b6000613e28602283612f8c565b9150613e3382613dcc565b604082019050919050565b60006020820190508181036000830152613e5781613e1b565b9050919050565b7f4775617272616e7465642053616c652069732066696e69736800000000000000600082015250565b6000613e94601983612f8c565b9150613e9f82613e5e565b602082019050919050565b60006020820190508181036000830152613ec381613e87565b9050919050565b7f57686974656c6973742073616c65206973206e6f742061637469766174656400600082015250565b6000613f00601f83612f8c565b9150613f0b82613eca565b602082019050919050565b60006020820190508181036000830152613f2f81613ef3565b9050919050565b7f4e6f742067756172616e74656564206d696e7400000000000000000000000000600082015250565b6000613f6c601383612f8c565b9150613f7782613f36565b602082019050919050565b60006020820190508181036000830152613f9b81613f5f565b9050919050565b7f596f752063616e206f6e6c79206765742031204e4654206f6e2074686520477560008201527f6172656e746565642053616c6500000000000000000000000000000000000000602082015250565b6000613ffe602d83612f8c565b915061400982613fa2565b604082019050919050565b6000602082019050818103600083015261402d81613ff1565b9050919050565b7f696e76616c696420656e6454696d6557696e6e65724d696e7400000000000000600082015250565b600061406a601983612f8c565b915061407582614034565b602082019050919050565b600060208201905081810360008301526140998161405d565b9050919050565b6000815190506140af81613515565b92915050565b6000602082840312156140cb576140ca612e1f565b5b60006140d9848285016140a0565b91505092915050565b7f526166666c6520616c7265616479206f70656e00000000000000000000000000600082015250565b6000614118601383612f8c565b9150614123826140e2565b602082019050919050565b600060208201905081810360008301526141478161410b565b9050919050565b600067ffffffffffffffff821115614169576141686131b3565b5b602082029050602081019050919050565b600081519050614189816130c0565b92915050565b60006141a261419d8461414e565b613213565b905080838252602082019050602084028301858111156141c5576141c461332c565b5b835b818110156141ee57806141da888261417a565b8452602084019350506020810190506141c7565b5050509392505050565b600082601f83011261420d5761420c6131a9565b5b815161421d84826020860161418f565b91505092915050565b60006020828403121561423c5761423b612e1f565b5b600082015167ffffffffffffffff81111561425a57614259612e24565b5b614266848285016141f8565b91505092915050565b7f57696e6e657273206e6f742073657420696e20726166666c6520636f6e74726160008201527f6374000000000000000000000000000000000000000000000000000000000000602082015250565b60006142cb602283612f8c565b91506142d68261426f565b604082019050919050565b600060208201905081810360008301526142fa816142be565b9050919050565b600067ffffffffffffffff82111561431c5761431b6131b3565b5b602082029050602081019050919050565b600080fd5b6000815190506143418161303d565b92915050565b600060c0828403121561435d5761435c61432d565b5b61436760c0613213565b9050600061437784828501614332565b600083015250602061438b8482850161417a565b602083015250604061439f84828501614332565b60408301525060606143b384828501614332565b60608301525060806143c7848285016140a0565b60808301525060a06143db848285016140a0565b60a08301525092915050565b60006143fa6143f584614301565b613213565b90508083825260208201905060c0840283018581111561441d5761441c61332c565b5b835b8181101561444657806144328882614347565b84526020840193505060c08101905061441f565b5050509392505050565b600082601f830112614465576144646131a9565b5b81516144758482602086016143e7565b91505092915050565b60006020828403121561449457614493612e1f565b5b600082015167ffffffffffffffff8111156144b2576144b1612e24565b5b6144be84828501614450565b91505092915050565b7f4e487b7100000000000000000000000000000000000000000000000000000000600052603260045260246000fd5b600061450182613033565b91507fffffffffffffffffffffffffffffffffffffffffffffffffffffffffffffffff820361453357614532613a89565b5b600182019050919050565b7f5265616368656420746f74616c20737570706c79000000000000000000000000600082015250565b6000614574601483612f8c565b915061457f8261453e565b602082019050919050565b600060208201905081810360008301526145a381614567565b9050919050565b7f55524920717565727920666f72206e6f6e6578697374656e7420746f6b656e00600082015250565b60006145e0601f83612f8c565b91506145eb826145aa565b602082019050919050565b6000602082019050818103600083015261460f816145d3565b9050919050565b600081905092915050565b6000815461462e816137d0565b6146388186614616565b9450600182166000811461465357600181146146685761469b565b60ff198316865281151582028601935061469b565b61467185613b58565b60005b8381101561469357815481890152600182019150602081019050614674565b838801955050505b50505092915050565b60006146af82612f81565b6146b98185614616565b93506146c9818560208601612f9d565b80840191505092915050565b7f2e6a736f6e000000000000000000000000000000000000000000000000000000600082015250565b600061470b600583614616565b9150614716826146d5565b600582019050919050565b600061472d8285614621565b915061473982846146a4565b9150614744826146fe565b91508190509392505050565b7f4f776e61626c653a206e6577206f776e657220697320746865207a65726f206160008201527f6464726573730000000000000000000000000000000000000000000000000000602082015250565b60006147ac602683612f8c565b91506147b782614750565b604082019050919050565b600060208201905081810360008301526147db8161479f565b9050919050565b7f4f776e61626c653a2063616c6c6572206973206e6f7420746865206f776e6572600082015250565b6000614818602083612f8c565b9150614823826147e2565b602082019050919050565b600060208201905081810360008301526148478161480b565b9050919050565b600081519050919050565b600082825260208201905092915050565b60006148758261484e565b61487f8185614859565b935061488f818560208601612f9d565b61489881612fc7565b840191505092915050565b60006080820190506148b86000830187613096565b6148c56020830186613096565b6148d2604083018561312c565b81810360608301526148e4818461486a565b905095945050505050565b6000815190506148fe81612ef2565b92915050565b60006020828403121561491a57614919612e1f565b5b6000614928848285016148ef565b91505092915050565b7f4e487b7100000000000000000000000000000000000000000000000000000000600052601260045260246000fd5b60008160601b9050919050565b600061497882614960565b9050919050565b600061498a8261496d565b9050919050565b6149a261499d82612e49565b61497f565b82525050565b60006149b48284614991565b6014820191508190509291505056fea2646970667358221220aebf56002065951e3668973acddc05a7a7a9b0eab3d35e137754cbbc737d282a64736f6c63430008120033",
  "linkReferences": {},
  "deployedLinkReferences": {}
}