{
  "_format": "hh-sol-artifact-1",
  "contractName": "TBT_NFT",
  "sourceName": "contracts/TBT_NFT.sol",
  "abi": [
    {
      "inputs": [
        {
          "internalType": "bytes32",
          "name": "_merkleRoot",
          "type": "bytes32"
        },
        {
          "internalType": "string",
          "name": "_preRevealedURI",
          "type": "string"
        },
        {
          "internalType": "contract RaffleG_0",
          "name": "_raffleContract",
          "type": "address"
        },
        {
          "internalType": "uint256",
          "name": "_saleStartTime",
          "type": "uint256"
        },
        {
          "internalType": "uint256",
          "name": "_endTimeGuaranteed",
          "type": "uint256"
        }
      ],
      "stateMutability": "nonpayable",
      "type": "constructor"
    },
    {
      "inputs": [],
      "name": "ApprovalCallerNotOwnerNorApproved",
      "type": "error"
    },
    {
      "inputs": [],
      "name": "ApprovalQueryForNonexistentToken",
      "type": "error"
    },
    {
      "inputs": [],
      "name": "BalanceQueryForZeroAddress",
      "type": "error"
    },
    {
      "inputs": [],
      "name": "MintERC2309QuantityExceedsLimit",
      "type": "error"
    },
    {
      "inputs": [],
      "name": "MintToZeroAddress",
      "type": "error"
    },
    {
      "inputs": [],
      "name": "MintZeroQuantity",
      "type": "error"
    },
    {
      "inputs": [],
      "name": "OwnerQueryForNonexistentToken",
      "type": "error"
    },
    {
      "inputs": [],
      "name": "OwnershipNotInitializedForExtraData",
      "type": "error"
    },
    {
      "inputs": [],
      "name": "TransferCallerNotOwnerNorApproved",
      "type": "error"
    },
    {
      "inputs": [],
      "name": "TransferFromIncorrectOwner",
      "type": "error"
    },
    {
      "inputs": [],
      "name": "TransferToNonERC721ReceiverImplementer",
      "type": "error"
    },
    {
      "inputs": [],
      "name": "TransferToZeroAddress",
      "type": "error"
    },
    {
      "inputs": [],
      "name": "URIQueryForNonexistentToken",
      "type": "error"
    },
    {
      "anonymous": false,
      "inputs": [
        {
          "indexed": true,
          "internalType": "address",
          "name": "owner",
          "type": "address"
        },
        {
          "indexed": true,
          "internalType": "address",
          "name": "approved",
          "type": "address"
        },
        {
          "indexed": true,
          "internalType": "uint256",
          "name": "tokenId",
          "type": "uint256"
        }
      ],
      "name": "Approval",
      "type": "event"
    },
    {
      "anonymous": false,
      "inputs": [
        {
          "indexed": true,
          "internalType": "address",
          "name": "owner",
          "type": "address"
        },
        {
          "indexed": true,
          "internalType": "address",
          "name": "operator",
          "type": "address"
        },
        {
          "indexed": false,
          "internalType": "bool",
          "name": "approved",
          "type": "bool"
        }
      ],
      "name": "ApprovalForAll",
      "type": "event"
    },
    {
      "anonymous": false,
      "inputs": [
        {
          "indexed": true,
          "internalType": "uint256",
          "name": "fromTokenId",
          "type": "uint256"
        },
        {
          "indexed": false,
          "internalType": "uint256",
          "name": "toTokenId",
          "type": "uint256"
        },
        {
          "indexed": true,
          "internalType": "address",
          "name": "from",
          "type": "address"
        },
        {
          "indexed": true,
          "internalType": "address",
          "name": "to",
          "type": "address"
        }
      ],
      "name": "ConsecutiveTransfer",
      "type": "event"
    },
    {
      "anonymous": false,
      "inputs": [
        {
          "indexed": true,
          "internalType": "address",
          "name": "previousOwner",
          "type": "address"
        },
        {
          "indexed": true,
          "internalType": "address",
          "name": "newOwner",
          "type": "address"
        }
      ],
      "name": "OwnershipTransferred",
      "type": "event"
    },
    {
      "anonymous": false,
      "inputs": [
        {
          "indexed": true,
          "internalType": "address",
          "name": "from",
          "type": "address"
        },
        {
          "indexed": true,
          "internalType": "address",
          "name": "to",
          "type": "address"
        },
        {
          "indexed": true,
          "internalType": "uint256",
          "name": "tokenId",
          "type": "uint256"
        }
      ],
      "name": "Transfer",
      "type": "event"
    },
    {
      "inputs": [
        {
          "internalType": "address",
          "name": "",
          "type": "address"
        }
      ],
      "name": "amountNFTsperWalletWhitelistSale",
      "outputs": [
        {
          "internalType": "uint256",
          "name": "",
          "type": "uint256"
        }
      ],
      "stateMutability": "view",
      "type": "function"
    },
    {
      "inputs": [
        {
          "internalType": "address",
          "name": "to",
          "type": "address"
        },
        {
          "internalType": "uint256",
          "name": "tokenId",
          "type": "uint256"
        }
      ],
      "name": "approve",
      "outputs": [],
      "stateMutability": "payable",
      "type": "function"
    },
    {
      "inputs": [
        {
          "internalType": "address",
          "name": "owner",
          "type": "address"
        }
      ],
      "name": "balanceOf",
      "outputs": [
        {
          "internalType": "uint256",
          "name": "",
          "type": "uint256"
        }
      ],
      "stateMutability": "view",
      "type": "function"
    },
    {
      "inputs": [],
      "name": "baseURI",
      "outputs": [
        {
          "internalType": "string",
          "name": "",
          "type": "string"
        }
      ],
      "stateMutability": "view",
      "type": "function"
    },
    {
      "inputs": [],
      "name": "endTimeGuaranteed",
      "outputs": [
        {
          "internalType": "uint256",
          "name": "",
          "type": "uint256"
        }
      ],
      "stateMutability": "view",
      "type": "function"
    },
    {
      "inputs": [],
      "name": "endTimeWinnerMint",
      "outputs": [
        {
          "internalType": "uint256",
          "name": "",
          "type": "uint256"
        }
      ],
      "stateMutability": "view",
      "type": "function"
    },
    {
      "inputs": [
        {
          "internalType": "uint256",
          "name": "tokenId",
          "type": "uint256"
        }
      ],
      "name": "getApproved",
      "outputs": [
        {
          "internalType": "address",
          "name": "",
          "type": "address"
        }
      ],
      "stateMutability": "view",
      "type": "function"
    },
    {
      "inputs": [
        {
          "internalType": "address",
          "name": "_to",
          "type": "address"
        },
        {
          "internalType": "uint256",
          "name": "_quantity",
          "type": "uint256"
        }
      ],
      "name": "giftCollab",
      "outputs": [],
      "stateMutability": "nonpayable",
      "type": "function"
    },
    {
      "inputs": [
        {
          "internalType": "address",
          "name": "owner",
          "type": "address"
        },
        {
          "internalType": "address",
          "name": "operator",
          "type": "address"
        }
      ],
      "name": "isApprovedForAll",
      "outputs": [
        {
          "internalType": "bool",
          "name": "",
          "type": "bool"
        }
      ],
      "stateMutability": "view",
      "type": "function"
    },
    {
      "inputs": [],
      "name": "isRaffleOver",
      "outputs": [
        {
          "internalType": "bool",
          "name": "",
          "type": "bool"
        }
      ],
      "stateMutability": "view",
      "type": "function"
    },
    {
      "inputs": [],
      "name": "isRevealed",
      "outputs": [
        {
          "internalType": "bool",
          "name": "",
          "type": "bool"
        }
      ],
      "stateMutability": "view",
      "type": "function"
    },
    {
      "inputs": [],
      "name": "merkleRootGuaranteed",
      "outputs": [
        {
          "internalType": "bytes32",
          "name": "",
          "type": "bytes32"
        }
      ],
      "stateMutability": "view",
      "type": "function"
    },
    {
      "inputs": [],
      "name": "name",
      "outputs": [
        {
          "internalType": "string",
          "name": "",
          "type": "string"
        }
      ],
      "stateMutability": "view",
      "type": "function"
    },
    {
      "inputs": [],
      "name": "owner",
      "outputs": [
        {
          "internalType": "address",
          "name": "",
          "type": "address"
        }
      ],
      "stateMutability": "view",
      "type": "function"
    },
    {
      "inputs": [
        {
          "internalType": "uint256",
          "name": "tokenId",
          "type": "uint256"
        }
      ],
      "name": "ownerOf",
      "outputs": [
        {
          "internalType": "address",
          "name": "",
          "type": "address"
        }
      ],
      "stateMutability": "view",
      "type": "function"
    },
    {
      "inputs": [],
      "name": "preRevealedURI",
      "outputs": [
        {
          "internalType": "string",
          "name": "",
          "type": "string"
        }
      ],
      "stateMutability": "view",
      "type": "function"
    },
    {
      "inputs": [],
      "name": "raffleContract",
      "outputs": [
        {
          "internalType": "contract RaffleG_0",
          "name": "",
          "type": "address"
        }
      ],
      "stateMutability": "view",
      "type": "function"
    },
    {
      "inputs": [],
      "name": "renounceOwnership",
      "outputs": [],
      "stateMutability": "nonpayable",
      "type": "function"
    },
    {
      "inputs": [
        {
          "internalType": "string",
          "name": "baseURI_",
          "type": "string"
        }
      ],
      "name": "revealAndSetBaseURI",
      "outputs": [],
      "stateMutability": "nonpayable",
      "type": "function"
    },
    {
      "inputs": [
        {
          "internalType": "address",
          "name": "from",
          "type": "address"
        },
        {
          "internalType": "address",
          "name": "to",
          "type": "address"
        },
        {
          "internalType": "uint256",
          "name": "tokenId",
          "type": "uint256"
        }
      ],
      "name": "safeTransferFrom",
      "outputs": [],
      "stateMutability": "payable",
      "type": "function"
    },
    {
      "inputs": [
        {
          "internalType": "address",
          "name": "from",
          "type": "address"
        },
        {
          "internalType": "address",
          "name": "to",
          "type": "address"
        },
        {
          "internalType": "uint256",
          "name": "tokenId",
          "type": "uint256"
        },
        {
          "internalType": "bytes",
          "name": "_data",
          "type": "bytes"
        }
      ],
      "name": "safeTransferFrom",
      "outputs": [],
      "stateMutability": "payable",
      "type": "function"
    },
    {
      "inputs": [],
      "name": "saleStartTime",
      "outputs": [
        {
          "internalType": "uint256",
          "name": "",
          "type": "uint256"
        }
      ],
      "stateMutability": "view",
      "type": "function"
    },
    {
      "inputs": [],
      "name": "sellingStep",
      "outputs": [
        {
          "internalType": "enum TBT_NFT.Step",
          "name": "",
          "type": "uint8"
        }
      ],
      "stateMutability": "view",
      "type": "function"
    },
    {
      "inputs": [
        {
          "internalType": "address",
          "name": "operator",
          "type": "address"
        },
        {
          "internalType": "bool",
          "name": "approved",
          "type": "bool"
        }
      ],
      "name": "setApprovalForAll",
      "outputs": [],
      "stateMutability": "nonpayable",
      "type": "function"
    },
    {
      "inputs": [
        {
          "internalType": "uint256",
          "name": "_endTimeGuaranteed",
          "type": "uint256"
        }
      ],
      "name": "setEndTimeGuaranteed",
      "outputs": [],
      "stateMutability": "nonpayable",
      "type": "function"
    },
    {
      "inputs": [
        {
          "internalType": "uint256",
          "name": "_endTimeWinnerMint",
          "type": "uint256"
        }
      ],
      "name": "setEndTimeWinnerMint",
      "outputs": [],
      "stateMutability": "nonpayable",
      "type": "function"
    },
    {
      "inputs": [
        {
          "internalType": "bytes32",
          "name": "_merkleRoot",
          "type": "bytes32"
        }
      ],
      "name": "setMerkleRootGuarranteed",
      "outputs": [],
      "stateMutability": "nonpayable",
      "type": "function"
    },
    {
      "inputs": [
        {
          "internalType": "string",
          "name": "_preRevealedURI",
          "type": "string"
        }
      ],
      "name": "setPreRevealedURI",
      "outputs": [],
      "stateMutability": "nonpayable",
      "type": "function"
    },
    {
      "inputs": [
        {
          "internalType": "contract RaffleG_0",
          "name": "_raffleContract",
          "type": "address"
        }
      ],
      "name": "setRaffleContract",
      "outputs": [],
      "stateMutability": "nonpayable",
      "type": "function"
    },
    {
      "inputs": [
        {
          "internalType": "uint256",
          "name": "_saleStartTime",
          "type": "uint256"
        }
      ],
      "name": "setSaleStartTime",
      "outputs": [],
      "stateMutability": "nonpayable",
      "type": "function"
    },
    {
      "inputs": [
        {
          "internalType": "uint256",
          "name": "_step",
          "type": "uint256"
        }
      ],
      "name": "setStep",
      "outputs": [],
      "stateMutability": "nonpayable",
      "type": "function"
    },
    {
      "inputs": [
        {
          "internalType": "uint256",
          "name": "_endTimeWinnerMint",
          "type": "uint256"
        }
      ],
      "name": "setWinnerStructViaRaffle",
      "outputs": [],
      "stateMutability": "nonpayable",
      "type": "function"
    },
    {
      "inputs": [
        {
          "internalType": "bytes4",
          "name": "interfaceId",
          "type": "bytes4"
        }
      ],
      "name": "supportsInterface",
      "outputs": [
        {
          "internalType": "bool",
          "name": "",
          "type": "bool"
        }
      ],
      "stateMutability": "view",
      "type": "function"
    },
    {
      "inputs": [],
      "name": "symbol",
      "outputs": [
        {
          "internalType": "string",
          "name": "",
          "type": "string"
        }
      ],
      "stateMutability": "view",
      "type": "function"
    },
    {
      "inputs": [
        {
          "internalType": "uint256",
          "name": "_tokenId",
          "type": "uint256"
        }
      ],
      "name": "tokenURI",
      "outputs": [
        {
          "internalType": "string",
          "name": "",
          "type": "string"
        }
      ],
      "stateMutability": "view",
      "type": "function"
    },
    {
      "inputs": [],
      "name": "totalSupply",
      "outputs": [
        {
          "internalType": "uint256",
          "name": "",
          "type": "uint256"
        }
      ],
      "stateMutability": "view",
      "type": "function"
    },
    {
      "inputs": [
        {
          "internalType": "address",
          "name": "from",
          "type": "address"
        },
        {
          "internalType": "address",
          "name": "to",
          "type": "address"
        },
        {
          "internalType": "uint256",
          "name": "tokenId",
          "type": "uint256"
        }
      ],
      "name": "transferFrom",
      "outputs": [],
      "stateMutability": "payable",
      "type": "function"
    },
    {
      "inputs": [
        {
          "internalType": "address",
          "name": "newOwner",
          "type": "address"
        }
      ],
      "name": "transferOwnership",
      "outputs": [],
      "stateMutability": "nonpayable",
      "type": "function"
    },
    {
      "inputs": [
        {
          "internalType": "bytes32[]",
          "name": "_proof",
          "type": "bytes32[]"
        }
      ],
      "name": "whitelistMint",
      "outputs": [],
      "stateMutability": "nonpayable",
      "type": "function"
    },
    {
      "inputs": [
        {
          "internalType": "address",
          "name": "",
          "type": "address"
        }
      ],
      "name": "winnerByAddress",
      "outputs": [
        {
          "internalType": "address",
          "name": "addressWinner",
          "type": "address"
        },
        {
          "internalType": "uint256",
          "name": "numberOfWin",
          "type": "uint256"
        },
        {
          "internalType": "bool",
          "name": "notMinted",
          "type": "bool"
        }
      ],
      "stateMutability": "view",
      "type": "function"
    },
    {
      "inputs": [],
      "name": "winnerRaffleSaleMint",
      "outputs": [],
      "stateMutability": "nonpayable",
      "type": "function"
    }
  ],
  "bytecode": "0x60806040523480156200001157600080fd5b50604051620053583803806200535883398181016040528101906200003791906200051c565b6040518060400160405280600a81526020017f4f472054656464696573000000000000000000000000000000000000000000008152506040518060400160405280600381526020017f4f47540000000000000000000000000000000000000000000000000000000000815250620000c3620000b7620001c960201b60201c565b620001d160201b60201c565b8160039081620000d4919062000804565b508060049081620000e6919062000804565b50620000f76200029560201b60201c565b600181905550505084600e8190555083600c908162000117919062000804565b5082601360006101000a81548173ffffffffffffffffffffffffffffffffffffffff021916908373ffffffffffffffffffffffffffffffffffffffff16021790555081600f819055508060108190555060405180602001604052806000815250600a908162000187919062000804565b506000600b60006101000a81548160ff0219169083151502179055506000601360146101000a81548160ff0219169083151502179055505050505050620008eb565b600033905090565b60008060009054906101000a900473ffffffffffffffffffffffffffffffffffffffff169050816000806101000a81548173ffffffffffffffffffffffffffffffffffffffff021916908373ffffffffffffffffffffffffffffffffffffffff1602179055508173ffffffffffffffffffffffffffffffffffffffff168173ffffffffffffffffffffffffffffffffffffffff167f8be0079c531659141344cd1fd0a4f28419497f9722a3daafe3b4186f6b6457e060405160405180910390a35050565b600090565b6000604051905090565b600080fd5b600080fd5b6000819050919050565b620002c381620002ae565b8114620002cf57600080fd5b50565b600081519050620002e381620002b8565b92915050565b600080fd5b600080fd5b6000601f19601f8301169050919050565b7f4e487b7100000000000000000000000000000000000000000000000000000000600052604160045260246000fd5b6200033e82620002f3565b810181811067ffffffffffffffff8211171562000360576200035f62000304565b5b80604052505050565b6000620003756200029a565b905062000383828262000333565b919050565b600067ffffffffffffffff821115620003a657620003a562000304565b5b620003b182620002f3565b9050602081019050919050565b60005b83811015620003de578082015181840152602081019050620003c1565b60008484015250505050565b600062000401620003fb8462000388565b62000369565b90508281526020810184848401111562000420576200041f620002ee565b5b6200042d848285620003be565b509392505050565b600082601f8301126200044d576200044c620002e9565b5b81516200045f848260208601620003ea565b91505092915050565b600073ffffffffffffffffffffffffffffffffffffffff82169050919050565b6000620004958262000468565b9050919050565b6000620004a98262000488565b9050919050565b620004bb816200049c565b8114620004c757600080fd5b50565b600081519050620004db81620004b0565b92915050565b6000819050919050565b620004f681620004e1565b81146200050257600080fd5b50565b6000815190506200051681620004eb565b92915050565b600080600080600060a086880312156200053b576200053a620002a4565b5b60006200054b88828901620002d2565b955050602086015167ffffffffffffffff8111156200056f576200056e620002a9565b5b6200057d8882890162000435565b94505060406200059088828901620004ca565b9350506060620005a38882890162000505565b9250506080620005b68882890162000505565b9150509295509295909350565b600081519050919050565b7f4e487b7100000000000000000000000000000000000000000000000000000000600052602260045260246000fd5b600060028204905060018216806200061657607f821691505b6020821081036200062c576200062b620005ce565b5b50919050565b60008190508160005260206000209050919050565b60006020601f8301049050919050565b600082821b905092915050565b600060088302620006967fffffffffffffffffffffffffffffffffffffffffffffffffffffffffffffffff8262000657565b620006a2868362000657565b95508019841693508086168417925050509392505050565b6000819050919050565b6000620006e5620006df620006d984620004e1565b620006ba565b620004e1565b9050919050565b6000819050919050565b6200070183620006c4565b620007196200071082620006ec565b84845462000664565b825550505050565b600090565b6200073062000721565b6200073d818484620006f6565b505050565b5b8181101562000765576200075960008262000726565b60018101905062000743565b5050565b601f821115620007b4576200077e8162000632565b620007898462000647565b8101602085101562000799578190505b620007b1620007a88562000647565b83018262000742565b50505b505050565b600082821c905092915050565b6000620007d960001984600802620007b9565b1980831691505092915050565b6000620007f48383620007c6565b9150826002028217905092915050565b6200080f82620005c3565b67ffffffffffffffff8111156200082b576200082a62000304565b5b620008378254620005fd565b6200084482828562000769565b600060209050601f8311600181146200087c576000841562000867578287015190505b620008738582620007e6565b865550620008e3565b601f1984166200088c8662000632565b60005b82811015620008b6578489015182556001820191506020850194506020810190506200088f565b86831015620008d65784890151620008d2601f891682620007c6565b8355505b6001600288020188555050505b505050505050565b614a5d80620008fb6000396000f3fe6080604052600436106102455760003560e01c80636c0360eb116101395780639d286585116100b6578063ceca88cb1161007a578063ceca88cb14610831578063de210ab31461085c578063e985e9c514610887578063f2fde38b146108c4578063f79ae88d146108ed578063f8dcbddb1461091857610245565b80639d2865851461075b578063a22cb46514610784578063b88d4fde146107ad578063c87b56dd146107c9578063cbccefb21461080657610245565b80638da5cb5b116100fd5780638da5cb5b1461066057806393034fb21461068b57806395d89b41146106ca57806399d13800146106f55780639bfd8a251461073257610245565b80636c0360eb1461058d57806370a08231146105b8578063715018a6146105f55780637dee1b411461060c57806381c221fd1461063757610245565b806332a278b9116101c757806354214f691161018b57806354214f69146104a85780635d7916ed146104d35780636352211e146104fe5780636602da421461053b5780636714ba391461056457610245565b806332a278b9146103e657806333cc9b7814610411578063372f657c1461043a57806342842e0e14610463578063525f8a5c1461047f57610245565b806316f5bb241161020e57806316f5bb241461033457806318160ddd1461034b5780631cbaee2d1461037657806323b872dd146103a15780632ca4b209146103bd57610245565b806256c0841461024a57806301ffc9a71461027357806306fdde03146102b0578063081812fc146102db578063095ea7b314610318575b600080fd5b34801561025657600080fd5b50610271600480360381019061026c9190612efd565b610941565b005b34801561027f57600080fd5b5061029a60048036038101906102959190612f82565b61098d565b6040516102a79190612fca565b60405180910390f35b3480156102bc57600080fd5b506102c5610a1f565b6040516102d29190613075565b60405180910390f35b3480156102e757600080fd5b5061030260048036038101906102fd91906130cd565b610ab1565b60405161030f9190613109565b60405180910390f35b610332600480360381019061032d9190613150565b610b30565b005b34801561034057600080fd5b50610349610c74565b005b34801561035757600080fd5b506103606110c2565b60405161036d919061319f565b60405180910390f35b34801561038257600080fd5b5061038b6110d9565b604051610398919061319f565b60405180910390f35b6103bb60048036038101906103b691906131ba565b6110df565b005b3480156103c957600080fd5b506103e460048036038101906103df9190613342565b611401565b005b3480156103f257600080fd5b506103fb61141c565b604051610408919061319f565b60405180910390f35b34801561041d57600080fd5b50610438600480360381019061043391906130cd565b611422565b005b34801561044657600080fd5b50610461600480360381019061045c91906133eb565b611434565b005b61047d600480360381019061047891906131ba565b611745565b005b34801561048b57600080fd5b506104a660048036038101906104a191906130cd565b611765565b005b3480156104b457600080fd5b506104bd611777565b6040516104ca9190612fca565b60405180910390f35b3480156104df57600080fd5b506104e861178a565b6040516104f59190613497565b60405180910390f35b34801561050a57600080fd5b50610525600480360381019061052091906130cd565b6117b0565b6040516105329190613109565b60405180910390f35b34801561054757600080fd5b50610562600480360381019061055d91906134e8565b6117c2565b005b34801561057057600080fd5b5061058b600480360381019061058691906130cd565b6117d4565b005b34801561059957600080fd5b506105a2611c3d565b6040516105af9190613075565b60405180910390f35b3480156105c457600080fd5b506105df60048036038101906105da9190613515565b611ccb565b6040516105ec919061319f565b60405180910390f35b34801561060157600080fd5b5061060a611d83565b005b34801561061857600080fd5b50610621611d97565b60405161062e919061319f565b60405180910390f35b34801561064357600080fd5b5061065e600480360381019061065991906130cd565b611d9d565b005b34801561066c57600080fd5b50610675611daf565b6040516106829190613109565b60405180910390f35b34801561069757600080fd5b506106b260048036038101906106ad9190613515565b611dd8565b6040516106c193929190613542565b60405180910390f35b3480156106d657600080fd5b506106df611e2f565b6040516106ec9190613075565b60405180910390f35b34801561070157600080fd5b5061071c60048036038101906107179190613515565b611ec1565b604051610729919061319f565b60405180910390f35b34801561073e57600080fd5b5061075960048036038101906107549190613342565b611ed9565b005b34801561076757600080fd5b50610782600480360381019061077d9190613150565b611f0f565b005b34801561079057600080fd5b506107ab60048036038101906107a691906135a5565b611f7c565b005b6107c760048036038101906107c29190613686565b612087565b005b3480156107d557600080fd5b506107f060048036038101906107eb91906130cd565b6120fa565b6040516107fd9190613075565b60405180910390f35b34801561081257600080fd5b5061081b6121be565b6040516108289190613780565b60405180910390f35b34801561083d57600080fd5b506108466121d1565b6040516108539190612fca565b60405180910390f35b34801561086857600080fd5b506108716121e4565b60405161087e9190613075565b60405180910390f35b34801561089357600080fd5b506108ae60048036038101906108a9919061379b565b612272565b6040516108bb9190612fca565b60405180910390f35b3480156108d057600080fd5b506108eb60048036038101906108e69190613515565b612306565b005b3480156108f957600080fd5b50610902612389565b60405161090f91906137ea565b60405180910390f35b34801561092457600080fd5b5061093f600480360381019061093a91906130cd565b61238f565b005b6109496123d6565b80601360006101000a81548173ffffffffffffffffffffffffffffffffffffffff021916908373ffffffffffffffffffffffffffffffffffffffff16021790555050565b60006301ffc9a760e01b827bffffffffffffffffffffffffffffffffffffffffffffffffffffffff191614806109e857506380ac58cd60e01b827bffffffffffffffffffffffffffffffffffffffffffffffffffffffff1916145b80610a185750635b5e139f60e01b827bffffffffffffffffffffffffffffffffffffffffffffffffffffffff1916145b9050919050565b606060038054610a2e90613834565b80601f0160208091040260200160405190810160405280929190818152602001828054610a5a90613834565b8015610aa75780601f10610a7c57610100808354040283529160200191610aa7565b820191906000526020600020905b815481529060010190602001808311610a8a57829003601f168201915b5050505050905090565b6000610abc82612454565b610af2576040517fcf4700e400000000000000000000000000000000000000000000000000000000815260040160405180910390fd5b6007600083815260200190815260200160002060000160009054906101000a900473ffffffffffffffffffffffffffffffffffffffff169050919050565b6000610b3b826117b0565b90508073ffffffffffffffffffffffffffffffffffffffff16610b5c6124b3565b73ffffffffffffffffffffffffffffffffffffffff1614610bbf57610b8881610b836124b3565b612272565b610bbe576040517fcfb3b94200000000000000000000000000000000000000000000000000000000815260040160405180910390fd5b5b826007600084815260200190815260200160002060000160006101000a81548173ffffffffffffffffffffffffffffffffffffffff021916908373ffffffffffffffffffffffffffffffffffffffff160217905550818373ffffffffffffffffffffffffffffffffffffffff168273ffffffffffffffffffffffffffffffffffffffff167f8c5be1e5ebec7d5bd14f71427d1e84f3dd0314c0f7b2291e5b200ac8c7c3b92560405160405180910390a4505050565b3373ffffffffffffffffffffffffffffffffffffffff163273ffffffffffffffffffffffffffffffffffffffff1614610ce2576040517f08c379a0000000000000000000000000000000000000000000000000000000008152600401610cd9906138b1565b60405180910390fd5b60026004811115610cf657610cf5613709565b5b600d60009054906101000a900460ff166004811115610d1857610d17613709565b5b14610d58576040517f08c379a0000000000000000000000000000000000000000000000000000000008152600401610d4f9061391d565b60405180910390fd5b6011544210610d9c576040517f08c379a0000000000000000000000000000000000000000000000000000000008152600401610d9390613989565b60405180910390fd5b3373ffffffffffffffffffffffffffffffffffffffff16600960003373ffffffffffffffffffffffffffffffffffffffff1673ffffffffffffffffffffffffffffffffffffffff16815260200190815260200160002060000160009054906101000a900473ffffffffffffffffffffffffffffffffffffffff1673ffffffffffffffffffffffffffffffffffffffff1614610e6c576040517f08c379a0000000000000000000000000000000000000000000000000000000008152600401610e63906139f5565b60405180910390fd5b600960003373ffffffffffffffffffffffffffffffffffffffff1673ffffffffffffffffffffffffffffffffffffffff16815260200190815260200160002060020160009054906101000a900460ff16610efb576040517f08c379a0000000000000000000000000000000000000000000000000000000008152600401610ef290613a61565b60405180910390fd5b6000600960003373ffffffffffffffffffffffffffffffffffffffff1673ffffffffffffffffffffffffffffffffffffffff1681526020019081526020016000206001015411610f80576040517f08c379a0000000000000000000000000000000000000000000000000000000008152600401610f7790613acd565b60405180910390fd5b61014d600960003373ffffffffffffffffffffffffffffffffffffffff1673ffffffffffffffffffffffffffffffffffffffff16815260200190815260200160002060010154610fce6110c2565b610fd89190613b1c565b1115611019576040517f08c379a000000000000000000000000000000000000000000000000000000000815260040161101090613b9c565b60405180910390fd5b6000600960003373ffffffffffffffffffffffffffffffffffffffff1673ffffffffffffffffffffffffffffffffffffffff16815260200190815260200160002060020160006101000a81548160ff0219169083151502179055506110c033600960003373ffffffffffffffffffffffffffffffffffffffff1673ffffffffffffffffffffffffffffffffffffffff168152602001908152602001600020600101546124bb565b565b60006110cc6124d9565b6002546001540303905090565b600f5481565b60006110ea826124de565b90508373ffffffffffffffffffffffffffffffffffffffff168173ffffffffffffffffffffffffffffffffffffffff1614611151576040517fa114810000000000000000000000000000000000000000000000000000000000815260040160405180910390fd5b60008061115d846125aa565b91509150611173818761116e6124b3565b6125d1565b6111bf57611188866111836124b3565b612272565b6111be576040517f59c896be00000000000000000000000000000000000000000000000000000000815260040160405180910390fd5b5b600073ffffffffffffffffffffffffffffffffffffffff168573ffffffffffffffffffffffffffffffffffffffff1603611225576040517fea553b3400000000000000000000000000000000000000000000000000000000815260040160405180910390fd5b6112328686866001612615565b801561123d57600082555b600660008773ffffffffffffffffffffffffffffffffffffffff1673ffffffffffffffffffffffffffffffffffffffff168152602001908152602001600020600081546001900391905081905550600660008673ffffffffffffffffffffffffffffffffffffffff1673ffffffffffffffffffffffffffffffffffffffff168152602001908152602001600020600081546001019190508190555061130b856112e788888761261b565b7c020000000000000000000000000000000000000000000000000000000017612643565b600560008681526020019081526020016000208190555060007c0200000000000000000000000000000000000000000000000000000000841603611391576000600185019050600060056000838152602001908152602001600020540361138f57600154811461138e578360056000838152602001908152602001600020819055505b5b505b838573ffffffffffffffffffffffffffffffffffffffff168773ffffffffffffffffffffffffffffffffffffffff167fddf252ad1be2c89b69c2b068fc378daa952ba7f163c4a11628f55a4df523b3ef60405160405180910390a46113f9868686600161266e565b505050505050565b6114096123d6565b80600c90816114189190613d5e565b5050565b60115481565b61142a6123d6565b8060118190555050565b3373ffffffffffffffffffffffffffffffffffffffff163273ffffffffffffffffffffffffffffffffffffffff16146114a2576040517f08c379a0000000000000000000000000000000000000000000000000000000008152600401611499906138b1565b60405180910390fd5b600f544210156114e7576040517f08c379a00000000000000000000000000000000000000000000000000000000081526004016114de90613ea2565b60405180910390fd5b601054421061152b576040517f08c379a000000000000000000000000000000000000000000000000000000000815260040161152290613f0e565b60405180910390fd5b6001600481111561153f5761153e613709565b5b600d60009054906101000a900460ff16600481111561156157611560613709565b5b146115a1576040517f08c379a000000000000000000000000000000000000000000000000000000000815260040161159890613f7a565b60405180910390fd5b6115af33600e548484612674565b6115ee576040517f08c379a00000000000000000000000000000000000000000000000000000000081526004016115e590613fe6565b60405180910390fd5b600180601260003373ffffffffffffffffffffffffffffffffffffffff1673ffffffffffffffffffffffffffffffffffffffff1681526020019081526020016000205461163b9190613b1c565b111561167c576040517f08c379a000000000000000000000000000000000000000000000000000000000815260040161167390614078565b60405180910390fd5b6016606f61168a9190613b1c565b60016116946110c2565b61169e9190613b1c565b11156116df576040517f08c379a00000000000000000000000000000000000000000000000000000000081526004016116d690613b9c565b60405180910390fd5b6001601260003373ffffffffffffffffffffffffffffffffffffffff1673ffffffffffffffffffffffffffffffffffffffff168152602001908152602001600020600082825461172f9190613b1c565b925050819055506117413360016124bb565b5050565b61176083838360405180602001604052806000815250612087565b505050565b61176d6123d6565b80600f8190555050565b600b60009054906101000a900460ff1681565b601360009054906101000a900473ffffffffffffffffffffffffffffffffffffffff1681565b60006117bb826124de565b9050919050565b6117ca6123d6565b80600e8190555050565b6117dc6123d6565b80421061181e576040517f08c379a0000000000000000000000000000000000000000000000000000000008152600401611815906140e4565b60405180910390fd5b601360009054906101000a900473ffffffffffffffffffffffffffffffffffffffff1673ffffffffffffffffffffffffffffffffffffffff1663e433a5846040518163ffffffff1660e01b8152600401602060405180830381865afa15801561188b573d6000803e3d6000fd5b505050506040513d601f19601f820116820180604052508101906118af9190614119565b6118ee576040517f08c379a00000000000000000000000000000000000000000000000000000000081526004016118e590614192565b60405180910390fd5b6000601360009054906101000a900473ffffffffffffffffffffffffffffffffffffffff1673ffffffffffffffffffffffffffffffffffffffff1663df15c37e6040518163ffffffff1660e01b8152600401600060405180830381865afa15801561195d573d6000803e3d6000fd5b505050506040513d6000823e3d601f19601f82011682018060405250810190611986919061428a565b51116119c7576040517f08c379a00000000000000000000000000000000000000000000000000000000081526004016119be90614345565b60405180910390fd5b806011819055506001601360146101000a81548160ff0219169083151502179055506000601360009054906101000a900473ffffffffffffffffffffffffffffffffffffffff1673ffffffffffffffffffffffffffffffffffffffff166329c983ec6040518163ffffffff1660e01b8152600401600060405180830381865afa158015611a58573d6000803e3d6000fd5b505050506040513d6000823e3d601f19601f82011682018060405250810190611a8191906144e2565b905060005b8151811015611c3857818181518110611aa257611aa161452b565b5b6020026020010151608001518015611ad857506000828281518110611aca57611ac961452b565b5b602002602001015160600151115b15611c255760006040518060600160405280848481518110611afd57611afc61452b565b5b60200260200101516020015173ffffffffffffffffffffffffffffffffffffffff168152602001848481518110611b3757611b3661452b565b5b60200260200101516060015181526020016001151581525090508060096000858581518110611b6957611b6861452b565b5b60200260200101516020015173ffffffffffffffffffffffffffffffffffffffff1673ffffffffffffffffffffffffffffffffffffffff16815260200190815260200160002060008201518160000160006101000a81548173ffffffffffffffffffffffffffffffffffffffff021916908373ffffffffffffffffffffffffffffffffffffffff1602179055506020820151816001015560408201518160020160006101000a81548160ff021916908315150217905550905050505b8080611c309061455a565b915050611a86565b505050565b600a8054611c4a90613834565b80601f0160208091040260200160405190810160405280929190818152602001828054611c7690613834565b8015611cc35780601f10611c9857610100808354040283529160200191611cc3565b820191906000526020600020905b815481529060010190602001808311611ca657829003601f168201915b505050505081565b60008073ffffffffffffffffffffffffffffffffffffffff168273ffffffffffffffffffffffffffffffffffffffff1603611d32576040517f8f4eb60400000000000000000000000000000000000000000000000000000000815260040160405180910390fd5b67ffffffffffffffff600660008473ffffffffffffffffffffffffffffffffffffffff1673ffffffffffffffffffffffffffffffffffffffff16815260200190815260200160002054169050919050565b611d8b6123d6565b611d9560006126d4565b565b60105481565b611da56123d6565b8060108190555050565b60008060009054906101000a900473ffffffffffffffffffffffffffffffffffffffff16905090565b60096020528060005260406000206000915090508060000160009054906101000a900473ffffffffffffffffffffffffffffffffffffffff16908060010154908060020160009054906101000a900460ff16905083565b606060048054611e3e90613834565b80601f0160208091040260200160405190810160405280929190818152602001828054611e6a90613834565b8015611eb75780601f10611e8c57610100808354040283529160200191611eb7565b820191906000526020600020905b815481529060010190602001808311611e9a57829003601f168201915b5050505050905090565b60126020528060005260406000206000915090505481565b611ee16123d6565b6001600b60006101000a81548160ff02191690831515021790555080600a9081611f0b9190613d5e565b5050565b611f176123d6565b61014d81611f236110c2565b611f2d9190613b1c565b1115611f6e576040517f08c379a0000000000000000000000000000000000000000000000000000000008152600401611f65906145ee565b60405180910390fd5b611f7882826124bb565b5050565b8060086000611f896124b3565b73ffffffffffffffffffffffffffffffffffffffff1673ffffffffffffffffffffffffffffffffffffffff16815260200190815260200160002060008473ffffffffffffffffffffffffffffffffffffffff1673ffffffffffffffffffffffffffffffffffffffff16815260200190815260200160002060006101000a81548160ff0219169083151502179055508173ffffffffffffffffffffffffffffffffffffffff166120366124b3565b73ffffffffffffffffffffffffffffffffffffffff167f17307eab39ab6107e8899845ad3d59bd9653f200f220920489ca2b5937696c318360405161207b9190612fca565b60405180910390a35050565b6120928484846110df565b60008373ffffffffffffffffffffffffffffffffffffffff163b146120f4576120bd84848484612798565b6120f3576040517fd1a57ed600000000000000000000000000000000000000000000000000000000815260040160405180910390fd5b5b50505050565b606061210582612454565b612144576040517f08c379a000000000000000000000000000000000000000000000000000000000815260040161213b9061465a565b60405180910390fd5b600b60009054906101000a900460ff161561218b57600a612164836128e8565b604051602001612175929190614785565b60405160208183030381529060405290506121b9565b600c612196836128e8565b6040516020016121a7929190614785565b60405160208183030381529060405290505b919050565b600d60009054906101000a900460ff1681565b601360149054906101000a900460ff1681565b600c80546121f190613834565b80601f016020809104026020016040519081016040528092919081815260200182805461221d90613834565b801561226a5780601f1061223f5761010080835404028352916020019161226a565b820191906000526020600020905b81548152906001019060200180831161224d57829003601f168201915b505050505081565b6000600860008473ffffffffffffffffffffffffffffffffffffffff1673ffffffffffffffffffffffffffffffffffffffff16815260200190815260200160002060008373ffffffffffffffffffffffffffffffffffffffff1673ffffffffffffffffffffffffffffffffffffffff16815260200190815260200160002060009054906101000a900460ff16905092915050565b61230e6123d6565b600073ffffffffffffffffffffffffffffffffffffffff168173ffffffffffffffffffffffffffffffffffffffff160361237d576040517f08c379a000000000000000000000000000000000000000000000000000000000815260040161237490614826565b60405180910390fd5b612386816126d4565b50565b600e5481565b6123976123d6565b8060048111156123aa576123a9613709565b5b600d60006101000a81548160ff021916908360048111156123ce576123cd613709565b5b021790555050565b6123de6129b6565b73ffffffffffffffffffffffffffffffffffffffff166123fc611daf565b73ffffffffffffffffffffffffffffffffffffffff1614612452576040517f08c379a000000000000000000000000000000000000000000000000000000000815260040161244990614892565b60405180910390fd5b565b60008161245f6124d9565b1115801561246e575060015482105b80156124ac575060007c0100000000000000000000000000000000000000000000000000000000600560008581526020019081526020016000205416145b9050919050565b600033905090565b6124d58282604051806020016040528060008152506129be565b5050565b600090565b600080829050806124ed6124d9565b11612573576001548110156125725760006005600083815260200190815260200160002054905060007c0100000000000000000000000000000000000000000000000000000000821603612570575b6000810361256657600560008360019003935083815260200190815260200160002054905061253c565b80925050506125a5565b505b5b6040517fdf2d9b4200000000000000000000000000000000000000000000000000000000815260040160405180910390fd5b919050565b60008060006007600085815260200190815260200160002090508092508254915050915091565b600073ffffffffffffffffffffffffffffffffffffffff8316925073ffffffffffffffffffffffffffffffffffffffff821691508382148383141790509392505050565b50505050565b60008060e883901c905060e8612632868684612a5c565b62ffffff16901b9150509392505050565b600073ffffffffffffffffffffffffffffffffffffffff83169250814260a01b178317905092915050565b50505050565b60006126ca61268286612a65565b85858580806020026020016040519081016040528093929190818152602001838360200280828437600081840152601f19601f82011690508083019250505050505050612a95565b9050949350505050565b60008060009054906101000a900473ffffffffffffffffffffffffffffffffffffffff169050816000806101000a81548173ffffffffffffffffffffffffffffffffffffffff021916908373ffffffffffffffffffffffffffffffffffffffff1602179055508173ffffffffffffffffffffffffffffffffffffffff168173ffffffffffffffffffffffffffffffffffffffff167f8be0079c531659141344cd1fd0a4f28419497f9722a3daafe3b4186f6b6457e060405160405180910390a35050565b60008373ffffffffffffffffffffffffffffffffffffffff1663150b7a026127be6124b3565b8786866040518563ffffffff1660e01b81526004016127e09493929190614907565b6020604051808303816000875af192505050801561281c57506040513d601f19601f820116820180604052508101906128199190614968565b60015b612895573d806000811461284c576040519150601f19603f3d011682016040523d82523d6000602084013e612851565b606091505b50600081510361288d576040517fd1a57ed600000000000000000000000000000000000000000000000000000000815260040160405180910390fd5b805181602001fd5b63150b7a0260e01b7bffffffffffffffffffffffffffffffffffffffffffffffffffffffff1916817bffffffffffffffffffffffffffffffffffffffffffffffffffffffff191614915050949350505050565b6060600060016128f784612aab565b01905060008167ffffffffffffffff81111561291657612915613217565b5b6040519080825280601f01601f1916602001820160405280156129485781602001600182028036833780820191505090505b509050600082602001820190505b6001156129ab578080600190039150507f3031323334353637383961626364656600000000000000000000000000000000600a86061a8153600a858161299f5761299e614995565b5b04945060008503612956575b819350505050919050565b600033905090565b6129c88383612bfe565b60008373ffffffffffffffffffffffffffffffffffffffff163b14612a575760006001549050600083820390505b612a096000868380600101945086612798565b612a3f576040517fd1a57ed600000000000000000000000000000000000000000000000000000000815260040160405180910390fd5b8181106129f6578160015414612a5457600080fd5b50505b505050565b60009392505050565b600081604051602001612a789190614a0c565b604051602081830303815290604052805190602001209050919050565b6000612aa2828486612dba565b90509392505050565b600080600090507a184f03e93ff9f4daa797ed6e38ed64bf6a1f0100000000000000008310612b09577a184f03e93ff9f4daa797ed6e38ed64bf6a1f0100000000000000008381612aff57612afe614995565b5b0492506040810190505b6d04ee2d6d415b85acef81000000008310612b46576d04ee2d6d415b85acef81000000008381612b3c57612b3b614995565b5b0492506020810190505b662386f26fc100008310612b7557662386f26fc100008381612b6b57612b6a614995565b5b0492506010810190505b6305f5e1008310612b9e576305f5e1008381612b9457612b93614995565b5b0492506008810190505b6127108310612bc3576127108381612bb957612bb8614995565b5b0492506004810190505b60648310612be65760648381612bdc57612bdb614995565b5b0492506002810190505b600a8310612bf5576001810190505b80915050919050565b6000600154905060008203612c3f576040517fb562e8dd00000000000000000000000000000000000000000000000000000000815260040160405180910390fd5b612c4c6000848385612615565b600160406001901b178202600660008573ffffffffffffffffffffffffffffffffffffffff1673ffffffffffffffffffffffffffffffffffffffff16815260200190815260200160002060008282540192505081905550612cc383612cb4600086600061261b565b612cbd85612dd1565b17612643565b6005600083815260200190815260200160002081905550600080838301905073ffffffffffffffffffffffffffffffffffffffff85169150828260007fddf252ad1be2c89b69c2b068fc378daa952ba7f163c4a11628f55a4df523b3ef600080a4600183015b818114612d6457808360007fddf252ad1be2c89b69c2b068fc378daa952ba7f163c4a11628f55a4df523b3ef600080a4600181019050612d29565b5060008203612d9f576040517f2e07630000000000000000000000000000000000000000000000000000000000815260040160405180910390fd5b806001819055505050612db5600084838561266e565b505050565b600082612dc78584612de1565b1490509392505050565b60006001821460e11b9050919050565b60008082905060005b8451811015612e2c57612e1782868381518110612e0a57612e0961452b565b5b6020026020010151612e37565b91508080612e249061455a565b915050612dea565b508091505092915050565b6000818310612e4f57612e4a8284612e62565b612e5a565b612e598383612e62565b5b905092915050565b600082600052816020526040600020905092915050565b6000604051905090565b600080fd5b600080fd5b600073ffffffffffffffffffffffffffffffffffffffff82169050919050565b6000612eb882612e8d565b9050919050565b6000612eca82612ead565b9050919050565b612eda81612ebf565b8114612ee557600080fd5b50565b600081359050612ef781612ed1565b92915050565b600060208284031215612f1357612f12612e83565b5b6000612f2184828501612ee8565b91505092915050565b60007fffffffff0000000000000000000000000000000000000000000000000000000082169050919050565b612f5f81612f2a565b8114612f6a57600080fd5b50565b600081359050612f7c81612f56565b92915050565b600060208284031215612f9857612f97612e83565b5b6000612fa684828501612f6d565b91505092915050565b60008115159050919050565b612fc481612faf565b82525050565b6000602082019050612fdf6000830184612fbb565b92915050565b600081519050919050565b600082825260208201905092915050565b60005b8381101561301f578082015181840152602081019050613004565b60008484015250505050565b6000601f19601f8301169050919050565b600061304782612fe5565b6130518185612ff0565b9350613061818560208601613001565b61306a8161302b565b840191505092915050565b6000602082019050818103600083015261308f818461303c565b905092915050565b6000819050919050565b6130aa81613097565b81146130b557600080fd5b50565b6000813590506130c7816130a1565b92915050565b6000602082840312156130e3576130e2612e83565b5b60006130f1848285016130b8565b91505092915050565b61310381612ead565b82525050565b600060208201905061311e60008301846130fa565b92915050565b61312d81612ead565b811461313857600080fd5b50565b60008135905061314a81613124565b92915050565b6000806040838503121561316757613166612e83565b5b60006131758582860161313b565b9250506020613186858286016130b8565b9150509250929050565b61319981613097565b82525050565b60006020820190506131b46000830184613190565b92915050565b6000806000606084860312156131d3576131d2612e83565b5b60006131e18682870161313b565b93505060206131f28682870161313b565b9250506040613203868287016130b8565b9150509250925092565b600080fd5b600080fd5b7f4e487b7100000000000000000000000000000000000000000000000000000000600052604160045260246000fd5b61324f8261302b565b810181811067ffffffffffffffff8211171561326e5761326d613217565b5b80604052505050565b6000613281612e79565b905061328d8282613246565b919050565b600067ffffffffffffffff8211156132ad576132ac613217565b5b6132b68261302b565b9050602081019050919050565b82818337600083830152505050565b60006132e56132e084613292565b613277565b90508281526020810184848401111561330157613300613212565b5b61330c8482856132c3565b509392505050565b600082601f8301126133295761332861320d565b5b81356133398482602086016132d2565b91505092915050565b60006020828403121561335857613357612e83565b5b600082013567ffffffffffffffff81111561337657613375612e88565b5b61338284828501613314565b91505092915050565b600080fd5b600080fd5b60008083601f8401126133ab576133aa61320d565b5b8235905067ffffffffffffffff8111156133c8576133c761338b565b5b6020830191508360208202830111156133e4576133e3613390565b5b9250929050565b6000806020838503121561340257613401612e83565b5b600083013567ffffffffffffffff8111156134205761341f612e88565b5b61342c85828601613395565b92509250509250929050565b6000819050919050565b600061345d61345861345384612e8d565b613438565b612e8d565b9050919050565b600061346f82613442565b9050919050565b600061348182613464565b9050919050565b61349181613476565b82525050565b60006020820190506134ac6000830184613488565b92915050565b6000819050919050565b6134c5816134b2565b81146134d057600080fd5b50565b6000813590506134e2816134bc565b92915050565b6000602082840312156134fe576134fd612e83565b5b600061350c848285016134d3565b91505092915050565b60006020828403121561352b5761352a612e83565b5b60006135398482850161313b565b91505092915050565b600060608201905061355760008301866130fa565b6135646020830185613190565b6135716040830184612fbb565b949350505050565b61358281612faf565b811461358d57600080fd5b50565b60008135905061359f81613579565b92915050565b600080604083850312156135bc576135bb612e83565b5b60006135ca8582860161313b565b92505060206135db85828601613590565b9150509250929050565b600067ffffffffffffffff821115613600576135ff613217565b5b6136098261302b565b9050602081019050919050565b6000613629613624846135e5565b613277565b90508281526020810184848401111561364557613644613212565b5b6136508482856132c3565b509392505050565b600082601f83011261366d5761366c61320d565b5b813561367d848260208601613616565b91505092915050565b600080600080608085870312156136a05761369f612e83565b5b60006136ae8782880161313b565b94505060206136bf8782880161313b565b93505060406136d0878288016130b8565b925050606085013567ffffffffffffffff8111156136f1576136f0612e88565b5b6136fd87828801613658565b91505092959194509250565b7f4e487b7100000000000000000000000000000000000000000000000000000000600052602160045260246000fd5b6005811061374957613748613709565b5b50565b600081905061375a82613738565b919050565b600061376a8261374c565b9050919050565b61377a8161375f565b82525050565b60006020820190506137956000830184613771565b92915050565b600080604083850312156137b2576137b1612e83565b5b60006137c08582860161313b565b92505060206137d18582860161313b565b9150509250929050565b6137e4816134b2565b82525050565b60006020820190506137ff60008301846137db565b92915050565b7f4e487b7100000000000000000000000000000000000000000000000000000000600052602260045260246000fd5b6000600282049050600182168061384c57607f821691505b60208210810361385f5761385e613805565b5b50919050565b7f5468652063616c6c657220697320616e6f7468657220636f6e74726163740000600082015250565b600061389b601e83612ff0565b91506138a682613865565b602082019050919050565b600060208201905081810360008301526138ca8161388e565b9050919050565b7f5075626c69632073616c65206973206e6f742061637469766174656400000000600082015250565b6000613907601c83612ff0565b9150613912826138d1565b602082019050919050565b60006020820190508181036000830152613936816138fa565b9050919050565b7f57696e6e6572204d696e742069732066696e6973680000000000000000000000600082015250565b6000613973601583612ff0565b915061397e8261393d565b602082019050919050565b600060208201905081810360008301526139a281613966565b9050919050565b7f77696e6e6572206e6f7420657869737400000000000000000000000000000000600082015250565b60006139df601083612ff0565b91506139ea826139a9565b602082019050919050565b60006020820190508181036000830152613a0e816139d2565b9050919050565b7f416c7265616479206d696e742000000000000000000000000000000000000000600082015250565b6000613a4b600d83612ff0565b9150613a5682613a15565b602082019050919050565b60006020820190508181036000830152613a7a81613a3e565b9050919050565b7f4e6f7468696e6720746f206d696e740000000000000000000000000000000000600082015250565b6000613ab7600f83612ff0565b9150613ac282613a81565b602082019050919050565b60006020820190508181036000830152613ae681613aaa565b9050919050565b7f4e487b7100000000000000000000000000000000000000000000000000000000600052601160045260246000fd5b6000613b2782613097565b9150613b3283613097565b9250828201905080821115613b4a57613b49613aed565b5b92915050565b7f4d617820737570706c7920657863656564656400000000000000000000000000600082015250565b6000613b86601383612ff0565b9150613b9182613b50565b602082019050919050565b60006020820190508181036000830152613bb581613b79565b9050919050565b60008190508160005260206000209050919050565b60006020601f8301049050919050565b600082821b905092915050565b600060088302613c1e7fffffffffffffffffffffffffffffffffffffffffffffffffffffffffffffffff82613be1565b613c288683613be1565b95508019841693508086168417925050509392505050565b6000613c5b613c56613c5184613097565b613438565b613097565b9050919050565b6000819050919050565b613c7583613c40565b613c89613c8182613c62565b848454613bee565b825550505050565b600090565b613c9e613c91565b613ca9818484613c6c565b505050565b5b81811015613ccd57613cc2600082613c96565b600181019050613caf565b5050565b601f821115613d1257613ce381613bbc565b613cec84613bd1565b81016020851015613cfb578190505b613d0f613d0785613bd1565b830182613cae565b50505b505050565b600082821c905092915050565b6000613d3560001984600802613d17565b1980831691505092915050565b6000613d4e8383613d24565b9150826002028217905092915050565b613d6782612fe5565b67ffffffffffffffff811115613d8057613d7f613217565b5b613d8a8254613834565b613d95828285613cd1565b600060209050601f831160018114613dc85760008415613db6578287015190505b613dc08582613d42565b865550613e28565b601f198416613dd686613bbc565b60005b82811015613dfe57848901518255600182019150602085019450602081019050613dd9565b86831015613e1b5784890151613e17601f891682613d24565b8355505b6001600288020188555050505b505050505050565b7f57686974656c6973742053616c6520686173206e6f742073746172746564207960008201527f6574000000000000000000000000000000000000000000000000000000000000602082015250565b6000613e8c602283612ff0565b9150613e9782613e30565b604082019050919050565b60006020820190508181036000830152613ebb81613e7f565b9050919050565b7f47756172616e746565642053616c652069732066696e69736800000000000000600082015250565b6000613ef8601983612ff0565b9150613f0382613ec2565b602082019050919050565b60006020820190508181036000830152613f2781613eeb565b9050919050565b7f57686974656c6973742073616c65206973206e6f742061637469766174656400600082015250565b6000613f64601f83612ff0565b9150613f6f82613f2e565b602082019050919050565b60006020820190508181036000830152613f9381613f57565b9050919050565b7f4e6f742067756172616e74656564206d696e7400000000000000000000000000600082015250565b6000613fd0601383612ff0565b9150613fdb82613f9a565b602082019050919050565b60006020820190508181036000830152613fff81613fc3565b9050919050565b7f596f752063616e206f6e6c79206765742031204e4654206f6e2074686520477560008201527f6172656e746565642053616c6500000000000000000000000000000000000000602082015250565b6000614062602d83612ff0565b915061406d82614006565b604082019050919050565b6000602082019050818103600083015261409181614055565b9050919050565b7f696e76616c696420656e6454696d6557696e6e65724d696e7400000000000000600082015250565b60006140ce601983612ff0565b91506140d982614098565b602082019050919050565b600060208201905081810360008301526140fd816140c1565b9050919050565b60008151905061411381613579565b92915050565b60006020828403121561412f5761412e612e83565b5b600061413d84828501614104565b91505092915050565b7f526166666c6520616c7265616479206f70656e00000000000000000000000000600082015250565b600061417c601383612ff0565b915061418782614146565b602082019050919050565b600060208201905081810360008301526141ab8161416f565b9050919050565b600067ffffffffffffffff8211156141cd576141cc613217565b5b602082029050602081019050919050565b6000815190506141ed81613124565b92915050565b6000614206614201846141b2565b613277565b9050808382526020820190506020840283018581111561422957614228613390565b5b835b81811015614252578061423e88826141de565b84526020840193505060208101905061422b565b5050509392505050565b600082601f8301126142715761427061320d565b5b81516142818482602086016141f3565b91505092915050565b6000602082840312156142a05761429f612e83565b5b600082015167ffffffffffffffff8111156142be576142bd612e88565b5b6142ca8482850161425c565b91505092915050565b7f57696e6e657273206e6f742073657420696e20726166666c6520636f6e74726160008201527f6374000000000000000000000000000000000000000000000000000000000000602082015250565b600061432f602283612ff0565b915061433a826142d3565b604082019050919050565b6000602082019050818103600083015261435e81614322565b9050919050565b600067ffffffffffffffff8211156143805761437f613217565b5b602082029050602081019050919050565b600080fd5b6000815190506143a5816130a1565b92915050565b600060c082840312156143c1576143c0614391565b5b6143cb60c0613277565b905060006143db84828501614396565b60008301525060206143ef848285016141de565b602083015250604061440384828501614396565b604083015250606061441784828501614396565b606083015250608061442b84828501614104565b60808301525060a061443f84828501614104565b60a08301525092915050565b600061445e61445984614365565b613277565b90508083825260208201905060c0840283018581111561448157614480613390565b5b835b818110156144aa578061449688826143ab565b84526020840193505060c081019050614483565b5050509392505050565b600082601f8301126144c9576144c861320d565b5b81516144d984826020860161444b565b91505092915050565b6000602082840312156144f8576144f7612e83565b5b600082015167ffffffffffffffff81111561451657614515612e88565b5b614522848285016144b4565b91505092915050565b7f4e487b7100000000000000000000000000000000000000000000000000000000600052603260045260246000fd5b600061456582613097565b91507fffffffffffffffffffffffffffffffffffffffffffffffffffffffffffffffff820361459757614596613aed565b5b600182019050919050565b7f5265616368656420746f74616c20737570706c79000000000000000000000000600082015250565b60006145d8601483612ff0565b91506145e3826145a2565b602082019050919050565b60006020820190508181036000830152614607816145cb565b9050919050565b7f55524920717565727920666f72206e6f6e6578697374656e7420746f6b656e00600082015250565b6000614644601f83612ff0565b915061464f8261460e565b602082019050919050565b6000602082019050818103600083015261467381614637565b9050919050565b600081905092915050565b6000815461469281613834565b61469c818661467a565b945060018216600081146146b757600181146146cc576146ff565b60ff19831686528115158202860193506146ff565b6146d585613bbc565b60005b838110156146f7578154818901526001820191506020810190506146d8565b838801955050505b50505092915050565b600061471382612fe5565b61471d818561467a565b935061472d818560208601613001565b80840191505092915050565b7f2e6a736f6e000000000000000000000000000000000000000000000000000000600082015250565b600061476f60058361467a565b915061477a82614739565b600582019050919050565b60006147918285614685565b915061479d8284614708565b91506147a882614762565b91508190509392505050565b7f4f776e61626c653a206e6577206f776e657220697320746865207a65726f206160008201527f6464726573730000000000000000000000000000000000000000000000000000602082015250565b6000614810602683612ff0565b915061481b826147b4565b604082019050919050565b6000602082019050818103600083015261483f81614803565b9050919050565b7f4f776e61626c653a2063616c6c6572206973206e6f7420746865206f776e6572600082015250565b600061487c602083612ff0565b915061488782614846565b602082019050919050565b600060208201905081810360008301526148ab8161486f565b9050919050565b600081519050919050565b600082825260208201905092915050565b60006148d9826148b2565b6148e381856148bd565b93506148f3818560208601613001565b6148fc8161302b565b840191505092915050565b600060808201905061491c60008301876130fa565b61492960208301866130fa565b6149366040830185613190565b818103606083015261494881846148ce565b905095945050505050565b60008151905061496281612f56565b92915050565b60006020828403121561497e5761497d612e83565b5b600061498c84828501614953565b91505092915050565b7f4e487b7100000000000000000000000000000000000000000000000000000000600052601260045260246000fd5b60008160601b9050919050565b60006149dc826149c4565b9050919050565b60006149ee826149d1565b9050919050565b614a06614a0182612ead565b6149e3565b82525050565b6000614a1882846149f5565b6014820191508190509291505056fea26469706673582212207c87f674f59a069861da609ff8cfdb37275f35ec4033f67a33df607c83718d6064736f6c63430008120033",
  "linkReferences": {},
  "deployedLinkReferences": {}
}