{
    "_format": "hh-sol-artifact-1",
    "contractName": "TBT_NFT",
    "sourceName": "contracts/TBT_NFT.sol",
    "abi": [
        {
            "inputs": [
                {
                    "internalType": "bytes32",
                    "name": "_merkleRoot",
                    "type": "bytes32"
                },
                {
                    "internalType": "string",
                    "name": "_preRevealedURI",
                    "type": "string"
                },
                {
                    "internalType": "contract RaffleG_0",
                    "name": "_raffleContract",
                    "type": "address"
                },
                {
                    "internalType": "uint256",
                    "name": "_saleStartTime",
                    "type": "uint256"
                },
                {
                    "internalType": "uint256",
                    "name": "_endTimeGuarranted",
                    "type": "uint256"
                }
            ],
            "stateMutability": "nonpayable",
            "type": "constructor"
        },
        {
            "inputs": [],
            "name": "ApprovalCallerNotOwnerNorApproved",
            "type": "error"
        },
        {
            "inputs": [],
            "name": "ApprovalQueryForNonexistentToken",
            "type": "error"
        },
        {
            "inputs": [],
            "name": "BalanceQueryForZeroAddress",
            "type": "error"
        },
        {
            "inputs": [],
            "name": "MintERC2309QuantityExceedsLimit",
            "type": "error"
        },
        {
            "inputs": [],
            "name": "MintToZeroAddress",
            "type": "error"
        },
        {
            "inputs": [],
            "name": "MintZeroQuantity",
            "type": "error"
        },
        {
            "inputs": [],
            "name": "OwnerQueryForNonexistentToken",
            "type": "error"
        },
        {
            "inputs": [],
            "name": "OwnershipNotInitializedForExtraData",
            "type": "error"
        },
        {
            "inputs": [],
            "name": "TransferCallerNotOwnerNorApproved",
            "type": "error"
        },
        {
            "inputs": [],
            "name": "TransferFromIncorrectOwner",
            "type": "error"
        },
        {
            "inputs": [],
            "name": "TransferToNonERC721ReceiverImplementer",
            "type": "error"
        },
        {
            "inputs": [],
            "name": "TransferToZeroAddress",
            "type": "error"
        },
        {
            "inputs": [],
            "name": "URIQueryForNonexistentToken",
            "type": "error"
        },
        {
            "anonymous": false,
            "inputs": [
                {
                    "indexed": true,
                    "internalType": "address",
                    "name": "owner",
                    "type": "address"
                },
                {
                    "indexed": true,
                    "internalType": "address",
                    "name": "approved",
                    "type": "address"
                },
                {
                    "indexed": true,
                    "internalType": "uint256",
                    "name": "tokenId",
                    "type": "uint256"
                }
            ],
            "name": "Approval",
            "type": "event"
        },
        {
            "anonymous": false,
            "inputs": [
                {
                    "indexed": true,
                    "internalType": "address",
                    "name": "owner",
                    "type": "address"
                },
                {
                    "indexed": true,
                    "internalType": "address",
                    "name": "operator",
                    "type": "address"
                },
                {
                    "indexed": false,
                    "internalType": "bool",
                    "name": "approved",
                    "type": "bool"
                }
            ],
            "name": "ApprovalForAll",
            "type": "event"
        },
        {
            "anonymous": false,
            "inputs": [
                {
                    "indexed": true,
                    "internalType": "uint256",
                    "name": "fromTokenId",
                    "type": "uint256"
                },
                {
                    "indexed": false,
                    "internalType": "uint256",
                    "name": "toTokenId",
                    "type": "uint256"
                },
                {
                    "indexed": true,
                    "internalType": "address",
                    "name": "from",
                    "type": "address"
                },
                {
                    "indexed": true,
                    "internalType": "address",
                    "name": "to",
                    "type": "address"
                }
            ],
            "name": "ConsecutiveTransfer",
            "type": "event"
        },
        {
            "anonymous": false,
            "inputs": [
                {
                    "indexed": true,
                    "internalType": "address",
                    "name": "previousOwner",
                    "type": "address"
                },
                {
                    "indexed": true,
                    "internalType": "address",
                    "name": "newOwner",
                    "type": "address"
                }
            ],
            "name": "OwnershipTransferred",
            "type": "event"
        },
        {
            "anonymous": false,
            "inputs": [
                {
                    "indexed": true,
                    "internalType": "address",
                    "name": "from",
                    "type": "address"
                },
                {
                    "indexed": true,
                    "internalType": "address",
                    "name": "to",
                    "type": "address"
                },
                {
                    "indexed": true,
                    "internalType": "uint256",
                    "name": "tokenId",
                    "type": "uint256"
                }
            ],
            "name": "Transfer",
            "type": "event"
        },
        {
            "inputs": [
                {
                    "internalType": "address",
                    "name": "",
                    "type": "address"
                }
            ],
            "name": "amountNFTsperWalletWhitelistSale",
            "outputs": [
                {
                    "internalType": "uint256",
                    "name": "",
                    "type": "uint256"
                }
            ],
            "stateMutability": "view",
            "type": "function"
        },
        {
            "inputs": [
                {
                    "internalType": "address",
                    "name": "to",
                    "type": "address"
                },
                {
                    "internalType": "uint256",
                    "name": "tokenId",
                    "type": "uint256"
                }
            ],
            "name": "approve",
            "outputs": [],
            "stateMutability": "payable",
            "type": "function"
        },
        {
            "inputs": [
                {
                    "internalType": "address",
                    "name": "owner",
                    "type": "address"
                }
            ],
            "name": "balanceOf",
            "outputs": [
                {
                    "internalType": "uint256",
                    "name": "",
                    "type": "uint256"
                }
            ],
            "stateMutability": "view",
            "type": "function"
        },
        {
            "inputs": [],
            "name": "baseURI",
            "outputs": [
                {
                    "internalType": "string",
                    "name": "",
                    "type": "string"
                }
            ],
            "stateMutability": "view",
            "type": "function"
        },
        {
            "inputs": [],
            "name": "endTimeGuarranted",
            "outputs": [
                {
                    "internalType": "uint256",
                    "name": "",
                    "type": "uint256"
                }
            ],
            "stateMutability": "view",
            "type": "function"
        },
        {
            "inputs": [],
            "name": "endTimeWinnerMint",
            "outputs": [
                {
                    "internalType": "uint256",
                    "name": "",
                    "type": "uint256"
                }
            ],
            "stateMutability": "view",
            "type": "function"
        },
        {
            "inputs": [
                {
                    "internalType": "uint256",
                    "name": "tokenId",
                    "type": "uint256"
                }
            ],
            "name": "getApproved",
            "outputs": [
                {
                    "internalType": "address",
                    "name": "",
                    "type": "address"
                }
            ],
            "stateMutability": "view",
            "type": "function"
        },
        {
            "inputs": [
                {
                    "internalType": "address",
                    "name": "_to",
                    "type": "address"
                },
                {
                    "internalType": "uint256",
                    "name": "_quantity",
                    "type": "uint256"
                }
            ],
            "name": "giftCollab",
            "outputs": [],
            "stateMutability": "nonpayable",
            "type": "function"
        },
        {
            "inputs": [
                {
                    "internalType": "address",
                    "name": "owner",
                    "type": "address"
                },
                {
                    "internalType": "address",
                    "name": "operator",
                    "type": "address"
                }
            ],
            "name": "isApprovedForAll",
            "outputs": [
                {
                    "internalType": "bool",
                    "name": "",
                    "type": "bool"
                }
            ],
            "stateMutability": "view",
            "type": "function"
        },
        {
            "inputs": [],
            "name": "isRevealed",
            "outputs": [
                {
                    "internalType": "bool",
                    "name": "",
                    "type": "bool"
                }
            ],
            "stateMutability": "view",
            "type": "function"
        },
        {
            "inputs": [],
            "name": "merkleRootGuaranteed",
            "outputs": [
                {
                    "internalType": "bytes32",
                    "name": "",
                    "type": "bytes32"
                }
            ],
            "stateMutability": "view",
            "type": "function"
        },
        {
            "inputs": [],
            "name": "name",
            "outputs": [
                {
                    "internalType": "string",
                    "name": "",
                    "type": "string"
                }
            ],
            "stateMutability": "view",
            "type": "function"
        },
        {
            "inputs": [],
            "name": "owner",
            "outputs": [
                {
                    "internalType": "address",
                    "name": "",
                    "type": "address"
                }
            ],
            "stateMutability": "view",
            "type": "function"
        },
        {
            "inputs": [
                {
                    "internalType": "uint256",
                    "name": "tokenId",
                    "type": "uint256"
                }
            ],
            "name": "ownerOf",
            "outputs": [
                {
                    "internalType": "address",
                    "name": "",
                    "type": "address"
                }
            ],
            "stateMutability": "view",
            "type": "function"
        },
        {
            "inputs": [],
            "name": "preRevealedURI",
            "outputs": [
                {
                    "internalType": "string",
                    "name": "",
                    "type": "string"
                }
            ],
            "stateMutability": "view",
            "type": "function"
        },
        {
            "inputs": [],
            "name": "raffleContract",
            "outputs": [
                {
                    "internalType": "contract RaffleG_0",
                    "name": "",
                    "type": "address"
                }
            ],
            "stateMutability": "view",
            "type": "function"
        },
        {
            "inputs": [],
            "name": "renounceOwnership",
            "outputs": [],
            "stateMutability": "nonpayable",
            "type": "function"
        },
        {
            "inputs": [
                {
                    "internalType": "string",
                    "name": "baseURI_",
                    "type": "string"
                }
            ],
            "name": "revealAndSetBaseURI",
            "outputs": [],
            "stateMutability": "nonpayable",
            "type": "function"
        },
        {
            "inputs": [
                {
                    "internalType": "address",
                    "name": "from",
                    "type": "address"
                },
                {
                    "internalType": "address",
                    "name": "to",
                    "type": "address"
                },
                {
                    "internalType": "uint256",
                    "name": "tokenId",
                    "type": "uint256"
                }
            ],
            "name": "safeTransferFrom",
            "outputs": [],
            "stateMutability": "payable",
            "type": "function"
        },
        {
            "inputs": [
                {
                    "internalType": "address",
                    "name": "from",
                    "type": "address"
                },
                {
                    "internalType": "address",
                    "name": "to",
                    "type": "address"
                },
                {
                    "internalType": "uint256",
                    "name": "tokenId",
                    "type": "uint256"
                },
                {
                    "internalType": "bytes",
                    "name": "_data",
                    "type": "bytes"
                }
            ],
            "name": "safeTransferFrom",
            "outputs": [],
            "stateMutability": "payable",
            "type": "function"
        },
        {
            "inputs": [],
            "name": "saleStartTime",
            "outputs": [
                {
                    "internalType": "uint256",
                    "name": "",
                    "type": "uint256"
                }
            ],
            "stateMutability": "view",
            "type": "function"
        },
        {
            "inputs": [],
            "name": "sellingStep",
            "outputs": [
                {
                    "internalType": "enum TBT_NFT.Step",
                    "name": "",
                    "type": "uint8"
                }
            ],
            "stateMutability": "view",
            "type": "function"
        },
        {
            "inputs": [
                {
                    "internalType": "address",
                    "name": "operator",
                    "type": "address"
                },
                {
                    "internalType": "bool",
                    "name": "approved",
                    "type": "bool"
                }
            ],
            "name": "setApprovalForAll",
            "outputs": [],
            "stateMutability": "nonpayable",
            "type": "function"
        },
        {
            "inputs": [
                {
                    "internalType": "uint256",
                    "name": "_endTimeGuarranted",
                    "type": "uint256"
                }
            ],
            "name": "setEndTimeGuarranted",
            "outputs": [],
            "stateMutability": "nonpayable",
            "type": "function"
        },
        {
            "inputs": [
                {
                    "internalType": "uint256",
                    "name": "_endTimeWinnerMint",
                    "type": "uint256"
                }
            ],
            "name": "setEndTimeWinnerMint",
            "outputs": [],
            "stateMutability": "nonpayable",
            "type": "function"
        },
        {
            "inputs": [
                {
                    "internalType": "bytes32",
                    "name": "_merkleRoot",
                    "type": "bytes32"
                }
            ],
            "name": "setMerkleRootGuarranteed",
            "outputs": [],
            "stateMutability": "nonpayable",
            "type": "function"
        },
        {
            "inputs": [
                {
                    "internalType": "string",
                    "name": "_preRevealedURI",
                    "type": "string"
                }
            ],
            "name": "setPreRevealedURI",
            "outputs": [],
            "stateMutability": "nonpayable",
            "type": "function"
        },
        {
            "inputs": [
                {
                    "internalType": "contract RaffleG_0",
                    "name": "_raffleContract",
                    "type": "address"
                }
            ],
            "name": "setRaffleContract",
            "outputs": [],
            "stateMutability": "nonpayable",
            "type": "function"
        },
        {
            "inputs": [
                {
                    "internalType": "uint256",
                    "name": "_saleStartTime",
                    "type": "uint256"
                }
            ],
            "name": "setSaleStartTime",
            "outputs": [],
            "stateMutability": "nonpayable",
            "type": "function"
        },
        {
            "inputs": [
                {
                    "internalType": "uint256",
                    "name": "_step",
                    "type": "uint256"
                }
            ],
            "name": "setStep",
            "outputs": [],
            "stateMutability": "nonpayable",
            "type": "function"
        },
        {
            "inputs": [
                {
                    "internalType": "uint256",
                    "name": "_endTimeWinnerMint",
                    "type": "uint256"
                }
            ],
            "name": "setWinnerStructViaRaffle",
            "outputs": [],
            "stateMutability": "nonpayable",
            "type": "function"
        },
        {
            "inputs": [
                {
                    "internalType": "bytes4",
                    "name": "interfaceId",
                    "type": "bytes4"
                }
            ],
            "name": "supportsInterface",
            "outputs": [
                {
                    "internalType": "bool",
                    "name": "",
                    "type": "bool"
                }
            ],
            "stateMutability": "view",
            "type": "function"
        },
        {
            "inputs": [],
            "name": "symbol",
            "outputs": [
                {
                    "internalType": "string",
                    "name": "",
                    "type": "string"
                }
            ],
            "stateMutability": "view",
            "type": "function"
        },
        {
            "inputs": [
                {
                    "internalType": "uint256",
                    "name": "_tokenId",
                    "type": "uint256"
                }
            ],
            "name": "tokenURI",
            "outputs": [
                {
                    "internalType": "string",
                    "name": "",
                    "type": "string"
                }
            ],
            "stateMutability": "view",
            "type": "function"
        },
        {
            "inputs": [],
            "name": "totalSupply",
            "outputs": [
                {
                    "internalType": "uint256",
                    "name": "",
                    "type": "uint256"
                }
            ],
            "stateMutability": "view",
            "type": "function"
        },
        {
            "inputs": [
                {
                    "internalType": "address",
                    "name": "from",
                    "type": "address"
                },
                {
                    "internalType": "address",
                    "name": "to",
                    "type": "address"
                },
                {
                    "internalType": "uint256",
                    "name": "tokenId",
                    "type": "uint256"
                }
            ],
            "name": "transferFrom",
            "outputs": [],
            "stateMutability": "payable",
            "type": "function"
        },
        {
            "inputs": [
                {
                    "internalType": "address",
                    "name": "newOwner",
                    "type": "address"
                }
            ],
            "name": "transferOwnership",
            "outputs": [],
            "stateMutability": "nonpayable",
            "type": "function"
        },
        {
            "inputs": [
                {
                    "internalType": "bytes32[]",
                    "name": "_proof",
                    "type": "bytes32[]"
                }
            ],
            "name": "whitelistMint",
            "outputs": [],
            "stateMutability": "nonpayable",
            "type": "function"
        },
        {
            "inputs": [
                {
                    "internalType": "address",
                    "name": "",
                    "type": "address"
                }
            ],
            "name": "winnerByAddress",
            "outputs": [
                {
                    "internalType": "address",
                    "name": "addressWinner",
                    "type": "address"
                },
                {
                    "internalType": "uint256",
                    "name": "numberOfWin",
                    "type": "uint256"
                },
                {
                    "internalType": "bool",
                    "name": "notMinted",
                    "type": "bool"
                }
            ],
            "stateMutability": "view",
            "type": "function"
        },
        {
            "inputs": [],
            "name": "winnerRaffleSaleMint",
            "outputs": [],
            "stateMutability": "nonpayable",
            "type": "function"
        }
    ],
    "bytecode": "0x60806040523480156200001157600080fd5b506040516200533938038062005339833981810160405281019062000037919062000501565b6040518060400160405280601481526020017f54656464792042656172205472656173757265730000000000000000000000008152506040518060400160405280600381526020017f5442540000000000000000000000000000000000000000000000000000000000815250620000c3620000b7620001ae60201b60201c565b620001b660201b60201c565b8160039081620000d49190620007e9565b508060049081620000e69190620007e9565b50620000f76200027a60201b60201c565b600181905550505084600e8190555083600c9081620001179190620007e9565b5082601360006101000a81548173ffffffffffffffffffffffffffffffffffffffff021916908373ffffffffffffffffffffffffffffffffffffffff16021790555081600f819055508060108190555060405180602001604052806000815250600a9081620001879190620007e9565b506000600b60006101000a81548160ff0219169083151502179055505050505050620008d0565b600033905090565b60008060009054906101000a900473ffffffffffffffffffffffffffffffffffffffff169050816000806101000a81548173ffffffffffffffffffffffffffffffffffffffff021916908373ffffffffffffffffffffffffffffffffffffffff1602179055508173ffffffffffffffffffffffffffffffffffffffff168173ffffffffffffffffffffffffffffffffffffffff167f8be0079c531659141344cd1fd0a4f28419497f9722a3daafe3b4186f6b6457e060405160405180910390a35050565b600090565b6000604051905090565b600080fd5b600080fd5b6000819050919050565b620002a88162000293565b8114620002b457600080fd5b50565b600081519050620002c8816200029d565b92915050565b600080fd5b600080fd5b6000601f19601f8301169050919050565b7f4e487b7100000000000000000000000000000000000000000000000000000000600052604160045260246000fd5b6200032382620002d8565b810181811067ffffffffffffffff82111715620003455762000344620002e9565b5b80604052505050565b60006200035a6200027f565b905062000368828262000318565b919050565b600067ffffffffffffffff8211156200038b576200038a620002e9565b5b6200039682620002d8565b9050602081019050919050565b60005b83811015620003c3578082015181840152602081019050620003a6565b60008484015250505050565b6000620003e6620003e0846200036d565b6200034e565b905082815260208101848484011115620004055762000404620002d3565b5b62000412848285620003a3565b509392505050565b600082601f830112620004325762000431620002ce565b5b815162000444848260208601620003cf565b91505092915050565b600073ffffffffffffffffffffffffffffffffffffffff82169050919050565b60006200047a826200044d565b9050919050565b60006200048e826200046d565b9050919050565b620004a08162000481565b8114620004ac57600080fd5b50565b600081519050620004c08162000495565b92915050565b6000819050919050565b620004db81620004c6565b8114620004e757600080fd5b50565b600081519050620004fb81620004d0565b92915050565b600080600080600060a0868803121562000520576200051f62000289565b5b60006200053088828901620002b7565b955050602086015167ffffffffffffffff8111156200055457620005536200028e565b5b62000562888289016200041a565b94505060406200057588828901620004af565b93505060606200058888828901620004ea565b92505060806200059b88828901620004ea565b9150509295509295909350565b600081519050919050565b7f4e487b7100000000000000000000000000000000000000000000000000000000600052602260045260246000fd5b60006002820490506001821680620005fb57607f821691505b602082108103620006115762000610620005b3565b5b50919050565b60008190508160005260206000209050919050565b60006020601f8301049050919050565b600082821b905092915050565b6000600883026200067b7fffffffffffffffffffffffffffffffffffffffffffffffffffffffffffffffff826200063c565b6200068786836200063c565b95508019841693508086168417925050509392505050565b6000819050919050565b6000620006ca620006c4620006be84620004c6565b6200069f565b620004c6565b9050919050565b6000819050919050565b620006e683620006a9565b620006fe620006f582620006d1565b84845462000649565b825550505050565b600090565b6200071562000706565b62000722818484620006db565b505050565b5b818110156200074a576200073e6000826200070b565b60018101905062000728565b5050565b601f8211156200079957620007638162000617565b6200076e846200062c565b810160208510156200077e578190505b620007966200078d856200062c565b83018262000727565b50505b505050565b600082821c905092915050565b6000620007be600019846008026200079e565b1980831691505092915050565b6000620007d98383620007ab565b9150826002028217905092915050565b620007f482620005a8565b67ffffffffffffffff81111562000810576200080f620002e9565b5b6200081c8254620005e2565b620008298282856200074e565b600060209050601f8311600181146200086157600084156200084c578287015190505b620008588582620007cb565b865550620008c8565b601f198416620008718662000617565b60005b828110156200089b5784890151825560018201915060208501945060208101905062000874565b86831015620008bb5784890151620008b7601f891682620007ab565b8355505b6001600288020188555050505b505050505050565b614a5980620008e06000396000f3fe60806040526004361061023a5760003560e01c80636714ba391161012e5780639d286585116100ab578063de210ab31161006f578063de210ab314610826578063e985e9c514610851578063f2fde38b1461088e578063f79ae88d146108b7578063f8dcbddb146108e25761023a565b80639d28658514610750578063a22cb46514610779578063b88d4fde146107a2578063c87b56dd146107be578063cbccefb2146107fb5761023a565b80638da5cb5b116100f25780638da5cb5b1461065557806393034fb21461068057806395d89b41146106bf57806399d13800146106ea5780639bfd8a25146107275761023a565b80636714ba3914610582578063675b1450146105ab5780636c0360eb146105d657806370a0823114610601578063715018a61461063e5761023a565b806332a278b9116101bc578063525f8a5c11610180578063525f8a5c1461049d57806354214f69146104c65780635d7916ed146104f15780636352211e1461051c5780636602da42146105595761023a565b806332a278b9146103db57806333cc9b7814610406578063372f657c1461042f5780634248db611461045857806342842e0e146104815761023a565b806316f5bb241161020357806316f5bb241461032957806318160ddd146103405780631cbaee2d1461036b57806323b872dd146103965780632ca4b209146103b25761023a565b806256c0841461023f57806301ffc9a71461026857806306fdde03146102a5578063081812fc146102d0578063095ea7b31461030d575b600080fd5b34801561024b57600080fd5b5061026660048036038101906102619190612ef9565b61090b565b005b34801561027457600080fd5b5061028f600480360381019061028a9190612f7e565b610957565b60405161029c9190612fc6565b60405180910390f35b3480156102b157600080fd5b506102ba6109e9565b6040516102c79190613071565b60405180910390f35b3480156102dc57600080fd5b506102f760048036038101906102f291906130c9565b610a7b565b6040516103049190613105565b60405180910390f35b6103276004803603810190610322919061314c565b610afa565b005b34801561033557600080fd5b5061033e610c3e565b005b34801561034c57600080fd5b5061035561108c565b604051610362919061319b565b60405180910390f35b34801561037757600080fd5b506103806110a3565b60405161038d919061319b565b60405180910390f35b6103b060048036038101906103ab91906131b6565b6110a9565b005b3480156103be57600080fd5b506103d960048036038101906103d4919061333e565b6113cb565b005b3480156103e757600080fd5b506103f06113e6565b6040516103fd919061319b565b60405180910390f35b34801561041257600080fd5b5061042d600480360381019061042891906130c9565b6113ec565b005b34801561043b57600080fd5b50610456600480360381019061045191906133e7565b6113fe565b005b34801561046457600080fd5b5061047f600480360381019061047a91906130c9565b61170f565b005b61049b600480360381019061049691906131b6565b611721565b005b3480156104a957600080fd5b506104c460048036038101906104bf91906130c9565b611741565b005b3480156104d257600080fd5b506104db611753565b6040516104e89190612fc6565b60405180910390f35b3480156104fd57600080fd5b50610506611766565b6040516105139190613493565b60405180910390f35b34801561052857600080fd5b50610543600480360381019061053e91906130c9565b61178c565b6040516105509190613105565b60405180910390f35b34801561056557600080fd5b50610580600480360381019061057b91906134e4565b61179e565b005b34801561058e57600080fd5b506105a960048036038101906105a491906130c9565b6117b0565b005b3480156105b757600080fd5b506105c0611bfe565b6040516105cd919061319b565b60405180910390f35b3480156105e257600080fd5b506105eb611c04565b6040516105f89190613071565b60405180910390f35b34801561060d57600080fd5b5061062860048036038101906106239190613511565b611c92565b604051610635919061319b565b60405180910390f35b34801561064a57600080fd5b50610653611d4a565b005b34801561066157600080fd5b5061066a611d5e565b6040516106779190613105565b60405180910390f35b34801561068c57600080fd5b506106a760048036038101906106a29190613511565b611d87565b6040516106b69392919061353e565b60405180910390f35b3480156106cb57600080fd5b506106d4611dde565b6040516106e19190613071565b60405180910390f35b3480156106f657600080fd5b50610711600480360381019061070c9190613511565b611e70565b60405161071e919061319b565b60405180910390f35b34801561073357600080fd5b5061074e6004803603810190610749919061333e565b611e88565b005b34801561075c57600080fd5b506107776004803603810190610772919061314c565b611ebe565b005b34801561078557600080fd5b506107a0600480360381019061079b91906135a1565b611f2b565b005b6107bc60048036038101906107b79190613682565b612036565b005b3480156107ca57600080fd5b506107e560048036038101906107e091906130c9565b6120a9565b6040516107f29190613071565b60405180910390f35b34801561080757600080fd5b506108106121cd565b60405161081d919061377c565b60405180910390f35b34801561083257600080fd5b5061083b6121e0565b6040516108489190613071565b60405180910390f35b34801561085d57600080fd5b5061087860048036038101906108739190613797565b61226e565b6040516108859190612fc6565b60405180910390f35b34801561089a57600080fd5b506108b560048036038101906108b09190613511565b612302565b005b3480156108c357600080fd5b506108cc612385565b6040516108d991906137e6565b60405180910390f35b3480156108ee57600080fd5b50610909600480360381019061090491906130c9565b61238b565b005b6109136123d2565b80601360006101000a81548173ffffffffffffffffffffffffffffffffffffffff021916908373ffffffffffffffffffffffffffffffffffffffff16021790555050565b60006301ffc9a760e01b827bffffffffffffffffffffffffffffffffffffffffffffffffffffffff191614806109b257506380ac58cd60e01b827bffffffffffffffffffffffffffffffffffffffffffffffffffffffff1916145b806109e25750635b5e139f60e01b827bffffffffffffffffffffffffffffffffffffffffffffffffffffffff1916145b9050919050565b6060600380546109f890613830565b80601f0160208091040260200160405190810160405280929190818152602001828054610a2490613830565b8015610a715780601f10610a4657610100808354040283529160200191610a71565b820191906000526020600020905b815481529060010190602001808311610a5457829003601f168201915b5050505050905090565b6000610a8682612450565b610abc576040517fcf4700e400000000000000000000000000000000000000000000000000000000815260040160405180910390fd5b6007600083815260200190815260200160002060000160009054906101000a900473ffffffffffffffffffffffffffffffffffffffff169050919050565b6000610b058261178c565b90508073ffffffffffffffffffffffffffffffffffffffff16610b266124af565b73ffffffffffffffffffffffffffffffffffffffff1614610b8957610b5281610b4d6124af565b61226e565b610b88576040517fcfb3b94200000000000000000000000000000000000000000000000000000000815260040160405180910390fd5b5b826007600084815260200190815260200160002060000160006101000a81548173ffffffffffffffffffffffffffffffffffffffff021916908373ffffffffffffffffffffffffffffffffffffffff160217905550818373ffffffffffffffffffffffffffffffffffffffff168273ffffffffffffffffffffffffffffffffffffffff167f8c5be1e5ebec7d5bd14f71427d1e84f3dd0314c0f7b2291e5b200ac8c7c3b92560405160405180910390a4505050565b3373ffffffffffffffffffffffffffffffffffffffff163273ffffffffffffffffffffffffffffffffffffffff1614610cac576040517f08c379a0000000000000000000000000000000000000000000000000000000008152600401610ca3906138ad565b60405180910390fd5b60026004811115610cc057610cbf613705565b5b600d60009054906101000a900460ff166004811115610ce257610ce1613705565b5b14610d22576040517f08c379a0000000000000000000000000000000000000000000000000000000008152600401610d1990613919565b60405180910390fd5b6011544210610d66576040517f08c379a0000000000000000000000000000000000000000000000000000000008152600401610d5d90613985565b60405180910390fd5b3373ffffffffffffffffffffffffffffffffffffffff16600960003373ffffffffffffffffffffffffffffffffffffffff1673ffffffffffffffffffffffffffffffffffffffff16815260200190815260200160002060000160009054906101000a900473ffffffffffffffffffffffffffffffffffffffff1673ffffffffffffffffffffffffffffffffffffffff1614610e36576040517f08c379a0000000000000000000000000000000000000000000000000000000008152600401610e2d906139f1565b60405180910390fd5b600960003373ffffffffffffffffffffffffffffffffffffffff1673ffffffffffffffffffffffffffffffffffffffff16815260200190815260200160002060020160009054906101000a900460ff16610ec5576040517f08c379a0000000000000000000000000000000000000000000000000000000008152600401610ebc90613a5d565b60405180910390fd5b6000600960003373ffffffffffffffffffffffffffffffffffffffff1673ffffffffffffffffffffffffffffffffffffffff1681526020019081526020016000206001015411610f4a576040517f08c379a0000000000000000000000000000000000000000000000000000000008152600401610f4190613ac9565b60405180910390fd5b61014d600960003373ffffffffffffffffffffffffffffffffffffffff1673ffffffffffffffffffffffffffffffffffffffff16815260200190815260200160002060010154610f9861108c565b610fa29190613b18565b1115610fe3576040517f08c379a0000000000000000000000000000000000000000000000000000000008152600401610fda90613b98565b60405180910390fd5b6000600960003373ffffffffffffffffffffffffffffffffffffffff1673ffffffffffffffffffffffffffffffffffffffff16815260200190815260200160002060020160006101000a81548160ff02191690831515021790555061108a33600960003373ffffffffffffffffffffffffffffffffffffffff1673ffffffffffffffffffffffffffffffffffffffff168152602001908152602001600020600101546124b7565b565b60006110966124d5565b6002546001540303905090565b600f5481565b60006110b4826124da565b90508373ffffffffffffffffffffffffffffffffffffffff168173ffffffffffffffffffffffffffffffffffffffff161461111b576040517fa114810000000000000000000000000000000000000000000000000000000000815260040160405180910390fd5b600080611127846125a6565b9150915061113d81876111386124af565b6125cd565b611189576111528661114d6124af565b61226e565b611188576040517f59c896be00000000000000000000000000000000000000000000000000000000815260040160405180910390fd5b5b600073ffffffffffffffffffffffffffffffffffffffff168573ffffffffffffffffffffffffffffffffffffffff16036111ef576040517fea553b3400000000000000000000000000000000000000000000000000000000815260040160405180910390fd5b6111fc8686866001612611565b801561120757600082555b600660008773ffffffffffffffffffffffffffffffffffffffff1673ffffffffffffffffffffffffffffffffffffffff168152602001908152602001600020600081546001900391905081905550600660008673ffffffffffffffffffffffffffffffffffffffff1673ffffffffffffffffffffffffffffffffffffffff16815260200190815260200160002060008154600101919050819055506112d5856112b1888887612617565b7c02000000000000000000000000000000000000000000000000000000001761263f565b600560008681526020019081526020016000208190555060007c020000000000000000000000000000000000000000000000000000000084160361135b5760006001850190506000600560008381526020019081526020016000205403611359576001548114611358578360056000838152602001908152602001600020819055505b5b505b838573ffffffffffffffffffffffffffffffffffffffff168773ffffffffffffffffffffffffffffffffffffffff167fddf252ad1be2c89b69c2b068fc378daa952ba7f163c4a11628f55a4df523b3ef60405160405180910390a46113c3868686600161266a565b505050505050565b6113d36123d2565b80600c90816113e29190613d5a565b5050565b60115481565b6113f46123d2565b8060118190555050565b3373ffffffffffffffffffffffffffffffffffffffff163273ffffffffffffffffffffffffffffffffffffffff161461146c576040517f08c379a0000000000000000000000000000000000000000000000000000000008152600401611463906138ad565b60405180910390fd5b600f544210156114b1576040517f08c379a00000000000000000000000000000000000000000000000000000000081526004016114a890613e9e565b60405180910390fd5b60105442106114f5576040517f08c379a00000000000000000000000000000000000000000000000000000000081526004016114ec90613f0a565b60405180910390fd5b6001600481111561150957611508613705565b5b600d60009054906101000a900460ff16600481111561152b5761152a613705565b5b1461156b576040517f08c379a000000000000000000000000000000000000000000000000000000000815260040161156290613f76565b60405180910390fd5b61157933600e548484612670565b6115b8576040517f08c379a00000000000000000000000000000000000000000000000000000000081526004016115af90613fe2565b60405180910390fd5b600180601260003373ffffffffffffffffffffffffffffffffffffffff1673ffffffffffffffffffffffffffffffffffffffff168152602001908152602001600020546116059190613b18565b1115611646576040517f08c379a000000000000000000000000000000000000000000000000000000000815260040161163d90614074565b60405180910390fd5b601460716116549190613b18565b600161165e61108c565b6116689190613b18565b11156116a9576040517f08c379a00000000000000000000000000000000000000000000000000000000081526004016116a090613b98565b60405180910390fd5b6001601260003373ffffffffffffffffffffffffffffffffffffffff1673ffffffffffffffffffffffffffffffffffffffff16815260200190815260200160002060008282546116f99190613b18565b9250508190555061170b3360016124b7565b5050565b6117176123d2565b8060108190555050565b61173c83838360405180602001604052806000815250612036565b505050565b6117496123d2565b80600f8190555050565b600b60009054906101000a900460ff1681565b601360009054906101000a900473ffffffffffffffffffffffffffffffffffffffff1681565b6000611797826124da565b9050919050565b6117a66123d2565b80600e8190555050565b6117b86123d2565b8042106117fa576040517f08c379a00000000000000000000000000000000000000000000000000000000081526004016117f1906140e0565b60405180910390fd5b601360009054906101000a900473ffffffffffffffffffffffffffffffffffffffff1673ffffffffffffffffffffffffffffffffffffffff1663e433a5846040518163ffffffff1660e01b8152600401602060405180830381865afa158015611867573d6000803e3d6000fd5b505050506040513d601f19601f8201168201806040525081019061188b9190614115565b6118ca576040517f08c379a00000000000000000000000000000000000000000000000000000000081526004016118c19061418e565b60405180910390fd5b6000601360009054906101000a900473ffffffffffffffffffffffffffffffffffffffff1673ffffffffffffffffffffffffffffffffffffffff1663df15c37e6040518163ffffffff1660e01b8152600401600060405180830381865afa158015611939573d6000803e3d6000fd5b505050506040513d6000823e3d601f19601f820116820180604052508101906119629190614286565b51116119a3576040517f08c379a000000000000000000000000000000000000000000000000000000000815260040161199a90614341565b60405180910390fd5b806011819055506000601360009054906101000a900473ffffffffffffffffffffffffffffffffffffffff1673ffffffffffffffffffffffffffffffffffffffff166329c983ec6040518163ffffffff1660e01b8152600401600060405180830381865afa158015611a19573d6000803e3d6000fd5b505050506040513d6000823e3d601f19601f82011682018060405250810190611a4291906144de565b905060005b8151811015611bf957818181518110611a6357611a62614527565b5b6020026020010151608001518015611a9957506000828281518110611a8b57611a8a614527565b5b602002602001015160600151115b15611be65760006040518060600160405280848481518110611abe57611abd614527565b5b60200260200101516020015173ffffffffffffffffffffffffffffffffffffffff168152602001848481518110611af857611af7614527565b5b60200260200101516060015181526020016001151581525090508060096000858581518110611b2a57611b29614527565b5b60200260200101516020015173ffffffffffffffffffffffffffffffffffffffff1673ffffffffffffffffffffffffffffffffffffffff16815260200190815260200160002060008201518160000160006101000a81548173ffffffffffffffffffffffffffffffffffffffff021916908373ffffffffffffffffffffffffffffffffffffffff1602179055506020820151816001015560408201518160020160006101000a81548160ff021916908315150217905550905050505b8080611bf190614556565b915050611a47565b505050565b60105481565b600a8054611c1190613830565b80601f0160208091040260200160405190810160405280929190818152602001828054611c3d90613830565b8015611c8a5780601f10611c5f57610100808354040283529160200191611c8a565b820191906000526020600020905b815481529060010190602001808311611c6d57829003601f168201915b505050505081565b60008073ffffffffffffffffffffffffffffffffffffffff168273ffffffffffffffffffffffffffffffffffffffff1603611cf9576040517f8f4eb60400000000000000000000000000000000000000000000000000000000815260040160405180910390fd5b67ffffffffffffffff600660008473ffffffffffffffffffffffffffffffffffffffff1673ffffffffffffffffffffffffffffffffffffffff16815260200190815260200160002054169050919050565b611d526123d2565b611d5c60006126d0565b565b60008060009054906101000a900473ffffffffffffffffffffffffffffffffffffffff16905090565b60096020528060005260406000206000915090508060000160009054906101000a900473ffffffffffffffffffffffffffffffffffffffff16908060010154908060020160009054906101000a900460ff16905083565b606060048054611ded90613830565b80601f0160208091040260200160405190810160405280929190818152602001828054611e1990613830565b8015611e665780601f10611e3b57610100808354040283529160200191611e66565b820191906000526020600020905b815481529060010190602001808311611e4957829003601f168201915b5050505050905090565b60126020528060005260406000206000915090505481565b611e906123d2565b6001600b60006101000a81548160ff02191690831515021790555080600a9081611eba9190613d5a565b5050565b611ec66123d2565b61014d81611ed261108c565b611edc9190613b18565b1115611f1d576040517f08c379a0000000000000000000000000000000000000000000000000000000008152600401611f14906145ea565b60405180910390fd5b611f2782826124b7565b5050565b8060086000611f386124af565b73ffffffffffffffffffffffffffffffffffffffff1673ffffffffffffffffffffffffffffffffffffffff16815260200190815260200160002060008473ffffffffffffffffffffffffffffffffffffffff1673ffffffffffffffffffffffffffffffffffffffff16815260200190815260200160002060006101000a81548160ff0219169083151502179055508173ffffffffffffffffffffffffffffffffffffffff16611fe56124af565b73ffffffffffffffffffffffffffffffffffffffff167f17307eab39ab6107e8899845ad3d59bd9653f200f220920489ca2b5937696c318360405161202a9190612fc6565b60405180910390a35050565b6120418484846110a9565b60008373ffffffffffffffffffffffffffffffffffffffff163b146120a35761206c84848484612794565b6120a2576040517fd1a57ed600000000000000000000000000000000000000000000000000000000815260040160405180910390fd5b5b50505050565b60606120b482612450565b6120f3576040517f08c379a00000000000000000000000000000000000000000000000000000000081526004016120ea90614656565b60405180910390fd5b600b60009054906101000a900460ff161561213a57600a612113836128e4565b604051602001612124929190614781565b60405160208183030381529060405290506121c8565b600c805461214790613830565b80601f016020809104026020016040519081016040528092919081815260200182805461217390613830565b80156121c05780601f10612195576101008083540402835291602001916121c0565b820191906000526020600020905b8154815290600101906020018083116121a357829003601f168201915b505050505090505b919050565b600d60009054906101000a900460ff1681565b600c80546121ed90613830565b80601f016020809104026020016040519081016040528092919081815260200182805461221990613830565b80156122665780601f1061223b57610100808354040283529160200191612266565b820191906000526020600020905b81548152906001019060200180831161224957829003601f168201915b505050505081565b6000600860008473ffffffffffffffffffffffffffffffffffffffff1673ffffffffffffffffffffffffffffffffffffffff16815260200190815260200160002060008373ffffffffffffffffffffffffffffffffffffffff1673ffffffffffffffffffffffffffffffffffffffff16815260200190815260200160002060009054906101000a900460ff16905092915050565b61230a6123d2565b600073ffffffffffffffffffffffffffffffffffffffff168173ffffffffffffffffffffffffffffffffffffffff1603612379576040517f08c379a000000000000000000000000000000000000000000000000000000000815260040161237090614822565b60405180910390fd5b612382816126d0565b50565b600e5481565b6123936123d2565b8060048111156123a6576123a5613705565b5b600d60006101000a81548160ff021916908360048111156123ca576123c9613705565b5b021790555050565b6123da6129b2565b73ffffffffffffffffffffffffffffffffffffffff166123f8611d5e565b73ffffffffffffffffffffffffffffffffffffffff161461244e576040517f08c379a00000000000000000000000000000000000000000000000000000000081526004016124459061488e565b60405180910390fd5b565b60008161245b6124d5565b1115801561246a575060015482105b80156124a8575060007c0100000000000000000000000000000000000000000000000000000000600560008581526020019081526020016000205416145b9050919050565b600033905090565b6124d18282604051806020016040528060008152506129ba565b5050565b600090565b600080829050806124e96124d5565b1161256f5760015481101561256e5760006005600083815260200190815260200160002054905060007c010000000000000000000000000000000000000000000000000000000082160361256c575b60008103612562576005600083600190039350838152602001908152602001600020549050612538565b80925050506125a1565b505b5b6040517fdf2d9b4200000000000000000000000000000000000000000000000000000000815260040160405180910390fd5b919050565b60008060006007600085815260200190815260200160002090508092508254915050915091565b600073ffffffffffffffffffffffffffffffffffffffff8316925073ffffffffffffffffffffffffffffffffffffffff821691508382148383141790509392505050565b50505050565b60008060e883901c905060e861262e868684612a58565b62ffffff16901b9150509392505050565b600073ffffffffffffffffffffffffffffffffffffffff83169250814260a01b178317905092915050565b50505050565b60006126c661267e86612a61565b85858580806020026020016040519081016040528093929190818152602001838360200280828437600081840152601f19601f82011690508083019250505050505050612a91565b9050949350505050565b60008060009054906101000a900473ffffffffffffffffffffffffffffffffffffffff169050816000806101000a81548173ffffffffffffffffffffffffffffffffffffffff021916908373ffffffffffffffffffffffffffffffffffffffff1602179055508173ffffffffffffffffffffffffffffffffffffffff168173ffffffffffffffffffffffffffffffffffffffff167f8be0079c531659141344cd1fd0a4f28419497f9722a3daafe3b4186f6b6457e060405160405180910390a35050565b60008373ffffffffffffffffffffffffffffffffffffffff1663150b7a026127ba6124af565b8786866040518563ffffffff1660e01b81526004016127dc9493929190614903565b6020604051808303816000875af192505050801561281857506040513d601f19601f820116820180604052508101906128159190614964565b60015b612891573d8060008114612848576040519150601f19603f3d011682016040523d82523d6000602084013e61284d565b606091505b506000815103612889576040517fd1a57ed600000000000000000000000000000000000000000000000000000000815260040160405180910390fd5b805181602001fd5b63150b7a0260e01b7bffffffffffffffffffffffffffffffffffffffffffffffffffffffff1916817bffffffffffffffffffffffffffffffffffffffffffffffffffffffff191614915050949350505050565b6060600060016128f384612aa7565b01905060008167ffffffffffffffff81111561291257612911613213565b5b6040519080825280601f01601f1916602001820160405280156129445781602001600182028036833780820191505090505b509050600082602001820190505b6001156129a7578080600190039150507f3031323334353637383961626364656600000000000000000000000000000000600a86061a8153600a858161299b5761299a614991565b5b04945060008503612952575b819350505050919050565b600033905090565b6129c48383612bfa565b60008373ffffffffffffffffffffffffffffffffffffffff163b14612a535760006001549050600083820390505b612a056000868380600101945086612794565b612a3b576040517fd1a57ed600000000000000000000000000000000000000000000000000000000815260040160405180910390fd5b8181106129f2578160015414612a5057600080fd5b50505b505050565b60009392505050565b600081604051602001612a749190614a08565b604051602081830303815290604052805190602001209050919050565b6000612a9e828486612db6565b90509392505050565b600080600090507a184f03e93ff9f4daa797ed6e38ed64bf6a1f0100000000000000008310612b05577a184f03e93ff9f4daa797ed6e38ed64bf6a1f0100000000000000008381612afb57612afa614991565b5b0492506040810190505b6d04ee2d6d415b85acef81000000008310612b42576d04ee2d6d415b85acef81000000008381612b3857612b37614991565b5b0492506020810190505b662386f26fc100008310612b7157662386f26fc100008381612b6757612b66614991565b5b0492506010810190505b6305f5e1008310612b9a576305f5e1008381612b9057612b8f614991565b5b0492506008810190505b6127108310612bbf576127108381612bb557612bb4614991565b5b0492506004810190505b60648310612be25760648381612bd857612bd7614991565b5b0492506002810190505b600a8310612bf1576001810190505b80915050919050565b6000600154905060008203612c3b576040517fb562e8dd00000000000000000000000000000000000000000000000000000000815260040160405180910390fd5b612c486000848385612611565b600160406001901b178202600660008573ffffffffffffffffffffffffffffffffffffffff1673ffffffffffffffffffffffffffffffffffffffff16815260200190815260200160002060008282540192505081905550612cbf83612cb06000866000612617565b612cb985612dcd565b1761263f565b6005600083815260200190815260200160002081905550600080838301905073ffffffffffffffffffffffffffffffffffffffff85169150828260007fddf252ad1be2c89b69c2b068fc378daa952ba7f163c4a11628f55a4df523b3ef600080a4600183015b818114612d6057808360007fddf252ad1be2c89b69c2b068fc378daa952ba7f163c4a11628f55a4df523b3ef600080a4600181019050612d25565b5060008203612d9b576040517f2e07630000000000000000000000000000000000000000000000000000000000815260040160405180910390fd5b806001819055505050612db1600084838561266a565b505050565b600082612dc38584612ddd565b1490509392505050565b60006001821460e11b9050919050565b60008082905060005b8451811015612e2857612e1382868381518110612e0657612e05614527565b5b6020026020010151612e33565b91508080612e2090614556565b915050612de6565b508091505092915050565b6000818310612e4b57612e468284612e5e565b612e56565b612e558383612e5e565b5b905092915050565b600082600052816020526040600020905092915050565b6000604051905090565b600080fd5b600080fd5b600073ffffffffffffffffffffffffffffffffffffffff82169050919050565b6000612eb482612e89565b9050919050565b6000612ec682612ea9565b9050919050565b612ed681612ebb565b8114612ee157600080fd5b50565b600081359050612ef381612ecd565b92915050565b600060208284031215612f0f57612f0e612e7f565b5b6000612f1d84828501612ee4565b91505092915050565b60007fffffffff0000000000000000000000000000000000000000000000000000000082169050919050565b612f5b81612f26565b8114612f6657600080fd5b50565b600081359050612f7881612f52565b92915050565b600060208284031215612f9457612f93612e7f565b5b6000612fa284828501612f69565b91505092915050565b60008115159050919050565b612fc081612fab565b82525050565b6000602082019050612fdb6000830184612fb7565b92915050565b600081519050919050565b600082825260208201905092915050565b60005b8381101561301b578082015181840152602081019050613000565b60008484015250505050565b6000601f19601f8301169050919050565b600061304382612fe1565b61304d8185612fec565b935061305d818560208601612ffd565b61306681613027565b840191505092915050565b6000602082019050818103600083015261308b8184613038565b905092915050565b6000819050919050565b6130a681613093565b81146130b157600080fd5b50565b6000813590506130c38161309d565b92915050565b6000602082840312156130df576130de612e7f565b5b60006130ed848285016130b4565b91505092915050565b6130ff81612ea9565b82525050565b600060208201905061311a60008301846130f6565b92915050565b61312981612ea9565b811461313457600080fd5b50565b60008135905061314681613120565b92915050565b6000806040838503121561316357613162612e7f565b5b600061317185828601613137565b9250506020613182858286016130b4565b9150509250929050565b61319581613093565b82525050565b60006020820190506131b0600083018461318c565b92915050565b6000806000606084860312156131cf576131ce612e7f565b5b60006131dd86828701613137565b93505060206131ee86828701613137565b92505060406131ff868287016130b4565b9150509250925092565b600080fd5b600080fd5b7f4e487b7100000000000000000000000000000000000000000000000000000000600052604160045260246000fd5b61324b82613027565b810181811067ffffffffffffffff8211171561326a57613269613213565b5b80604052505050565b600061327d612e75565b90506132898282613242565b919050565b600067ffffffffffffffff8211156132a9576132a8613213565b5b6132b282613027565b9050602081019050919050565b82818337600083830152505050565b60006132e16132dc8461328e565b613273565b9050828152602081018484840111156132fd576132fc61320e565b5b6133088482856132bf565b509392505050565b600082601f83011261332557613324613209565b5b81356133358482602086016132ce565b91505092915050565b60006020828403121561335457613353612e7f565b5b600082013567ffffffffffffffff81111561337257613371612e84565b5b61337e84828501613310565b91505092915050565b600080fd5b600080fd5b60008083601f8401126133a7576133a6613209565b5b8235905067ffffffffffffffff8111156133c4576133c3613387565b5b6020830191508360208202830111156133e0576133df61338c565b5b9250929050565b600080602083850312156133fe576133fd612e7f565b5b600083013567ffffffffffffffff81111561341c5761341b612e84565b5b61342885828601613391565b92509250509250929050565b6000819050919050565b600061345961345461344f84612e89565b613434565b612e89565b9050919050565b600061346b8261343e565b9050919050565b600061347d82613460565b9050919050565b61348d81613472565b82525050565b60006020820190506134a86000830184613484565b92915050565b6000819050919050565b6134c1816134ae565b81146134cc57600080fd5b50565b6000813590506134de816134b8565b92915050565b6000602082840312156134fa576134f9612e7f565b5b6000613508848285016134cf565b91505092915050565b60006020828403121561352757613526612e7f565b5b600061353584828501613137565b91505092915050565b600060608201905061355360008301866130f6565b613560602083018561318c565b61356d6040830184612fb7565b949350505050565b61357e81612fab565b811461358957600080fd5b50565b60008135905061359b81613575565b92915050565b600080604083850312156135b8576135b7612e7f565b5b60006135c685828601613137565b92505060206135d78582860161358c565b9150509250929050565b600067ffffffffffffffff8211156135fc576135fb613213565b5b61360582613027565b9050602081019050919050565b6000613625613620846135e1565b613273565b9050828152602081018484840111156136415761364061320e565b5b61364c8482856132bf565b509392505050565b600082601f83011261366957613668613209565b5b8135613679848260208601613612565b91505092915050565b6000806000806080858703121561369c5761369b612e7f565b5b60006136aa87828801613137565b94505060206136bb87828801613137565b93505060406136cc878288016130b4565b925050606085013567ffffffffffffffff8111156136ed576136ec612e84565b5b6136f987828801613654565b91505092959194509250565b7f4e487b7100000000000000000000000000000000000000000000000000000000600052602160045260246000fd5b6005811061374557613744613705565b5b50565b600081905061375682613734565b919050565b600061376682613748565b9050919050565b6137768161375b565b82525050565b6000602082019050613791600083018461376d565b92915050565b600080604083850312156137ae576137ad612e7f565b5b60006137bc85828601613137565b92505060206137cd85828601613137565b9150509250929050565b6137e0816134ae565b82525050565b60006020820190506137fb60008301846137d7565b92915050565b7f4e487b7100000000000000000000000000000000000000000000000000000000600052602260045260246000fd5b6000600282049050600182168061384857607f821691505b60208210810361385b5761385a613801565b5b50919050565b7f5468652063616c6c657220697320616e6f7468657220636f6e74726163740000600082015250565b6000613897601e83612fec565b91506138a282613861565b602082019050919050565b600060208201905081810360008301526138c68161388a565b9050919050565b7f5075626c69632073616c65206973206e6f742061637469766174656400000000600082015250565b6000613903601c83612fec565b915061390e826138cd565b602082019050919050565b60006020820190508181036000830152613932816138f6565b9050919050565b7f57696e6e6572204d696e742069732066696e6973680000000000000000000000600082015250565b600061396f601583612fec565b915061397a82613939565b602082019050919050565b6000602082019050818103600083015261399e81613962565b9050919050565b7f77696e6e6572206e6f7420657869737400000000000000000000000000000000600082015250565b60006139db601083612fec565b91506139e6826139a5565b602082019050919050565b60006020820190508181036000830152613a0a816139ce565b9050919050565b7f416c7265616479206d696e742000000000000000000000000000000000000000600082015250565b6000613a47600d83612fec565b9150613a5282613a11565b602082019050919050565b60006020820190508181036000830152613a7681613a3a565b9050919050565b7f4e6f7468696e6720746f206d696e740000000000000000000000000000000000600082015250565b6000613ab3600f83612fec565b9150613abe82613a7d565b602082019050919050565b60006020820190508181036000830152613ae281613aa6565b9050919050565b7f4e487b7100000000000000000000000000000000000000000000000000000000600052601160045260246000fd5b6000613b2382613093565b9150613b2e83613093565b9250828201905080821115613b4657613b45613ae9565b5b92915050565b7f4d617820737570706c7920657863656564656400000000000000000000000000600082015250565b6000613b82601383612fec565b9150613b8d82613b4c565b602082019050919050565b60006020820190508181036000830152613bb181613b75565b9050919050565b60008190508160005260206000209050919050565b60006020601f8301049050919050565b600082821b905092915050565b600060088302613c1a7fffffffffffffffffffffffffffffffffffffffffffffffffffffffffffffffff82613bdd565b613c248683613bdd565b95508019841693508086168417925050509392505050565b6000613c57613c52613c4d84613093565b613434565b613093565b9050919050565b6000819050919050565b613c7183613c3c565b613c85613c7d82613c5e565b848454613bea565b825550505050565b600090565b613c9a613c8d565b613ca5818484613c68565b505050565b5b81811015613cc957613cbe600082613c92565b600181019050613cab565b5050565b601f821115613d0e57613cdf81613bb8565b613ce884613bcd565b81016020851015613cf7578190505b613d0b613d0385613bcd565b830182613caa565b50505b505050565b600082821c905092915050565b6000613d3160001984600802613d13565b1980831691505092915050565b6000613d4a8383613d20565b9150826002028217905092915050565b613d6382612fe1565b67ffffffffffffffff811115613d7c57613d7b613213565b5b613d868254613830565b613d91828285613ccd565b600060209050601f831160018114613dc45760008415613db2578287015190505b613dbc8582613d3e565b865550613e24565b601f198416613dd286613bb8565b60005b82811015613dfa57848901518255600182019150602085019450602081019050613dd5565b86831015613e175784890151613e13601f891682613d20565b8355505b6001600288020188555050505b505050505050565b7f57686974656c6973742053616c6520686173206e6f742073746172746564207960008201527f6574000000000000000000000000000000000000000000000000000000000000602082015250565b6000613e88602283612fec565b9150613e9382613e2c565b604082019050919050565b60006020820190508181036000830152613eb781613e7b565b9050919050565b7f4775617272616e7465642053616c652069732066696e69736800000000000000600082015250565b6000613ef4601983612fec565b9150613eff82613ebe565b602082019050919050565b60006020820190508181036000830152613f2381613ee7565b9050919050565b7f57686974656c6973742073616c65206973206e6f742061637469766174656400600082015250565b6000613f60601f83612fec565b9150613f6b82613f2a565b602082019050919050565b60006020820190508181036000830152613f8f81613f53565b9050919050565b7f4e6f742067756172616e74656564206d696e7400000000000000000000000000600082015250565b6000613fcc601383612fec565b9150613fd782613f96565b602082019050919050565b60006020820190508181036000830152613ffb81613fbf565b9050919050565b7f596f752063616e206f6e6c79206765742031204e4654206f6e2074686520477560008201527f6172656e746565642053616c6500000000000000000000000000000000000000602082015250565b600061405e602d83612fec565b915061406982614002565b604082019050919050565b6000602082019050818103600083015261408d81614051565b9050919050565b7f696e76616c696420656e6454696d6557696e6e65724d696e7400000000000000600082015250565b60006140ca601983612fec565b91506140d582614094565b602082019050919050565b600060208201905081810360008301526140f9816140bd565b9050919050565b60008151905061410f81613575565b92915050565b60006020828403121561412b5761412a612e7f565b5b600061413984828501614100565b91505092915050565b7f526166666c6520616c7265616479206f70656e00000000000000000000000000600082015250565b6000614178601383612fec565b915061418382614142565b602082019050919050565b600060208201905081810360008301526141a78161416b565b9050919050565b600067ffffffffffffffff8211156141c9576141c8613213565b5b602082029050602081019050919050565b6000815190506141e981613120565b92915050565b60006142026141fd846141ae565b613273565b905080838252602082019050602084028301858111156142255761422461338c565b5b835b8181101561424e578061423a88826141da565b845260208401935050602081019050614227565b5050509392505050565b600082601f83011261426d5761426c613209565b5b815161427d8482602086016141ef565b91505092915050565b60006020828403121561429c5761429b612e7f565b5b600082015167ffffffffffffffff8111156142ba576142b9612e84565b5b6142c684828501614258565b91505092915050565b7f57696e6e657273206e6f742073657420696e20726166666c6520636f6e74726160008201527f6374000000000000000000000000000000000000000000000000000000000000602082015250565b600061432b602283612fec565b9150614336826142cf565b604082019050919050565b6000602082019050818103600083015261435a8161431e565b9050919050565b600067ffffffffffffffff82111561437c5761437b613213565b5b602082029050602081019050919050565b600080fd5b6000815190506143a18161309d565b92915050565b600060c082840312156143bd576143bc61438d565b5b6143c760c0613273565b905060006143d784828501614392565b60008301525060206143eb848285016141da565b60208301525060406143ff84828501614392565b604083015250606061441384828501614392565b606083015250608061442784828501614100565b60808301525060a061443b84828501614100565b60a08301525092915050565b600061445a61445584614361565b613273565b90508083825260208201905060c0840283018581111561447d5761447c61338c565b5b835b818110156144a6578061449288826143a7565b84526020840193505060c08101905061447f565b5050509392505050565b600082601f8301126144c5576144c4613209565b5b81516144d5848260208601614447565b91505092915050565b6000602082840312156144f4576144f3612e7f565b5b600082015167ffffffffffffffff81111561451257614511612e84565b5b61451e848285016144b0565b91505092915050565b7f4e487b7100000000000000000000000000000000000000000000000000000000600052603260045260246000fd5b600061456182613093565b91507fffffffffffffffffffffffffffffffffffffffffffffffffffffffffffffffff820361459357614592613ae9565b5b600182019050919050565b7f5265616368656420746f74616c20737570706c79000000000000000000000000600082015250565b60006145d4601483612fec565b91506145df8261459e565b602082019050919050565b60006020820190508181036000830152614603816145c7565b9050919050565b7f55524920717565727920666f72206e6f6e6578697374656e7420746f6b656e00600082015250565b6000614640601f83612fec565b915061464b8261460a565b602082019050919050565b6000602082019050818103600083015261466f81614633565b9050919050565b600081905092915050565b6000815461468e81613830565b6146988186614676565b945060018216600081146146b357600181146146c8576146fb565b60ff19831686528115158202860193506146fb565b6146d185613bb8565b60005b838110156146f3578154818901526001820191506020810190506146d4565b838801955050505b50505092915050565b600061470f82612fe1565b6147198185614676565b9350614729818560208601612ffd565b80840191505092915050565b7f2e6a736f6e000000000000000000000000000000000000000000000000000000600082015250565b600061476b600583614676565b915061477682614735565b600582019050919050565b600061478d8285614681565b91506147998284614704565b91506147a48261475e565b91508190509392505050565b7f4f776e61626c653a206e6577206f776e657220697320746865207a65726f206160008201527f6464726573730000000000000000000000000000000000000000000000000000602082015250565b600061480c602683612fec565b9150614817826147b0565b604082019050919050565b6000602082019050818103600083015261483b816147ff565b9050919050565b7f4f776e61626c653a2063616c6c6572206973206e6f7420746865206f776e6572600082015250565b6000614878602083612fec565b915061488382614842565b602082019050919050565b600060208201905081810360008301526148a78161486b565b9050919050565b600081519050919050565b600082825260208201905092915050565b60006148d5826148ae565b6148df81856148b9565b93506148ef818560208601612ffd565b6148f881613027565b840191505092915050565b600060808201905061491860008301876130f6565b61492560208301866130f6565b614932604083018561318c565b818103606083015261494481846148ca565b905095945050505050565b60008151905061495e81612f52565b92915050565b60006020828403121561497a57614979612e7f565b5b60006149888482850161494f565b91505092915050565b7f4e487b7100000000000000000000000000000000000000000000000000000000600052601260045260246000fd5b60008160601b9050919050565b60006149d8826149c0565b9050919050565b60006149ea826149cd565b9050919050565b614a026149fd82612ea9565b6149df565b82525050565b6000614a1482846149f1565b6014820191508190509291505056fea2646970667358221220b41b3642833a7f069c297749b3765de35faab7b56d25b8ef3d4e9c946d8f652464736f6c63430008120033",
    "linkReferences": {},
    "deployedLinkReferences": {}
}